{
  "contractName": "Booking",
  "abi": [
    {
      "inputs": [],
      "stateMutability": "nonpayable",
      "type": "constructor"
    },
    {
      "anonymous": false,
      "inputs": [
        {
          "indexed": true,
          "internalType": "address",
          "name": "tenant",
          "type": "address"
        },
        {
          "indexed": true,
          "internalType": "uint256",
          "name": "roomId",
          "type": "uint256"
        },
        {
          "indexed": true,
          "internalType": "uint256",
          "name": "date",
          "type": "uint256"
        }
      ],
      "name": "CheckoutSuccessfull",
      "type": "event"
    },
    {
      "anonymous": false,
      "inputs": [
        {
          "indexed": true,
          "internalType": "address",
          "name": "causer",
          "type": "address"
        },
        {
          "indexed": false,
          "internalType": "uint256",
          "name": "date",
          "type": "uint256"
        },
        {
          "indexed": true,
          "internalType": "enum Hotel.HOTEL_CATEGORY",
          "name": "newCategory",
          "type": "uint8"
        }
      ],
      "name": "HotelCategoryChanged",
      "type": "event"
    },
    {
      "anonymous": false,
      "inputs": [
        {
          "indexed": false,
          "internalType": "uint256",
          "name": "date",
          "type": "uint256"
        },
        {
          "indexed": true,
          "internalType": "address",
          "name": "causer",
          "type": "address"
        },
        {
          "indexed": true,
          "internalType": "uint256",
          "name": "id",
          "type": "uint256"
        }
      ],
      "name": "HotelCreated",
      "type": "event"
    },
    {
      "anonymous": false,
      "inputs": [
        {
          "indexed": true,
          "internalType": "address",
          "name": "user",
          "type": "address"
        },
        {
          "indexed": true,
          "internalType": "uint256",
          "name": "date",
          "type": "uint256"
        },
        {
          "indexed": true,
          "internalType": "uint256",
          "name": "fee",
          "type": "uint256"
        }
      ],
      "name": "HotelListingFeeChanged",
      "type": "event"
    },
    {
      "anonymous": false,
      "inputs": [
        {
          "indexed": true,
          "internalType": "address",
          "name": "causer",
          "type": "address"
        },
        {
          "indexed": true,
          "internalType": "address",
          "name": "newOwner",
          "type": "address"
        },
        {
          "indexed": false,
          "internalType": "uint256",
          "name": "date",
          "type": "uint256"
        }
      ],
      "name": "HotelOwnerChanged",
      "type": "event"
    },
    {
      "anonymous": false,
      "inputs": [
        {
          "indexed": true,
          "internalType": "address",
          "name": "user",
          "type": "address"
        },
        {
          "indexed": false,
          "internalType": "uint256",
          "name": "date",
          "type": "uint256"
        },
        {
          "indexed": false,
          "internalType": "uint256",
          "name": "id",
          "type": "uint256"
        }
      ],
      "name": "NewRoomCreated",
      "type": "event"
    },
    {
      "anonymous": false,
      "inputs": [
        {
          "indexed": true,
          "internalType": "address",
          "name": "previousOwner",
          "type": "address"
        },
        {
          "indexed": true,
          "internalType": "address",
          "name": "newOwner",
          "type": "address"
        }
      ],
      "name": "OwnershipTransferred",
      "type": "event"
    },
    {
      "anonymous": false,
      "inputs": [
        {
          "indexed": false,
          "internalType": "uint256",
          "name": "date",
          "type": "uint256"
        },
        {
          "indexed": true,
          "internalType": "address",
          "name": "tenant",
          "type": "address"
        },
        {
          "indexed": true,
          "internalType": "uint256",
          "name": "amountPaid",
          "type": "uint256"
        },
        {
          "indexed": true,
          "internalType": "uint256",
          "name": "roomId",
          "type": "uint256"
        }
      ],
      "name": "RoomBooked",
      "type": "event"
    },
    {
      "anonymous": false,
      "inputs": [
        {
          "indexed": true,
          "internalType": "address",
          "name": "user",
          "type": "address"
        },
        {
          "indexed": false,
          "internalType": "uint256",
          "name": "price",
          "type": "uint256"
        },
        {
          "indexed": true,
          "internalType": "uint256",
          "name": "date",
          "type": "uint256"
        }
      ],
      "name": "RoomNightPriceSet",
      "type": "event"
    },
    {
      "inputs": [
        {
          "internalType": "uint256",
          "name": "_numOfRooms",
          "type": "uint256"
        },
        {
          "internalType": "string",
          "name": "_name",
          "type": "string"
        },
        {
          "internalType": "string",
          "name": "_description",
          "type": "string"
        },
        {
          "internalType": "string",
          "name": "_location",
          "type": "string"
        },
        {
          "internalType": "string",
          "name": "_imageHash",
          "type": "string"
        }
      ],
      "name": "addHotel",
      "outputs": [],
      "stateMutability": "payable",
      "type": "function"
    },
    {
      "inputs": [
        {
          "internalType": "uint256",
          "name": "_hotelId",
          "type": "uint256"
        },
        {
          "internalType": "uint256",
          "name": "_totalBeds",
          "type": "uint256"
        },
        {
          "internalType": "uint256",
          "name": "_pricePerNight",
          "type": "uint256"
        },
        {
          "internalType": "uint256",
          "name": "_number",
          "type": "uint256"
        },
        {
          "internalType": "string",
          "name": "_name",
          "type": "string"
        },
        {
          "internalType": "string",
          "name": "_description",
          "type": "string"
        }
      ],
      "name": "addRoom",
      "outputs": [],
      "stateMutability": "nonpayable",
      "type": "function"
    },
    {
      "inputs": [
        {
          "internalType": "uint256",
          "name": "",
          "type": "uint256"
        }
      ],
      "name": "bookings",
      "outputs": [
        {
          "internalType": "uint256",
          "name": "roomId",
          "type": "uint256"
        },
        {
          "internalType": "uint256",
          "name": "bookingId",
          "type": "uint256"
        },
        {
          "internalType": "uint256",
          "name": "bookingDate",
          "type": "uint256"
        },
        {
          "internalType": "uint256",
          "name": "amountPaid",
          "type": "uint256"
        },
        {
          "internalType": "address payable",
          "name": "tenant",
          "type": "address"
        }
      ],
      "stateMutability": "view",
      "type": "function"
    },
    {
      "inputs": [
        {
          "internalType": "uint256",
          "name": "_hotelId",
          "type": "uint256"
        },
        {
          "internalType": "enum Hotel.HOTEL_CATEGORY",
          "name": "_category",
          "type": "uint8"
        }
      ],
      "name": "changeHotelCategory",
      "outputs": [],
      "stateMutability": "nonpayable",
      "type": "function"
    },
    {
      "inputs": [
        {
          "internalType": "address payable",
          "name": "_newOwner",
          "type": "address"
        },
        {
          "internalType": "uint256",
          "name": "_hotelId",
          "type": "uint256"
        }
      ],
      "name": "changeHotelOwner",
      "outputs": [],
      "stateMutability": "nonpayable",
      "type": "function"
    },
    {
      "inputs": [
        {
          "internalType": "uint256",
          "name": "",
          "type": "uint256"
        }
      ],
      "name": "existingHotelItemId",
      "outputs": [
        {
          "internalType": "bool",
          "name": "",
          "type": "bool"
        }
      ],
      "stateMutability": "view",
      "type": "function"
    },
    {
      "inputs": [
        {
          "internalType": "string",
          "name": "",
          "type": "string"
        }
      ],
      "name": "existingHotelItemName",
      "outputs": [
        {
          "internalType": "bool",
          "name": "",
          "type": "bool"
        }
      ],
      "stateMutability": "view",
      "type": "function"
    },
    {
      "inputs": [
        {
          "internalType": "uint256",
          "name": "",
          "type": "uint256"
        }
      ],
      "name": "existingRoomItem",
      "outputs": [
        {
          "internalType": "bool",
          "name": "",
          "type": "bool"
        }
      ],
      "stateMutability": "view",
      "type": "function"
    },
    {
      "inputs": [
        {
          "internalType": "string",
          "name": "",
          "type": "string"
        }
      ],
      "name": "existingRoomItemName",
      "outputs": [
        {
          "internalType": "bool",
          "name": "",
          "type": "bool"
        }
      ],
      "stateMutability": "view",
      "type": "function"
    },
    {
      "inputs": [
        {
          "internalType": "uint256",
          "name": "_hotelId",
          "type": "uint256"
        }
      ],
      "name": "getHotelBioData",
      "outputs": [
        {
          "internalType": "uint256",
          "name": "_id",
          "type": "uint256"
        },
        {
          "internalType": "uint256",
          "name": "_totalRooms",
          "type": "uint256"
        },
        {
          "internalType": "uint256",
          "name": "_date",
          "type": "uint256"
        },
        {
          "internalType": "string",
          "name": "_name",
          "type": "string"
        },
        {
          "internalType": "string",
          "name": "_description",
          "type": "string"
        },
        {
          "internalType": "string",
          "name": "_location",
          "type": "string"
        },
        {
          "internalType": "enum Hotel.HOTEL_CATEGORY",
          "name": "_category",
          "type": "uint8"
        },
        {
          "internalType": "string",
          "name": "_photo",
          "type": "string"
        }
      ],
      "stateMutability": "view",
      "type": "function"
    },
    {
      "inputs": [
        {
          "internalType": "uint256",
          "name": "_roomId",
          "type": "uint256"
        }
      ],
      "name": "getId",
      "outputs": [
        {
          "internalType": "uint256",
          "name": "",
          "type": "uint256"
        }
      ],
      "stateMutability": "view",
      "type": "function"
    },
    {
      "inputs": [
        {
          "internalType": "uint256",
          "name": "_roomId",
          "type": "uint256"
        }
      ],
      "name": "getName",
      "outputs": [
        {
          "internalType": "string",
          "name": "",
          "type": "string"
        }
      ],
      "stateMutability": "view",
      "type": "function"
    },
    {
      "inputs": [
        {
          "internalType": "uint256",
          "name": "_roomId",
          "type": "uint256"
        }
      ],
      "name": "getRoomBioData",
      "outputs": [
        {
          "internalType": "uint256",
          "name": "_id",
          "type": "uint256"
        },
        {
          "internalType": "uint256",
          "name": "_numOfBeds",
          "type": "uint256"
        },
        {
          "internalType": "uint256",
          "name": "_hotelId",
          "type": "uint256"
        },
        {
          "internalType": "uint256",
          "name": "_pricePerNight",
          "type": "uint256"
        },
        {
          "internalType": "uint256",
          "name": "_number",
          "type": "uint256"
        },
        {
          "internalType": "bool",
          "name": "_isBooked",
          "type": "bool"
        },
        {
          "internalType": "address",
          "name": "_user",
          "type": "address"
        },
        {
          "internalType": "string",
          "name": "_name",
          "type": "string"
        },
        {
          "internalType": "string",
          "name": "_description",
          "type": "string"
        }
      ],
      "stateMutability": "view",
      "type": "function"
    },
    {
      "inputs": [],
      "name": "hotelCategory",
      "outputs": [
        {
          "internalType": "enum Hotel.HOTEL_CATEGORY",
          "name": "",
          "type": "uint8"
        }
      ],
      "stateMutability": "view",
      "type": "function"
    },
    {
      "inputs": [
        {
          "internalType": "uint256",
          "name": "",
          "type": "uint256"
        }
      ],
      "name": "hotelItemId",
      "outputs": [
        {
          "internalType": "uint256",
          "name": "id",
          "type": "uint256"
        },
        {
          "internalType": "uint256",
          "name": "totalRooms",
          "type": "uint256"
        },
        {
          "internalType": "uint256",
          "name": "creationDate",
          "type": "uint256"
        },
        {
          "internalType": "string",
          "name": "name",
          "type": "string"
        },
        {
          "internalType": "enum Hotel.HOTEL_CATEGORY",
          "name": "hotelCategory",
          "type": "uint8"
        },
        {
          "internalType": "string",
          "name": "description",
          "type": "string"
        },
        {
          "internalType": "string",
          "name": "locationAddress",
          "type": "string"
        },
        {
          "internalType": "address payable",
          "name": "user",
          "type": "address"
        },
        {
          "internalType": "string",
          "name": "imageHash",
          "type": "string"
        }
      ],
      "stateMutability": "view",
      "type": "function"
    },
    {
      "inputs": [
        {
          "internalType": "uint256",
          "name": "",
          "type": "uint256"
        }
      ],
      "name": "hotelItems",
      "outputs": [
        {
          "internalType": "uint256",
          "name": "id",
          "type": "uint256"
        },
        {
          "internalType": "uint256",
          "name": "totalRooms",
          "type": "uint256"
        },
        {
          "internalType": "uint256",
          "name": "creationDate",
          "type": "uint256"
        },
        {
          "internalType": "string",
          "name": "name",
          "type": "string"
        },
        {
          "internalType": "enum Hotel.HOTEL_CATEGORY",
          "name": "hotelCategory",
          "type": "uint8"
        },
        {
          "internalType": "string",
          "name": "description",
          "type": "string"
        },
        {
          "internalType": "string",
          "name": "locationAddress",
          "type": "string"
        },
        {
          "internalType": "address payable",
          "name": "user",
          "type": "address"
        },
        {
          "internalType": "string",
          "name": "imageHash",
          "type": "string"
        }
      ],
      "stateMutability": "view",
      "type": "function"
    },
    {
      "inputs": [],
      "name": "hotelListingFee",
      "outputs": [
        {
          "internalType": "uint256",
          "name": "",
          "type": "uint256"
        }
      ],
      "stateMutability": "view",
      "type": "function"
    },
    {
      "inputs": [
        {
          "internalType": "address",
          "name": "",
          "type": "address"
        }
      ],
      "name": "hotelOwner",
      "outputs": [
        {
          "internalType": "uint256",
          "name": "id",
          "type": "uint256"
        },
        {
          "internalType": "uint256",
          "name": "totalRooms",
          "type": "uint256"
        },
        {
          "internalType": "uint256",
          "name": "creationDate",
          "type": "uint256"
        },
        {
          "internalType": "string",
          "name": "name",
          "type": "string"
        },
        {
          "internalType": "enum Hotel.HOTEL_CATEGORY",
          "name": "hotelCategory",
          "type": "uint8"
        },
        {
          "internalType": "string",
          "name": "description",
          "type": "string"
        },
        {
          "internalType": "string",
          "name": "locationAddress",
          "type": "string"
        },
        {
          "internalType": "address payable",
          "name": "user",
          "type": "address"
        },
        {
          "internalType": "string",
          "name": "imageHash",
          "type": "string"
        }
      ],
      "stateMutability": "view",
      "type": "function"
    },
    {
      "inputs": [],
      "name": "listAllHotels",
      "outputs": [
        {
          "components": [
            {
              "internalType": "uint256",
              "name": "id",
              "type": "uint256"
            },
            {
              "internalType": "uint256",
              "name": "totalRooms",
              "type": "uint256"
            },
            {
              "internalType": "uint256",
              "name": "creationDate",
              "type": "uint256"
            },
            {
              "internalType": "string",
              "name": "name",
              "type": "string"
            },
            {
              "internalType": "enum Hotel.HOTEL_CATEGORY",
              "name": "hotelCategory",
              "type": "uint8"
            },
            {
              "internalType": "string",
              "name": "description",
              "type": "string"
            },
            {
              "internalType": "string",
              "name": "locationAddress",
              "type": "string"
            },
            {
              "internalType": "address payable",
              "name": "user",
              "type": "address"
            },
            {
              "internalType": "string",
              "name": "imageHash",
              "type": "string"
            }
          ],
          "internalType": "struct Hotel.HotelItem[]",
          "name": "",
          "type": "tuple[]"
        }
      ],
      "stateMutability": "view",
      "type": "function"
    },
    {
      "inputs": [],
      "name": "listRooms",
      "outputs": [
        {
          "components": [
            {
              "internalType": "uint256",
              "name": "id",
              "type": "uint256"
            },
            {
              "internalType": "uint256",
              "name": "totalBeds",
              "type": "uint256"
            },
            {
              "internalType": "uint256",
              "name": "hotelId",
              "type": "uint256"
            },
            {
              "internalType": "uint256",
              "name": "pricePerNight",
              "type": "uint256"
            },
            {
              "internalType": "uint256",
              "name": "number",
              "type": "uint256"
            },
            {
              "internalType": "bool",
              "name": "isBooked",
              "type": "bool"
            },
            {
              "internalType": "address payable",
              "name": "user",
              "type": "address"
            },
            {
              "internalType": "string",
              "name": "name",
              "type": "string"
            },
            {
              "internalType": "string",
              "name": "description",
              "type": "string"
            }
          ],
          "internalType": "struct Room.RoomItem[]",
          "name": "",
          "type": "tuple[]"
        }
      ],
      "stateMutability": "view",
      "type": "function"
    },
    {
      "inputs": [],
      "name": "owner",
      "outputs": [
        {
          "internalType": "address",
          "name": "",
          "type": "address"
        }
      ],
      "stateMutability": "view",
      "type": "function"
    },
    {
      "inputs": [],
      "name": "renounceOwnership",
      "outputs": [],
      "stateMutability": "nonpayable",
      "type": "function"
    },
    {
      "inputs": [
        {
          "internalType": "uint256",
          "name": "",
          "type": "uint256"
        }
      ],
      "name": "roomItemId",
      "outputs": [
        {
          "internalType": "uint256",
          "name": "id",
          "type": "uint256"
        },
        {
          "internalType": "uint256",
          "name": "totalBeds",
          "type": "uint256"
        },
        {
          "internalType": "uint256",
          "name": "hotelId",
          "type": "uint256"
        },
        {
          "internalType": "uint256",
          "name": "pricePerNight",
          "type": "uint256"
        },
        {
          "internalType": "uint256",
          "name": "number",
          "type": "uint256"
        },
        {
          "internalType": "bool",
          "name": "isBooked",
          "type": "bool"
        },
        {
          "internalType": "address payable",
          "name": "user",
          "type": "address"
        },
        {
          "internalType": "string",
          "name": "name",
          "type": "string"
        },
        {
          "internalType": "string",
          "name": "description",
          "type": "string"
        }
      ],
      "stateMutability": "view",
      "type": "function"
    },
    {
      "inputs": [
        {
          "internalType": "address",
          "name": "",
          "type": "address"
        }
      ],
      "name": "roomOwner",
      "outputs": [
        {
          "internalType": "uint256",
          "name": "id",
          "type": "uint256"
        },
        {
          "internalType": "uint256",
          "name": "totalBeds",
          "type": "uint256"
        },
        {
          "internalType": "uint256",
          "name": "hotelId",
          "type": "uint256"
        },
        {
          "internalType": "uint256",
          "name": "pricePerNight",
          "type": "uint256"
        },
        {
          "internalType": "uint256",
          "name": "number",
          "type": "uint256"
        },
        {
          "internalType": "bool",
          "name": "isBooked",
          "type": "bool"
        },
        {
          "internalType": "address payable",
          "name": "user",
          "type": "address"
        },
        {
          "internalType": "string",
          "name": "name",
          "type": "string"
        },
        {
          "internalType": "string",
          "name": "description",
          "type": "string"
        }
      ],
      "stateMutability": "view",
      "type": "function"
    },
    {
      "inputs": [
        {
          "internalType": "uint256",
          "name": "",
          "type": "uint256"
        }
      ],
      "name": "roomTenant",
      "outputs": [
        {
          "internalType": "address",
          "name": "",
          "type": "address"
        }
      ],
      "stateMutability": "view",
      "type": "function"
    },
    {
      "inputs": [
        {
          "internalType": "uint256",
          "name": "",
          "type": "uint256"
        }
      ],
      "name": "rooms",
      "outputs": [
        {
          "internalType": "uint256",
          "name": "id",
          "type": "uint256"
        },
        {
          "internalType": "uint256",
          "name": "totalBeds",
          "type": "uint256"
        },
        {
          "internalType": "uint256",
          "name": "hotelId",
          "type": "uint256"
        },
        {
          "internalType": "uint256",
          "name": "pricePerNight",
          "type": "uint256"
        },
        {
          "internalType": "uint256",
          "name": "number",
          "type": "uint256"
        },
        {
          "internalType": "bool",
          "name": "isBooked",
          "type": "bool"
        },
        {
          "internalType": "address payable",
          "name": "user",
          "type": "address"
        },
        {
          "internalType": "string",
          "name": "name",
          "type": "string"
        },
        {
          "internalType": "string",
          "name": "description",
          "type": "string"
        }
      ],
      "stateMutability": "view",
      "type": "function"
    },
    {
      "inputs": [
        {
          "internalType": "uint256",
          "name": "_fee",
          "type": "uint256"
        }
      ],
      "name": "setListingFee",
      "outputs": [],
      "stateMutability": "nonpayable",
      "type": "function"
    },
    {
      "inputs": [
        {
          "internalType": "uint256",
          "name": "_roomId",
          "type": "uint256"
        },
        {
          "internalType": "uint256",
          "name": "_price",
          "type": "uint256"
        }
      ],
      "name": "setNightPrice",
      "outputs": [],
      "stateMutability": "nonpayable",
      "type": "function"
    },
    {
      "inputs": [],
      "name": "totalBookings",
      "outputs": [
        {
          "internalType": "uint256",
          "name": "",
          "type": "uint256"
        }
      ],
      "stateMutability": "view",
      "type": "function"
    },
    {
      "inputs": [],
      "name": "totalHotels",
      "outputs": [
        {
          "internalType": "uint256",
          "name": "",
          "type": "uint256"
        }
      ],
      "stateMutability": "view",
      "type": "function"
    },
    {
      "inputs": [],
      "name": "totalRooms",
      "outputs": [
        {
          "internalType": "uint256",
          "name": "",
          "type": "uint256"
        }
      ],
      "stateMutability": "view",
      "type": "function"
    },
    {
      "inputs": [
        {
          "internalType": "address",
          "name": "newOwner",
          "type": "address"
        }
      ],
      "name": "transferOwnership",
      "outputs": [],
      "stateMutability": "nonpayable",
      "type": "function"
    },
    {
      "inputs": [
        {
          "internalType": "uint256",
          "name": "_roomId",
          "type": "uint256"
        },
        {
          "internalType": "uint256",
          "name": "_numOfNights",
          "type": "uint256"
        }
      ],
      "name": "bookRoom",
      "outputs": [],
      "stateMutability": "payable",
      "type": "function"
    },
    {
      "inputs": [
        {
          "internalType": "uint256",
          "name": "_roomId",
          "type": "uint256"
        }
      ],
      "name": "checkOut",
      "outputs": [],
      "stateMutability": "payable",
      "type": "function"
    }
  ],
  "bytecode": "0x60806040526000600255660187152d40e0006003556000600b5560006014553480156200002b57600080fd5b506200004c620000406200005960201b60201c565b6200006160201b60201c565b6001808190555062000125565b600033905090565b60008060009054906101000a900473ffffffffffffffffffffffffffffffffffffffff169050816000806101000a81548173ffffffffffffffffffffffffffffffffffffffff021916908373ffffffffffffffffffffffffffffffffffffffff1602179055508173ffffffffffffffffffffffffffffffffffffffff168173ffffffffffffffffffffffffffffffffffffffff167f8be0079c531659141344cd1fd0a4f28419497f9722a3daafe3b4186f6b6457e060405160405180910390a35050565b61651280620001356000396000f3fe6080604052600436106101f95760003560e01c806374dbda051161010d578063af5537fa116100a0578063c5a56e821161006f578063c5a56e82146107da578063c89e496314610803578063cecd7e7a14610848578063cee9e07814610864578063f2fde38b146108a1576101f9565b8063af5537fa14610730578063b2afef821461075b578063bbc02ce214610784578063c210c532146107af576101f9565b806391aa8489116100dc57806391aa8489146106505780639524a38e1461067b578063958aa59b146106c05780639668ce3e14610705576101f9565b806374dbda051461058f57806380865877146105cc5780638a3a1a18146106095780638da5cb5b14610625576101f9565b806330776497116101905780634ee9a94d1161015f5780634ee9a94d14610490578063545a153a146104d55780636b8ff5741461051257806370f3bfd81461054f578063715018a614610578576101f9565b806330776497146103a05780633716236e146103e5578063387329f91461042a5780634dce717e14610453576101f9565b8063131dbd09116101cc578063131dbd09146102d55780631bae0ac8146102fe5780631bd2eeee146103435780631dab301e1461035f576101f9565b80630aaecc35146101fe5780630af272f71461023b5780630fa0200d1461027f57806310f70192146102aa575b600080fd5b34801561020a57600080fd5b50610225600480360381019061022091906147c2565b6108ca565b6040516102329190614826565b60405180910390f35b34801561024757600080fd5b50610262600480360381019061025d9190614877565b610900565b6040516102769897969594939291906149b2565b60405180910390f35b34801561028b57600080fd5b50610294610bff565b6040516102a19190614a4c565b60405180910390f35b3480156102b657600080fd5b506102bf610c12565b6040516102cc9190614c9e565b60405180910390f35b3480156102e157600080fd5b506102fc60048036038101906102f79190614877565b610e39565b005b34801561030a57600080fd5b5061032560048036038101906103209190614877565b610f48565b60405161033a99989796959493929190614ccf565b60405180910390f35b61035d60048036038101906103589190614877565b6110e3565b005b34801561036b57600080fd5b5061038660048036038101906103819190614877565b6112b6565b604051610397959493929190614d6a565b60405180910390f35b3480156103ac57600080fd5b506103c760048036038101906103c29190614877565b61131c565b6040516103dc99989796959493929190614ccf565b60405180910390f35b3480156103f157600080fd5b5061040c60048036038101906104079190614dfb565b6114a7565b60405161042199989796959493929190614e28565b60405180910390f35b34801561043657600080fd5b50610451600480360381019061044c9190614efd565b611742565b005b34801561045f57600080fd5b5061047a600480360381019061047591906147c2565b6119ee565b6040516104879190614826565b60405180910390f35b34801561049c57600080fd5b506104b760048036038101906104b29190614dfb565b611a24565b6040516104cc99989796959493929190614ccf565b60405180910390f35b3480156104e157600080fd5b506104fc60048036038101906104f79190614877565b611baf565b6040516105099190614f3d565b60405180910390f35b34801561051e57600080fd5b5061053960048036038101906105349190614877565b611bcf565b6040516105469190614f58565b60405180910390f35b34801561055b57600080fd5b5061057660048036038101906105719190614f9f565b611c77565b005b34801561058457600080fd5b5061058d611eab565b005b34801561059b57600080fd5b506105b660048036038101906105b19190614877565b611f33565b6040516105c39190614826565b60405180910390f35b3480156105d857600080fd5b506105f360048036038101906105ee9190614877565b611f53565b6040516106009190614fee565b60405180910390f35b610623600480360381019061061e9190615009565b611f86565b005b34801561063157600080fd5b5061063a612361565b6040516106479190614fee565b60405180910390f35b34801561065c57600080fd5b5061066561238a565b6040516106729190614f3d565b60405180910390f35b34801561068757600080fd5b506106a2600480360381019061069d9190614877565b612390565b6040516106b799989796959493929190614e28565b60405180910390f35b3480156106cc57600080fd5b506106e760048036038101906106e29190614877565b61262b565b6040516106fc99989796959493929190615049565b60405180910390f35b34801561071157600080fd5b5061071a612843565b6040516107279190614f3d565b60405180910390f35b34801561073c57600080fd5b50610745612849565b6040516107529190614f3d565b60405180910390f35b34801561076757600080fd5b50610782600480360381019061077d91906150e4565b61284f565b005b34801561079057600080fd5b506107996130c7565b6040516107a69190614f3d565b60405180910390f35b3480156107bb57600080fd5b506107c46130cd565b6040516107d19190615354565b60405180910390f35b3480156107e657600080fd5b5061080160048036038101906107fc9190615009565b613424565b005b34801561080f57600080fd5b5061082a60048036038101906108259190614877565b61357c565b60405161083f99989796959493929190614e28565b60405180910390f35b610862600480360381019061085d9190615376565b613827565b005b34801561087057600080fd5b5061088b60048036038101906108869190614877565b61405c565b6040516108989190614826565b60405180910390f35b3480156108ad57600080fd5b506108c860048036038101906108c39190614dfb565b61407c565b005b6012818051602081018201805184825260208301602085012081835280955050505050506000915054906101000a900460ff1681565b600080600060608060606000606088600115156009600083815260200190815260200160002060009054906101000a900460ff16151514610976576040517f08c379a000000000000000000000000000000000000000000000000000000000815260040161096d906154ad565b60405180910390fd5b6000600760008c815260200190815260200160002090508060000154995080600101549850806002015497508060030180546109b1906154fc565b80601f01602080910402602001604051908101604052809291908181526020018280546109dd906154fc565b8015610a2a5780601f106109ff57610100808354040283529160200191610a2a565b820191906000526020600020905b815481529060010190602001808311610a0d57829003601f168201915b50505050509650806005018054610a40906154fc565b80601f0160208091040260200160405190810160405280929190818152602001828054610a6c906154fc565b8015610ab95780601f10610a8e57610100808354040283529160200191610ab9565b820191906000526020600020905b815481529060010190602001808311610a9c57829003601f168201915b50505050509550806006018054610acf906154fc565b80601f0160208091040260200160405190810160405280929190818152602001828054610afb906154fc565b8015610b485780601f10610b1d57610100808354040283529160200191610b48565b820191906000526020600020905b815481529060010190602001808311610b2b57829003601f168201915b505050505094508060040160009054906101000a900460ff169350806008018054610b72906154fc565b80601f0160208091040260200160405190810160405280929190818152602001828054610b9e906154fc565b8015610beb5780601f10610bc057610100808354040283529160200191610beb565b820191906000526020600020905b815481529060010190602001808311610bce57829003601f168201915b505050505092505050919395975091939597565b600560009054906101000a900460ff1681565b6060600d805480602002602001604051908101604052809291908181526020016000905b82821015610e3057838290600052602060002090600802016040518061012001604052908160008201548152602001600182015481526020016002820154815260200160038201548152602001600482015481526020016005820160009054906101000a900460ff161515151581526020016005820160019054906101000a900473ffffffffffffffffffffffffffffffffffffffff1673ffffffffffffffffffffffffffffffffffffffff1673ffffffffffffffffffffffffffffffffffffffff168152602001600682018054610d0d906154fc565b80601f0160208091040260200160405190810160405280929190818152602001828054610d39906154fc565b8015610d865780601f10610d5b57610100808354040283529160200191610d86565b820191906000526020600020905b815481529060010190602001808311610d6957829003601f168201915b50505050508152602001600782018054610d9f906154fc565b80601f0160208091040260200160405190810160405280929190818152602001828054610dcb906154fc565b8015610e185780601f10610ded57610100808354040283529160200191610e18565b820191906000526020600020905b815481529060010190602001808311610dfb57829003601f168201915b50505050508152505081526020019060010190610c36565b50505050905090565b610e41614174565b73ffffffffffffffffffffffffffffffffffffffff16610e5f612361565b73ffffffffffffffffffffffffffffffffffffffff1614610eb5576040517f08c379a0000000000000000000000000000000000000000000000000000000008152600401610eac9061557a565b60405180910390fd5b6000811415610ef9576040517f08c379a0000000000000000000000000000000000000000000000000000000008152600401610ef0906155e6565b60405180910390fd5b8060038190555080423373ffffffffffffffffffffffffffffffffffffffff167fd86cac97cd3caa153b72db918dc0feb1ed9683dfd389c345d07f7d00390b63b760405160405180910390a450565b600d8181548110610f5857600080fd5b90600052602060002090600802016000915090508060000154908060010154908060020154908060030154908060040154908060050160009054906101000a900460ff16908060050160019054906101000a900473ffffffffffffffffffffffffffffffffffffffff1690806006018054610fd2906154fc565b80601f0160208091040260200160405190810160405280929190818152602001828054610ffe906154fc565b801561104b5780601f106110205761010080835404028352916020019161104b565b820191906000526020600020905b81548152906001019060200180831161102e57829003601f168201915b505050505090806007018054611060906154fc565b80601f016020809104026020016040519081016040528092919081815260200182805461108c906154fc565b80156110d95780601f106110ae576101008083540402835291602001916110d9565b820191906000526020600020905b8154815290600101906020018083116110bc57829003601f168201915b5050505050905089565b60026001541415611129576040517f08c379a000000000000000000000000000000000000000000000000000000000815260040161112090615652565b60405180910390fd5b60026001819055506000601060008381526020019081526020016000209050600115158160050160009054906101000a900460ff161515146111a0576040517f08c379a0000000000000000000000000000000000000000000000000000000008152600401611197906156be565b60405180910390fd5b600f60008260000154815260200190815260200160002060009054906101000a900473ffffffffffffffffffffffffffffffffffffffff1673ffffffffffffffffffffffffffffffffffffffff163373ffffffffffffffffffffffffffffffffffffffff1614611245576040517f08c379a000000000000000000000000000000000000000000000000000000000815260040161123c90615750565b60405180910390fd5b60008160050160006101000a81548160ff0219169083151502179055504281600001543373ffffffffffffffffffffffffffffffffffffffff167f1e7d243bbd980a7b6407550d96c8d6557b193cd3a9cf91f820d9f6720636304260405160405180910390a4506001808190555050565b601381815481106112c657600080fd5b90600052602060002090600502016000915090508060000154908060010154908060020154908060030154908060040160009054906101000a900473ffffffffffffffffffffffffffffffffffffffff16905085565b60106020528060005260406000206000915090508060000154908060010154908060020154908060030154908060040154908060050160009054906101000a900460ff16908060050160019054906101000a900473ffffffffffffffffffffffffffffffffffffffff1690806006018054611396906154fc565b80601f01602080910402602001604051908101604052809291908181526020018280546113c2906154fc565b801561140f5780601f106113e45761010080835404028352916020019161140f565b820191906000526020600020905b8154815290600101906020018083116113f257829003601f168201915b505050505090806007018054611424906154fc565b80601f0160208091040260200160405190810160405280929190818152602001828054611450906154fc565b801561149d5780601f106114725761010080835404028352916020019161149d565b820191906000526020600020905b81548152906001019060200180831161148057829003601f168201915b5050505050905089565b60086020528060005260406000206000915090508060000154908060010154908060020154908060030180546114dc906154fc565b80601f0160208091040260200160405190810160405280929190818152602001828054611508906154fc565b80156115555780601f1061152a57610100808354040283529160200191611555565b820191906000526020600020905b81548152906001019060200180831161153857829003601f168201915b5050505050908060040160009054906101000a900460ff169080600501805461157d906154fc565b80601f01602080910402602001604051908101604052809291908181526020018280546115a9906154fc565b80156115f65780601f106115cb576101008083540402835291602001916115f6565b820191906000526020600020905b8154815290600101906020018083116115d957829003601f168201915b50505050509080600601805461160b906154fc565b80601f0160208091040260200160405190810160405280929190818152602001828054611637906154fc565b80156116845780601f1061165957610100808354040283529160200191611684565b820191906000526020600020905b81548152906001019060200180831161166757829003601f168201915b5050505050908060070160009054906101000a900473ffffffffffffffffffffffffffffffffffffffff16908060080180546116bf906154fc565b80601f01602080910402602001604051908101604052809291908181526020018280546116eb906154fc565b80156117385780601f1061170d57610100808354040283529160200191611738565b820191906000526020600020905b81548152906001019060200180831161171b57829003601f168201915b5050505050905089565b80600115156009600083815260200190815260200160002060009054906101000a900460ff161515146117aa576040517f08c379a00000000000000000000000000000000000000000000000000000000081526004016117a1906154ad565b60405180910390fd5b816007600082815260200190815260200160002060070160009054906101000a900473ffffffffffffffffffffffffffffffffffffffff1673ffffffffffffffffffffffffffffffffffffffff163373ffffffffffffffffffffffffffffffffffffffff161461184f576040517f08c379a0000000000000000000000000000000000000000000000000000000008152600401611846906157bc565b60405180910390fd5b8373ffffffffffffffffffffffffffffffffffffffff163373ffffffffffffffffffffffffffffffffffffffff1614156118be576040517f08c379a00000000000000000000000000000000000000000000000000000000081526004016118b59061584e565b60405180910390fd5b600073ffffffffffffffffffffffffffffffffffffffff168473ffffffffffffffffffffffffffffffffffffffff16141561192e576040517f08c379a0000000000000000000000000000000000000000000000000000000008152600401611925906158e0565b60405180910390fd5b836007600085815260200190815260200160002060070160006101000a81548173ffffffffffffffffffffffffffffffffffffffff021916908373ffffffffffffffffffffffffffffffffffffffff1602179055508373ffffffffffffffffffffffffffffffffffffffff163373ffffffffffffffffffffffffffffffffffffffff167fa4384cd8553d716f837cc7d68ed60529f9672b59cf96f1ce8bef3334183db34a426040516119e09190614f3d565b60405180910390a350505050565b600a818051602081018201805184825260208301602085012081835280955050505050506000915054906101000a900460ff1681565b600e6020528060005260406000206000915090508060000154908060010154908060020154908060030154908060040154908060050160009054906101000a900460ff16908060050160019054906101000a900473ffffffffffffffffffffffffffffffffffffffff1690806006018054611a9e906154fc565b80601f0160208091040260200160405190810160405280929190818152602001828054611aca906154fc565b8015611b175780601f10611aec57610100808354040283529160200191611b17565b820191906000526020600020905b815481529060010190602001808311611afa57829003601f168201915b505050505090806007018054611b2c906154fc565b80601f0160208091040260200160405190810160405280929190818152602001828054611b58906154fc565b8015611ba55780601f10611b7a57610100808354040283529160200191611ba5565b820191906000526020600020905b815481529060010190602001808311611b8857829003601f168201915b5050505050905089565b600060106000838152602001908152602001600020600001549050919050565b6060601060008381526020019081526020016000206006018054611bf2906154fc565b80601f0160208091040260200160405190810160405280929190818152602001828054611c1e906154fc565b8015611c6b5780601f10611c4057610100808354040283529160200191611c6b565b820191906000526020600020905b815481529060010190602001808311611c4e57829003601f168201915b50505050509050919050565b81600115156009600083815260200190815260200160002060009054906101000a900460ff16151514611cdf576040517f08c379a0000000000000000000000000000000000000000000000000000000008152600401611cd6906154ad565b60405180910390fd5b826007600082815260200190815260200160002060070160009054906101000a900473ffffffffffffffffffffffffffffffffffffffff1673ffffffffffffffffffffffffffffffffffffffff163373ffffffffffffffffffffffffffffffffffffffff1614611d84576040517f08c379a0000000000000000000000000000000000000000000000000000000008152600401611d7b906157bc565b60405180910390fd5b600060076000868152602001908152602001600020905060006006811115611daf57611dae61493b565b5b846006811115611dc257611dc161493b565b5b1415611dd157611dd0615900565b5b8060040160009054906101000a900460ff166006811115611df557611df461493b565b5b846006811115611e0857611e0761493b565b5b1415611e1757611e16615900565b5b838160040160006101000a81548160ff02191690836006811115611e3e57611e3d61493b565b5b0217905550836006811115611e5657611e5561493b565b5b3373ffffffffffffffffffffffffffffffffffffffff167ff5b844f9650efd8a638976417da0e54ababae9d5ae6ec7dbc97124f00d5a5c5e42604051611e9c9190614f3d565b60405180910390a35050505050565b611eb3614174565b73ffffffffffffffffffffffffffffffffffffffff16611ed1612361565b73ffffffffffffffffffffffffffffffffffffffff1614611f27576040517f08c379a0000000000000000000000000000000000000000000000000000000008152600401611f1e9061557a565b60405180910390fd5b611f31600061417c565b565b60096020528060005260406000206000915054906101000a900460ff1681565b600f6020528060005260406000206000915054906101000a900473ffffffffffffffffffffffffffffffffffffffff1681565b60026001541415611fcc576040517f08c379a0000000000000000000000000000000000000000000000000000000008152600401611fc390615652565b60405180910390fd5b600260018190555081600115156011600083815260200190815260200160002060009054906101000a900460ff1615151461203c576040517f08c379a00000000000000000000000000000000000000000000000000000000081526004016120339061597b565b60405180910390fd5b82600015156010600083815260200190815260200160002060050160009054906101000a900460ff161515146120a7576040517f08c379a000000000000000000000000000000000000000000000000000000000815260040161209e906159e7565b60405180910390fd5b600060106000868152602001908152602001600020905060006120d782600301548661424090919063ffffffff16565b90508160050160019054906101000a900473ffffffffffffffffffffffffffffffffffffffff1673ffffffffffffffffffffffffffffffffffffffff163373ffffffffffffffffffffffffffffffffffffffff16141561216c576040517f08c379a000000000000000000000000000000000000000000000000000000000815260040161216390615a53565b60405180910390fd5b803373ffffffffffffffffffffffffffffffffffffffff163110156121c6576040517f08c379a00000000000000000000000000000000000000000000000000000000081526004016121bd90615abf565b60405180910390fd5b600085141561220a576040517f08c379a000000000000000000000000000000000000000000000000000000000815260040161220190615b2b565b60405180910390fd5b670de0b6b3a76400008161221e9190615b7a565b341461225f576040517f08c379a000000000000000000000000000000000000000000000000000000000815260040161225690615c46565b60405180910390fd5b6122696015614256565b6000612275601561426c565b90508260050160019054906101000a900473ffffffffffffffffffffffffffffffffffffffff1673ffffffffffffffffffffffffffffffffffffffff166108fc349081150290604051600060405180830381858888f193505050501580156122e1573d6000803e3d6000fd5b506122eb8761427a565b6122fb8360000154823433614315565b33600f60008560000154815260200190815260200160002060006101000a81548173ffffffffffffffffffffffffffffffffffffffff021916908373ffffffffffffffffffffffffffffffffffffffff1602179055505050505050600180819055505050565b60008060009054906101000a900473ffffffffffffffffffffffffffffffffffffffff16905090565b60035481565b60076020528060005260406000206000915090508060000154908060010154908060020154908060030180546123c5906154fc565b80601f01602080910402602001604051908101604052809291908181526020018280546123f1906154fc565b801561243e5780601f106124135761010080835404028352916020019161243e565b820191906000526020600020905b81548152906001019060200180831161242157829003601f168201915b5050505050908060040160009054906101000a900460ff1690806005018054612466906154fc565b80601f0160208091040260200160405190810160405280929190818152602001828054612492906154fc565b80156124df5780601f106124b4576101008083540402835291602001916124df565b820191906000526020600020905b8154815290600101906020018083116124c257829003601f168201915b5050505050908060060180546124f4906154fc565b80601f0160208091040260200160405190810160405280929190818152602001828054612520906154fc565b801561256d5780601f106125425761010080835404028352916020019161256d565b820191906000526020600020905b81548152906001019060200180831161255057829003601f168201915b5050505050908060070160009054906101000a900473ffffffffffffffffffffffffffffffffffffffff16908060080180546125a8906154fc565b80601f01602080910402602001604051908101604052809291908181526020018280546125d4906154fc565b80156126215780601f106125f657610100808354040283529160200191612621565b820191906000526020600020905b81548152906001019060200180831161260457829003601f168201915b5050505050905089565b600080600080600080600060608089600115156011600083815260200190815260200160002060009054906101000a900460ff161515146126a1576040517f08c379a00000000000000000000000000000000000000000000000000000000081526004016126989061597b565b60405180910390fd5b6000601060008d8152602001908152602001600020905080600001549a50806001015499508060020154985080600301549750806004015496508060050160009054906101000a900460ff1695508060050160019054906101000a900473ffffffffffffffffffffffffffffffffffffffff169450806006018054612725906154fc565b80601f0160208091040260200160405190810160405280929190818152602001828054612751906154fc565b801561279e5780601f106127735761010080835404028352916020019161279e565b820191906000526020600020905b81548152906001019060200180831161278157829003601f168201915b505050505093508060070180546127b4906154fc565b80601f01602080910402602001604051908101604052809291908181526020018280546127e0906154fc565b801561282d5780601f106128025761010080835404028352916020019161282d565b820191906000526020600020905b81548152906001019060200180831161281057829003601f168201915b5050505050925050509193959799909294969850565b60145481565b600b5481565b8560006007600083815260200190815260200160002060070160009054906101000a900473ffffffffffffffffffffffffffffffffffffffff1673ffffffffffffffffffffffffffffffffffffffff163373ffffffffffffffffffffffffffffffffffffffff1614156128c157600190505b6001151581151514612908576040517f08c379a00000000000000000000000000000000000000000000000000000000081526004016128ff90615cd8565b60405180910390fd5b876007600082815260200190815260200160002060070160009054906101000a900473ffffffffffffffffffffffffffffffffffffffff1673ffffffffffffffffffffffffffffffffffffffff163373ffffffffffffffffffffffffffffffffffffffff16146129ad576040517f08c379a00000000000000000000000000000000000000000000000000000000081526004016129a4906157bc565b60405180910390fd5b88600115156009600083815260200190815260200160002060009054906101000a900460ff16151514612a15576040517f08c379a0000000000000000000000000000000000000000000000000000000008152600401612a0c906154ad565b60405180910390fd5b856000815111612a5a576040517f08c379a0000000000000000000000000000000000000000000000000000000008152600401612a5190615d44565b60405180910390fd5b60001515601282604051612a6e9190615da0565b908152602001604051809103902060009054906101000a900460ff16151514612acc576040517f08c379a0000000000000000000000000000000000000000000000000000000008152600401612ac390615e03565b60405180910390fd5b600073ffffffffffffffffffffffffffffffffffffffff163373ffffffffffffffffffffffffffffffffffffffff161415612b0657600080fd5b60008a1415612b4a576040517f08c379a0000000000000000000000000000000000000000000000000000000008152600401612b4190615e6f565b60405180910390fd5b6000865111612b8e576040517f08c379a0000000000000000000000000000000000000000000000000000000008152600401612b8590615f01565b60405180910390fd5b6000891415612bd2576040517f08c379a0000000000000000000000000000000000000000000000000000000008152600401612bc990615f93565b60405180910390fd5b612bdc600c614256565b6000612be8600c61426c565b90506000600760008e81526020019081526020016000206000015490506040518061012001604052808381526020018d81526020018281526020018c81526020018b81526020016000151581526020013373ffffffffffffffffffffffffffffffffffffffff1681526020018a81526020018981525060106000848152602001908152602001600020600082015181600001556020820151816001015560408201518160020155606082015181600301556080820151816004015560a08201518160050160006101000a81548160ff02191690831515021790555060c08201518160050160016101000a81548173ffffffffffffffffffffffffffffffffffffffff021916908373ffffffffffffffffffffffffffffffffffffffff16021790555060e0820151816006019080519060200190612d26929190614538565b50610100820151816007019080519060200190612d44929190614538565b50905050600d60106000848152602001908152602001600020908060018154018082558091505060019003906000526020600020906008020160009091909190915060008201548160000155600182015481600101556002820154816002015560038201548160030155600482015481600401556005820160009054906101000a900460ff168160050160006101000a81548160ff0219169083151502179055506005820160019054906101000a900473ffffffffffffffffffffffffffffffffffffffff168160050160016101000a81548173ffffffffffffffffffffffffffffffffffffffff021916908373ffffffffffffffffffffffffffffffffffffffff1602179055506006820181600601908054612e60906154fc565b612e6b9291906145be565b506007820181600701908054612e80906154fc565b612e8b9291906145be565b50505060106000838152602001908152602001600020600e60003373ffffffffffffffffffffffffffffffffffffffff1673ffffffffffffffffffffffffffffffffffffffff16815260200190815260200160002060008201548160000155600182015481600101556002820154816002015560038201548160030155600482015481600401556005820160009054906101000a900460ff168160050160006101000a81548160ff0219169083151502179055506005820160019054906101000a900473ffffffffffffffffffffffffffffffffffffffff168160050160016101000a81548173ffffffffffffffffffffffffffffffffffffffff021916908373ffffffffffffffffffffffffffffffffffffffff1602179055506006820181600601908054612fba906154fc565b612fc59291906145be565b506007820181600701908054612fda906154fc565b612fe59291906145be565b50905050612fff6001600b5461452290919063ffffffff16565b600b8190555060016011600084815260200190815260200160002060006101000a81548160ff021916908315150217905550600160128a6040516130439190615da0565b908152602001604051809103902060006101000a81548160ff0219169083151502179055503373ffffffffffffffffffffffffffffffffffffffff167f3733808b347b3e95cb4b664d5c8e8fe364fc4dd34b77f49cde3ba2564d78888c42846040516130b0929190615fb3565b60405180910390a250505050505050505050505050565b60025481565b60606006805480602002602001604051908101604052809291908181526020016000905b8282101561341b578382906000526020600020906009020160405180610120016040529081600082015481526020016001820154815260200160028201548152602001600382018054613143906154fc565b80601f016020809104026020016040519081016040528092919081815260200182805461316f906154fc565b80156131bc5780601f10613191576101008083540402835291602001916131bc565b820191906000526020600020905b81548152906001019060200180831161319f57829003601f168201915b505050505081526020016004820160009054906101000a900460ff1660068111156131ea576131e961493b565b5b60068111156131fc576131fb61493b565b5b8152602001600582018054613210906154fc565b80601f016020809104026020016040519081016040528092919081815260200182805461323c906154fc565b80156132895780601f1061325e57610100808354040283529160200191613289565b820191906000526020600020905b81548152906001019060200180831161326c57829003601f168201915b505050505081526020016006820180546132a2906154fc565b80601f01602080910402602001604051908101604052809291908181526020018280546132ce906154fc565b801561331b5780601f106132f05761010080835404028352916020019161331b565b820191906000526020600020905b8154815290600101906020018083116132fe57829003601f168201915b505050505081526020016007820160009054906101000a900473ffffffffffffffffffffffffffffffffffffffff1673ffffffffffffffffffffffffffffffffffffffff1673ffffffffffffffffffffffffffffffffffffffff16815260200160088201805461338a906154fc565b80601f01602080910402602001604051908101604052809291908181526020018280546133b6906154fc565b80156134035780601f106133d857610100808354040283529160200191613403565b820191906000526020600020905b8154815290600101906020018083116133e657829003601f168201915b505050505081525050815260200190600101906130f1565b50505050905090565b816010600082815260200190815260200160002060050160019054906101000a900473ffffffffffffffffffffffffffffffffffffffff1673ffffffffffffffffffffffffffffffffffffffff163373ffffffffffffffffffffffffffffffffffffffff16146134c9576040517f08c379a00000000000000000000000000000000000000000000000000000000081526004016134c090616028565b60405180910390fd5b600082141561350d576040517f08c379a000000000000000000000000000000000000000000000000000000000815260040161350490616094565b60405180910390fd5b816010600085815260200190815260200160002060030181905550423373ffffffffffffffffffffffffffffffffffffffff167f2adffbd83a80d927a3a5c687edc852ca8941019a58261ffb685cc98972ba7c248460405161356f9190614f3d565b60405180910390a3505050565b6006818154811061358c57600080fd5b90600052602060002090600902016000915090508060000154908060010154908060020154908060030180546135c1906154fc565b80601f01602080910402602001604051908101604052809291908181526020018280546135ed906154fc565b801561363a5780601f1061360f5761010080835404028352916020019161363a565b820191906000526020600020905b81548152906001019060200180831161361d57829003601f168201915b5050505050908060040160009054906101000a900460ff1690806005018054613662906154fc565b80601f016020809104026020016040519081016040528092919081815260200182805461368e906154fc565b80156136db5780601f106136b0576101008083540402835291602001916136db565b820191906000526020600020905b8154815290600101906020018083116136be57829003601f168201915b5050505050908060060180546136f0906154fc565b80601f016020809104026020016040519081016040528092919081815260200182805461371c906154fc565b80156137695780601f1061373e57610100808354040283529160200191613769565b820191906000526020600020905b81548152906001019060200180831161374c57829003601f168201915b5050505050908060070160009054906101000a900473ffffffffffffffffffffffffffffffffffffffff16908060080180546137a4906154fc565b80601f01602080910402602001604051908101604052809291908181526020018280546137d0906154fc565b801561381d5780601f106137f25761010080835404028352916020019161381d565b820191906000526020600020905b81548152906001019060200180831161380057829003601f168201915b5050505050905089565b8360001515600a8260405161383c9190615da0565b908152602001604051809103902060009054906101000a900460ff1615151461389a576040517f08c379a000000000000000000000000000000000000000000000000000000000815260040161389190616100565b60405180910390fd5b60008151116138de576040517f08c379a00000000000000000000000000000000000000000000000000000000081526004016138d59061616c565b60405180910390fd5b60026001541415613924576040517f08c379a000000000000000000000000000000000000000000000000000000000815260040161391b90615652565b60405180910390fd5b6002600181905550600073ffffffffffffffffffffffffffffffffffffffff163373ffffffffffffffffffffffffffffffffffffffff16141561396657600080fd5b60035434146139aa576040517f08c379a00000000000000000000000000000000000000000000000000000000081526004016139a1906161d8565b60405180910390fd5b60008614156139ee576040517f08c379a00000000000000000000000000000000000000000000000000000000081526004016139e590616244565b60405180910390fd5b6000845111613a32576040517f08c379a0000000000000000000000000000000000000000000000000000000008152600401613a29906162d6565b60405180910390fd5b6000835111613a76576040517f08c379a0000000000000000000000000000000000000000000000000000000008152600401613a6d90616368565b60405180910390fd5b613a806004614256565b6000613a8c600461426c565b905060405180610120016040528082815260200188815260200142815260200187815260200160006006811115613ac657613ac561493b565b5b81526020018681526020018581526020013373ffffffffffffffffffffffffffffffffffffffff16815260200184815250600760008381526020019081526020016000206000820151816000015560208201518160010155604082015181600201556060820151816003019080519060200190613b44929190614538565b5060808201518160040160006101000a81548160ff02191690836006811115613b7057613b6f61493b565b5b021790555060a0820151816005019080519060200190613b91929190614538565b5060c0820151816006019080519060200190613bae929190614538565b5060e08201518160070160006101000a81548173ffffffffffffffffffffffffffffffffffffffff021916908373ffffffffffffffffffffffffffffffffffffffff160217905550610100820151816008019080519060200190613c13929190614538565b5090505060066007600083815260200190815260200160002090806001815401808255809150506001900390600052602060002090600902016000909190919091506000820154816000015560018201548160010155600282015481600201556003820181600301908054613c87906154fc565b613c929291906145be565b506004820160009054906101000a900460ff168160040160006101000a81548160ff02191690836006811115613ccb57613cca61493b565b5b02179055506005820181600501908054613ce4906154fc565b613cef9291906145be565b506006820181600601908054613d04906154fc565b613d0f9291906145be565b506007820160009054906101000a900473ffffffffffffffffffffffffffffffffffffffff168160070160006101000a81548173ffffffffffffffffffffffffffffffffffffffff021916908373ffffffffffffffffffffffffffffffffffffffff1602179055506008820181600801908054613d8b906154fc565b613d969291906145be565b50505060076000828152602001908152602001600020600860003373ffffffffffffffffffffffffffffffffffffffff1673ffffffffffffffffffffffffffffffffffffffff1681526020019081526020016000206000820154816000015560018201548160010155600282015481600201556003820181600301908054613e1d906154fc565b613e289291906145be565b506004820160009054906101000a900460ff168160040160006101000a81548160ff02191690836006811115613e6157613e6061493b565b5b02179055506005820181600501908054613e7a906154fc565b613e859291906145be565b506006820181600601908054613e9a906154fc565b613ea59291906145be565b506007820160009054906101000a900473ffffffffffffffffffffffffffffffffffffffff168160070160006101000a81548173ffffffffffffffffffffffffffffffffffffffff021916908373ffffffffffffffffffffffffffffffffffffffff1602179055506008820181600801908054613f21906154fc565b613f2c9291906145be565b50905050613f46600160025461452290919063ffffffff16565b60028190555060016009600083815260200190815260200160002060006101000a81548160ff0219169083151502179055506001600a87604051613f8a9190615da0565b908152602001604051809103902060006101000a81548160ff021916908315150217905550613fb7612361565b73ffffffffffffffffffffffffffffffffffffffff166108fc349081150290604051600060405180830381858888f19350505050158015613ffc573d6000803e3d6000fd5b50803373ffffffffffffffffffffffffffffffffffffffff167fc8103fc44f19a39b2be3834708c831e6292d5b110a99e06a1f9c1c5f24faf5dd426040516140449190614f3d565b60405180910390a35060018081905550505050505050565b60116020528060005260406000206000915054906101000a900460ff1681565b614084614174565b73ffffffffffffffffffffffffffffffffffffffff166140a2612361565b73ffffffffffffffffffffffffffffffffffffffff16146140f8576040517f08c379a00000000000000000000000000000000000000000000000000000000081526004016140ef9061557a565b60405180910390fd5b600073ffffffffffffffffffffffffffffffffffffffff168173ffffffffffffffffffffffffffffffffffffffff161415614168576040517f08c379a000000000000000000000000000000000000000000000000000000000815260040161415f906163fa565b60405180910390fd5b6141718161417c565b50565b600033905090565b60008060009054906101000a900473ffffffffffffffffffffffffffffffffffffffff169050816000806101000a81548173ffffffffffffffffffffffffffffffffffffffff021916908373ffffffffffffffffffffffffffffffffffffffff1602179055508173ffffffffffffffffffffffffffffffffffffffff168173ffffffffffffffffffffffffffffffffffffffff167f8be0079c531659141344cd1fd0a4f28419497f9722a3daafe3b4186f6b6457e060405160405180910390a35050565b6000818361424e9190615b7a565b905092915050565b6001816000016000828254019250508190555050565b600081600001549050919050565b80600115156011600083815260200190815260200160002060009054906101000a900460ff161515146142e2576040517f08c379a00000000000000000000000000000000000000000000000000000000081526004016142d99061597b565b60405180910390fd5b60016010600084815260200190815260200160002060050160006101000a81548160ff0219169083151502179055505050565b600073ffffffffffffffffffffffffffffffffffffffff168173ffffffffffffffffffffffffffffffffffffffff16141561435357614352615900565b5b600073ffffffffffffffffffffffffffffffffffffffff163373ffffffffffffffffffffffffffffffffffffffff16141561438d57600080fd5b60008314156143d1576040517f08c379a00000000000000000000000000000000000000000000000000000000081526004016143c890616466565b60405180910390fd5b60006040518060a001604052808681526020018581526020014281526020018481526020018373ffffffffffffffffffffffffffffffffffffffff16815250905060138190806001815401808255809150506001900390600052602060002090600502016000909190919091506000820151816000015560208201518160010155604082015181600201556060820151816003015560808201518160040160006101000a81548173ffffffffffffffffffffffffffffffffffffffff021916908373ffffffffffffffffffffffffffffffffffffffff16021790555050506144c5600160145461452290919063ffffffff16565b60148190555084343373ffffffffffffffffffffffffffffffffffffffff167f414e8daa25ba8dde6e691876495db5da793781eed1794da14679b2af00301df6426040516145139190614f3d565b60405180910390a45050505050565b600081836145309190616486565b905092915050565b828054614544906154fc565b90600052602060002090601f01602090048101928261456657600085556145ad565b82601f1061457f57805160ff19168380011785556145ad565b828001600101855582156145ad579182015b828111156145ac578251825591602001919060010190614591565b5b5090506145ba919061464b565b5090565b8280546145ca906154fc565b90600052602060002090601f0160209004810192826145ec576000855561463a565b82601f106145fd578054855561463a565b8280016001018555821561463a57600052602060002091601f016020900482015b8281111561463957825482559160010191906001019061461e565b5b509050614647919061464b565b5090565b5b8082111561466457600081600090555060010161464c565b5090565b6000604051905090565b600080fd5b600080fd5b600080fd5b600080fd5b6000601f19601f8301169050919050565b7f4e487b7100000000000000000000000000000000000000000000000000000000600052604160045260246000fd5b6146cf82614686565b810181811067ffffffffffffffff821117156146ee576146ed614697565b5b80604052505050565b6000614701614668565b905061470d82826146c6565b919050565b600067ffffffffffffffff82111561472d5761472c614697565b5b61473682614686565b9050602081019050919050565b82818337600083830152505050565b600061476561476084614712565b6146f7565b90508281526020810184848401111561478157614780614681565b5b61478c848285614743565b509392505050565b600082601f8301126147a9576147a861467c565b5b81356147b9848260208601614752565b91505092915050565b6000602082840312156147d8576147d7614672565b5b600082013567ffffffffffffffff8111156147f6576147f5614677565b5b61480284828501614794565b91505092915050565b60008115159050919050565b6148208161480b565b82525050565b600060208201905061483b6000830184614817565b92915050565b6000819050919050565b61485481614841565b811461485f57600080fd5b50565b6000813590506148718161484b565b92915050565b60006020828403121561488d5761488c614672565b5b600061489b84828501614862565b91505092915050565b6148ad81614841565b82525050565b600081519050919050565b600082825260208201905092915050565b60005b838110156148ed5780820151818401526020810190506148d2565b838111156148fc576000848401525b50505050565b600061490d826148b3565b61491781856148be565b93506149278185602086016148cf565b61493081614686565b840191505092915050565b7f4e487b7100000000000000000000000000000000000000000000000000000000600052602160045260246000fd5b6007811061497b5761497a61493b565b5b50565b600081905061498c8261496a565b919050565b600061499c8261497e565b9050919050565b6149ac81614991565b82525050565b6000610100820190506149c8600083018b6148a4565b6149d5602083018a6148a4565b6149e260408301896148a4565b81810360608301526149f48188614902565b90508181036080830152614a088187614902565b905081810360a0830152614a1c8186614902565b9050614a2b60c08301856149a3565b81810360e0830152614a3d8184614902565b90509998505050505050505050565b6000602082019050614a6160008301846149a3565b92915050565b600081519050919050565b600082825260208201905092915050565b6000819050602082019050919050565b614a9c81614841565b82525050565b614aab8161480b565b82525050565b600073ffffffffffffffffffffffffffffffffffffffff82169050919050565b6000614adc82614ab1565b9050919050565b614aec81614ad1565b82525050565b600082825260208201905092915050565b6000614b0e826148b3565b614b188185614af2565b9350614b288185602086016148cf565b614b3181614686565b840191505092915050565b600061012083016000830151614b556000860182614a93565b506020830151614b686020860182614a93565b506040830151614b7b6040860182614a93565b506060830151614b8e6060860182614a93565b506080830151614ba16080860182614a93565b5060a0830151614bb460a0860182614aa2565b5060c0830151614bc760c0860182614ae3565b5060e083015184820360e0860152614bdf8282614b03565b915050610100830151848203610100860152614bfb8282614b03565b9150508091505092915050565b6000614c148383614b3c565b905092915050565b6000602082019050919050565b6000614c3482614a67565b614c3e8185614a72565b935083602082028501614c5085614a83565b8060005b85811015614c8c5784840389528151614c6d8582614c08565b9450614c7883614c1c565b925060208a01995050600181019050614c54565b50829750879550505050505092915050565b60006020820190508181036000830152614cb88184614c29565b905092915050565b614cc981614ad1565b82525050565b600061012082019050614ce5600083018c6148a4565b614cf2602083018b6148a4565b614cff604083018a6148a4565b614d0c60608301896148a4565b614d1960808301886148a4565b614d2660a0830187614817565b614d3360c0830186614cc0565b81810360e0830152614d458185614902565b9050818103610100830152614d5a8184614902565b90509a9950505050505050505050565b600060a082019050614d7f60008301886148a4565b614d8c60208301876148a4565b614d9960408301866148a4565b614da660608301856148a4565b614db36080830184614cc0565b9695505050505050565b6000614dc882614ab1565b9050919050565b614dd881614dbd565b8114614de357600080fd5b50565b600081359050614df581614dcf565b92915050565b600060208284031215614e1157614e10614672565b5b6000614e1f84828501614de6565b91505092915050565b600061012082019050614e3e600083018c6148a4565b614e4b602083018b6148a4565b614e58604083018a6148a4565b8181036060830152614e6a8189614902565b9050614e7960808301886149a3565b81810360a0830152614e8b8187614902565b905081810360c0830152614e9f8186614902565b9050614eae60e0830185614cc0565b818103610100830152614ec18184614902565b90509a9950505050505050505050565b614eda81614ad1565b8114614ee557600080fd5b50565b600081359050614ef781614ed1565b92915050565b60008060408385031215614f1457614f13614672565b5b6000614f2285828601614ee8565b9250506020614f3385828601614862565b9150509250929050565b6000602082019050614f5260008301846148a4565b92915050565b60006020820190508181036000830152614f728184614902565b905092915050565b60078110614f8757600080fd5b50565b600081359050614f9981614f7a565b92915050565b60008060408385031215614fb657614fb5614672565b5b6000614fc485828601614862565b9250506020614fd585828601614f8a565b9150509250929050565b614fe881614dbd565b82525050565b60006020820190506150036000830184614fdf565b92915050565b600080604083850312156150205761501f614672565b5b600061502e85828601614862565b925050602061503f85828601614862565b9150509250929050565b60006101208201905061505f600083018c6148a4565b61506c602083018b6148a4565b615079604083018a6148a4565b61508660608301896148a4565b61509360808301886148a4565b6150a060a0830187614817565b6150ad60c0830186614fdf565b81810360e08301526150bf8185614902565b90508181036101008301526150d48184614902565b90509a9950505050505050505050565b60008060008060008060c0878903121561510157615100614672565b5b600061510f89828a01614862565b965050602061512089828a01614862565b955050604061513189828a01614862565b945050606061514289828a01614862565b935050608087013567ffffffffffffffff81111561516357615162614677565b5b61516f89828a01614794565b92505060a087013567ffffffffffffffff8111156151905761518f614677565b5b61519c89828a01614794565b9150509295509295509295565b600081519050919050565b600082825260208201905092915050565b6000819050602082019050919050565b6151de81614991565b82525050565b6000610120830160008301516151fd6000860182614a93565b5060208301516152106020860182614a93565b5060408301516152236040860182614a93565b506060830151848203606086015261523b8282614b03565b915050608083015161525060808601826151d5565b5060a083015184820360a08601526152688282614b03565b91505060c083015184820360c08601526152828282614b03565b91505060e083015161529760e0860182614ae3565b506101008301518482036101008601526152b18282614b03565b9150508091505092915050565b60006152ca83836151e4565b905092915050565b6000602082019050919050565b60006152ea826151a9565b6152f481856151b4565b935083602082028501615306856151c5565b8060005b85811015615342578484038952815161532385826152be565b945061532e836152d2565b925060208a0199505060018101905061530a565b50829750879550505050505092915050565b6000602082019050818103600083015261536e81846152df565b905092915050565b600080600080600060a0868803121561539257615391614672565b5b60006153a088828901614862565b955050602086013567ffffffffffffffff8111156153c1576153c0614677565b5b6153cd88828901614794565b945050604086013567ffffffffffffffff8111156153ee576153ed614677565b5b6153fa88828901614794565b935050606086013567ffffffffffffffff81111561541b5761541a614677565b5b61542788828901614794565b925050608086013567ffffffffffffffff81111561544857615447614677565b5b61545488828901614794565b9150509295509295909350565b7f486f74656c20446f6573204e6f74204578697374000000000000000000000000600082015250565b60006154976014836148be565b91506154a282615461565b602082019050919050565b600060208201905081810360008301526154c68161548a565b9050919050565b7f4e487b7100000000000000000000000000000000000000000000000000000000600052602260045260246000fd5b6000600282049050600182168061551457607f821691505b60208210811415615528576155276154cd565b5b50919050565b7f4f776e61626c653a2063616c6c6572206973206e6f7420746865206f776e6572600082015250565b60006155646020836148be565b915061556f8261552e565b602082019050919050565b6000602082019050818103600083015261559381615557565b9050919050565b7f4c697374696e67204665652043616e6e6f74206265207a65726f000000000000600082015250565b60006155d0601a836148be565b91506155db8261559a565b602082019050919050565b600060208201905081810360008301526155ff816155c3565b9050919050565b7f5265656e7472616e637947756172643a207265656e7472616e742063616c6c00600082015250565b600061563c601f836148be565b915061564782615606565b602082019050919050565b6000602082019050818103600083015261566b8161562f565b9050919050565b7f526f6f6d206973206e6f7420626f6f6b65640000000000000000000000000000600082015250565b60006156a86012836148be565b91506156b382615672565b602082019050919050565b600060208201905081810360008301526156d78161569b565b9050919050565b7f596f752063757272656e746c7920646f6e742072657369646520696e2074686960008201527f7320726f6f6d0000000000000000000000000000000000000000000000000000602082015250565b600061573a6026836148be565b9150615745826156de565b604082019050919050565b600060208201905081810360008301526157698161572d565b9050919050565b7f596f7520446f204e6f74204f776e205468697320486f74656c204974656d0000600082015250565b60006157a6601e836148be565b91506157b182615770565b602082019050919050565b600060208201905081810360008301526157d581615799565b9050919050565b7f596f75206172652074686520726967687466756c206f776e657220616c72656160008201527f6479000000000000000000000000000000000000000000000000000000000000602082015250565b60006158386022836148be565b9150615843826157dc565b604082019050919050565b600060208201905081810360008301526158678161582b565b9050919050565b7f506c65617365207370656369667920612076616c69642045544820616464726560008201527f7373000000000000000000000000000000000000000000000000000000000000602082015250565b60006158ca6022836148be565b91506158d58261586e565b604082019050919050565b600060208201905081810360008301526158f9816158bd565b9050919050565b7f4e487b7100000000000000000000000000000000000000000000000000000000600052600160045260246000fd5b7f526f6f6d20446f6573204e6f7420457869737400000000000000000000000000600082015250565b60006159656013836148be565b91506159708261592f565b602082019050919050565b6000602082019050818103600083015261599481615958565b9050919050565b7f526f6f6d206973206f6363757069656400000000000000000000000000000000600082015250565b60006159d16010836148be565b91506159dc8261599b565b602082019050919050565b60006020820190508181036000830152615a00816159c4565b9050919050565b7f596f752063616e6e6f7420626f6f6b20796f7572206f776e20726f6f6d000000600082015250565b6000615a3d601d836148be565b9150615a4882615a07565b602082019050919050565b60006020820190508181036000830152615a6c81615a30565b9050919050565b7f496e73756666696369656e742046756e64730000000000000000000000000000600082015250565b6000615aa96012836148be565b9150615ab482615a73565b602082019050919050565b60006020820190508181036000830152615ad881615a9c565b9050919050565b7f4e756d626572206f66206e69676874732063616e6e6f74206265207a65726f00600082015250565b6000615b15601f836148be565b9150615b2082615adf565b602082019050919050565b60006020820190508181036000830152615b4481615b08565b9050919050565b7f4e487b7100000000000000000000000000000000000000000000000000000000600052601160045260246000fd5b6000615b8582614841565b9150615b9083614841565b9250817fffffffffffffffffffffffffffffffffffffffffffffffffffffffffffffffff0483118215151615615bc957615bc8615b4b565b5b828202905092915050565b7f506c65617365207061792074686520626f6f6b696e672066656520626173656460008201527f206f6e206e756d626572206f66206e696768747320746f206265207370656e74602082015250565b6000615c306040836148be565b9150615c3b82615bd4565b604082019050919050565b60006020820190508181036000830152615c5f81615c23565b9050919050565b7f506c65617365204c697374204120486f74656c204265666f726520416464696e60008201527f67204120526f6f6d000000000000000000000000000000000000000000000000602082015250565b6000615cc26028836148be565b9150615ccd82615c66565b604082019050919050565b60006020820190508181036000830152615cf181615cb5565b9050919050565b7f506c6561736520737065636966792074686520726f6f6d206e616d6500000000600082015250565b6000615d2e601c836148be565b9150615d3982615cf8565b602082019050919050565b60006020820190508181036000830152615d5d81615d21565b9050919050565b600081905092915050565b6000615d7a826148b3565b615d848185615d64565b9350615d948185602086016148cf565b80840191505092915050565b6000615dac8284615d6f565b915081905092915050565b7f526f6f6d204e616d652045786973747300000000000000000000000000000000600082015250565b6000615ded6010836148be565b9150615df882615db7565b602082019050919050565b60006020820190508181036000830152615e1c81615de0565b9050919050565b7f4e756d626572206f6620626564732063616e6e6f74206265207a65726f000000600082015250565b6000615e59601d836148be565b9150615e6482615e23565b602082019050919050565b60006020820190508181036000830152615e8881615e4c565b9050919050565b7f506c6561736520737065636966792074686520726f6f6d20646573637269707460008201527f696f6e0000000000000000000000000000000000000000000000000000000000602082015250565b6000615eeb6023836148be565b9150615ef682615e8f565b604082019050919050565b60006020820190508181036000830152615f1a81615ede565b9050919050565b7f54686520726f6f6d206e696768742070726963652063616e6e6f74206265207a60008201527f65726f0000000000000000000000000000000000000000000000000000000000602082015250565b6000615f7d6023836148be565b9150615f8882615f21565b604082019050919050565b60006020820190508181036000830152615fac81615f70565b9050919050565b6000604082019050615fc860008301856148a4565b615fd560208301846148a4565b9392505050565b7f596f7520446f204e6f74204f776e205468697320526f6f6d0000000000000000600082015250565b60006160126018836148be565b915061601d82615fdc565b602082019050919050565b6000602082019050818103600083015261604181616005565b9050919050565b7f70726963652043616e6e6f74206265207a65726f000000000000000000000000600082015250565b600061607e6014836148be565b915061608982616048565b602082019050919050565b600060208201905081810360008301526160ad81616071565b9050919050565b7f486f74656c204e616d6520457869737473000000000000000000000000000000600082015250565b60006160ea6011836148be565b91506160f5826160b4565b602082019050919050565b60006020820190508181036000830152616119816160dd565b9050919050565b7f506c6561736520737065636966792074686520686f74656c206e616d65000000600082015250565b6000616156601d836148be565b915061616182616120565b602082019050919050565b6000602082019050818103600083015261618581616149565b9050919050565b7f496e76616c6964204c697374696e672046656500000000000000000000000000600082015250565b60006161c26013836148be565b91506161cd8261618c565b602082019050919050565b600060208201905081810360008301526161f1816161b5565b9050919050565b7f4e756d626572206f6620726f6f6d732063616e6e6f74206265207a65726f0000600082015250565b600061622e601e836148be565b9150616239826161f8565b602082019050919050565b6000602082019050818103600083015261625d81616221565b9050919050565b7f506c6561736520737065636966792074686520686f74656c206465736372697060008201527f74696f6e00000000000000000000000000000000000000000000000000000000602082015250565b60006162c06024836148be565b91506162cb82616264565b604082019050919050565b600060208201905081810360008301526162ef816162b3565b9050919050565b7f506c65617365207370656369667920746865206c6f636174696f6e206f66207460008201527f686520686f74656c000000000000000000000000000000000000000000000000602082015250565b60006163526028836148be565b915061635d826162f6565b604082019050919050565b6000602082019050818103600083015261638181616345565b9050919050565b7f4f776e61626c653a206e6577206f776e657220697320746865207a65726f206160008201527f6464726573730000000000000000000000000000000000000000000000000000602082015250565b60006163e46026836148be565b91506163ef82616388565b604082019050919050565b60006020820190508181036000830152616413816163d7565b9050919050565b7f426f6f6b696e672049442063616e6e6f74206265207a65726f00000000000000600082015250565b60006164506019836148be565b915061645b8261641a565b602082019050919050565b6000602082019050818103600083015261647f81616443565b9050919050565b600061649182614841565b915061649c83614841565b9250827fffffffffffffffffffffffffffffffffffffffffffffffffffffffffffffffff038211156164d1576164d0615b4b565b5b82820190509291505056fea2646970667358221220ae2f854787120bd8e90a1372a478ecedb4463c81abb512cc0b5195f9d9d8649664736f6c634300080a0033",
  "immutableReferences": {},
  "source": "// SPDX-License-Identifier: MIT\npragma solidity ^0.8.0;\nimport '@openzeppelin/contracts/utils/math/SafeMath.sol';\nimport '@openzeppelin/contracts/security/ReentrancyGuard.sol';\nimport '@openzeppelin/contracts/utils/Counters.sol';\nimport './Room.sol';\n\ncontract Booking is Room{\n  using SafeMath for uint256;\n  using Counters for Counters.Counter;\n\n  struct BookingItem{\n    uint roomId;\n    uint bookingId;\n    uint bookingDate;\n    uint amountPaid;\n    address payable tenant;\n  }\n\n  BookingItem[] public bookings;\n\n  uint public totalBookings = 0;\n  Counters.Counter private _bookingIds;\n\n  event CheckoutSuccessfull(address indexed tenant, uint indexed roomId, uint indexed date);\n\n  constructor() public {\n\n  }\n\n  function _registerBooking(uint _roomId, uint _bookingId,uint _amountPaid, address payable _tenant) internal{\n    assert(_tenant != address(0));\n    require(msg.sender != address(0));\n    require(_bookingId != 0,\"Booking ID cannot be zero\");\n    BookingItem memory newBooking = BookingItem(_roomId,_bookingId, block.timestamp,_amountPaid,_tenant);\n    bookings.push(newBooking);\n    totalBookings = totalBookings.add(1);\n    emit RoomBooked(block.timestamp, msg.sender,msg.value,_roomId);\n  }\n  \n  function bookRoom(uint _roomId,uint _numOfNights) public payable nonReentrant roomExists(_roomId) isNotBooked(_roomId){\n    RoomItem storage room = roomItemId[_roomId];\n    uint totalPayableAmount = _numOfNights.mul(room.pricePerNight);\n    require(msg.sender != room.user,\"You cannot book your own room\");\n    require(msg.sender.balance >= totalPayableAmount,\"Insufficient Funds\");\n    require(_numOfNights != 0,\"Number of nights cannot be zero\");\n    require(msg.value == totalPayableAmount * 1 ether,\"Please pay the booking fee based on number of nights to be spent\");\n    _bookingIds.increment();\n    uint currentBookingId = _bookingIds.current();\n    room.user.transfer(msg.value);\n    _setBooked(_roomId);\n    _registerBooking(room.id,currentBookingId,msg.value, payable(msg.sender));\n    roomTenant[room.id] = msg.sender;\n  }\n\n  function checkOut(uint _roomId) public payable nonReentrant {\n    RoomItem storage room = roomItemId[_roomId];\n    require(room.isBooked == true,\"Room is not booked\");\n    require(msg.sender == roomTenant[room.id],\"You currently dont reside in this room\");\n    room.isBooked = false;\n    emit CheckoutSuccessfull(msg.sender,room.id,block.timestamp);\n  }\n\n}\n",
  "sourcePath": "D:/Dickens/Programming/Blockchain/Projects/Personal/HotelDapp/contracts/Booking.sol",
  "compiler": {
    "name": "solc",
    "version": "0.8.10+commit.fc410830.Emscripten.clang"
  },
  "schemaVersion": "3.4.1",
  "updatedAt": "2021-11-20T18:55:23.091Z",
  "devdoc": {
    "kind": "dev",
    "methods": {
      "owner()": {
        "details": "Returns the address of the current owner."
      },
      "renounceOwnership()": {
        "details": "Leaves the contract without owner. It will not be possible to call `onlyOwner` functions anymore. Can only be called by the current owner. NOTE: Renouncing ownership will leave the contract without an owner, thereby removing any functionality that is only available to the owner."
      },
      "transferOwnership(address)": {
        "details": "Transfers ownership of the contract to a new account (`newOwner`). Can only be called by the current owner."
      }
    },
    "version": 1
  },
  "userdoc": {
    "kind": "user",
    "methods": {},
    "version": 1
  }
}