{
  "contractName": "Booking",
  "abi": [
    {
      "inputs": [],
      "stateMutability": "nonpayable",
      "type": "constructor"
    },
    {
      "anonymous": false,
      "inputs": [
        {
          "indexed": true,
          "internalType": "address",
          "name": "tenant",
          "type": "address"
        },
        {
          "indexed": true,
          "internalType": "uint256",
          "name": "roomId",
          "type": "uint256"
        },
        {
          "indexed": true,
          "internalType": "uint256",
          "name": "date",
          "type": "uint256"
        }
      ],
      "name": "CheckoutSuccessfull",
      "type": "event"
    },
    {
      "anonymous": false,
      "inputs": [
        {
          "indexed": true,
          "internalType": "address",
          "name": "causer",
          "type": "address"
        },
        {
          "indexed": false,
          "internalType": "uint256",
          "name": "date",
          "type": "uint256"
        },
        {
          "indexed": true,
          "internalType": "enum Hotel.HOTEL_CATEGORY",
          "name": "newCategory",
          "type": "uint8"
        }
      ],
      "name": "HotelCategoryChanged",
      "type": "event"
    },
    {
      "anonymous": false,
      "inputs": [
        {
          "indexed": false,
          "internalType": "uint256",
          "name": "date",
          "type": "uint256"
        },
        {
          "indexed": true,
          "internalType": "address",
          "name": "causer",
          "type": "address"
        },
        {
          "indexed": true,
          "internalType": "uint256",
          "name": "id",
          "type": "uint256"
        }
      ],
      "name": "HotelCreated",
      "type": "event"
    },
    {
      "anonymous": false,
      "inputs": [
        {
          "indexed": true,
          "internalType": "address",
          "name": "user",
          "type": "address"
        },
        {
          "indexed": true,
          "internalType": "uint256",
          "name": "date",
          "type": "uint256"
        },
        {
          "indexed": true,
          "internalType": "uint256",
          "name": "fee",
          "type": "uint256"
        }
      ],
      "name": "HotelListingFeeChanged",
      "type": "event"
    },
    {
      "anonymous": false,
      "inputs": [
        {
          "indexed": true,
          "internalType": "address",
          "name": "causer",
          "type": "address"
        },
        {
          "indexed": true,
          "internalType": "address",
          "name": "newOwner",
          "type": "address"
        },
        {
          "indexed": false,
          "internalType": "uint256",
          "name": "date",
          "type": "uint256"
        }
      ],
      "name": "HotelOwnerChanged",
      "type": "event"
    },
    {
      "anonymous": false,
      "inputs": [
        {
          "indexed": true,
          "internalType": "address",
          "name": "user",
          "type": "address"
        },
        {
          "indexed": false,
          "internalType": "uint256",
          "name": "date",
          "type": "uint256"
        },
        {
          "indexed": false,
          "internalType": "uint256",
          "name": "id",
          "type": "uint256"
        }
      ],
      "name": "NewRoomCreated",
      "type": "event"
    },
    {
      "anonymous": false,
      "inputs": [
        {
          "indexed": true,
          "internalType": "address",
          "name": "previousOwner",
          "type": "address"
        },
        {
          "indexed": true,
          "internalType": "address",
          "name": "newOwner",
          "type": "address"
        }
      ],
      "name": "OwnershipTransferred",
      "type": "event"
    },
    {
      "anonymous": false,
      "inputs": [
        {
          "indexed": false,
          "internalType": "uint256",
          "name": "date",
          "type": "uint256"
        },
        {
          "indexed": true,
          "internalType": "address",
          "name": "tenant",
          "type": "address"
        },
        {
          "indexed": true,
          "internalType": "uint256",
          "name": "amountPaid",
          "type": "uint256"
        },
        {
          "indexed": true,
          "internalType": "uint256",
          "name": "roomId",
          "type": "uint256"
        }
      ],
      "name": "RoomBooked",
      "type": "event"
    },
    {
      "anonymous": false,
      "inputs": [
        {
          "indexed": true,
          "internalType": "address",
          "name": "user",
          "type": "address"
        },
        {
          "indexed": false,
          "internalType": "uint256",
          "name": "price",
          "type": "uint256"
        },
        {
          "indexed": true,
          "internalType": "uint256",
          "name": "date",
          "type": "uint256"
        }
      ],
      "name": "RoomNightPriceSet",
      "type": "event"
    },
    {
      "inputs": [
        {
          "internalType": "string",
          "name": "_name",
          "type": "string"
        },
        {
          "internalType": "string",
          "name": "_description",
          "type": "string"
        },
        {
          "internalType": "string",
          "name": "_location",
          "type": "string"
        },
        {
          "internalType": "string",
          "name": "_imageHash",
          "type": "string"
        }
      ],
      "name": "addHotel",
      "outputs": [],
      "stateMutability": "payable",
      "type": "function"
    },
    {
      "inputs": [
        {
          "internalType": "uint256",
          "name": "_hotelId",
          "type": "uint256"
        },
        {
          "internalType": "uint256",
          "name": "_totalBeds",
          "type": "uint256"
        },
        {
          "internalType": "uint256",
          "name": "_pricePerNight",
          "type": "uint256"
        },
        {
          "internalType": "uint256",
          "name": "_number",
          "type": "uint256"
        },
        {
          "internalType": "string",
          "name": "_name",
          "type": "string"
        },
        {
          "internalType": "string",
          "name": "_description",
          "type": "string"
        }
      ],
      "name": "addRoom",
      "outputs": [],
      "stateMutability": "nonpayable",
      "type": "function"
    },
    {
      "inputs": [
        {
          "internalType": "uint256",
          "name": "",
          "type": "uint256"
        }
      ],
      "name": "bookings",
      "outputs": [
        {
          "internalType": "uint256",
          "name": "roomId",
          "type": "uint256"
        },
        {
          "internalType": "uint256",
          "name": "bookingId",
          "type": "uint256"
        },
        {
          "internalType": "uint256",
          "name": "bookingDate",
          "type": "uint256"
        },
        {
          "internalType": "uint256",
          "name": "amountPaid",
          "type": "uint256"
        },
        {
          "internalType": "address payable",
          "name": "tenant",
          "type": "address"
        }
      ],
      "stateMutability": "view",
      "type": "function"
    },
    {
      "inputs": [
        {
          "internalType": "uint256",
          "name": "_hotelId",
          "type": "uint256"
        },
        {
          "internalType": "enum Hotel.HOTEL_CATEGORY",
          "name": "_category",
          "type": "uint8"
        }
      ],
      "name": "changeHotelCategory",
      "outputs": [],
      "stateMutability": "nonpayable",
      "type": "function"
    },
    {
      "inputs": [
        {
          "internalType": "address payable",
          "name": "_newOwner",
          "type": "address"
        },
        {
          "internalType": "uint256",
          "name": "_hotelId",
          "type": "uint256"
        }
      ],
      "name": "changeHotelOwner",
      "outputs": [],
      "stateMutability": "nonpayable",
      "type": "function"
    },
    {
      "inputs": [
        {
          "internalType": "uint256",
          "name": "",
          "type": "uint256"
        }
      ],
      "name": "existingHotelItemId",
      "outputs": [
        {
          "internalType": "bool",
          "name": "",
          "type": "bool"
        }
      ],
      "stateMutability": "view",
      "type": "function"
    },
    {
      "inputs": [
        {
          "internalType": "string",
          "name": "",
          "type": "string"
        }
      ],
      "name": "existingHotelItemName",
      "outputs": [
        {
          "internalType": "bool",
          "name": "",
          "type": "bool"
        }
      ],
      "stateMutability": "view",
      "type": "function"
    },
    {
      "inputs": [
        {
          "internalType": "uint256",
          "name": "",
          "type": "uint256"
        }
      ],
      "name": "existingRoomItem",
      "outputs": [
        {
          "internalType": "bool",
          "name": "",
          "type": "bool"
        }
      ],
      "stateMutability": "view",
      "type": "function"
    },
    {
      "inputs": [
        {
          "internalType": "string",
          "name": "",
          "type": "string"
        }
      ],
      "name": "existingRoomItemName",
      "outputs": [
        {
          "internalType": "bool",
          "name": "",
          "type": "bool"
        }
      ],
      "stateMutability": "view",
      "type": "function"
    },
    {
      "inputs": [
        {
          "internalType": "uint256",
          "name": "_hotelId",
          "type": "uint256"
        }
      ],
      "name": "getHotelBioData",
      "outputs": [
        {
          "internalType": "uint256",
          "name": "_id",
          "type": "uint256"
        },
        {
          "internalType": "uint256",
          "name": "_totalRooms",
          "type": "uint256"
        },
        {
          "internalType": "uint256",
          "name": "_date",
          "type": "uint256"
        },
        {
          "internalType": "string",
          "name": "_name",
          "type": "string"
        },
        {
          "internalType": "string",
          "name": "_description",
          "type": "string"
        },
        {
          "internalType": "string",
          "name": "_location",
          "type": "string"
        },
        {
          "internalType": "enum Hotel.HOTEL_CATEGORY",
          "name": "_category",
          "type": "uint8"
        },
        {
          "internalType": "string",
          "name": "_photo",
          "type": "string"
        }
      ],
      "stateMutability": "view",
      "type": "function"
    },
    {
      "inputs": [
        {
          "internalType": "uint256",
          "name": "_roomId",
          "type": "uint256"
        }
      ],
      "name": "getId",
      "outputs": [
        {
          "internalType": "uint256",
          "name": "",
          "type": "uint256"
        }
      ],
      "stateMutability": "view",
      "type": "function"
    },
    {
      "inputs": [
        {
          "internalType": "uint256",
          "name": "hotelId",
          "type": "uint256"
        }
      ],
      "name": "getImageHash",
      "outputs": [
        {
          "internalType": "string",
          "name": "_imageHash",
          "type": "string"
        }
      ],
      "stateMutability": "view",
      "type": "function"
    },
    {
      "inputs": [
        {
          "internalType": "uint256",
          "name": "_roomId",
          "type": "uint256"
        }
      ],
      "name": "getName",
      "outputs": [
        {
          "internalType": "string",
          "name": "",
          "type": "string"
        }
      ],
      "stateMutability": "view",
      "type": "function"
    },
    {
      "inputs": [
        {
          "internalType": "uint256",
          "name": "_roomId",
          "type": "uint256"
        }
      ],
      "name": "getRoomBioData",
      "outputs": [
        {
          "internalType": "uint256",
          "name": "_id",
          "type": "uint256"
        },
        {
          "internalType": "uint256",
          "name": "_numOfBeds",
          "type": "uint256"
        },
        {
          "internalType": "uint256",
          "name": "_hotelId",
          "type": "uint256"
        },
        {
          "internalType": "uint256",
          "name": "_pricePerNight",
          "type": "uint256"
        },
        {
          "internalType": "uint256",
          "name": "_number",
          "type": "uint256"
        },
        {
          "internalType": "bool",
          "name": "_isBooked",
          "type": "bool"
        },
        {
          "internalType": "address",
          "name": "_user",
          "type": "address"
        },
        {
          "internalType": "string",
          "name": "_name",
          "type": "string"
        },
        {
          "internalType": "string",
          "name": "_description",
          "type": "string"
        }
      ],
      "stateMutability": "view",
      "type": "function"
    },
    {
      "inputs": [],
      "name": "hotelCategory",
      "outputs": [
        {
          "internalType": "enum Hotel.HOTEL_CATEGORY",
          "name": "",
          "type": "uint8"
        }
      ],
      "stateMutability": "view",
      "type": "function"
    },
    {
      "inputs": [
        {
          "internalType": "uint256",
          "name": "",
          "type": "uint256"
        }
      ],
      "name": "hotelItemId",
      "outputs": [
        {
          "internalType": "uint256",
          "name": "id",
          "type": "uint256"
        },
        {
          "internalType": "uint256",
          "name": "totalRooms",
          "type": "uint256"
        },
        {
          "internalType": "uint256",
          "name": "creationDate",
          "type": "uint256"
        },
        {
          "internalType": "string",
          "name": "name",
          "type": "string"
        },
        {
          "internalType": "enum Hotel.HOTEL_CATEGORY",
          "name": "hotelCategory",
          "type": "uint8"
        },
        {
          "internalType": "string",
          "name": "description",
          "type": "string"
        },
        {
          "internalType": "string",
          "name": "locationAddress",
          "type": "string"
        },
        {
          "internalType": "address payable",
          "name": "user",
          "type": "address"
        },
        {
          "internalType": "string",
          "name": "imageHash",
          "type": "string"
        }
      ],
      "stateMutability": "view",
      "type": "function"
    },
    {
      "inputs": [
        {
          "internalType": "uint256",
          "name": "",
          "type": "uint256"
        }
      ],
      "name": "hotelItems",
      "outputs": [
        {
          "internalType": "uint256",
          "name": "id",
          "type": "uint256"
        },
        {
          "internalType": "uint256",
          "name": "totalRooms",
          "type": "uint256"
        },
        {
          "internalType": "uint256",
          "name": "creationDate",
          "type": "uint256"
        },
        {
          "internalType": "string",
          "name": "name",
          "type": "string"
        },
        {
          "internalType": "enum Hotel.HOTEL_CATEGORY",
          "name": "hotelCategory",
          "type": "uint8"
        },
        {
          "internalType": "string",
          "name": "description",
          "type": "string"
        },
        {
          "internalType": "string",
          "name": "locationAddress",
          "type": "string"
        },
        {
          "internalType": "address payable",
          "name": "user",
          "type": "address"
        },
        {
          "internalType": "string",
          "name": "imageHash",
          "type": "string"
        }
      ],
      "stateMutability": "view",
      "type": "function"
    },
    {
      "inputs": [],
      "name": "hotelListingFee",
      "outputs": [
        {
          "internalType": "uint256",
          "name": "",
          "type": "uint256"
        }
      ],
      "stateMutability": "view",
      "type": "function"
    },
    {
      "inputs": [
        {
          "internalType": "address",
          "name": "",
          "type": "address"
        }
      ],
      "name": "hotelOwner",
      "outputs": [
        {
          "internalType": "uint256",
          "name": "id",
          "type": "uint256"
        },
        {
          "internalType": "uint256",
          "name": "totalRooms",
          "type": "uint256"
        },
        {
          "internalType": "uint256",
          "name": "creationDate",
          "type": "uint256"
        },
        {
          "internalType": "string",
          "name": "name",
          "type": "string"
        },
        {
          "internalType": "enum Hotel.HOTEL_CATEGORY",
          "name": "hotelCategory",
          "type": "uint8"
        },
        {
          "internalType": "string",
          "name": "description",
          "type": "string"
        },
        {
          "internalType": "string",
          "name": "locationAddress",
          "type": "string"
        },
        {
          "internalType": "address payable",
          "name": "user",
          "type": "address"
        },
        {
          "internalType": "string",
          "name": "imageHash",
          "type": "string"
        }
      ],
      "stateMutability": "view",
      "type": "function"
    },
    {
      "inputs": [],
      "name": "listAllHotels",
      "outputs": [
        {
          "components": [
            {
              "internalType": "uint256",
              "name": "id",
              "type": "uint256"
            },
            {
              "internalType": "uint256",
              "name": "totalRooms",
              "type": "uint256"
            },
            {
              "internalType": "uint256",
              "name": "creationDate",
              "type": "uint256"
            },
            {
              "internalType": "string",
              "name": "name",
              "type": "string"
            },
            {
              "internalType": "enum Hotel.HOTEL_CATEGORY",
              "name": "hotelCategory",
              "type": "uint8"
            },
            {
              "internalType": "string",
              "name": "description",
              "type": "string"
            },
            {
              "internalType": "string",
              "name": "locationAddress",
              "type": "string"
            },
            {
              "internalType": "address payable",
              "name": "user",
              "type": "address"
            },
            {
              "internalType": "string",
              "name": "imageHash",
              "type": "string"
            }
          ],
          "internalType": "struct Hotel.HotelItem[]",
          "name": "",
          "type": "tuple[]"
        }
      ],
      "stateMutability": "view",
      "type": "function"
    },
    {
      "inputs": [],
      "name": "listRooms",
      "outputs": [
        {
          "components": [
            {
              "internalType": "uint256",
              "name": "id",
              "type": "uint256"
            },
            {
              "internalType": "uint256",
              "name": "totalBeds",
              "type": "uint256"
            },
            {
              "internalType": "uint256",
              "name": "hotelId",
              "type": "uint256"
            },
            {
              "internalType": "uint256",
              "name": "pricePerNight",
              "type": "uint256"
            },
            {
              "internalType": "uint256",
              "name": "number",
              "type": "uint256"
            },
            {
              "internalType": "bool",
              "name": "isBooked",
              "type": "bool"
            },
            {
              "internalType": "address payable",
              "name": "user",
              "type": "address"
            },
            {
              "internalType": "string",
              "name": "name",
              "type": "string"
            },
            {
              "internalType": "string",
              "name": "description",
              "type": "string"
            }
          ],
          "internalType": "struct Room.RoomItem[]",
          "name": "",
          "type": "tuple[]"
        }
      ],
      "stateMutability": "view",
      "type": "function"
    },
    {
      "inputs": [],
      "name": "owner",
      "outputs": [
        {
          "internalType": "address",
          "name": "",
          "type": "address"
        }
      ],
      "stateMutability": "view",
      "type": "function"
    },
    {
      "inputs": [],
      "name": "renounceOwnership",
      "outputs": [],
      "stateMutability": "nonpayable",
      "type": "function"
    },
    {
      "inputs": [
        {
          "internalType": "uint256",
          "name": "",
          "type": "uint256"
        }
      ],
      "name": "roomItemId",
      "outputs": [
        {
          "internalType": "uint256",
          "name": "id",
          "type": "uint256"
        },
        {
          "internalType": "uint256",
          "name": "totalBeds",
          "type": "uint256"
        },
        {
          "internalType": "uint256",
          "name": "hotelId",
          "type": "uint256"
        },
        {
          "internalType": "uint256",
          "name": "pricePerNight",
          "type": "uint256"
        },
        {
          "internalType": "uint256",
          "name": "number",
          "type": "uint256"
        },
        {
          "internalType": "bool",
          "name": "isBooked",
          "type": "bool"
        },
        {
          "internalType": "address payable",
          "name": "user",
          "type": "address"
        },
        {
          "internalType": "string",
          "name": "name",
          "type": "string"
        },
        {
          "internalType": "string",
          "name": "description",
          "type": "string"
        }
      ],
      "stateMutability": "view",
      "type": "function"
    },
    {
      "inputs": [
        {
          "internalType": "address",
          "name": "",
          "type": "address"
        }
      ],
      "name": "roomOwner",
      "outputs": [
        {
          "internalType": "uint256",
          "name": "id",
          "type": "uint256"
        },
        {
          "internalType": "uint256",
          "name": "totalBeds",
          "type": "uint256"
        },
        {
          "internalType": "uint256",
          "name": "hotelId",
          "type": "uint256"
        },
        {
          "internalType": "uint256",
          "name": "pricePerNight",
          "type": "uint256"
        },
        {
          "internalType": "uint256",
          "name": "number",
          "type": "uint256"
        },
        {
          "internalType": "bool",
          "name": "isBooked",
          "type": "bool"
        },
        {
          "internalType": "address payable",
          "name": "user",
          "type": "address"
        },
        {
          "internalType": "string",
          "name": "name",
          "type": "string"
        },
        {
          "internalType": "string",
          "name": "description",
          "type": "string"
        }
      ],
      "stateMutability": "view",
      "type": "function"
    },
    {
      "inputs": [
        {
          "internalType": "uint256",
          "name": "",
          "type": "uint256"
        }
      ],
      "name": "roomTenant",
      "outputs": [
        {
          "internalType": "address",
          "name": "",
          "type": "address"
        }
      ],
      "stateMutability": "view",
      "type": "function"
    },
    {
      "inputs": [
        {
          "internalType": "uint256",
          "name": "",
          "type": "uint256"
        }
      ],
      "name": "rooms",
      "outputs": [
        {
          "internalType": "uint256",
          "name": "id",
          "type": "uint256"
        },
        {
          "internalType": "uint256",
          "name": "totalBeds",
          "type": "uint256"
        },
        {
          "internalType": "uint256",
          "name": "hotelId",
          "type": "uint256"
        },
        {
          "internalType": "uint256",
          "name": "pricePerNight",
          "type": "uint256"
        },
        {
          "internalType": "uint256",
          "name": "number",
          "type": "uint256"
        },
        {
          "internalType": "bool",
          "name": "isBooked",
          "type": "bool"
        },
        {
          "internalType": "address payable",
          "name": "user",
          "type": "address"
        },
        {
          "internalType": "string",
          "name": "name",
          "type": "string"
        },
        {
          "internalType": "string",
          "name": "description",
          "type": "string"
        }
      ],
      "stateMutability": "view",
      "type": "function"
    },
    {
      "inputs": [
        {
          "internalType": "uint256",
          "name": "hotelId",
          "type": "uint256"
        },
        {
          "internalType": "string",
          "name": "imageHash",
          "type": "string"
        }
      ],
      "name": "setImageHash",
      "outputs": [],
      "stateMutability": "nonpayable",
      "type": "function"
    },
    {
      "inputs": [
        {
          "internalType": "uint256",
          "name": "_fee",
          "type": "uint256"
        }
      ],
      "name": "setListingFee",
      "outputs": [],
      "stateMutability": "nonpayable",
      "type": "function"
    },
    {
      "inputs": [
        {
          "internalType": "uint256",
          "name": "_roomId",
          "type": "uint256"
        },
        {
          "internalType": "uint256",
          "name": "_price",
          "type": "uint256"
        }
      ],
      "name": "setNightPrice",
      "outputs": [],
      "stateMutability": "nonpayable",
      "type": "function"
    },
    {
      "inputs": [],
      "name": "totalBookings",
      "outputs": [
        {
          "internalType": "uint256",
          "name": "",
          "type": "uint256"
        }
      ],
      "stateMutability": "view",
      "type": "function"
    },
    {
      "inputs": [],
      "name": "totalHotels",
      "outputs": [
        {
          "internalType": "uint256",
          "name": "",
          "type": "uint256"
        }
      ],
      "stateMutability": "view",
      "type": "function"
    },
    {
      "inputs": [],
      "name": "totalRooms",
      "outputs": [
        {
          "internalType": "uint256",
          "name": "",
          "type": "uint256"
        }
      ],
      "stateMutability": "view",
      "type": "function"
    },
    {
      "inputs": [
        {
          "internalType": "address",
          "name": "newOwner",
          "type": "address"
        }
      ],
      "name": "transferOwnership",
      "outputs": [],
      "stateMutability": "nonpayable",
      "type": "function"
    },
    {
      "inputs": [
        {
          "internalType": "uint256",
          "name": "_roomId",
          "type": "uint256"
        },
        {
          "internalType": "uint256",
          "name": "_numOfNights",
          "type": "uint256"
        }
      ],
      "name": "bookRoom",
      "outputs": [],
      "stateMutability": "payable",
      "type": "function"
    },
    {
      "inputs": [
        {
          "internalType": "uint256",
          "name": "_roomId",
          "type": "uint256"
        }
      ],
      "name": "checkOut",
      "outputs": [],
      "stateMutability": "payable",
      "type": "function"
    }
  ],
  "bytecode": "0x60806040526000600255660187152d40e0006003556000600b5560006014553480156200002b57600080fd5b506200004c620000406200005960201b60201c565b6200006160201b60201c565b6001808190555062000125565b600033905090565b60008060009054906101000a900473ffffffffffffffffffffffffffffffffffffffff169050816000806101000a81548173ffffffffffffffffffffffffffffffffffffffff021916908373ffffffffffffffffffffffffffffffffffffffff1602179055508173ffffffffffffffffffffffffffffffffffffffff168173ffffffffffffffffffffffffffffffffffffffff167f8be0079c531659141344cd1fd0a4f28419497f9722a3daafe3b4186f6b6457e060405160405180910390a35050565b6166fd80620001356000396000f3fe60806040526004361061020f5760003560e01c806374dbda0511610118578063af5537fa116100a0578063c5a56e821161006f578063c5a56e8214610856578063c89e49631461087f578063cee9e078146108c4578063f2fde38b14610901578063fd5fddd81461092a5761020f565b8063af5537fa146107ac578063b2afef82146107d7578063bbc02ce214610800578063c210c5321461082b5761020f565b806391aa8489116100e757806391aa8489146106a35780639524a38e146106ce578063958aa59b146107135780639668ce3e146107585780639e3edce9146107835761020f565b806374dbda05146105e2578063808658771461061f5780638a3a1a181461065c5780638da5cb5b146106785761020f565b80633716236e1161019b578063545a153a1161016a578063545a153a146104eb57806362834462146105285780636b8ff5741461056557806370f3bfd8146105a2578063715018a6146105cb5761020f565b80633716236e146103fb578063387329f9146104405780634dce717e146104695780634ee9a94d146104a65761020f565b8063131dbd09116101e2578063131dbd09146102eb5780631bae0ac8146103145780631bd2eeee146103595780631dab301e1461037557806330776497146103b65761020f565b80630aaecc35146102145780630af272f7146102515780630fa0200d1461029557806310f70192146102c0575b600080fd5b34801561022057600080fd5b5061023b600480360381019061023691906149d1565b610946565b6040516102489190614a35565b60405180910390f35b34801561025d57600080fd5b5061027860048036038101906102739190614a86565b61097c565b60405161028c989796959493929190614bc1565b60405180910390f35b3480156102a157600080fd5b506102aa610c7b565b6040516102b79190614c5b565b60405180910390f35b3480156102cc57600080fd5b506102d5610c8e565b6040516102e29190614ead565b60405180910390f35b3480156102f757600080fd5b50610312600480360381019061030d9190614a86565b610eb5565b005b34801561032057600080fd5b5061033b60048036038101906103369190614a86565b610fc4565b60405161035099989796959493929190614ede565b60405180910390f35b610373600480360381019061036e9190614a86565b61115f565b005b34801561038157600080fd5b5061039c60048036038101906103979190614a86565b611332565b6040516103ad959493929190614f79565b60405180910390f35b3480156103c257600080fd5b506103dd60048036038101906103d89190614a86565b611398565b6040516103f299989796959493929190614ede565b60405180910390f35b34801561040757600080fd5b50610422600480360381019061041d919061500a565b611523565b60405161043799989796959493929190615037565b60405180910390f35b34801561044c57600080fd5b506104676004803603810190610462919061510c565b6117be565b005b34801561047557600080fd5b50610490600480360381019061048b91906149d1565b611a6a565b60405161049d9190614a35565b60405180910390f35b3480156104b257600080fd5b506104cd60048036038101906104c8919061500a565b611aa0565b6040516104e299989796959493929190614ede565b60405180910390f35b3480156104f757600080fd5b50610512600480360381019061050d9190614a86565b611c2b565b60405161051f919061514c565b60405180910390f35b34801561053457600080fd5b5061054f600480360381019061054a9190614a86565b611c4b565b60405161055c9190615167565b60405180910390f35b34801561057157600080fd5b5061058c60048036038101906105879190614a86565b611d5a565b6040516105999190615167565b60405180910390f35b3480156105ae57600080fd5b506105c960048036038101906105c491906151ae565b611e02565b005b3480156105d757600080fd5b506105e0612036565b005b3480156105ee57600080fd5b5061060960048036038101906106049190614a86565b6120be565b6040516106169190614a35565b60405180910390f35b34801561062b57600080fd5b5061064660048036038101906106419190614a86565b6120de565b60405161065391906151fd565b60405180910390f35b61067660048036038101906106719190615218565b612111565b005b34801561068457600080fd5b5061068d6124ec565b60405161069a91906151fd565b60405180910390f35b3480156106af57600080fd5b506106b8612515565b6040516106c5919061514c565b60405180910390f35b3480156106da57600080fd5b506106f560048036038101906106f09190614a86565b61251b565b60405161070a99989796959493929190615037565b60405180910390f35b34801561071f57600080fd5b5061073a60048036038101906107359190614a86565b6127b6565b60405161074f99989796959493929190615258565b60405180910390f35b34801561076457600080fd5b5061076d6129ce565b60405161077a919061514c565b60405180910390f35b34801561078f57600080fd5b506107aa60048036038101906107a591906152f3565b6129d4565b005b3480156107b857600080fd5b506107c1612a6a565b6040516107ce919061514c565b60405180910390f35b3480156107e357600080fd5b506107fe60048036038101906107f9919061534f565b612a70565b005b34801561080c57600080fd5b5061081561331a565b604051610822919061514c565b60405180910390f35b34801561083757600080fd5b50610840613320565b60405161084d91906155bf565b60405180910390f35b34801561086257600080fd5b5061087d60048036038101906108789190615218565b613677565b005b34801561088b57600080fd5b506108a660048036038101906108a19190614a86565b6137cf565b6040516108bb99989796959493929190615037565b60405180910390f35b3480156108d057600080fd5b506108eb60048036038101906108e69190614a86565b613a7a565b6040516108f89190614a35565b60405180910390f35b34801561090d57600080fd5b506109286004803603810190610923919061500a565b613a9a565b005b610944600480360381019061093f91906155e1565b613b92565b005b6012818051602081018201805184825260208301602085012081835280955050505050506000915054906101000a900460ff1681565b600080600060608060606000606088600115156009600083815260200190815260200160002060009054906101000a900460ff161515146109f2576040517f08c379a00000000000000000000000000000000000000000000000000000000081526004016109e990615704565b60405180910390fd5b6000600760008c81526020019081526020016000209050806000015499508060010154985080600201549750806003018054610a2d90615753565b80601f0160208091040260200160405190810160405280929190818152602001828054610a5990615753565b8015610aa65780601f10610a7b57610100808354040283529160200191610aa6565b820191906000526020600020905b815481529060010190602001808311610a8957829003601f168201915b50505050509650806005018054610abc90615753565b80601f0160208091040260200160405190810160405280929190818152602001828054610ae890615753565b8015610b355780601f10610b0a57610100808354040283529160200191610b35565b820191906000526020600020905b815481529060010190602001808311610b1857829003601f168201915b50505050509550806006018054610b4b90615753565b80601f0160208091040260200160405190810160405280929190818152602001828054610b7790615753565b8015610bc45780601f10610b9957610100808354040283529160200191610bc4565b820191906000526020600020905b815481529060010190602001808311610ba757829003601f168201915b505050505094508060040160009054906101000a900460ff169350806008018054610bee90615753565b80601f0160208091040260200160405190810160405280929190818152602001828054610c1a90615753565b8015610c675780601f10610c3c57610100808354040283529160200191610c67565b820191906000526020600020905b815481529060010190602001808311610c4a57829003601f168201915b505050505092505050919395975091939597565b600560009054906101000a900460ff1681565b6060600d805480602002602001604051908101604052809291908181526020016000905b82821015610eac57838290600052602060002090600802016040518061012001604052908160008201548152602001600182015481526020016002820154815260200160038201548152602001600482015481526020016005820160009054906101000a900460ff161515151581526020016005820160019054906101000a900473ffffffffffffffffffffffffffffffffffffffff1673ffffffffffffffffffffffffffffffffffffffff1673ffffffffffffffffffffffffffffffffffffffff168152602001600682018054610d8990615753565b80601f0160208091040260200160405190810160405280929190818152602001828054610db590615753565b8015610e025780601f10610dd757610100808354040283529160200191610e02565b820191906000526020600020905b815481529060010190602001808311610de557829003601f168201915b50505050508152602001600782018054610e1b90615753565b80601f0160208091040260200160405190810160405280929190818152602001828054610e4790615753565b8015610e945780601f10610e6957610100808354040283529160200191610e94565b820191906000526020600020905b815481529060010190602001808311610e7757829003601f168201915b50505050508152505081526020019060010190610cb2565b50505050905090565b610ebd614383565b73ffffffffffffffffffffffffffffffffffffffff16610edb6124ec565b73ffffffffffffffffffffffffffffffffffffffff1614610f31576040517f08c379a0000000000000000000000000000000000000000000000000000000008152600401610f28906157d1565b60405180910390fd5b6000811415610f75576040517f08c379a0000000000000000000000000000000000000000000000000000000008152600401610f6c9061583d565b60405180910390fd5b8060038190555080423373ffffffffffffffffffffffffffffffffffffffff167fd86cac97cd3caa153b72db918dc0feb1ed9683dfd389c345d07f7d00390b63b760405160405180910390a450565b600d8181548110610fd457600080fd5b90600052602060002090600802016000915090508060000154908060010154908060020154908060030154908060040154908060050160009054906101000a900460ff16908060050160019054906101000a900473ffffffffffffffffffffffffffffffffffffffff169080600601805461104e90615753565b80601f016020809104026020016040519081016040528092919081815260200182805461107a90615753565b80156110c75780601f1061109c576101008083540402835291602001916110c7565b820191906000526020600020905b8154815290600101906020018083116110aa57829003601f168201915b5050505050908060070180546110dc90615753565b80601f016020809104026020016040519081016040528092919081815260200182805461110890615753565b80156111555780601f1061112a57610100808354040283529160200191611155565b820191906000526020600020905b81548152906001019060200180831161113857829003601f168201915b5050505050905089565b600260015414156111a5576040517f08c379a000000000000000000000000000000000000000000000000000000000815260040161119c906158a9565b60405180910390fd5b60026001819055506000601060008381526020019081526020016000209050600115158160050160009054906101000a900460ff1615151461121c576040517f08c379a000000000000000000000000000000000000000000000000000000000815260040161121390615915565b60405180910390fd5b600f60008260000154815260200190815260200160002060009054906101000a900473ffffffffffffffffffffffffffffffffffffffff1673ffffffffffffffffffffffffffffffffffffffff163373ffffffffffffffffffffffffffffffffffffffff16146112c1576040517f08c379a00000000000000000000000000000000000000000000000000000000081526004016112b8906159a7565b60405180910390fd5b60008160050160006101000a81548160ff0219169083151502179055504281600001543373ffffffffffffffffffffffffffffffffffffffff167f1e7d243bbd980a7b6407550d96c8d6557b193cd3a9cf91f820d9f6720636304260405160405180910390a4506001808190555050565b6013818154811061134257600080fd5b90600052602060002090600502016000915090508060000154908060010154908060020154908060030154908060040160009054906101000a900473ffffffffffffffffffffffffffffffffffffffff16905085565b60106020528060005260406000206000915090508060000154908060010154908060020154908060030154908060040154908060050160009054906101000a900460ff16908060050160019054906101000a900473ffffffffffffffffffffffffffffffffffffffff169080600601805461141290615753565b80601f016020809104026020016040519081016040528092919081815260200182805461143e90615753565b801561148b5780601f106114605761010080835404028352916020019161148b565b820191906000526020600020905b81548152906001019060200180831161146e57829003601f168201915b5050505050908060070180546114a090615753565b80601f01602080910402602001604051908101604052809291908181526020018280546114cc90615753565b80156115195780601f106114ee57610100808354040283529160200191611519565b820191906000526020600020905b8154815290600101906020018083116114fc57829003601f168201915b5050505050905089565b600860205280600052604060002060009150905080600001549080600101549080600201549080600301805461155890615753565b80601f016020809104026020016040519081016040528092919081815260200182805461158490615753565b80156115d15780601f106115a6576101008083540402835291602001916115d1565b820191906000526020600020905b8154815290600101906020018083116115b457829003601f168201915b5050505050908060040160009054906101000a900460ff16908060050180546115f990615753565b80601f016020809104026020016040519081016040528092919081815260200182805461162590615753565b80156116725780601f1061164757610100808354040283529160200191611672565b820191906000526020600020905b81548152906001019060200180831161165557829003601f168201915b50505050509080600601805461168790615753565b80601f01602080910402602001604051908101604052809291908181526020018280546116b390615753565b80156117005780601f106116d557610100808354040283529160200191611700565b820191906000526020600020905b8154815290600101906020018083116116e357829003601f168201915b5050505050908060070160009054906101000a900473ffffffffffffffffffffffffffffffffffffffff169080600801805461173b90615753565b80601f016020809104026020016040519081016040528092919081815260200182805461176790615753565b80156117b45780601f10611789576101008083540402835291602001916117b4565b820191906000526020600020905b81548152906001019060200180831161179757829003601f168201915b5050505050905089565b80600115156009600083815260200190815260200160002060009054906101000a900460ff16151514611826576040517f08c379a000000000000000000000000000000000000000000000000000000000815260040161181d90615704565b60405180910390fd5b816007600082815260200190815260200160002060070160009054906101000a900473ffffffffffffffffffffffffffffffffffffffff1673ffffffffffffffffffffffffffffffffffffffff163373ffffffffffffffffffffffffffffffffffffffff16146118cb576040517f08c379a00000000000000000000000000000000000000000000000000000000081526004016118c290615a13565b60405180910390fd5b8373ffffffffffffffffffffffffffffffffffffffff163373ffffffffffffffffffffffffffffffffffffffff16141561193a576040517f08c379a000000000000000000000000000000000000000000000000000000000815260040161193190615aa5565b60405180910390fd5b600073ffffffffffffffffffffffffffffffffffffffff168473ffffffffffffffffffffffffffffffffffffffff1614156119aa576040517f08c379a00000000000000000000000000000000000000000000000000000000081526004016119a190615b37565b60405180910390fd5b836007600085815260200190815260200160002060070160006101000a81548173ffffffffffffffffffffffffffffffffffffffff021916908373ffffffffffffffffffffffffffffffffffffffff1602179055508373ffffffffffffffffffffffffffffffffffffffff163373ffffffffffffffffffffffffffffffffffffffff167fa4384cd8553d716f837cc7d68ed60529f9672b59cf96f1ce8bef3334183db34a42604051611a5c919061514c565b60405180910390a350505050565b600a818051602081018201805184825260208301602085012081835280955050505050506000915054906101000a900460ff1681565b600e6020528060005260406000206000915090508060000154908060010154908060020154908060030154908060040154908060050160009054906101000a900460ff16908060050160019054906101000a900473ffffffffffffffffffffffffffffffffffffffff1690806006018054611b1a90615753565b80601f0160208091040260200160405190810160405280929190818152602001828054611b4690615753565b8015611b935780601f10611b6857610100808354040283529160200191611b93565b820191906000526020600020905b815481529060010190602001808311611b7657829003601f168201915b505050505090806007018054611ba890615753565b80601f0160208091040260200160405190810160405280929190818152602001828054611bd490615753565b8015611c215780601f10611bf657610100808354040283529160200191611c21565b820191906000526020600020905b815481529060010190602001808311611c0457829003601f168201915b5050505050905089565b600060106000838152602001908152602001600020600001549050919050565b6060600115156009600084815260200190815260200160002060009054906101000a900460ff16151514611cb4576040517f08c379a0000000000000000000000000000000000000000000000000000000008152600401611cab90615704565b60405180910390fd5b600760008381526020019081526020016000206008018054611cd590615753565b80601f0160208091040260200160405190810160405280929190818152602001828054611d0190615753565b8015611d4e5780601f10611d2357610100808354040283529160200191611d4e565b820191906000526020600020905b815481529060010190602001808311611d3157829003601f168201915b50505050509050919050565b6060601060008381526020019081526020016000206006018054611d7d90615753565b80601f0160208091040260200160405190810160405280929190818152602001828054611da990615753565b8015611df65780601f10611dcb57610100808354040283529160200191611df6565b820191906000526020600020905b815481529060010190602001808311611dd957829003601f168201915b50505050509050919050565b81600115156009600083815260200190815260200160002060009054906101000a900460ff16151514611e6a576040517f08c379a0000000000000000000000000000000000000000000000000000000008152600401611e6190615704565b60405180910390fd5b826007600082815260200190815260200160002060070160009054906101000a900473ffffffffffffffffffffffffffffffffffffffff1673ffffffffffffffffffffffffffffffffffffffff163373ffffffffffffffffffffffffffffffffffffffff1614611f0f576040517f08c379a0000000000000000000000000000000000000000000000000000000008152600401611f0690615a13565b60405180910390fd5b600060076000868152602001908152602001600020905060006006811115611f3a57611f39614b4a565b5b846006811115611f4d57611f4c614b4a565b5b1415611f5c57611f5b615b57565b5b8060040160009054906101000a900460ff166006811115611f8057611f7f614b4a565b5b846006811115611f9357611f92614b4a565b5b1415611fa257611fa1615b57565b5b838160040160006101000a81548160ff02191690836006811115611fc957611fc8614b4a565b5b0217905550836006811115611fe157611fe0614b4a565b5b3373ffffffffffffffffffffffffffffffffffffffff167ff5b844f9650efd8a638976417da0e54ababae9d5ae6ec7dbc97124f00d5a5c5e42604051612027919061514c565b60405180910390a35050505050565b61203e614383565b73ffffffffffffffffffffffffffffffffffffffff1661205c6124ec565b73ffffffffffffffffffffffffffffffffffffffff16146120b2576040517f08c379a00000000000000000000000000000000000000000000000000000000081526004016120a9906157d1565b60405180910390fd5b6120bc600061438b565b565b60096020528060005260406000206000915054906101000a900460ff1681565b600f6020528060005260406000206000915054906101000a900473ffffffffffffffffffffffffffffffffffffffff1681565b60026001541415612157576040517f08c379a000000000000000000000000000000000000000000000000000000000815260040161214e906158a9565b60405180910390fd5b600260018190555081600115156011600083815260200190815260200160002060009054906101000a900460ff161515146121c7576040517f08c379a00000000000000000000000000000000000000000000000000000000081526004016121be90615bd2565b60405180910390fd5b82600015156010600083815260200190815260200160002060050160009054906101000a900460ff16151514612232576040517f08c379a000000000000000000000000000000000000000000000000000000000815260040161222990615c3e565b60405180910390fd5b6000601060008681526020019081526020016000209050600061226282600301548661444f90919063ffffffff16565b90508160050160019054906101000a900473ffffffffffffffffffffffffffffffffffffffff1673ffffffffffffffffffffffffffffffffffffffff163373ffffffffffffffffffffffffffffffffffffffff1614156122f7576040517f08c379a00000000000000000000000000000000000000000000000000000000081526004016122ee90615caa565b60405180910390fd5b803373ffffffffffffffffffffffffffffffffffffffff16311015612351576040517f08c379a000000000000000000000000000000000000000000000000000000000815260040161234890615d16565b60405180910390fd5b6000851415612395576040517f08c379a000000000000000000000000000000000000000000000000000000000815260040161238c90615d82565b60405180910390fd5b670de0b6b3a7640000816123a99190615dd1565b34146123ea576040517f08c379a00000000000000000000000000000000000000000000000000000000081526004016123e190615e9d565b60405180910390fd5b6123f46015614465565b6000612400601561447b565b90508260050160019054906101000a900473ffffffffffffffffffffffffffffffffffffffff1673ffffffffffffffffffffffffffffffffffffffff166108fc349081150290604051600060405180830381858888f1935050505015801561246c573d6000803e3d6000fd5b5061247687614489565b6124868360000154823433614524565b33600f60008560000154815260200190815260200160002060006101000a81548173ffffffffffffffffffffffffffffffffffffffff021916908373ffffffffffffffffffffffffffffffffffffffff1602179055505050505050600180819055505050565b60008060009054906101000a900473ffffffffffffffffffffffffffffffffffffffff16905090565b60035481565b600760205280600052604060002060009150905080600001549080600101549080600201549080600301805461255090615753565b80601f016020809104026020016040519081016040528092919081815260200182805461257c90615753565b80156125c95780601f1061259e576101008083540402835291602001916125c9565b820191906000526020600020905b8154815290600101906020018083116125ac57829003601f168201915b5050505050908060040160009054906101000a900460ff16908060050180546125f190615753565b80601f016020809104026020016040519081016040528092919081815260200182805461261d90615753565b801561266a5780601f1061263f5761010080835404028352916020019161266a565b820191906000526020600020905b81548152906001019060200180831161264d57829003601f168201915b50505050509080600601805461267f90615753565b80601f01602080910402602001604051908101604052809291908181526020018280546126ab90615753565b80156126f85780601f106126cd576101008083540402835291602001916126f8565b820191906000526020600020905b8154815290600101906020018083116126db57829003601f168201915b5050505050908060070160009054906101000a900473ffffffffffffffffffffffffffffffffffffffff169080600801805461273390615753565b80601f016020809104026020016040519081016040528092919081815260200182805461275f90615753565b80156127ac5780601f10612781576101008083540402835291602001916127ac565b820191906000526020600020905b81548152906001019060200180831161278f57829003601f168201915b5050505050905089565b600080600080600080600060608089600115156011600083815260200190815260200160002060009054906101000a900460ff1615151461282c576040517f08c379a000000000000000000000000000000000000000000000000000000000815260040161282390615bd2565b60405180910390fd5b6000601060008d8152602001908152602001600020905080600001549a50806001015499508060020154985080600301549750806004015496508060050160009054906101000a900460ff1695508060050160019054906101000a900473ffffffffffffffffffffffffffffffffffffffff1694508060060180546128b090615753565b80601f01602080910402602001604051908101604052809291908181526020018280546128dc90615753565b80156129295780601f106128fe57610100808354040283529160200191612929565b820191906000526020600020905b81548152906001019060200180831161290c57829003601f168201915b5050505050935080600701805461293f90615753565b80601f016020809104026020016040519081016040528092919081815260200182805461296b90615753565b80156129b85780601f1061298d576101008083540402835291602001916129b8565b820191906000526020600020905b81548152906001019060200180831161299b57829003601f168201915b5050505050925050509193959799909294969850565b60145481565b600115156009600084815260200190815260200160002060009054906101000a900460ff16151514612a3b576040517f08c379a0000000000000000000000000000000000000000000000000000000008152600401612a3290615704565b60405180910390fd5b80600760008481526020019081526020016000206008019080519060200190612a65929190614747565b505050565b600b5481565b8560006007600083815260200190815260200160002060070160009054906101000a900473ffffffffffffffffffffffffffffffffffffffff1673ffffffffffffffffffffffffffffffffffffffff163373ffffffffffffffffffffffffffffffffffffffff161415612ae257600190505b6001151581151514612b29576040517f08c379a0000000000000000000000000000000000000000000000000000000008152600401612b2090615f2f565b60405180910390fd5b876007600082815260200190815260200160002060070160009054906101000a900473ffffffffffffffffffffffffffffffffffffffff1673ffffffffffffffffffffffffffffffffffffffff163373ffffffffffffffffffffffffffffffffffffffff1614612bce576040517f08c379a0000000000000000000000000000000000000000000000000000000008152600401612bc590615a13565b60405180910390fd5b88600115156009600083815260200190815260200160002060009054906101000a900460ff16151514612c36576040517f08c379a0000000000000000000000000000000000000000000000000000000008152600401612c2d90615704565b60405180910390fd5b856000815111612c7b576040517f08c379a0000000000000000000000000000000000000000000000000000000008152600401612c7290615f9b565b60405180910390fd5b60001515601282604051612c8f9190615ff7565b908152602001604051809103902060009054906101000a900460ff16151514612ced576040517f08c379a0000000000000000000000000000000000000000000000000000000008152600401612ce49061605a565b60405180910390fd5b600073ffffffffffffffffffffffffffffffffffffffff163373ffffffffffffffffffffffffffffffffffffffff161415612d2757600080fd5b60008a1415612d6b576040517f08c379a0000000000000000000000000000000000000000000000000000000008152600401612d62906160c6565b60405180910390fd5b6000865111612daf576040517f08c379a0000000000000000000000000000000000000000000000000000000008152600401612da690616158565b60405180910390fd5b6000891415612df3576040517f08c379a0000000000000000000000000000000000000000000000000000000008152600401612dea906161ea565b60405180910390fd5b612dfd600c614465565b6000612e09600c61447b565b90506000600760008e81526020019081526020016000206000015490506000600760008f81526020019081526020016000206001015490506040518061012001604052808481526020018e81526020018381526020018d81526020018c81526020016000151581526020013373ffffffffffffffffffffffffffffffffffffffff1681526020018b81526020018a81525060106000858152602001908152602001600020600082015181600001556020820151816001015560408201518160020155606082015181600301556080820151816004015560a08201518160050160006101000a81548160ff02191690831515021790555060c08201518160050160016101000a81548173ffffffffffffffffffffffffffffffffffffffff021916908373ffffffffffffffffffffffffffffffffffffffff16021790555060e0820151816006019080519060200190612f62929190614747565b50610100820151816007019080519060200190612f80929190614747565b50905050600d60106000858152602001908152602001600020908060018154018082558091505060019003906000526020600020906008020160009091909190915060008201548160000155600182015481600101556002820154816002015560038201548160030155600482015481600401556005820160009054906101000a900460ff168160050160006101000a81548160ff0219169083151502179055506005820160019054906101000a900473ffffffffffffffffffffffffffffffffffffffff168160050160016101000a81548173ffffffffffffffffffffffffffffffffffffffff021916908373ffffffffffffffffffffffffffffffffffffffff160217905550600682018160060190805461309c90615753565b6130a79291906147cd565b5060078201816007019080546130bc90615753565b6130c79291906147cd565b50505060106000848152602001908152602001600020600e60003373ffffffffffffffffffffffffffffffffffffffff1673ffffffffffffffffffffffffffffffffffffffff16815260200190815260200160002060008201548160000155600182015481600101556002820154816002015560038201548160030155600482015481600401556005820160009054906101000a900460ff168160050160006101000a81548160ff0219169083151502179055506005820160019054906101000a900473ffffffffffffffffffffffffffffffffffffffff168160050160016101000a81548173ffffffffffffffffffffffffffffffffffffffff021916908373ffffffffffffffffffffffffffffffffffffffff16021790555060068201816006019080546131f690615753565b6132019291906147cd565b50600782018160070190805461321690615753565b6132219291906147cd565b5090505061323960018261473190919063ffffffff16565b90506132516001600b5461473190919063ffffffff16565b600b8190555060016011600085815260200190815260200160002060006101000a81548160ff021916908315150217905550600160128b6040516132959190615ff7565b908152602001604051809103902060006101000a81548160ff0219169083151502179055503373ffffffffffffffffffffffffffffffffffffffff167f3733808b347b3e95cb4b664d5c8e8fe364fc4dd34b77f49cde3ba2564d78888c428560405161330292919061620a565b60405180910390a25050505050505050505050505050565b60025481565b60606006805480602002602001604051908101604052809291908181526020016000905b8282101561366e57838290600052602060002090600902016040518061012001604052908160008201548152602001600182015481526020016002820154815260200160038201805461339690615753565b80601f01602080910402602001604051908101604052809291908181526020018280546133c290615753565b801561340f5780601f106133e45761010080835404028352916020019161340f565b820191906000526020600020905b8154815290600101906020018083116133f257829003601f168201915b505050505081526020016004820160009054906101000a900460ff16600681111561343d5761343c614b4a565b5b600681111561344f5761344e614b4a565b5b815260200160058201805461346390615753565b80601f016020809104026020016040519081016040528092919081815260200182805461348f90615753565b80156134dc5780601f106134b1576101008083540402835291602001916134dc565b820191906000526020600020905b8154815290600101906020018083116134bf57829003601f168201915b505050505081526020016006820180546134f590615753565b80601f016020809104026020016040519081016040528092919081815260200182805461352190615753565b801561356e5780601f106135435761010080835404028352916020019161356e565b820191906000526020600020905b81548152906001019060200180831161355157829003601f168201915b505050505081526020016007820160009054906101000a900473ffffffffffffffffffffffffffffffffffffffff1673ffffffffffffffffffffffffffffffffffffffff1673ffffffffffffffffffffffffffffffffffffffff1681526020016008820180546135dd90615753565b80601f016020809104026020016040519081016040528092919081815260200182805461360990615753565b80156136565780601f1061362b57610100808354040283529160200191613656565b820191906000526020600020905b81548152906001019060200180831161363957829003601f168201915b50505050508152505081526020019060010190613344565b50505050905090565b816010600082815260200190815260200160002060050160019054906101000a900473ffffffffffffffffffffffffffffffffffffffff1673ffffffffffffffffffffffffffffffffffffffff163373ffffffffffffffffffffffffffffffffffffffff161461371c576040517f08c379a00000000000000000000000000000000000000000000000000000000081526004016137139061627f565b60405180910390fd5b6000821415613760576040517f08c379a0000000000000000000000000000000000000000000000000000000008152600401613757906162eb565b60405180910390fd5b816010600085815260200190815260200160002060030181905550423373ffffffffffffffffffffffffffffffffffffffff167f2adffbd83a80d927a3a5c687edc852ca8941019a58261ffb685cc98972ba7c24846040516137c2919061514c565b60405180910390a3505050565b600681815481106137df57600080fd5b906000526020600020906009020160009150905080600001549080600101549080600201549080600301805461381490615753565b80601f016020809104026020016040519081016040528092919081815260200182805461384090615753565b801561388d5780601f106138625761010080835404028352916020019161388d565b820191906000526020600020905b81548152906001019060200180831161387057829003601f168201915b5050505050908060040160009054906101000a900460ff16908060050180546138b590615753565b80601f01602080910402602001604051908101604052809291908181526020018280546138e190615753565b801561392e5780601f106139035761010080835404028352916020019161392e565b820191906000526020600020905b81548152906001019060200180831161391157829003601f168201915b50505050509080600601805461394390615753565b80601f016020809104026020016040519081016040528092919081815260200182805461396f90615753565b80156139bc5780601f10613991576101008083540402835291602001916139bc565b820191906000526020600020905b81548152906001019060200180831161399f57829003601f168201915b5050505050908060070160009054906101000a900473ffffffffffffffffffffffffffffffffffffffff16908060080180546139f790615753565b80601f0160208091040260200160405190810160405280929190818152602001828054613a2390615753565b8015613a705780601f10613a4557610100808354040283529160200191613a70565b820191906000526020600020905b815481529060010190602001808311613a5357829003601f168201915b5050505050905089565b60116020528060005260406000206000915054906101000a900460ff1681565b613aa2614383565b73ffffffffffffffffffffffffffffffffffffffff16613ac06124ec565b73ffffffffffffffffffffffffffffffffffffffff1614613b16576040517f08c379a0000000000000000000000000000000000000000000000000000000008152600401613b0d906157d1565b60405180910390fd5b600073ffffffffffffffffffffffffffffffffffffffff168173ffffffffffffffffffffffffffffffffffffffff161415613b86576040517f08c379a0000000000000000000000000000000000000000000000000000000008152600401613b7d9061637d565b60405180910390fd5b613b8f8161438b565b50565b8360001515600a82604051613ba79190615ff7565b908152602001604051809103902060009054906101000a900460ff16151514613c05576040517f08c379a0000000000000000000000000000000000000000000000000000000008152600401613bfc906163e9565b60405180910390fd5b6000815111613c49576040517f08c379a0000000000000000000000000000000000000000000000000000000008152600401613c4090616455565b60405180910390fd5b60026001541415613c8f576040517f08c379a0000000000000000000000000000000000000000000000000000000008152600401613c86906158a9565b60405180910390fd5b6002600181905550600073ffffffffffffffffffffffffffffffffffffffff163373ffffffffffffffffffffffffffffffffffffffff161415613cd157600080fd5b6003543414613d15576040517f08c379a0000000000000000000000000000000000000000000000000000000008152600401613d0c906164c1565b60405180910390fd5b6000845111613d59576040517f08c379a0000000000000000000000000000000000000000000000000000000008152600401613d5090616553565b60405180910390fd5b6000835111613d9d576040517f08c379a0000000000000000000000000000000000000000000000000000000008152600401613d94906165e5565b60405180910390fd5b613da76004614465565b6000613db3600461447b565b90506040518061012001604052808281526020016000815260200142815260200187815260200160006006811115613dee57613ded614b4a565b5b81526020018681526020018581526020013373ffffffffffffffffffffffffffffffffffffffff16815260200184815250600760008381526020019081526020016000206000820151816000015560208201518160010155604082015181600201556060820151816003019080519060200190613e6c929190614747565b5060808201518160040160006101000a81548160ff02191690836006811115613e9857613e97614b4a565b5b021790555060a0820151816005019080519060200190613eb9929190614747565b5060c0820151816006019080519060200190613ed6929190614747565b5060e08201518160070160006101000a81548173ffffffffffffffffffffffffffffffffffffffff021916908373ffffffffffffffffffffffffffffffffffffffff160217905550610100820151816008019080519060200190613f3b929190614747565b5090505060066007600083815260200190815260200160002090806001815401808255809150506001900390600052602060002090600902016000909190919091506000820154816000015560018201548160010155600282015481600201556003820181600301908054613faf90615753565b613fba9291906147cd565b506004820160009054906101000a900460ff168160040160006101000a81548160ff02191690836006811115613ff357613ff2614b4a565b5b0217905550600582018160050190805461400c90615753565b6140179291906147cd565b50600682018160060190805461402c90615753565b6140379291906147cd565b506007820160009054906101000a900473ffffffffffffffffffffffffffffffffffffffff168160070160006101000a81548173ffffffffffffffffffffffffffffffffffffffff021916908373ffffffffffffffffffffffffffffffffffffffff16021790555060088201816008019080546140b390615753565b6140be9291906147cd565b50505060076000828152602001908152602001600020600860003373ffffffffffffffffffffffffffffffffffffffff1673ffffffffffffffffffffffffffffffffffffffff168152602001908152602001600020600082015481600001556001820154816001015560028201548160020155600382018160030190805461414590615753565b6141509291906147cd565b506004820160009054906101000a900460ff168160040160006101000a81548160ff0219169083600681111561418957614188614b4a565b5b021790555060058201816005019080546141a290615753565b6141ad9291906147cd565b5060068201816006019080546141c290615753565b6141cd9291906147cd565b506007820160009054906101000a900473ffffffffffffffffffffffffffffffffffffffff168160070160006101000a81548173ffffffffffffffffffffffffffffffffffffffff021916908373ffffffffffffffffffffffffffffffffffffffff160217905550600882018160080190805461424990615753565b6142549291906147cd565b5090505061426e600160025461473190919063ffffffff16565b60028190555060016009600083815260200190815260200160002060006101000a81548160ff0219169083151502179055506001600a876040516142b29190615ff7565b908152602001604051809103902060006101000a81548160ff0219169083151502179055506142df6124ec565b73ffffffffffffffffffffffffffffffffffffffff166108fc349081150290604051600060405180830381858888f19350505050158015614324573d6000803e3d6000fd5b50803373ffffffffffffffffffffffffffffffffffffffff167fc8103fc44f19a39b2be3834708c831e6292d5b110a99e06a1f9c1c5f24faf5dd4260405161436c919061514c565b60405180910390a350600180819055505050505050565b600033905090565b60008060009054906101000a900473ffffffffffffffffffffffffffffffffffffffff169050816000806101000a81548173ffffffffffffffffffffffffffffffffffffffff021916908373ffffffffffffffffffffffffffffffffffffffff1602179055508173ffffffffffffffffffffffffffffffffffffffff168173ffffffffffffffffffffffffffffffffffffffff167f8be0079c531659141344cd1fd0a4f28419497f9722a3daafe3b4186f6b6457e060405160405180910390a35050565b6000818361445d9190615dd1565b905092915050565b6001816000016000828254019250508190555050565b600081600001549050919050565b80600115156011600083815260200190815260200160002060009054906101000a900460ff161515146144f1576040517f08c379a00000000000000000000000000000000000000000000000000000000081526004016144e890615bd2565b60405180910390fd5b60016010600084815260200190815260200160002060050160006101000a81548160ff0219169083151502179055505050565b600073ffffffffffffffffffffffffffffffffffffffff168173ffffffffffffffffffffffffffffffffffffffff16141561456257614561615b57565b5b600073ffffffffffffffffffffffffffffffffffffffff163373ffffffffffffffffffffffffffffffffffffffff16141561459c57600080fd5b60008314156145e0576040517f08c379a00000000000000000000000000000000000000000000000000000000081526004016145d790616651565b60405180910390fd5b60006040518060a001604052808681526020018581526020014281526020018481526020018373ffffffffffffffffffffffffffffffffffffffff16815250905060138190806001815401808255809150506001900390600052602060002090600502016000909190919091506000820151816000015560208201518160010155604082015181600201556060820151816003015560808201518160040160006101000a81548173ffffffffffffffffffffffffffffffffffffffff021916908373ffffffffffffffffffffffffffffffffffffffff16021790555050506146d4600160145461473190919063ffffffff16565b60148190555084343373ffffffffffffffffffffffffffffffffffffffff167f414e8daa25ba8dde6e691876495db5da793781eed1794da14679b2af00301df642604051614722919061514c565b60405180910390a45050505050565b6000818361473f9190616671565b905092915050565b82805461475390615753565b90600052602060002090601f01602090048101928261477557600085556147bc565b82601f1061478e57805160ff19168380011785556147bc565b828001600101855582156147bc579182015b828111156147bb5782518255916020019190600101906147a0565b5b5090506147c9919061485a565b5090565b8280546147d990615753565b90600052602060002090601f0160209004810192826147fb5760008555614849565b82601f1061480c5780548555614849565b8280016001018555821561484957600052602060002091601f016020900482015b8281111561484857825482559160010191906001019061482d565b5b509050614856919061485a565b5090565b5b8082111561487357600081600090555060010161485b565b5090565b6000604051905090565b600080fd5b600080fd5b600080fd5b600080fd5b6000601f19601f8301169050919050565b7f4e487b7100000000000000000000000000000000000000000000000000000000600052604160045260246000fd5b6148de82614895565b810181811067ffffffffffffffff821117156148fd576148fc6148a6565b5b80604052505050565b6000614910614877565b905061491c82826148d5565b919050565b600067ffffffffffffffff82111561493c5761493b6148a6565b5b61494582614895565b9050602081019050919050565b82818337600083830152505050565b600061497461496f84614921565b614906565b9050828152602081018484840111156149905761498f614890565b5b61499b848285614952565b509392505050565b600082601f8301126149b8576149b761488b565b5b81356149c8848260208601614961565b91505092915050565b6000602082840312156149e7576149e6614881565b5b600082013567ffffffffffffffff811115614a0557614a04614886565b5b614a11848285016149a3565b91505092915050565b60008115159050919050565b614a2f81614a1a565b82525050565b6000602082019050614a4a6000830184614a26565b92915050565b6000819050919050565b614a6381614a50565b8114614a6e57600080fd5b50565b600081359050614a8081614a5a565b92915050565b600060208284031215614a9c57614a9b614881565b5b6000614aaa84828501614a71565b91505092915050565b614abc81614a50565b82525050565b600081519050919050565b600082825260208201905092915050565b60005b83811015614afc578082015181840152602081019050614ae1565b83811115614b0b576000848401525b50505050565b6000614b1c82614ac2565b614b268185614acd565b9350614b36818560208601614ade565b614b3f81614895565b840191505092915050565b7f4e487b7100000000000000000000000000000000000000000000000000000000600052602160045260246000fd5b60078110614b8a57614b89614b4a565b5b50565b6000819050614b9b82614b79565b919050565b6000614bab82614b8d565b9050919050565b614bbb81614ba0565b82525050565b600061010082019050614bd7600083018b614ab3565b614be4602083018a614ab3565b614bf16040830189614ab3565b8181036060830152614c038188614b11565b90508181036080830152614c178187614b11565b905081810360a0830152614c2b8186614b11565b9050614c3a60c0830185614bb2565b81810360e0830152614c4c8184614b11565b90509998505050505050505050565b6000602082019050614c706000830184614bb2565b92915050565b600081519050919050565b600082825260208201905092915050565b6000819050602082019050919050565b614cab81614a50565b82525050565b614cba81614a1a565b82525050565b600073ffffffffffffffffffffffffffffffffffffffff82169050919050565b6000614ceb82614cc0565b9050919050565b614cfb81614ce0565b82525050565b600082825260208201905092915050565b6000614d1d82614ac2565b614d278185614d01565b9350614d37818560208601614ade565b614d4081614895565b840191505092915050565b600061012083016000830151614d646000860182614ca2565b506020830151614d776020860182614ca2565b506040830151614d8a6040860182614ca2565b506060830151614d9d6060860182614ca2565b506080830151614db06080860182614ca2565b5060a0830151614dc360a0860182614cb1565b5060c0830151614dd660c0860182614cf2565b5060e083015184820360e0860152614dee8282614d12565b915050610100830151848203610100860152614e0a8282614d12565b9150508091505092915050565b6000614e238383614d4b565b905092915050565b6000602082019050919050565b6000614e4382614c76565b614e4d8185614c81565b935083602082028501614e5f85614c92565b8060005b85811015614e9b5784840389528151614e7c8582614e17565b9450614e8783614e2b565b925060208a01995050600181019050614e63565b50829750879550505050505092915050565b60006020820190508181036000830152614ec78184614e38565b905092915050565b614ed881614ce0565b82525050565b600061012082019050614ef4600083018c614ab3565b614f01602083018b614ab3565b614f0e604083018a614ab3565b614f1b6060830189614ab3565b614f286080830188614ab3565b614f3560a0830187614a26565b614f4260c0830186614ecf565b81810360e0830152614f548185614b11565b9050818103610100830152614f698184614b11565b90509a9950505050505050505050565b600060a082019050614f8e6000830188614ab3565b614f9b6020830187614ab3565b614fa86040830186614ab3565b614fb56060830185614ab3565b614fc26080830184614ecf565b9695505050505050565b6000614fd782614cc0565b9050919050565b614fe781614fcc565b8114614ff257600080fd5b50565b60008135905061500481614fde565b92915050565b6000602082840312156150205761501f614881565b5b600061502e84828501614ff5565b91505092915050565b60006101208201905061504d600083018c614ab3565b61505a602083018b614ab3565b615067604083018a614ab3565b81810360608301526150798189614b11565b90506150886080830188614bb2565b81810360a083015261509a8187614b11565b905081810360c08301526150ae8186614b11565b90506150bd60e0830185614ecf565b8181036101008301526150d08184614b11565b90509a9950505050505050505050565b6150e981614ce0565b81146150f457600080fd5b50565b600081359050615106816150e0565b92915050565b6000806040838503121561512357615122614881565b5b6000615131858286016150f7565b925050602061514285828601614a71565b9150509250929050565b60006020820190506151616000830184614ab3565b92915050565b600060208201905081810360008301526151818184614b11565b905092915050565b6007811061519657600080fd5b50565b6000813590506151a881615189565b92915050565b600080604083850312156151c5576151c4614881565b5b60006151d385828601614a71565b92505060206151e485828601615199565b9150509250929050565b6151f781614fcc565b82525050565b600060208201905061521260008301846151ee565b92915050565b6000806040838503121561522f5761522e614881565b5b600061523d85828601614a71565b925050602061524e85828601614a71565b9150509250929050565b60006101208201905061526e600083018c614ab3565b61527b602083018b614ab3565b615288604083018a614ab3565b6152956060830189614ab3565b6152a26080830188614ab3565b6152af60a0830187614a26565b6152bc60c08301866151ee565b81810360e08301526152ce8185614b11565b90508181036101008301526152e38184614b11565b90509a9950505050505050505050565b6000806040838503121561530a57615309614881565b5b600061531885828601614a71565b925050602083013567ffffffffffffffff81111561533957615338614886565b5b615345858286016149a3565b9150509250929050565b60008060008060008060c0878903121561536c5761536b614881565b5b600061537a89828a01614a71565b965050602061538b89828a01614a71565b955050604061539c89828a01614a71565b94505060606153ad89828a01614a71565b935050608087013567ffffffffffffffff8111156153ce576153cd614886565b5b6153da89828a016149a3565b92505060a087013567ffffffffffffffff8111156153fb576153fa614886565b5b61540789828a016149a3565b9150509295509295509295565b600081519050919050565b600082825260208201905092915050565b6000819050602082019050919050565b61544981614ba0565b82525050565b6000610120830160008301516154686000860182614ca2565b50602083015161547b6020860182614ca2565b50604083015161548e6040860182614ca2565b50606083015184820360608601526154a68282614d12565b91505060808301516154bb6080860182615440565b5060a083015184820360a08601526154d38282614d12565b91505060c083015184820360c08601526154ed8282614d12565b91505060e083015161550260e0860182614cf2565b5061010083015184820361010086015261551c8282614d12565b9150508091505092915050565b6000615535838361544f565b905092915050565b6000602082019050919050565b600061555582615414565b61555f818561541f565b93508360208202850161557185615430565b8060005b858110156155ad578484038952815161558e8582615529565b94506155998361553d565b925060208a01995050600181019050615575565b50829750879550505050505092915050565b600060208201905081810360008301526155d9818461554a565b905092915050565b600080600080608085870312156155fb576155fa614881565b5b600085013567ffffffffffffffff81111561561957615618614886565b5b615625878288016149a3565b945050602085013567ffffffffffffffff81111561564657615645614886565b5b615652878288016149a3565b935050604085013567ffffffffffffffff81111561567357615672614886565b5b61567f878288016149a3565b925050606085013567ffffffffffffffff8111156156a05761569f614886565b5b6156ac878288016149a3565b91505092959194509250565b7f486f74656c20446f6573204e6f74204578697374000000000000000000000000600082015250565b60006156ee601483614acd565b91506156f9826156b8565b602082019050919050565b6000602082019050818103600083015261571d816156e1565b9050919050565b7f4e487b7100000000000000000000000000000000000000000000000000000000600052602260045260246000fd5b6000600282049050600182168061576b57607f821691505b6020821081141561577f5761577e615724565b5b50919050565b7f4f776e61626c653a2063616c6c6572206973206e6f7420746865206f776e6572600082015250565b60006157bb602083614acd565b91506157c682615785565b602082019050919050565b600060208201905081810360008301526157ea816157ae565b9050919050565b7f4c697374696e67204665652043616e6e6f74206265207a65726f000000000000600082015250565b6000615827601a83614acd565b9150615832826157f1565b602082019050919050565b600060208201905081810360008301526158568161581a565b9050919050565b7f5265656e7472616e637947756172643a207265656e7472616e742063616c6c00600082015250565b6000615893601f83614acd565b915061589e8261585d565b602082019050919050565b600060208201905081810360008301526158c281615886565b9050919050565b7f526f6f6d206973206e6f7420626f6f6b65640000000000000000000000000000600082015250565b60006158ff601283614acd565b915061590a826158c9565b602082019050919050565b6000602082019050818103600083015261592e816158f2565b9050919050565b7f596f752063757272656e746c7920646f6e742072657369646520696e2074686960008201527f7320726f6f6d0000000000000000000000000000000000000000000000000000602082015250565b6000615991602683614acd565b915061599c82615935565b604082019050919050565b600060208201905081810360008301526159c081615984565b9050919050565b7f596f7520446f204e6f74204f776e205468697320486f74656c204974656d0000600082015250565b60006159fd601e83614acd565b9150615a08826159c7565b602082019050919050565b60006020820190508181036000830152615a2c816159f0565b9050919050565b7f596f75206172652074686520726967687466756c206f776e657220616c72656160008201527f6479000000000000000000000000000000000000000000000000000000000000602082015250565b6000615a8f602283614acd565b9150615a9a82615a33565b604082019050919050565b60006020820190508181036000830152615abe81615a82565b9050919050565b7f506c65617365207370656369667920612076616c69642045544820616464726560008201527f7373000000000000000000000000000000000000000000000000000000000000602082015250565b6000615b21602283614acd565b9150615b2c82615ac5565b604082019050919050565b60006020820190508181036000830152615b5081615b14565b9050919050565b7f4e487b7100000000000000000000000000000000000000000000000000000000600052600160045260246000fd5b7f526f6f6d20446f6573204e6f7420457869737400000000000000000000000000600082015250565b6000615bbc601383614acd565b9150615bc782615b86565b602082019050919050565b60006020820190508181036000830152615beb81615baf565b9050919050565b7f526f6f6d206973206f6363757069656400000000000000000000000000000000600082015250565b6000615c28601083614acd565b9150615c3382615bf2565b602082019050919050565b60006020820190508181036000830152615c5781615c1b565b9050919050565b7f596f752063616e6e6f7420626f6f6b20796f7572206f776e20726f6f6d000000600082015250565b6000615c94601d83614acd565b9150615c9f82615c5e565b602082019050919050565b60006020820190508181036000830152615cc381615c87565b9050919050565b7f496e73756666696369656e742046756e64730000000000000000000000000000600082015250565b6000615d00601283614acd565b9150615d0b82615cca565b602082019050919050565b60006020820190508181036000830152615d2f81615cf3565b9050919050565b7f4e756d626572206f66206e69676874732063616e6e6f74206265207a65726f00600082015250565b6000615d6c601f83614acd565b9150615d7782615d36565b602082019050919050565b60006020820190508181036000830152615d9b81615d5f565b9050919050565b7f4e487b7100000000000000000000000000000000000000000000000000000000600052601160045260246000fd5b6000615ddc82614a50565b9150615de783614a50565b9250817fffffffffffffffffffffffffffffffffffffffffffffffffffffffffffffffff0483118215151615615e2057615e1f615da2565b5b828202905092915050565b7f506c65617365207061792074686520626f6f6b696e672066656520626173656460008201527f206f6e206e756d626572206f66206e696768747320746f206265207370656e74602082015250565b6000615e87604083614acd565b9150615e9282615e2b565b604082019050919050565b60006020820190508181036000830152615eb681615e7a565b9050919050565b7f506c65617365204c697374204120486f74656c204265666f726520416464696e60008201527f67204120526f6f6d000000000000000000000000000000000000000000000000602082015250565b6000615f19602883614acd565b9150615f2482615ebd565b604082019050919050565b60006020820190508181036000830152615f4881615f0c565b9050919050565b7f506c6561736520737065636966792074686520726f6f6d206e616d6500000000600082015250565b6000615f85601c83614acd565b9150615f9082615f4f565b602082019050919050565b60006020820190508181036000830152615fb481615f78565b9050919050565b600081905092915050565b6000615fd182614ac2565b615fdb8185615fbb565b9350615feb818560208601614ade565b80840191505092915050565b60006160038284615fc6565b915081905092915050565b7f526f6f6d204e616d652045786973747300000000000000000000000000000000600082015250565b6000616044601083614acd565b915061604f8261600e565b602082019050919050565b6000602082019050818103600083015261607381616037565b9050919050565b7f4e756d626572206f6620626564732063616e6e6f74206265207a65726f000000600082015250565b60006160b0601d83614acd565b91506160bb8261607a565b602082019050919050565b600060208201905081810360008301526160df816160a3565b9050919050565b7f506c6561736520737065636966792074686520726f6f6d20646573637269707460008201527f696f6e0000000000000000000000000000000000000000000000000000000000602082015250565b6000616142602383614acd565b915061614d826160e6565b604082019050919050565b6000602082019050818103600083015261617181616135565b9050919050565b7f54686520726f6f6d206e696768742070726963652063616e6e6f74206265207a60008201527f65726f0000000000000000000000000000000000000000000000000000000000602082015250565b60006161d4602383614acd565b91506161df82616178565b604082019050919050565b60006020820190508181036000830152616203816161c7565b9050919050565b600060408201905061621f6000830185614ab3565b61622c6020830184614ab3565b9392505050565b7f596f7520446f204e6f74204f776e205468697320526f6f6d0000000000000000600082015250565b6000616269601883614acd565b915061627482616233565b602082019050919050565b600060208201905081810360008301526162988161625c565b9050919050565b7f70726963652043616e6e6f74206265207a65726f000000000000000000000000600082015250565b60006162d5601483614acd565b91506162e08261629f565b602082019050919050565b60006020820190508181036000830152616304816162c8565b9050919050565b7f4f776e61626c653a206e6577206f776e657220697320746865207a65726f206160008201527f6464726573730000000000000000000000000000000000000000000000000000602082015250565b6000616367602683614acd565b91506163728261630b565b604082019050919050565b600060208201905081810360008301526163968161635a565b9050919050565b7f486f74656c204e616d6520457869737473000000000000000000000000000000600082015250565b60006163d3601183614acd565b91506163de8261639d565b602082019050919050565b60006020820190508181036000830152616402816163c6565b9050919050565b7f506c6561736520737065636966792074686520686f74656c206e616d65000000600082015250565b600061643f601d83614acd565b915061644a82616409565b602082019050919050565b6000602082019050818103600083015261646e81616432565b9050919050565b7f496e76616c6964204c697374696e672046656500000000000000000000000000600082015250565b60006164ab601383614acd565b91506164b682616475565b602082019050919050565b600060208201905081810360008301526164da8161649e565b9050919050565b7f506c6561736520737065636966792074686520686f74656c206465736372697060008201527f74696f6e00000000000000000000000000000000000000000000000000000000602082015250565b600061653d602483614acd565b9150616548826164e1565b604082019050919050565b6000602082019050818103600083015261656c81616530565b9050919050565b7f506c65617365207370656369667920746865206c6f636174696f6e206f66207460008201527f686520686f74656c000000000000000000000000000000000000000000000000602082015250565b60006165cf602883614acd565b91506165da82616573565b604082019050919050565b600060208201905081810360008301526165fe816165c2565b9050919050565b7f426f6f6b696e672049442063616e6e6f74206265207a65726f00000000000000600082015250565b600061663b601983614acd565b915061664682616605565b602082019050919050565b6000602082019050818103600083015261666a8161662e565b9050919050565b600061667c82614a50565b915061668783614a50565b9250827fffffffffffffffffffffffffffffffffffffffffffffffffffffffffffffffff038211156166bc576166bb615da2565b5b82820190509291505056fea264697066735822122074af973f897460c45ee332012ae0bf0daeac5cf8bcf2f3d6786a0d05c57bd8f164736f6c634300080a0033",
  "immutableReferences": {},
  "source": "// SPDX-License-Identifier: MIT\npragma solidity ^0.8.0;\nimport '@openzeppelin/contracts/utils/math/SafeMath.sol';\nimport '@openzeppelin/contracts/security/ReentrancyGuard.sol';\nimport '@openzeppelin/contracts/utils/Counters.sol';\nimport './Room.sol';\n\ncontract Booking is Room{\n  using SafeMath for uint256;\n  using Counters for Counters.Counter;\n\n  struct BookingItem{\n    uint roomId;\n    uint bookingId;\n    uint bookingDate;\n    uint amountPaid;\n    address payable tenant;\n  }\n\n  BookingItem[] public bookings;\n\n  uint public totalBookings = 0;\n  Counters.Counter private _bookingIds;\n\n  event CheckoutSuccessfull(address indexed tenant, uint indexed roomId, uint indexed date);\n\n  constructor() public {\n\n  }\n\n  function _registerBooking(uint _roomId, uint _bookingId,uint _amountPaid, address payable _tenant) internal{\n    assert(_tenant != address(0));\n    require(msg.sender != address(0));\n    require(_bookingId != 0,\"Booking ID cannot be zero\");\n    BookingItem memory newBooking = BookingItem(_roomId,_bookingId, block.timestamp,_amountPaid,_tenant);\n    bookings.push(newBooking);\n    totalBookings = totalBookings.add(1);\n    emit RoomBooked(block.timestamp, msg.sender,msg.value,_roomId);\n  }\n  \n  function bookRoom(uint _roomId,uint _numOfNights) public payable nonReentrant roomExists(_roomId) isNotBooked(_roomId){\n    RoomItem storage room = roomItemId[_roomId];\n    uint totalPayableAmount = _numOfNights.mul(room.pricePerNight);\n    require(msg.sender != room.user,\"You cannot book your own room\");\n    require(msg.sender.balance >= totalPayableAmount,\"Insufficient Funds\");\n    require(_numOfNights != 0,\"Number of nights cannot be zero\");\n    require(msg.value == totalPayableAmount * 1 ether,\"Please pay the booking fee based on number of nights to be spent\");\n    _bookingIds.increment();\n    uint currentBookingId = _bookingIds.current();\n    room.user.transfer(msg.value);\n    _setBooked(_roomId);\n    _registerBooking(room.id,currentBookingId,msg.value, payable(msg.sender));\n    roomTenant[room.id] = msg.sender;\n  }\n\n  function checkOut(uint _roomId) public payable nonReentrant {\n    RoomItem storage room = roomItemId[_roomId];\n    require(room.isBooked == true,\"Room is not booked\");\n    require(msg.sender == roomTenant[room.id],\"You currently dont reside in this room\");\n    room.isBooked = false;\n    emit CheckoutSuccessfull(msg.sender,room.id,block.timestamp);\n  }\n\n}\n",
  "sourcePath": "D:/Dickens/Programming/Blockchain/Projects/Personal/HotelDapp/contracts/Booking.sol",
  "compiler": {
    "name": "solc",
    "version": "0.8.10+commit.fc410830.Emscripten.clang"
  },
  "schemaVersion": "3.4.1",
  "updatedAt": "2021-12-01T21:18:23.331Z",
  "devdoc": {
    "kind": "dev",
    "methods": {
      "owner()": {
        "details": "Returns the address of the current owner."
      },
      "renounceOwnership()": {
        "details": "Leaves the contract without owner. It will not be possible to call `onlyOwner` functions anymore. Can only be called by the current owner. NOTE: Renouncing ownership will leave the contract without an owner, thereby removing any functionality that is only available to the owner."
      },
      "transferOwnership(address)": {
        "details": "Transfers ownership of the contract to a new account (`newOwner`). Can only be called by the current owner."
      }
    },
    "version": 1
  },
  "userdoc": {
    "kind": "user",
    "methods": {},
    "version": 1
  }
}