{
  "contractName": "Booking",
  "abi": [
    {
      "anonymous": false,
      "inputs": [
        {
          "indexed": true,
          "internalType": "address",
          "name": "tenant",
          "type": "address"
        },
        {
          "indexed": true,
          "internalType": "uint256",
          "name": "roomId",
          "type": "uint256"
        },
        {
          "indexed": true,
          "internalType": "uint256",
          "name": "date",
          "type": "uint256"
        }
      ],
      "name": "CheckoutSuccessfull",
      "type": "event"
    },
    {
      "anonymous": false,
      "inputs": [
        {
          "indexed": true,
          "internalType": "address",
          "name": "causer",
          "type": "address"
        },
        {
          "indexed": false,
          "internalType": "uint256",
          "name": "date",
          "type": "uint256"
        },
        {
          "indexed": true,
          "internalType": "enum Hotel.HOTEL_CATEGORY",
          "name": "newCategory",
          "type": "uint8"
        }
      ],
      "name": "HotelCategoryChanged",
      "type": "event"
    },
    {
      "anonymous": false,
      "inputs": [
        {
          "indexed": false,
          "internalType": "uint256",
          "name": "date",
          "type": "uint256"
        },
        {
          "indexed": true,
          "internalType": "address",
          "name": "causer",
          "type": "address"
        },
        {
          "indexed": true,
          "internalType": "uint256",
          "name": "id",
          "type": "uint256"
        }
      ],
      "name": "HotelCreated",
      "type": "event"
    },
    {
      "anonymous": false,
      "inputs": [
        {
          "indexed": true,
          "internalType": "address",
          "name": "user",
          "type": "address"
        },
        {
          "indexed": true,
          "internalType": "uint256",
          "name": "date",
          "type": "uint256"
        },
        {
          "indexed": true,
          "internalType": "uint256",
          "name": "fee",
          "type": "uint256"
        }
      ],
      "name": "HotelListingFeeChanged",
      "type": "event"
    },
    {
      "anonymous": false,
      "inputs": [
        {
          "indexed": true,
          "internalType": "address",
          "name": "causer",
          "type": "address"
        },
        {
          "indexed": true,
          "internalType": "address",
          "name": "newOwner",
          "type": "address"
        },
        {
          "indexed": false,
          "internalType": "uint256",
          "name": "date",
          "type": "uint256"
        }
      ],
      "name": "HotelOwnerChanged",
      "type": "event"
    },
    {
      "anonymous": false,
      "inputs": [
        {
          "indexed": true,
          "internalType": "address",
          "name": "user",
          "type": "address"
        },
        {
          "indexed": false,
          "internalType": "uint256",
          "name": "date",
          "type": "uint256"
        },
        {
          "indexed": false,
          "internalType": "uint256",
          "name": "id",
          "type": "uint256"
        }
      ],
      "name": "NewRoomCreated",
      "type": "event"
    },
    {
      "anonymous": false,
      "inputs": [
        {
          "indexed": true,
          "internalType": "address",
          "name": "previousOwner",
          "type": "address"
        },
        {
          "indexed": true,
          "internalType": "address",
          "name": "newOwner",
          "type": "address"
        }
      ],
      "name": "OwnershipTransferred",
      "type": "event"
    },
    {
      "anonymous": false,
      "inputs": [
        {
          "indexed": false,
          "internalType": "uint256",
          "name": "date",
          "type": "uint256"
        },
        {
          "indexed": true,
          "internalType": "address",
          "name": "tenant",
          "type": "address"
        },
        {
          "indexed": true,
          "internalType": "uint256",
          "name": "amountPaid",
          "type": "uint256"
        },
        {
          "indexed": true,
          "internalType": "uint256",
          "name": "roomId",
          "type": "uint256"
        }
      ],
      "name": "RoomBooked",
      "type": "event"
    },
    {
      "anonymous": false,
      "inputs": [
        {
          "indexed": true,
          "internalType": "address",
          "name": "user",
          "type": "address"
        },
        {
          "indexed": false,
          "internalType": "uint256",
          "name": "price",
          "type": "uint256"
        },
        {
          "indexed": true,
          "internalType": "uint256",
          "name": "date",
          "type": "uint256"
        }
      ],
      "name": "RoomNightPriceSet",
      "type": "event"
    },
    {
      "inputs": [
        {
          "internalType": "string",
          "name": "_name",
          "type": "string"
        },
        {
          "internalType": "string",
          "name": "_description",
          "type": "string"
        },
        {
          "internalType": "string",
          "name": "_location",
          "type": "string"
        },
        {
          "internalType": "string",
          "name": "_imageHash",
          "type": "string"
        }
      ],
      "name": "addHotel",
      "outputs": [],
      "stateMutability": "payable",
      "type": "function",
      "payable": true
    },
    {
      "inputs": [
        {
          "internalType": "uint256",
          "name": "_hotelId",
          "type": "uint256"
        },
        {
          "internalType": "uint256",
          "name": "_totalBeds",
          "type": "uint256"
        },
        {
          "internalType": "uint256",
          "name": "_pricePerNight",
          "type": "uint256"
        },
        {
          "internalType": "uint256",
          "name": "_number",
          "type": "uint256"
        },
        {
          "internalType": "string",
          "name": "_name",
          "type": "string"
        },
        {
          "internalType": "string",
          "name": "_description",
          "type": "string"
        }
      ],
      "name": "addRoom",
      "outputs": [],
      "stateMutability": "nonpayable",
      "type": "function"
    },
    {
      "inputs": [
        {
          "internalType": "uint256",
          "name": "",
          "type": "uint256"
        }
      ],
      "name": "bookings",
      "outputs": [
        {
          "internalType": "uint256",
          "name": "roomId",
          "type": "uint256"
        },
        {
          "internalType": "uint256",
          "name": "bookingId",
          "type": "uint256"
        },
        {
          "internalType": "uint256",
          "name": "bookingDate",
          "type": "uint256"
        },
        {
          "internalType": "uint256",
          "name": "amountPaid",
          "type": "uint256"
        },
        {
          "internalType": "address payable",
          "name": "tenant",
          "type": "address"
        }
      ],
      "stateMutability": "view",
      "type": "function",
      "constant": true
    },
    {
      "inputs": [
        {
          "internalType": "uint256",
          "name": "_hotelId",
          "type": "uint256"
        },
        {
          "internalType": "enum Hotel.HOTEL_CATEGORY",
          "name": "_category",
          "type": "uint8"
        }
      ],
      "name": "changeHotelCategory",
      "outputs": [],
      "stateMutability": "nonpayable",
      "type": "function"
    },
    {
      "inputs": [
        {
          "internalType": "address payable",
          "name": "_newOwner",
          "type": "address"
        },
        {
          "internalType": "uint256",
          "name": "_hotelId",
          "type": "uint256"
        }
      ],
      "name": "changeHotelOwner",
      "outputs": [],
      "stateMutability": "nonpayable",
      "type": "function"
    },
    {
      "inputs": [
        {
          "internalType": "uint256",
          "name": "",
          "type": "uint256"
        }
      ],
      "name": "existingHotelItemId",
      "outputs": [
        {
          "internalType": "bool",
          "name": "",
          "type": "bool"
        }
      ],
      "stateMutability": "view",
      "type": "function",
      "constant": true
    },
    {
      "inputs": [
        {
          "internalType": "string",
          "name": "",
          "type": "string"
        }
      ],
      "name": "existingHotelItemName",
      "outputs": [
        {
          "internalType": "bool",
          "name": "",
          "type": "bool"
        }
      ],
      "stateMutability": "view",
      "type": "function",
      "constant": true
    },
    {
      "inputs": [
        {
          "internalType": "uint256",
          "name": "",
          "type": "uint256"
        }
      ],
      "name": "existingRoomItem",
      "outputs": [
        {
          "internalType": "bool",
          "name": "",
          "type": "bool"
        }
      ],
      "stateMutability": "view",
      "type": "function",
      "constant": true
    },
    {
      "inputs": [
        {
          "internalType": "string",
          "name": "",
          "type": "string"
        }
      ],
      "name": "existingRoomItemName",
      "outputs": [
        {
          "internalType": "bool",
          "name": "",
          "type": "bool"
        }
      ],
      "stateMutability": "view",
      "type": "function",
      "constant": true
    },
    {
      "inputs": [
        {
          "internalType": "uint256",
          "name": "_hotelId",
          "type": "uint256"
        }
      ],
      "name": "getHotelBioData",
      "outputs": [
        {
          "internalType": "uint256",
          "name": "_id",
          "type": "uint256"
        },
        {
          "internalType": "uint256",
          "name": "_totalRooms",
          "type": "uint256"
        },
        {
          "internalType": "uint256",
          "name": "_date",
          "type": "uint256"
        },
        {
          "internalType": "string",
          "name": "_name",
          "type": "string"
        },
        {
          "internalType": "string",
          "name": "_description",
          "type": "string"
        },
        {
          "internalType": "string",
          "name": "_location",
          "type": "string"
        },
        {
          "internalType": "enum Hotel.HOTEL_CATEGORY",
          "name": "_category",
          "type": "uint8"
        },
        {
          "internalType": "string",
          "name": "_photo",
          "type": "string"
        }
      ],
      "stateMutability": "view",
      "type": "function",
      "constant": true
    },
    {
      "inputs": [
        {
          "internalType": "uint256",
          "name": "_roomId",
          "type": "uint256"
        }
      ],
      "name": "getId",
      "outputs": [
        {
          "internalType": "uint256",
          "name": "",
          "type": "uint256"
        }
      ],
      "stateMutability": "view",
      "type": "function",
      "constant": true
    },
    {
      "inputs": [
        {
          "internalType": "uint256",
          "name": "hotelId",
          "type": "uint256"
        }
      ],
      "name": "getImageHash",
      "outputs": [
        {
          "internalType": "string",
          "name": "_imageHash",
          "type": "string"
        }
      ],
      "stateMutability": "view",
      "type": "function",
      "constant": true
    },
    {
      "inputs": [
        {
          "internalType": "uint256",
          "name": "_roomId",
          "type": "uint256"
        }
      ],
      "name": "getName",
      "outputs": [
        {
          "internalType": "string",
          "name": "",
          "type": "string"
        }
      ],
      "stateMutability": "view",
      "type": "function",
      "constant": true
    },
    {
      "inputs": [
        {
          "internalType": "uint256",
          "name": "_roomId",
          "type": "uint256"
        }
      ],
      "name": "getRoomBioData",
      "outputs": [
        {
          "internalType": "uint256",
          "name": "_id",
          "type": "uint256"
        },
        {
          "internalType": "uint256",
          "name": "_numOfBeds",
          "type": "uint256"
        },
        {
          "internalType": "uint256",
          "name": "_hotelId",
          "type": "uint256"
        },
        {
          "internalType": "uint256",
          "name": "_pricePerNight",
          "type": "uint256"
        },
        {
          "internalType": "uint256",
          "name": "_number",
          "type": "uint256"
        },
        {
          "internalType": "bool",
          "name": "_isBooked",
          "type": "bool"
        },
        {
          "internalType": "address",
          "name": "_user",
          "type": "address"
        },
        {
          "internalType": "string",
          "name": "_name",
          "type": "string"
        },
        {
          "internalType": "string",
          "name": "_description",
          "type": "string"
        }
      ],
      "stateMutability": "view",
      "type": "function",
      "constant": true
    },
    {
      "inputs": [],
      "name": "hotelCategory",
      "outputs": [
        {
          "internalType": "enum Hotel.HOTEL_CATEGORY",
          "name": "",
          "type": "uint8"
        }
      ],
      "stateMutability": "view",
      "type": "function",
      "constant": true
    },
    {
      "inputs": [
        {
          "internalType": "uint256",
          "name": "",
          "type": "uint256"
        }
      ],
      "name": "hotelItemId",
      "outputs": [
        {
          "internalType": "uint256",
          "name": "id",
          "type": "uint256"
        },
        {
          "internalType": "uint256",
          "name": "totalRooms",
          "type": "uint256"
        },
        {
          "internalType": "uint256",
          "name": "creationDate",
          "type": "uint256"
        },
        {
          "internalType": "string",
          "name": "name",
          "type": "string"
        },
        {
          "internalType": "enum Hotel.HOTEL_CATEGORY",
          "name": "hotelCategory",
          "type": "uint8"
        },
        {
          "internalType": "string",
          "name": "description",
          "type": "string"
        },
        {
          "internalType": "string",
          "name": "locationAddress",
          "type": "string"
        },
        {
          "internalType": "address payable",
          "name": "user",
          "type": "address"
        },
        {
          "internalType": "string",
          "name": "imageHash",
          "type": "string"
        }
      ],
      "stateMutability": "view",
      "type": "function",
      "constant": true
    },
    {
      "inputs": [
        {
          "internalType": "uint256",
          "name": "",
          "type": "uint256"
        }
      ],
      "name": "hotelItems",
      "outputs": [
        {
          "internalType": "uint256",
          "name": "id",
          "type": "uint256"
        },
        {
          "internalType": "uint256",
          "name": "totalRooms",
          "type": "uint256"
        },
        {
          "internalType": "uint256",
          "name": "creationDate",
          "type": "uint256"
        },
        {
          "internalType": "string",
          "name": "name",
          "type": "string"
        },
        {
          "internalType": "enum Hotel.HOTEL_CATEGORY",
          "name": "hotelCategory",
          "type": "uint8"
        },
        {
          "internalType": "string",
          "name": "description",
          "type": "string"
        },
        {
          "internalType": "string",
          "name": "locationAddress",
          "type": "string"
        },
        {
          "internalType": "address payable",
          "name": "user",
          "type": "address"
        },
        {
          "internalType": "string",
          "name": "imageHash",
          "type": "string"
        }
      ],
      "stateMutability": "view",
      "type": "function",
      "constant": true
    },
    {
      "inputs": [],
      "name": "hotelListingFee",
      "outputs": [
        {
          "internalType": "uint256",
          "name": "",
          "type": "uint256"
        }
      ],
      "stateMutability": "view",
      "type": "function",
      "constant": true
    },
    {
      "inputs": [
        {
          "internalType": "address",
          "name": "",
          "type": "address"
        }
      ],
      "name": "hotelOwner",
      "outputs": [
        {
          "internalType": "uint256",
          "name": "id",
          "type": "uint256"
        },
        {
          "internalType": "uint256",
          "name": "totalRooms",
          "type": "uint256"
        },
        {
          "internalType": "uint256",
          "name": "creationDate",
          "type": "uint256"
        },
        {
          "internalType": "string",
          "name": "name",
          "type": "string"
        },
        {
          "internalType": "enum Hotel.HOTEL_CATEGORY",
          "name": "hotelCategory",
          "type": "uint8"
        },
        {
          "internalType": "string",
          "name": "description",
          "type": "string"
        },
        {
          "internalType": "string",
          "name": "locationAddress",
          "type": "string"
        },
        {
          "internalType": "address payable",
          "name": "user",
          "type": "address"
        },
        {
          "internalType": "string",
          "name": "imageHash",
          "type": "string"
        }
      ],
      "stateMutability": "view",
      "type": "function",
      "constant": true
    },
    {
      "inputs": [],
      "name": "listAllHotels",
      "outputs": [
        {
          "components": [
            {
              "internalType": "uint256",
              "name": "id",
              "type": "uint256"
            },
            {
              "internalType": "uint256",
              "name": "totalRooms",
              "type": "uint256"
            },
            {
              "internalType": "uint256",
              "name": "creationDate",
              "type": "uint256"
            },
            {
              "internalType": "string",
              "name": "name",
              "type": "string"
            },
            {
              "internalType": "enum Hotel.HOTEL_CATEGORY",
              "name": "hotelCategory",
              "type": "uint8"
            },
            {
              "internalType": "string",
              "name": "description",
              "type": "string"
            },
            {
              "internalType": "string",
              "name": "locationAddress",
              "type": "string"
            },
            {
              "internalType": "address payable",
              "name": "user",
              "type": "address"
            },
            {
              "internalType": "string",
              "name": "imageHash",
              "type": "string"
            }
          ],
          "internalType": "struct Hotel.HotelItem[]",
          "name": "",
          "type": "tuple[]"
        }
      ],
      "stateMutability": "view",
      "type": "function",
      "constant": true
    },
    {
      "inputs": [],
      "name": "listRooms",
      "outputs": [
        {
          "components": [
            {
              "internalType": "uint256",
              "name": "id",
              "type": "uint256"
            },
            {
              "internalType": "uint256",
              "name": "totalBeds",
              "type": "uint256"
            },
            {
              "internalType": "uint256",
              "name": "hotelId",
              "type": "uint256"
            },
            {
              "internalType": "uint256",
              "name": "pricePerNight",
              "type": "uint256"
            },
            {
              "internalType": "uint256",
              "name": "number",
              "type": "uint256"
            },
            {
              "internalType": "bool",
              "name": "isBooked",
              "type": "bool"
            },
            {
              "internalType": "address payable",
              "name": "user",
              "type": "address"
            },
            {
              "internalType": "string",
              "name": "name",
              "type": "string"
            },
            {
              "internalType": "string",
              "name": "description",
              "type": "string"
            }
          ],
          "internalType": "struct Room.RoomItem[]",
          "name": "",
          "type": "tuple[]"
        }
      ],
      "stateMutability": "view",
      "type": "function",
      "constant": true
    },
    {
      "inputs": [],
      "name": "owner",
      "outputs": [
        {
          "internalType": "address",
          "name": "",
          "type": "address"
        }
      ],
      "stateMutability": "view",
      "type": "function",
      "constant": true
    },
    {
      "inputs": [],
      "name": "renounceOwnership",
      "outputs": [],
      "stateMutability": "nonpayable",
      "type": "function"
    },
    {
      "inputs": [
        {
          "internalType": "uint256",
          "name": "",
          "type": "uint256"
        }
      ],
      "name": "roomItemId",
      "outputs": [
        {
          "internalType": "uint256",
          "name": "id",
          "type": "uint256"
        },
        {
          "internalType": "uint256",
          "name": "totalBeds",
          "type": "uint256"
        },
        {
          "internalType": "uint256",
          "name": "hotelId",
          "type": "uint256"
        },
        {
          "internalType": "uint256",
          "name": "pricePerNight",
          "type": "uint256"
        },
        {
          "internalType": "uint256",
          "name": "number",
          "type": "uint256"
        },
        {
          "internalType": "bool",
          "name": "isBooked",
          "type": "bool"
        },
        {
          "internalType": "address payable",
          "name": "user",
          "type": "address"
        },
        {
          "internalType": "string",
          "name": "name",
          "type": "string"
        },
        {
          "internalType": "string",
          "name": "description",
          "type": "string"
        }
      ],
      "stateMutability": "view",
      "type": "function",
      "constant": true
    },
    {
      "inputs": [
        {
          "internalType": "address",
          "name": "",
          "type": "address"
        }
      ],
      "name": "roomOwner",
      "outputs": [
        {
          "internalType": "uint256",
          "name": "id",
          "type": "uint256"
        },
        {
          "internalType": "uint256",
          "name": "totalBeds",
          "type": "uint256"
        },
        {
          "internalType": "uint256",
          "name": "hotelId",
          "type": "uint256"
        },
        {
          "internalType": "uint256",
          "name": "pricePerNight",
          "type": "uint256"
        },
        {
          "internalType": "uint256",
          "name": "number",
          "type": "uint256"
        },
        {
          "internalType": "bool",
          "name": "isBooked",
          "type": "bool"
        },
        {
          "internalType": "address payable",
          "name": "user",
          "type": "address"
        },
        {
          "internalType": "string",
          "name": "name",
          "type": "string"
        },
        {
          "internalType": "string",
          "name": "description",
          "type": "string"
        }
      ],
      "stateMutability": "view",
      "type": "function",
      "constant": true
    },
    {
      "inputs": [
        {
          "internalType": "uint256",
          "name": "",
          "type": "uint256"
        }
      ],
      "name": "roomTenant",
      "outputs": [
        {
          "internalType": "address",
          "name": "",
          "type": "address"
        }
      ],
      "stateMutability": "view",
      "type": "function",
      "constant": true
    },
    {
      "inputs": [
        {
          "internalType": "uint256",
          "name": "",
          "type": "uint256"
        }
      ],
      "name": "rooms",
      "outputs": [
        {
          "internalType": "uint256",
          "name": "id",
          "type": "uint256"
        },
        {
          "internalType": "uint256",
          "name": "totalBeds",
          "type": "uint256"
        },
        {
          "internalType": "uint256",
          "name": "hotelId",
          "type": "uint256"
        },
        {
          "internalType": "uint256",
          "name": "pricePerNight",
          "type": "uint256"
        },
        {
          "internalType": "uint256",
          "name": "number",
          "type": "uint256"
        },
        {
          "internalType": "bool",
          "name": "isBooked",
          "type": "bool"
        },
        {
          "internalType": "address payable",
          "name": "user",
          "type": "address"
        },
        {
          "internalType": "string",
          "name": "name",
          "type": "string"
        },
        {
          "internalType": "string",
          "name": "description",
          "type": "string"
        }
      ],
      "stateMutability": "view",
      "type": "function",
      "constant": true
    },
    {
      "inputs": [
        {
          "internalType": "uint256",
          "name": "hotelId",
          "type": "uint256"
        },
        {
          "internalType": "string",
          "name": "imageHash",
          "type": "string"
        }
      ],
      "name": "setImageHash",
      "outputs": [],
      "stateMutability": "nonpayable",
      "type": "function"
    },
    {
      "inputs": [
        {
          "internalType": "uint256",
          "name": "_fee",
          "type": "uint256"
        }
      ],
      "name": "setListingFee",
      "outputs": [],
      "stateMutability": "nonpayable",
      "type": "function"
    },
    {
      "inputs": [
        {
          "internalType": "uint256",
          "name": "_roomId",
          "type": "uint256"
        },
        {
          "internalType": "uint256",
          "name": "_price",
          "type": "uint256"
        }
      ],
      "name": "setNightPrice",
      "outputs": [],
      "stateMutability": "nonpayable",
      "type": "function"
    },
    {
      "inputs": [],
      "name": "totalBookings",
      "outputs": [
        {
          "internalType": "uint256",
          "name": "",
          "type": "uint256"
        }
      ],
      "stateMutability": "view",
      "type": "function",
      "constant": true
    },
    {
      "inputs": [],
      "name": "totalHotels",
      "outputs": [
        {
          "internalType": "uint256",
          "name": "",
          "type": "uint256"
        }
      ],
      "stateMutability": "view",
      "type": "function",
      "constant": true
    },
    {
      "inputs": [],
      "name": "totalRooms",
      "outputs": [
        {
          "internalType": "uint256",
          "name": "",
          "type": "uint256"
        }
      ],
      "stateMutability": "view",
      "type": "function",
      "constant": true
    },
    {
      "inputs": [
        {
          "internalType": "address",
          "name": "newOwner",
          "type": "address"
        }
      ],
      "name": "transferOwnership",
      "outputs": [],
      "stateMutability": "nonpayable",
      "type": "function"
    },
    {
      "inputs": [
        {
          "internalType": "uint256",
          "name": "_roomId",
          "type": "uint256"
        },
        {
          "internalType": "uint256",
          "name": "_numOfNights",
          "type": "uint256"
        }
      ],
      "name": "bookRoom",
      "outputs": [],
      "stateMutability": "payable",
      "type": "function",
      "payable": true
    },
    {
      "inputs": [
        {
          "internalType": "uint256",
          "name": "_roomId",
          "type": "uint256"
        }
      ],
      "name": "checkOut",
      "outputs": [],
      "stateMutability": "payable",
      "type": "function",
      "payable": true
    }
  ],
  "bytecode": "0x60806040526000600255660187152d40e0006003556000600b5560006014553480156200002b57600080fd5b50620000373362000041565b6001805562000091565b600080546001600160a01b038381166001600160a01b0319831681178455604051919092169283917f8be0079c531659141344cd1fd0a4f28419497f9722a3daafe3b4186f6b6457e09190a35050565b613c0a80620000a16000396000f3fe60806040526004361061020f5760003560e01c806374dbda0511610118578063af5537fa116100a0578063c5a56e821161006f578063c5a56e82146106d2578063c89e4963146106f2578063cee9e07814610712578063f2fde38b14610742578063fd5fddd81461076257600080fd5b8063af5537fa14610664578063b2afef821461067a578063bbc02ce21461069a578063c210c532146106b057600080fd5b806391aa8489116100e757806391aa8489146105d85780639524a38e146105ee578063958aa59b1461060e5780639668ce3e1461062e5780639e3edce91461064457600080fd5b806374dbda051461052957806380865877146105595780638a3a1a18146105a75780638da5cb5b146105ba57600080fd5b80633716236e1161019b578063545a153a1161016a578063545a153a1461046c57806362834462146104a75780636b8ff574146104d457806370f3bfd8146104f4578063715018a61461051457600080fd5b80633716236e146103bc578063387329f9146103f15780634dce717e146104115780634ee9a94d1461044c57600080fd5b8063131dbd09116101e2578063131dbd09146102e15780631bae0ac8146103035780631bd2eeee146103385780631dab301e1461034b578063307764971461039c57600080fd5b80630aaecc35146102145780630af272f7146102645780630fa0200d1461029857806310f70192146102bf575b600080fd5b34801561022057600080fd5b5061024f61022f36600461338f565b805160208183018101805160128252928201919093012091525460ff1681565b60405190151581526020015b60405180910390f35b34801561027057600080fd5b5061028461027f3660046133cc565b610775565b60405161025b989796959493929190613479565b3480156102a457600080fd5b506005546102b29060ff1681565b60405161025b91906134f7565b3480156102cb57600080fd5b506102d4610a3c565b60405161025b9190613505565b3480156102ed57600080fd5b506103016102fc3660046133cc565b610c19565b005b34801561030f57600080fd5b5061032361031e3660046133cc565b610cc7565b60405161025b999897969594939291906135e4565b6103016103463660046133cc565b610e44565b34801561035757600080fd5b5061036b6103663660046133cc565b610f87565b6040805195865260208601949094529284019190915260608301526001600160a01b0316608082015260a00161025b565b3480156103a857600080fd5b506103236103b73660046133cc565b610fd1565b3480156103c857600080fd5b506103dc6103d7366004613666565b61102b565b60405161025b9998979695949392919061368a565b3480156103fd57600080fd5b5061030161040c366004613709565b611229565b34801561041d57600080fd5b5061024f61042c36600461338f565b8051602081830181018051600a8252928201919093012091525460ff1681565b34801561045857600080fd5b50610323610467366004613666565b6113c8565b34801561047857600080fd5b506104996104873660046133cc565b60009081526010602052604090205490565b60405190815260200161025b565b3480156104b357600080fd5b506104c76104c23660046133cc565b611422565b60405161025b9190613735565b3480156104e057600080fd5b506104c76104ef3660046133cc565b6114f9565b34801561050057600080fd5b5061030161050f366004613748565b611519565b34801561052057600080fd5b50610301611666565b34801561053557600080fd5b5061024f6105443660046133cc565b60096020526000908152604090205460ff1681565b34801561056557600080fd5b5061058f6105743660046133cc565b600f602052600090815260409020546001600160a01b031681565b6040516001600160a01b03909116815260200161025b565b6103016105b536600461377c565b61169c565b3480156105c657600080fd5b506000546001600160a01b031661058f565b3480156105e457600080fd5b5061049960035481565b3480156105fa57600080fd5b506103dc6106093660046133cc565b611991565b34801561061a57600080fd5b506103236106293660046133cc565b6119c1565b34801561063a57600080fd5b5061049960145481565b34801561065057600080fd5b5061030161065f36600461379e565b611b9c565b34801561067057600080fd5b50610499600b5481565b34801561068657600080fd5b506103016106953660046137e5565b611bf9565b3480156106a657600080fd5b5061049960025481565b3480156106bc57600080fd5b506106c5612375565b60405161025b919061386e565b3480156106de57600080fd5b506103016106ed36600461377c565b61267c565b3480156106fe57600080fd5b506103dc61070d3660046133cc565b612787565b34801561071e57600080fd5b5061024f61072d3660046133cc565b60116020526000908152604090205460ff1681565b34801561074e57600080fd5b5061030161075d366004613666565b6127cc565b61030161077036600461396f565b612867565b600081815260096020526040812054819081906060908190819084908290899060ff1615156001146107c25760405162461bcd60e51b81526004016107b990613a1c565b60405180910390fd5b60008a8152600760205260409020805460018201546002830154600384018054939d50919b509950906107f490613a4a565b80601f016020809104026020016040519081016040528092919081815260200182805461082090613a4a565b801561086d5780601f106108425761010080835404028352916020019161086d565b820191906000526020600020905b81548152906001019060200180831161085057829003601f168201915b5050505050965080600501805461088390613a4a565b80601f01602080910402602001604051908101604052809291908181526020018280546108af90613a4a565b80156108fc5780601f106108d1576101008083540402835291602001916108fc565b820191906000526020600020905b8154815290600101906020018083116108df57829003601f168201915b5050505050955080600601805461091290613a4a565b80601f016020809104026020016040519081016040528092919081815260200182805461093e90613a4a565b801561098b5780601f106109605761010080835404028352916020019161098b565b820191906000526020600020905b81548152906001019060200180831161096e57829003601f168201915b50505050600483015460088401805493985060ff9091169650916109af9150613a4a565b80601f01602080910402602001604051908101604052809291908181526020018280546109db90613a4a565b8015610a285780601f106109fd57610100808354040283529160200191610a28565b820191906000526020600020905b815481529060010190602001808311610a0b57829003601f168201915b505050505092505050919395975091939597565b6060600d805480602002602001604051908101604052809291908181526020016000905b82821015610c10576000848152602090819020604080516101208101825260088602909201805483526001810154938301939093526002830154908201526003820154606082015260048201546080820152600582015460ff8116151560a083015261010090046001600160a01b031660c082015260068201805491929160e084019190610aed90613a4a565b80601f0160208091040260200160405190810160405280929190818152602001828054610b1990613a4a565b8015610b665780601f10610b3b57610100808354040283529160200191610b66565b820191906000526020600020905b815481529060010190602001808311610b4957829003601f168201915b50505050508152602001600782018054610b7f90613a4a565b80601f0160208091040260200160405190810160405280929190818152602001828054610bab90613a4a565b8015610bf85780601f10610bcd57610100808354040283529160200191610bf8565b820191906000526020600020905b815481529060010190602001808311610bdb57829003601f168201915b50505050508152505081526020019060010190610a60565b50505050905090565b6000546001600160a01b03163314610c435760405162461bcd60e51b81526004016107b990613a85565b80610c905760405162461bcd60e51b815260206004820152601a60248201527f4c697374696e67204665652043616e6e6f74206265207a65726f00000000000060448201526064016107b9565b60038190556040518190429033907fd86cac97cd3caa153b72db918dc0feb1ed9683dfd389c345d07f7d00390b63b790600090a450565b600d8181548110610cd757600080fd5b60009182526020909120600890910201805460018201546002830154600384015460048501546005860154600687018054969850949693959294919360ff8216936101009092046001600160a01b0316929091610d3390613a4a565b80601f0160208091040260200160405190810160405280929190818152602001828054610d5f90613a4a565b8015610dac5780601f10610d8157610100808354040283529160200191610dac565b820191906000526020600020905b815481529060010190602001808311610d8f57829003601f168201915b505050505090806007018054610dc190613a4a565b80601f0160208091040260200160405190810160405280929190818152602001828054610ded90613a4a565b8015610e3a5780601f10610e0f57610100808354040283529160200191610e3a565b820191906000526020600020905b815481529060010190602001808311610e1d57829003601f168201915b5050505050905089565b60026001541415610e675760405162461bcd60e51b81526004016107b990613aba565b6002600190815560008281526010602052604090206005810154909160ff909116151514610ecc5760405162461bcd60e51b8152602060048201526012602482015271149bdbdb481a5cc81b9bdd08189bdbdad95960721b60448201526064016107b9565b80546000908152600f60205260409020546001600160a01b03163314610f435760405162461bcd60e51b815260206004820152602660248201527f596f752063757272656e746c7920646f6e742072657369646520696e207468696044820152657320726f6f6d60d01b60648201526084016107b9565b60058101805460ff19169055805460405142919033907f1e7d243bbd980a7b6407550d96c8d6557b193cd3a9cf91f820d9f6720636304290600090a4505060018055565b60138181548110610f9757600080fd5b600091825260209091206005909102018054600182015460028301546003840154600490940154929450909290916001600160a01b031685565b60106020526000908152604090208054600182015460028301546003840154600485015460058601546006870180549697959694959394929360ff8316936101009093046001600160a01b031692909190610d3390613a4a565b60086020526000908152604090208054600182015460028301546003840180549394929391929161105b90613a4a565b80601f016020809104026020016040519081016040528092919081815260200182805461108790613a4a565b80156110d45780601f106110a9576101008083540402835291602001916110d4565b820191906000526020600020905b8154815290600101906020018083116110b757829003601f168201915b5050506004840154600585018054949560ff9092169491935091506110f890613a4a565b80601f016020809104026020016040519081016040528092919081815260200182805461112490613a4a565b80156111715780601f1061114657610100808354040283529160200191611171565b820191906000526020600020905b81548152906001019060200180831161115457829003601f168201915b50505050509080600601805461118690613a4a565b80601f01602080910402602001604051908101604052809291908181526020018280546111b290613a4a565b80156111ff5780601f106111d4576101008083540402835291602001916111ff565b820191906000526020600020905b8154815290600101906020018083116111e257829003601f168201915b505050600784015460088501805494956001600160a01b03909216949193509150610dc190613a4a565b600081815260096020526040902054819060ff16151560011461125e5760405162461bcd60e51b81526004016107b990613a1c565b6000828152600760208190526040909120015482906001600160a01b0316331461129a5760405162461bcd60e51b81526004016107b990613af1565b336001600160a01b03851614156112fe5760405162461bcd60e51b815260206004820152602260248201527f596f75206172652074686520726967687466756c206f776e657220616c726561604482015261647960f01b60648201526084016107b9565b6001600160a01b03841661135f5760405162461bcd60e51b815260206004820152602260248201527f506c65617365207370656369667920612076616c696420455448206164647265604482015261737360f01b60648201526084016107b9565b60008381526007602081815260409283902090910180546001600160a01b0319166001600160a01b038816908117909155915142815233917fa4384cd8553d716f837cc7d68ed60529f9672b59cf96f1ce8bef3334183db34a910160405180910390a350505050565b600e6020526000908152604090208054600182015460028301546003840154600485015460058601546006870180549697959694959394929360ff8316936101009093046001600160a01b031692909190610d3390613a4a565b60008181526009602052604090205460609060ff1615156001146114585760405162461bcd60e51b81526004016107b990613a1c565b6000828152600760205260409020600801805461147490613a4a565b80601f01602080910402602001604051908101604052809291908181526020018280546114a090613a4a565b80156114ed5780601f106114c2576101008083540402835291602001916114ed565b820191906000526020600020905b8154815290600101906020018083116114d057829003601f168201915b50505050509050919050565b600081815260106020526040902060060180546060919061147490613a4a565b600082815260096020526040902054829060ff16151560011461154e5760405162461bcd60e51b81526004016107b990613a1c565b6000838152600760208190526040909120015483906001600160a01b0316331461158a5760405162461bcd60e51b81526004016107b990613af1565b6000848152600760205260408120908460068111156115ab576115ab613441565b14156115b9576115b9613b28565b600481015460ff1660068111156115d2576115d2613441565b8460068111156115e4576115e4613441565b14156115f2576115f2613b28565b60048101805485919060ff1916600183600681111561161357611613613441565b021790555083600681111561162a5761162a613441565b60405142815233907ff5b844f9650efd8a638976417da0e54ababae9d5ae6ec7dbc97124f00d5a5c5e9060200160405180910390a35050505050565b6000546001600160a01b031633146116905760405162461bcd60e51b81526004016107b990613a85565b61169a6000612f35565b565b600260015414156116bf5760405162461bcd60e51b81526004016107b990613aba565b60026001908155600083815260116020526040902054839160ff9091161515146116fb5760405162461bcd60e51b81526004016107b990613b3e565b600083815260106020526040902060050154839060ff16156117525760405162461bcd60e51b815260206004820152601060248201526f149bdbdb481a5cc81bd8d8dd5c1a595960821b60448201526064016107b9565b60008481526010602052604081206003810154909190611773908690612f85565b600583015490915061010090046001600160a01b03163314156117d85760405162461bcd60e51b815260206004820152601d60248201527f596f752063616e6e6f7420626f6f6b20796f7572206f776e20726f6f6d00000060448201526064016107b9565b333181111561181e5760405162461bcd60e51b8152602060048201526012602482015271496e73756666696369656e742046756e647360701b60448201526064016107b9565b8461186b5760405162461bcd60e51b815260206004820152601f60248201527f4e756d626572206f66206e69676874732063616e6e6f74206265207a65726f0060448201526064016107b9565b61187d81670de0b6b3a7640000613b81565b34146118f3576040805162461bcd60e51b81526020600482015260248101919091527f506c65617365207061792074686520626f6f6b696e672066656520626173656460448201527f206f6e206e756d626572206f66206e696768747320746f206265207370656e7460648201526084016107b9565b611901601580546001019055565b600061190c60155490565b60058401546040519192506001600160a01b0361010090910416903480156108fc02916000818181858888f1935050505015801561194e573d6000803e3d6000fd5b5061195887612f9a565b825461196690823433612fee565b5050546000908152600f6020526040902080546001600160a01b031916331790555050600180555050565b60076020526000908152604090208054600182015460028301546003840180549394929391929161105b90613a4a565b60008181526011602052604081205481908190819081908190819060609081908a9060ff161515600114611a075760405162461bcd60e51b81526004016107b990613b3e565b6000601060008d8152602001908152602001600020905080600001549a50806001015499508060020154985080600301549750806004015496508060050160009054906101000a900460ff1695508060050160019054906101000a90046001600160a01b03169450806006018054611a7e90613a4a565b80601f0160208091040260200160405190810160405280929190818152602001828054611aaa90613a4a565b8015611af75780601f10611acc57610100808354040283529160200191611af7565b820191906000526020600020905b815481529060010190602001808311611ada57829003601f168201915b50505050509350806007018054611b0d90613a4a565b80601f0160208091040260200160405190810160405280929190818152602001828054611b3990613a4a565b8015611b865780601f10611b5b57610100808354040283529160200191611b86565b820191906000526020600020905b815481529060010190602001808311611b6957829003601f168201915b5050505050925050509193959799909294969850565b60008281526009602052604090205460ff161515600114611bcf5760405162461bcd60e51b81526004016107b990613a1c565b60008281526007602090815260409091208251611bf4926008909201918401906131d8565b505050565b6000868152600760208190526040822001548791906001600160a01b0316331415611c22575060015b600181151514611c855760405162461bcd60e51b815260206004820152602860248201527f506c65617365204c697374204120486f74656c204265666f726520416464696e60448201526767204120526f6f6d60c01b60648201526084016107b9565b6000888152600760208190526040909120015488906001600160a01b03163314611cc15760405162461bcd60e51b81526004016107b990613af1565b600089815260096020526040902054899060ff161515600114611cf65760405162461bcd60e51b81526004016107b990613a1c565b856000815111611d485760405162461bcd60e51b815260206004820152601c60248201527f506c6561736520737065636966792074686520726f6f6d206e616d650000000060448201526064016107b9565b601281604051611d589190613ba0565b9081526040519081900360200190205460ff1615611dab5760405162461bcd60e51b815260206004820152601060248201526f526f6f6d204e616d652045786973747360801b60448201526064016107b9565b33611db557600080fd5b89611e025760405162461bcd60e51b815260206004820152601d60248201527f4e756d626572206f6620626564732063616e6e6f74206265207a65726f00000060448201526064016107b9565b6000865111611e5f5760405162461bcd60e51b815260206004820152602360248201527f506c6561736520737065636966792074686520726f6f6d20646573637269707460448201526234b7b760e91b60648201526084016107b9565b88611eb85760405162461bcd60e51b815260206004820152602360248201527f54686520726f6f6d206e696768742070726963652063616e6e6f74206265207a60448201526265726f60e81b60648201526084016107b9565b611ec6600c80546001019055565b6000611ed1600c5490565b90506000600760008e81526020019081526020016000206000015490506000600760008f81526020019081526020016000206001015490506040518061012001604052808481526020018e81526020018381526020018d81526020018c8152602001600015158152602001336001600160a01b031681526020018b81526020018a81525060106000858152602001908152602001600020600082015181600001556020820151816001015560408201518160020155606082015181600301556080820151816004015560a08201518160050160006101000a81548160ff02191690831515021790555060c08201518160050160016101000a8154816001600160a01b0302191690836001600160a01b0316021790555060e08201518160060190805190602001906120039291906131d8565b5061010082015180516120209160078401916020909101906131d8565b5050506000838152601060205260408120600d80546001818101835591909352815460089093027fd7b6990105719101dabeb77144f2a3385c8033acd3af97e9423a695e81ad1eb58101938455908201547fd7b6990105719101dabeb77144f2a3385c8033acd3af97e9423a695e81ad1eb682015560028201547fd7b6990105719101dabeb77144f2a3385c8033acd3af97e9423a695e81ad1eb782015560038201547fd7b6990105719101dabeb77144f2a3385c8033acd3af97e9423a695e81ad1eb882015560048201547fd7b6990105719101dabeb77144f2a3385c8033acd3af97e9423a695e81ad1eb98201556005820180547fd7b6990105719101dabeb77144f2a3385c8033acd3af97e9423a695e81ad1eba8301805460ff909216151560ff1983168117825592546001600160a01b03610100918290041602610100600160a81b03199093166001600160a81b0319909216919091179190911790556006820180549293927fd7b6990105719101dabeb77144f2a3385c8033acd3af97e9423a695e81ad1ebb909201916121b890613a4a565b6121c392919061325c565b5060078201816007019080546121d890613a4a565b6121e392919061325c565b5050506000838152601060209081526040808320338452600e909252909120815481556001808301549082015560028083015490820155600380830154908201556004808301549082015560058083018054918301805460ff909316151560ff198416811782559154610100908190046001600160a01b031602610100600160a81b03199092166001600160a81b031990931692909217179055600680830180549183019161229190613a4a565b61229c92919061325c565b5060078201816007019080546122b190613a4a565b6122bc92919061325c565b506122cc915082905060016131cc565b600b549091506122dd9060016131cc565b600b5560008381526011602052604090819020805460ff19166001908117909155905160129061230e908d90613ba0565b9081526040805160209281900383018120805460ff19169415159490941790935542835290820185905233917f3733808b347b3e95cb4b664d5c8e8fe364fc4dd34b77f49cde3ba2564d78888c910160405180910390a25050505050505050505050505050565b60606006805480602002602001604051908101604052809291908181526020016000905b82821015610c105783829060005260206000209060090201604051806101200160405290816000820154815260200160018201548152602001600282015481526020016003820180546123eb90613a4a565b80601f016020809104026020016040519081016040528092919081815260200182805461241790613a4a565b80156124645780601f1061243957610100808354040283529160200191612464565b820191906000526020600020905b81548152906001019060200180831161244757829003601f168201915b5050509183525050600482015460209091019060ff16600681111561248b5761248b613441565b600681111561249c5761249c613441565b81526020016005820180546124b090613a4a565b80601f01602080910402602001604051908101604052809291908181526020018280546124dc90613a4a565b80156125295780601f106124fe57610100808354040283529160200191612529565b820191906000526020600020905b81548152906001019060200180831161250c57829003601f168201915b5050505050815260200160068201805461254290613a4a565b80601f016020809104026020016040519081016040528092919081815260200182805461256e90613a4a565b80156125bb5780601f10612590576101008083540402835291602001916125bb565b820191906000526020600020905b81548152906001019060200180831161259e57829003601f168201915b505050918352505060078201546001600160a01b031660208201526008820180546040909201916125eb90613a4a565b80601f016020809104026020016040519081016040528092919081815260200182805461261790613a4a565b80156126645780601f1061263957610100808354040283529160200191612664565b820191906000526020600020905b81548152906001019060200180831161264757829003601f168201915b50505050508152505081526020019060010190612399565b600082815260106020526040902060050154829061010090046001600160a01b031633146126ec5760405162461bcd60e51b815260206004820152601860248201527f596f7520446f204e6f74204f776e205468697320526f6f6d000000000000000060448201526064016107b9565b816127305760405162461bcd60e51b815260206004820152601460248201527370726963652043616e6e6f74206265207a65726f60601b60448201526064016107b9565b6000838152601060205260409081902060030183905551429033907f2adffbd83a80d927a3a5c687edc852ca8941019a58261ffb685cc98972ba7c249061277a9086815260200190565b60405180910390a3505050565b6006818154811061279757600080fd5b906000526020600020906009020160009150905080600001549080600101549080600201549080600301805461105b90613a4a565b6000546001600160a01b031633146127f65760405162461bcd60e51b81526004016107b990613a85565b6001600160a01b03811661285b5760405162461bcd60e51b815260206004820152602660248201527f4f776e61626c653a206e6577206f776e657220697320746865207a65726f206160448201526564647265737360d01b60648201526084016107b9565b61286481612f35565b50565b83600a816040516128789190613ba0565b9081526040519081900360200190205460ff16156128cc5760405162461bcd60e51b8152602060048201526011602482015270486f74656c204e616d652045786973747360781b60448201526064016107b9565b600081511161291d5760405162461bcd60e51b815260206004820152601d60248201527f506c6561736520737065636966792074686520686f74656c206e616d6500000060448201526064016107b9565b600260015414156129405760405162461bcd60e51b81526004016107b990613aba565b60026001553361294f57600080fd5b60035434146129965760405162461bcd60e51b8152602060048201526013602482015272496e76616c6964204c697374696e672046656560681b60448201526064016107b9565b60008451116129f35760405162461bcd60e51b8152602060048201526024808201527f506c6561736520737065636966792074686520686f74656c20646573637269706044820152633a34b7b760e11b60648201526084016107b9565b6000835111612a555760405162461bcd60e51b815260206004820152602860248201527f506c65617365207370656369667920746865206c6f636174696f6e206f6620746044820152671a19481a1bdd195b60c21b60648201526084016107b9565b612a63600480546001019055565b6000612a6e60045490565b90506040518061012001604052808281526020016000815260200142815260200187815260200160006006811115612aa857612aa8613441565b81526020808201889052604080830188905233606080850191909152608090930187905260008581526007835281902084518155848301516001820155908401516002820155918301518051612b0492600385019201906131d8565b50608082015160048201805460ff19166001836006811115612b2857612b28613441565b021790555060a08201518051612b489160058401916020909101906131d8565b5060c08201518051612b649160068401916020909101906131d8565b5060e08201516007820180546001600160a01b0319166001600160a01b039092169190911790556101008201518051612ba79160088401916020909101906131d8565b5050506000818152600760205260408120600680546001818101835591909352815460099093027ff652222313e28459528d920b65115c16c04f3efc82aaedc97be59f3f377c0d3f8101938455908201547ff652222313e28459528d920b65115c16c04f3efc82aaedc97be59f3f377c0d4082015560028201547ff652222313e28459528d920b65115c16c04f3efc82aaedc97be59f3f377c0d418201556003820180549293927ff652222313e28459528d920b65115c16c04f3efc82aaedc97be59f3f377c0d4290920191612c7c90613a4a565b612c8792919061325c565b50600482810154908201805460ff9092169160ff19166001836006811115612cb157612cb1613441565b02179055506005820181600501908054612cca90613a4a565b612cd592919061325c565b506006820181600601908054612cea90613a4a565b612cf592919061325c565b5060078281015490820180546001600160a01b0319166001600160a01b039092169190911790556008808301805491830191612d3090613a4a565b612d3b92919061325c565b505050600081815260076020908152604080832033845260089092529091208154815560018083015490820155600280830154908201556003808301805491830191612d8690613a4a565b612d9192919061325c565b50600482810154908201805460ff9092169160ff19166001836006811115612dbb57612dbb613441565b02179055506005820181600501908054612dd490613a4a565b612ddf92919061325c565b506006820181600601908054612df490613a4a565b612dff92919061325c565b5060078281015490820180546001600160a01b0319166001600160a01b039092169190911790556008808301805491830191612e3a90613a4a565b612e4592919061325c565b5050600254612e56915060016131cc565b60025560008181526009602052604090819020805460ff191660019081179091559051600a90612e87908990613ba0565b908152604051908190036020019020805491151560ff19909216919091179055612eb96000546001600160a01b031690565b6001600160a01b03166108fc349081150290604051600060405180830381858888f19350505050158015612ef1573d6000803e3d6000fd5b50604051428152819033907fc8103fc44f19a39b2be3834708c831e6292d5b110a99e06a1f9c1c5f24faf5dd9060200160405180910390a350506001805550505050565b600080546001600160a01b038381166001600160a01b0319831681178455604051919092169283917f8be0079c531659141344cd1fd0a4f28419497f9722a3daafe3b4186f6b6457e09190a35050565b6000612f918284613b81565b90505b92915050565b600081815260116020526040902054819060ff161515600114612fcf5760405162461bcd60e51b81526004016107b990613b3e565b506000908152601060205260409020600501805460ff19166001179055565b6001600160a01b03811661300457613004613b28565b3361300e57600080fd5b8261305b5760405162461bcd60e51b815260206004820152601960248201527f426f6f6b696e672049442063616e6e6f74206265207a65726f0000000000000060448201526064016107b9565b6040805160a0810182528581526020810185815242928201928352606082018581526001600160a01b0385811660808501908152601380546001808201835560009290925286517f66de8ffda797e3de9c05e8fc57b3bf0ec28a930d40b0d285d93c06501cf6a09060059092029182015594517f66de8ffda797e3de9c05e8fc57b3bf0ec28a930d40b0d285d93c06501cf6a09186015595517f66de8ffda797e3de9c05e8fc57b3bf0ec28a930d40b0d285d93c06501cf6a09285015591517f66de8ffda797e3de9c05e8fc57b3bf0ec28a930d40b0d285d93c06501cf6a09384015590517f66de8ffda797e3de9c05e8fc57b3bf0ec28a930d40b0d285d93c06501cf6a09490920180546001600160a01b03191692909116919091179055601454909161318991906131cc565b6014556040514281528590349033907f414e8daa25ba8dde6e691876495db5da793781eed1794da14679b2af00301df69060200160405180910390a45050505050565b6000612f918284613bbc565b8280546131e490613a4a565b90600052602060002090601f016020900481019282613206576000855561324c565b82601f1061321f57805160ff191683800117855561324c565b8280016001018555821561324c579182015b8281111561324c578251825591602001919060010190613231565b506132589291506132d7565b5090565b82805461326890613a4a565b90600052602060002090601f01602090048101928261328a576000855561324c565b82601f1061329b578054855561324c565b8280016001018555821561324c57600052602060002091601f016020900482015b8281111561324c5782548255916001019190600101906132bc565b5b8082111561325857600081556001016132d8565b634e487b7160e01b600052604160045260246000fd5b600082601f83011261331357600080fd5b813567ffffffffffffffff8082111561332e5761332e6132ec565b604051601f8301601f19908116603f01168101908282118183101715613356576133566132ec565b8160405283815286602085880101111561336f57600080fd5b836020870160208301376000602085830101528094505050505092915050565b6000602082840312156133a157600080fd5b813567ffffffffffffffff8111156133b857600080fd5b6133c484828501613302565b949350505050565b6000602082840312156133de57600080fd5b5035919050565b60005b838110156134005781810151838201526020016133e8565b8381111561340f576000848401525b50505050565b6000815180845261342d8160208601602086016133e5565b601f01601f19169290920160200192915050565b634e487b7160e01b600052602160045260246000fd5b6007811061347557634e487b7160e01b600052602160045260246000fd5b9052565b60006101008a835289602084015288604084015280606084015261349f81840189613415565b905082810360808401526134b38188613415565b905082810360a08401526134c78187613415565b90506134d660c0840186613457565b82810360e08401526134e88185613415565b9b9a5050505050505050505050565b60208101612f948284613457565b60006020808301818452808551808352604092508286019150828160051b87010184880160005b838110156135d657888303603f1901855281518051845287810151888501528681015187850152606080820151908501526080808201519085015260a08082015115159085015260c0808201516001600160a01b03169085015260e08082015161012082870181905291906135a383880182613415565b9250505061010080830151925085820381870152506135c28183613415565b96890196945050509086019060010161352c565b509098975050505050505050565b60006101208b83528a602084015289604084015288606084015287608084015286151560a084015260018060a01b03861660c08401528060e084015261362c81840186613415565b90508281036101008401526136418185613415565b9c9b505050505050505050505050565b6001600160a01b038116811461286457600080fd5b60006020828403121561367857600080fd5b813561368381613651565b9392505050565b60006101208b83528a60208401528960408401528060608401526136b08184018a613415565b90506136bf6080840189613457565b82810360a08401526136d18188613415565b905082810360c08401526136e58187613415565b6001600160a01b03861660e085015283810361010085015290506136418185613415565b6000806040838503121561371c57600080fd5b823561372781613651565b946020939093013593505050565b602081526000612f916020830184613415565b6000806040838503121561375b57600080fd5b8235915060208301356007811061377157600080fd5b809150509250929050565b6000806040838503121561378f57600080fd5b50508035926020909101359150565b600080604083850312156137b157600080fd5b82359150602083013567ffffffffffffffff8111156137cf57600080fd5b6137db85828601613302565b9150509250929050565b60008060008060008060c087890312156137fe57600080fd5b86359550602087013594506040870135935060608701359250608087013567ffffffffffffffff8082111561383257600080fd5b61383e8a838b01613302565b935060a089013591508082111561385457600080fd5b5061386189828a01613302565b9150509295509295509295565b60006020808301818452808551808352604092508286019150828160051b87010184880160005b838110156135d657603f198984030185528151610120815185528882015189860152878201518886015260608083015182828801526138d683880182613415565b925050506080808301516138ec82880182613457565b505060a080830151868303828801526139058382613415565b9250505060c080830151868303828801526139208382613415565b9250505060e08083015161393e828801826001600160a01b03169052565b5050610100808301519250858203818701525061395b8183613415565b968901969450505090860190600101613895565b6000806000806080858703121561398557600080fd5b843567ffffffffffffffff8082111561399d57600080fd5b6139a988838901613302565b955060208701359150808211156139bf57600080fd5b6139cb88838901613302565b945060408701359150808211156139e157600080fd5b6139ed88838901613302565b93506060870135915080821115613a0357600080fd5b50613a1087828801613302565b91505092959194509250565b602080825260149082015273121bdd195b08111bd95cc8139bdd08115e1a5cdd60621b604082015260600190565b600181811c90821680613a5e57607f821691505b60208210811415613a7f57634e487b7160e01b600052602260045260246000fd5b50919050565b6020808252818101527f4f776e61626c653a2063616c6c6572206973206e6f7420746865206f776e6572604082015260600190565b6020808252601f908201527f5265656e7472616e637947756172643a207265656e7472616e742063616c6c00604082015260600190565b6020808252601e908201527f596f7520446f204e6f74204f776e205468697320486f74656c204974656d0000604082015260600190565b634e487b7160e01b600052600160045260246000fd5b602080825260139082015272149bdbdb48111bd95cc8139bdd08115e1a5cdd606a1b604082015260600190565b634e487b7160e01b600052601160045260246000fd5b6000816000190483118215151615613b9b57613b9b613b6b565b500290565b60008251613bb28184602087016133e5565b9190910192915050565b60008219821115613bcf57613bcf613b6b565b50019056fea264697066735822122062a6094535df1ace03693edfc3010aa95f5c4b12546aef7631c97665bbf8df3164736f6c634300080a0033",
  "immutableReferences": {},
  "source": "// SPDX-License-Identifier: MIT\npragma solidity ^0.8.0;\nimport '@openzeppelin/contracts/utils/math/SafeMath.sol';\nimport '@openzeppelin/contracts/security/ReentrancyGuard.sol';\nimport '@openzeppelin/contracts/utils/Counters.sol';\nimport './Room.sol';\n\ncontract Booking is Room{\n  using SafeMath for uint256;\n  using Counters for Counters.Counter;\n\n  struct BookingItem{\n    uint roomId;\n    uint bookingId;\n    uint bookingDate;\n    uint amountPaid;\n    address payable tenant;\n  }\n\n  BookingItem[] public bookings;\n\n  uint public totalBookings = 0;\n  Counters.Counter private _bookingIds;\n\n  event CheckoutSuccessfull(address indexed tenant, uint indexed roomId, uint indexed date);\n\n  function _registerBooking(uint _roomId, uint _bookingId,uint _amountPaid, address payable _tenant) internal{\n    assert(_tenant != address(0));\n    require(msg.sender != address(0));\n    require(_bookingId != 0,\"Booking ID cannot be zero\");\n    BookingItem memory newBooking = BookingItem(_roomId,_bookingId, block.timestamp,_amountPaid,_tenant);\n    bookings.push(newBooking);\n    totalBookings = totalBookings.add(1);\n    emit RoomBooked(block.timestamp, msg.sender,msg.value,_roomId);\n  }\n  \n  function bookRoom(uint _roomId,uint _numOfNights) public payable \n  nonReentrant \n  roomExists(_roomId) \n  isNotBooked(_roomId){\n    RoomItem storage room = roomItemId[_roomId];\n    uint totalPayableAmount = _numOfNights.mul(room.pricePerNight);\n    require(msg.sender != room.user,\"You cannot book your own room\");\n    require(msg.sender.balance >= totalPayableAmount,\"Insufficient Funds\");\n    require(_numOfNights != 0,\"Number of nights cannot be zero\");\n    require(msg.value == totalPayableAmount * 1 ether,\"Please pay the booking fee based on number of nights to be spent\");\n    _bookingIds.increment();\n    uint currentBookingId = _bookingIds.current();\n    room.user.transfer(msg.value);\n    _setBooked(_roomId);\n    _registerBooking(room.id,currentBookingId,msg.value, payable(msg.sender));\n    roomTenant[room.id] = msg.sender;\n  }\n\n  function checkOut(uint _roomId) public payable nonReentrant {\n    RoomItem storage room = roomItemId[_roomId];\n    require(room.isBooked == true,\"Room is not booked\");\n    require(msg.sender == roomTenant[room.id],\"You currently dont reside in this room\");\n    room.isBooked = false;\n    emit CheckoutSuccessfull(msg.sender,room.id,block.timestamp);\n  }\n\n}\n",
  "sourcePath": "D:/Dickens/Programming/Blockchain/Projects/Personal/HotelDapp/contracts/Booking.sol",
  "compiler": {
    "name": "solc",
    "version": "0.8.10+commit.fc410830.Emscripten.clang"
  },
  "schemaVersion": "3.4.1",
  "updatedAt": "2021-12-03T04:25:00.692Z",
  "networkType": "ethereum",
  "devdoc": {
    "kind": "dev",
    "methods": {
      "owner()": {
        "details": "Returns the address of the current owner."
      },
      "renounceOwnership()": {
        "details": "Leaves the contract without owner. It will not be possible to call `onlyOwner` functions anymore. Can only be called by the current owner. NOTE: Renouncing ownership will leave the contract without an owner, thereby removing any functionality that is only available to the owner."
      },
      "transferOwnership(address)": {
        "details": "Transfers ownership of the contract to a new account (`newOwner`). Can only be called by the current owner."
      }
    },
    "version": 1
  },
  "userdoc": {
    "kind": "user",
    "methods": {},
    "version": 1
  }
}