{
  "contractName": "Booking",
  "abi": [
    {
      "inputs": [],
      "stateMutability": "nonpayable",
      "type": "constructor"
    },
    {
      "anonymous": false,
      "inputs": [
        {
          "indexed": true,
          "internalType": "address",
          "name": "tenant",
          "type": "address"
        },
        {
          "indexed": true,
          "internalType": "uint256",
          "name": "roomId",
          "type": "uint256"
        },
        {
          "indexed": true,
          "internalType": "uint256",
          "name": "date",
          "type": "uint256"
        }
      ],
      "name": "CheckoutSuccessfull",
      "type": "event"
    },
    {
      "anonymous": false,
      "inputs": [
        {
          "indexed": true,
          "internalType": "address",
          "name": "causer",
          "type": "address"
        },
        {
          "indexed": false,
          "internalType": "uint256",
          "name": "date",
          "type": "uint256"
        },
        {
          "indexed": true,
          "internalType": "enum Hotel.HOTEL_CATEGORY",
          "name": "newCategory",
          "type": "uint8"
        }
      ],
      "name": "HotelCategoryChanged",
      "type": "event"
    },
    {
      "anonymous": false,
      "inputs": [
        {
          "indexed": false,
          "internalType": "uint256",
          "name": "date",
          "type": "uint256"
        },
        {
          "indexed": true,
          "internalType": "address",
          "name": "causer",
          "type": "address"
        },
        {
          "indexed": true,
          "internalType": "uint256",
          "name": "id",
          "type": "uint256"
        }
      ],
      "name": "HotelCreated",
      "type": "event"
    },
    {
      "anonymous": false,
      "inputs": [
        {
          "indexed": true,
          "internalType": "address",
          "name": "user",
          "type": "address"
        },
        {
          "indexed": true,
          "internalType": "uint256",
          "name": "date",
          "type": "uint256"
        },
        {
          "indexed": true,
          "internalType": "uint256",
          "name": "fee",
          "type": "uint256"
        }
      ],
      "name": "HotelListingFeeChanged",
      "type": "event"
    },
    {
      "anonymous": false,
      "inputs": [
        {
          "indexed": true,
          "internalType": "address",
          "name": "causer",
          "type": "address"
        },
        {
          "indexed": true,
          "internalType": "address",
          "name": "newOwner",
          "type": "address"
        },
        {
          "indexed": false,
          "internalType": "uint256",
          "name": "date",
          "type": "uint256"
        }
      ],
      "name": "HotelOwnerChanged",
      "type": "event"
    },
    {
      "anonymous": false,
      "inputs": [
        {
          "indexed": true,
          "internalType": "address",
          "name": "user",
          "type": "address"
        },
        {
          "indexed": false,
          "internalType": "uint256",
          "name": "date",
          "type": "uint256"
        },
        {
          "indexed": false,
          "internalType": "uint256",
          "name": "id",
          "type": "uint256"
        }
      ],
      "name": "NewRoomCreated",
      "type": "event"
    },
    {
      "anonymous": false,
      "inputs": [
        {
          "indexed": true,
          "internalType": "address",
          "name": "previousOwner",
          "type": "address"
        },
        {
          "indexed": true,
          "internalType": "address",
          "name": "newOwner",
          "type": "address"
        }
      ],
      "name": "OwnershipTransferred",
      "type": "event"
    },
    {
      "anonymous": false,
      "inputs": [
        {
          "indexed": false,
          "internalType": "uint256",
          "name": "date",
          "type": "uint256"
        },
        {
          "indexed": true,
          "internalType": "address",
          "name": "tenant",
          "type": "address"
        },
        {
          "indexed": true,
          "internalType": "uint256",
          "name": "amountPaid",
          "type": "uint256"
        },
        {
          "indexed": true,
          "internalType": "uint256",
          "name": "roomId",
          "type": "uint256"
        }
      ],
      "name": "RoomBooked",
      "type": "event"
    },
    {
      "anonymous": false,
      "inputs": [
        {
          "indexed": true,
          "internalType": "address",
          "name": "user",
          "type": "address"
        },
        {
          "indexed": false,
          "internalType": "uint256",
          "name": "price",
          "type": "uint256"
        },
        {
          "indexed": true,
          "internalType": "uint256",
          "name": "date",
          "type": "uint256"
        }
      ],
      "name": "RoomNightPriceSet",
      "type": "event"
    },
    {
      "inputs": [
        {
          "internalType": "uint256",
          "name": "_numOfRooms",
          "type": "uint256"
        },
        {
          "internalType": "string",
          "name": "_name",
          "type": "string"
        },
        {
          "internalType": "string",
          "name": "_description",
          "type": "string"
        },
        {
          "internalType": "string",
          "name": "_location",
          "type": "string"
        }
      ],
      "name": "addHotel",
      "outputs": [],
      "stateMutability": "payable",
      "type": "function"
    },
    {
      "inputs": [
        {
          "internalType": "uint256",
          "name": "_hotelId",
          "type": "uint256"
        },
        {
          "internalType": "uint256",
          "name": "_totalBeds",
          "type": "uint256"
        },
        {
          "internalType": "uint256",
          "name": "_pricePerNight",
          "type": "uint256"
        },
        {
          "internalType": "uint256",
          "name": "_number",
          "type": "uint256"
        },
        {
          "internalType": "string",
          "name": "_name",
          "type": "string"
        },
        {
          "internalType": "string",
          "name": "_description",
          "type": "string"
        }
      ],
      "name": "addRoom",
      "outputs": [],
      "stateMutability": "nonpayable",
      "type": "function"
    },
    {
      "inputs": [
        {
          "internalType": "uint256",
          "name": "",
          "type": "uint256"
        }
      ],
      "name": "bookings",
      "outputs": [
        {
          "internalType": "uint256",
          "name": "roomId",
          "type": "uint256"
        },
        {
          "internalType": "uint256",
          "name": "bookingId",
          "type": "uint256"
        },
        {
          "internalType": "uint256",
          "name": "bookingDate",
          "type": "uint256"
        },
        {
          "internalType": "uint256",
          "name": "amountPaid",
          "type": "uint256"
        },
        {
          "internalType": "address payable",
          "name": "tenant",
          "type": "address"
        }
      ],
      "stateMutability": "view",
      "type": "function"
    },
    {
      "inputs": [
        {
          "internalType": "uint256",
          "name": "_hotelId",
          "type": "uint256"
        },
        {
          "internalType": "enum Hotel.HOTEL_CATEGORY",
          "name": "_category",
          "type": "uint8"
        }
      ],
      "name": "changeHotelCategory",
      "outputs": [],
      "stateMutability": "nonpayable",
      "type": "function"
    },
    {
      "inputs": [
        {
          "internalType": "address payable",
          "name": "_newOwner",
          "type": "address"
        },
        {
          "internalType": "uint256",
          "name": "_hotelId",
          "type": "uint256"
        }
      ],
      "name": "changeHotelOwner",
      "outputs": [],
      "stateMutability": "nonpayable",
      "type": "function"
    },
    {
      "inputs": [
        {
          "internalType": "uint256",
          "name": "",
          "type": "uint256"
        }
      ],
      "name": "existingHotelItemId",
      "outputs": [
        {
          "internalType": "bool",
          "name": "",
          "type": "bool"
        }
      ],
      "stateMutability": "view",
      "type": "function"
    },
    {
      "inputs": [
        {
          "internalType": "string",
          "name": "",
          "type": "string"
        }
      ],
      "name": "existingHotelItemName",
      "outputs": [
        {
          "internalType": "bool",
          "name": "",
          "type": "bool"
        }
      ],
      "stateMutability": "view",
      "type": "function"
    },
    {
      "inputs": [
        {
          "internalType": "uint256",
          "name": "",
          "type": "uint256"
        }
      ],
      "name": "existingRoomItem",
      "outputs": [
        {
          "internalType": "bool",
          "name": "",
          "type": "bool"
        }
      ],
      "stateMutability": "view",
      "type": "function"
    },
    {
      "inputs": [
        {
          "internalType": "string",
          "name": "",
          "type": "string"
        }
      ],
      "name": "existingRoomItemName",
      "outputs": [
        {
          "internalType": "bool",
          "name": "",
          "type": "bool"
        }
      ],
      "stateMutability": "view",
      "type": "function"
    },
    {
      "inputs": [
        {
          "internalType": "uint256",
          "name": "_hotelId",
          "type": "uint256"
        }
      ],
      "name": "getHotelBioData",
      "outputs": [
        {
          "internalType": "uint256",
          "name": "_id",
          "type": "uint256"
        },
        {
          "internalType": "uint256",
          "name": "_totalRooms",
          "type": "uint256"
        },
        {
          "internalType": "uint256",
          "name": "_date",
          "type": "uint256"
        },
        {
          "internalType": "string",
          "name": "_name",
          "type": "string"
        },
        {
          "internalType": "string",
          "name": "_description",
          "type": "string"
        },
        {
          "internalType": "string",
          "name": "_location",
          "type": "string"
        },
        {
          "internalType": "enum Hotel.HOTEL_CATEGORY",
          "name": "_category",
          "type": "uint8"
        }
      ],
      "stateMutability": "view",
      "type": "function"
    },
    {
      "inputs": [
        {
          "internalType": "uint256",
          "name": "_roomId",
          "type": "uint256"
        }
      ],
      "name": "getId",
      "outputs": [
        {
          "internalType": "uint256",
          "name": "",
          "type": "uint256"
        }
      ],
      "stateMutability": "view",
      "type": "function"
    },
    {
      "inputs": [
        {
          "internalType": "uint256",
          "name": "_roomId",
          "type": "uint256"
        }
      ],
      "name": "getName",
      "outputs": [
        {
          "internalType": "string",
          "name": "",
          "type": "string"
        }
      ],
      "stateMutability": "view",
      "type": "function"
    },
    {
      "inputs": [
        {
          "internalType": "uint256",
          "name": "_roomId",
          "type": "uint256"
        }
      ],
      "name": "getRoomBioData",
      "outputs": [
        {
          "internalType": "uint256",
          "name": "_id",
          "type": "uint256"
        },
        {
          "internalType": "uint256",
          "name": "_numOfBeds",
          "type": "uint256"
        },
        {
          "internalType": "uint256",
          "name": "_hotelId",
          "type": "uint256"
        },
        {
          "internalType": "uint256",
          "name": "_pricePerNight",
          "type": "uint256"
        },
        {
          "internalType": "uint256",
          "name": "_number",
          "type": "uint256"
        },
        {
          "internalType": "bool",
          "name": "_isBooked",
          "type": "bool"
        },
        {
          "internalType": "address",
          "name": "_user",
          "type": "address"
        },
        {
          "internalType": "string",
          "name": "_name",
          "type": "string"
        },
        {
          "internalType": "string",
          "name": "_description",
          "type": "string"
        }
      ],
      "stateMutability": "view",
      "type": "function"
    },
    {
      "inputs": [],
      "name": "hotelCategory",
      "outputs": [
        {
          "internalType": "enum Hotel.HOTEL_CATEGORY",
          "name": "",
          "type": "uint8"
        }
      ],
      "stateMutability": "view",
      "type": "function"
    },
    {
      "inputs": [
        {
          "internalType": "uint256",
          "name": "",
          "type": "uint256"
        }
      ],
      "name": "hotelItemId",
      "outputs": [
        {
          "internalType": "uint256",
          "name": "id",
          "type": "uint256"
        },
        {
          "internalType": "uint256",
          "name": "totalRooms",
          "type": "uint256"
        },
        {
          "internalType": "uint256",
          "name": "creationDate",
          "type": "uint256"
        },
        {
          "internalType": "string",
          "name": "name",
          "type": "string"
        },
        {
          "internalType": "enum Hotel.HOTEL_CATEGORY",
          "name": "hotelCategory",
          "type": "uint8"
        },
        {
          "internalType": "string",
          "name": "description",
          "type": "string"
        },
        {
          "internalType": "string",
          "name": "locationAddress",
          "type": "string"
        },
        {
          "internalType": "address payable",
          "name": "user",
          "type": "address"
        }
      ],
      "stateMutability": "view",
      "type": "function"
    },
    {
      "inputs": [
        {
          "internalType": "uint256",
          "name": "",
          "type": "uint256"
        }
      ],
      "name": "hotelItems",
      "outputs": [
        {
          "internalType": "uint256",
          "name": "id",
          "type": "uint256"
        },
        {
          "internalType": "uint256",
          "name": "totalRooms",
          "type": "uint256"
        },
        {
          "internalType": "uint256",
          "name": "creationDate",
          "type": "uint256"
        },
        {
          "internalType": "string",
          "name": "name",
          "type": "string"
        },
        {
          "internalType": "enum Hotel.HOTEL_CATEGORY",
          "name": "hotelCategory",
          "type": "uint8"
        },
        {
          "internalType": "string",
          "name": "description",
          "type": "string"
        },
        {
          "internalType": "string",
          "name": "locationAddress",
          "type": "string"
        },
        {
          "internalType": "address payable",
          "name": "user",
          "type": "address"
        }
      ],
      "stateMutability": "view",
      "type": "function"
    },
    {
      "inputs": [],
      "name": "hotelListingFee",
      "outputs": [
        {
          "internalType": "uint256",
          "name": "",
          "type": "uint256"
        }
      ],
      "stateMutability": "view",
      "type": "function"
    },
    {
      "inputs": [
        {
          "internalType": "address",
          "name": "",
          "type": "address"
        }
      ],
      "name": "hotelOwner",
      "outputs": [
        {
          "internalType": "uint256",
          "name": "id",
          "type": "uint256"
        },
        {
          "internalType": "uint256",
          "name": "totalRooms",
          "type": "uint256"
        },
        {
          "internalType": "uint256",
          "name": "creationDate",
          "type": "uint256"
        },
        {
          "internalType": "string",
          "name": "name",
          "type": "string"
        },
        {
          "internalType": "enum Hotel.HOTEL_CATEGORY",
          "name": "hotelCategory",
          "type": "uint8"
        },
        {
          "internalType": "string",
          "name": "description",
          "type": "string"
        },
        {
          "internalType": "string",
          "name": "locationAddress",
          "type": "string"
        },
        {
          "internalType": "address payable",
          "name": "user",
          "type": "address"
        }
      ],
      "stateMutability": "view",
      "type": "function"
    },
    {
      "inputs": [],
      "name": "listAllHotels",
      "outputs": [
        {
          "components": [
            {
              "internalType": "uint256",
              "name": "id",
              "type": "uint256"
            },
            {
              "internalType": "uint256",
              "name": "totalRooms",
              "type": "uint256"
            },
            {
              "internalType": "uint256",
              "name": "creationDate",
              "type": "uint256"
            },
            {
              "internalType": "string",
              "name": "name",
              "type": "string"
            },
            {
              "internalType": "enum Hotel.HOTEL_CATEGORY",
              "name": "hotelCategory",
              "type": "uint8"
            },
            {
              "internalType": "string",
              "name": "description",
              "type": "string"
            },
            {
              "internalType": "string",
              "name": "locationAddress",
              "type": "string"
            },
            {
              "internalType": "address payable",
              "name": "user",
              "type": "address"
            }
          ],
          "internalType": "struct Hotel.HotelItem[]",
          "name": "",
          "type": "tuple[]"
        }
      ],
      "stateMutability": "view",
      "type": "function"
    },
    {
      "inputs": [],
      "name": "listRooms",
      "outputs": [
        {
          "components": [
            {
              "internalType": "uint256",
              "name": "id",
              "type": "uint256"
            },
            {
              "internalType": "uint256",
              "name": "totalBeds",
              "type": "uint256"
            },
            {
              "internalType": "uint256",
              "name": "hotelId",
              "type": "uint256"
            },
            {
              "internalType": "uint256",
              "name": "pricePerNight",
              "type": "uint256"
            },
            {
              "internalType": "uint256",
              "name": "number",
              "type": "uint256"
            },
            {
              "internalType": "bool",
              "name": "isBooked",
              "type": "bool"
            },
            {
              "internalType": "address payable",
              "name": "user",
              "type": "address"
            },
            {
              "internalType": "string",
              "name": "name",
              "type": "string"
            },
            {
              "internalType": "string",
              "name": "description",
              "type": "string"
            }
          ],
          "internalType": "struct Room.RoomItem[]",
          "name": "",
          "type": "tuple[]"
        }
      ],
      "stateMutability": "view",
      "type": "function"
    },
    {
      "inputs": [],
      "name": "owner",
      "outputs": [
        {
          "internalType": "address",
          "name": "",
          "type": "address"
        }
      ],
      "stateMutability": "view",
      "type": "function"
    },
    {
      "inputs": [],
      "name": "renounceOwnership",
      "outputs": [],
      "stateMutability": "nonpayable",
      "type": "function"
    },
    {
      "inputs": [
        {
          "internalType": "uint256",
          "name": "",
          "type": "uint256"
        }
      ],
      "name": "roomItemId",
      "outputs": [
        {
          "internalType": "uint256",
          "name": "id",
          "type": "uint256"
        },
        {
          "internalType": "uint256",
          "name": "totalBeds",
          "type": "uint256"
        },
        {
          "internalType": "uint256",
          "name": "hotelId",
          "type": "uint256"
        },
        {
          "internalType": "uint256",
          "name": "pricePerNight",
          "type": "uint256"
        },
        {
          "internalType": "uint256",
          "name": "number",
          "type": "uint256"
        },
        {
          "internalType": "bool",
          "name": "isBooked",
          "type": "bool"
        },
        {
          "internalType": "address payable",
          "name": "user",
          "type": "address"
        },
        {
          "internalType": "string",
          "name": "name",
          "type": "string"
        },
        {
          "internalType": "string",
          "name": "description",
          "type": "string"
        }
      ],
      "stateMutability": "view",
      "type": "function"
    },
    {
      "inputs": [
        {
          "internalType": "address",
          "name": "",
          "type": "address"
        }
      ],
      "name": "roomOwner",
      "outputs": [
        {
          "internalType": "uint256",
          "name": "id",
          "type": "uint256"
        },
        {
          "internalType": "uint256",
          "name": "totalBeds",
          "type": "uint256"
        },
        {
          "internalType": "uint256",
          "name": "hotelId",
          "type": "uint256"
        },
        {
          "internalType": "uint256",
          "name": "pricePerNight",
          "type": "uint256"
        },
        {
          "internalType": "uint256",
          "name": "number",
          "type": "uint256"
        },
        {
          "internalType": "bool",
          "name": "isBooked",
          "type": "bool"
        },
        {
          "internalType": "address payable",
          "name": "user",
          "type": "address"
        },
        {
          "internalType": "string",
          "name": "name",
          "type": "string"
        },
        {
          "internalType": "string",
          "name": "description",
          "type": "string"
        }
      ],
      "stateMutability": "view",
      "type": "function"
    },
    {
      "inputs": [
        {
          "internalType": "uint256",
          "name": "",
          "type": "uint256"
        }
      ],
      "name": "roomTenant",
      "outputs": [
        {
          "internalType": "address",
          "name": "",
          "type": "address"
        }
      ],
      "stateMutability": "view",
      "type": "function"
    },
    {
      "inputs": [
        {
          "internalType": "uint256",
          "name": "",
          "type": "uint256"
        }
      ],
      "name": "rooms",
      "outputs": [
        {
          "internalType": "uint256",
          "name": "id",
          "type": "uint256"
        },
        {
          "internalType": "uint256",
          "name": "totalBeds",
          "type": "uint256"
        },
        {
          "internalType": "uint256",
          "name": "hotelId",
          "type": "uint256"
        },
        {
          "internalType": "uint256",
          "name": "pricePerNight",
          "type": "uint256"
        },
        {
          "internalType": "uint256",
          "name": "number",
          "type": "uint256"
        },
        {
          "internalType": "bool",
          "name": "isBooked",
          "type": "bool"
        },
        {
          "internalType": "address payable",
          "name": "user",
          "type": "address"
        },
        {
          "internalType": "string",
          "name": "name",
          "type": "string"
        },
        {
          "internalType": "string",
          "name": "description",
          "type": "string"
        }
      ],
      "stateMutability": "view",
      "type": "function"
    },
    {
      "inputs": [
        {
          "internalType": "uint256",
          "name": "_fee",
          "type": "uint256"
        }
      ],
      "name": "setListingFee",
      "outputs": [],
      "stateMutability": "nonpayable",
      "type": "function"
    },
    {
      "inputs": [
        {
          "internalType": "uint256",
          "name": "_roomId",
          "type": "uint256"
        },
        {
          "internalType": "uint256",
          "name": "_price",
          "type": "uint256"
        }
      ],
      "name": "setNightPrice",
      "outputs": [],
      "stateMutability": "nonpayable",
      "type": "function"
    },
    {
      "inputs": [],
      "name": "totalBookings",
      "outputs": [
        {
          "internalType": "uint256",
          "name": "",
          "type": "uint256"
        }
      ],
      "stateMutability": "view",
      "type": "function"
    },
    {
      "inputs": [],
      "name": "totalHotels",
      "outputs": [
        {
          "internalType": "uint256",
          "name": "",
          "type": "uint256"
        }
      ],
      "stateMutability": "view",
      "type": "function"
    },
    {
      "inputs": [],
      "name": "totalRooms",
      "outputs": [
        {
          "internalType": "uint256",
          "name": "",
          "type": "uint256"
        }
      ],
      "stateMutability": "view",
      "type": "function"
    },
    {
      "inputs": [
        {
          "internalType": "address",
          "name": "newOwner",
          "type": "address"
        }
      ],
      "name": "transferOwnership",
      "outputs": [],
      "stateMutability": "nonpayable",
      "type": "function"
    },
    {
      "inputs": [
        {
          "internalType": "uint256",
          "name": "_roomId",
          "type": "uint256"
        },
        {
          "internalType": "uint256",
          "name": "_numOfNights",
          "type": "uint256"
        }
      ],
      "name": "bookRoom",
      "outputs": [],
      "stateMutability": "payable",
      "type": "function"
    },
    {
      "inputs": [
        {
          "internalType": "uint256",
          "name": "_roomId",
          "type": "uint256"
        }
      ],
      "name": "checkOut",
      "outputs": [],
      "stateMutability": "payable",
      "type": "function"
    }
  ],
  "bytecode": "0x60806040526000600255660187152d40e0006003556000600b5560006014553480156200002b57600080fd5b506200004c620000406200005960201b60201c565b6200006160201b60201c565b6001808190555062000125565b600033905090565b60008060009054906101000a900473ffffffffffffffffffffffffffffffffffffffff169050816000806101000a81548173ffffffffffffffffffffffffffffffffffffffff021916908373ffffffffffffffffffffffffffffffffffffffff1602179055508173ffffffffffffffffffffffffffffffffffffffff168173ffffffffffffffffffffffffffffffffffffffff167f8be0079c531659141344cd1fd0a4f28419497f9722a3daafe3b4186f6b6457e060405160405180910390a35050565b61616480620001356000396000f3fe6080604052600436106101f95760003560e01c8063715018a61161010d5780639668ce3e116100a0578063c210c5321161006f578063c210c532146107c8578063c5a56e82146107f3578063c89e49631461081c578063cee9e07814610860578063f2fde38b1461089d576101f9565b80639668ce3e1461071e578063af5537fa14610749578063b2afef8214610774578063bbc02ce21461079d576101f9565b80638da5cb5b116100dc5780638da5cb5b1461063f57806391aa84891461066a5780639524a38e14610695578063958aa59b146106d9576101f9565b8063715018a61461059257806374dbda05146105a957806380865877146105e65780638a3a1a1814610623576101f9565b80631dab301e116101905780634dce717e1161015f5780634dce717e1461046d5780634ee9a94d146104aa578063545a153a146104ef5780636b8ff5741461052c57806370f3bfd814610569576101f9565b80631dab301e1461037a57806330776497146103bb5780633716236e14610400578063387329f914610444576101f9565b8063131dbd09116101cc578063131dbd09146102d45780631bae0ac8146102fd5780631bd2eeee146103425780631c5c9b5d1461035e576101f9565b80630aaecc35146101fe5780630af272f71461023b5780630fa0200d1461027e57806310f70192146102a9575b600080fd5b34801561020a57600080fd5b506102256004803603810190610220919061448c565b6108c6565b60405161023291906144f0565b60405180910390f35b34801561024757600080fd5b50610262600480360381019061025d9190614541565b6108fc565b604051610275979695949392919061467c565b60405180910390f35b34801561028a57600080fd5b50610293610b6a565b6040516102a09190614700565b60405180910390f35b3480156102b557600080fd5b506102be610b7d565b6040516102cb9190614952565b60405180910390f35b3480156102e057600080fd5b506102fb60048036038101906102f69190614541565b610da4565b005b34801561030957600080fd5b50610324600480360381019061031f9190614541565b610eb3565b60405161033999989796959493929190614983565b60405180910390f35b61035c60048036038101906103579190614541565b61104e565b005b61037860048036038101906103739190614a1e565b611221565b005b34801561038657600080fd5b506103a1600480360381019061039c9190614541565b6119f1565b6040516103b2959493929190614ad9565b60405180910390f35b3480156103c757600080fd5b506103e260048036038101906103dd9190614541565b611a57565b6040516103f799989796959493929190614983565b60405180910390f35b34801561040c57600080fd5b5061042760048036038101906104229190614b6a565b611be2565b60405161043b989796959493929190614b97565b60405180910390f35b34801561045057600080fd5b5061046b60048036038101906104669190614c56565b611def565b005b34801561047957600080fd5b50610494600480360381019061048f919061448c565b61209b565b6040516104a191906144f0565b60405180910390f35b3480156104b657600080fd5b506104d160048036038101906104cc9190614b6a565b6120d1565b6040516104e699989796959493929190614983565b60405180910390f35b3480156104fb57600080fd5b5061051660048036038101906105119190614541565b61225c565b6040516105239190614c96565b60405180910390f35b34801561053857600080fd5b50610553600480360381019061054e9190614541565b61227c565b6040516105609190614cb1565b60405180910390f35b34801561057557600080fd5b50610590600480360381019061058b9190614cf8565b612324565b005b34801561059e57600080fd5b506105a7612558565b005b3480156105b557600080fd5b506105d060048036038101906105cb9190614541565b6125e0565b6040516105dd91906144f0565b60405180910390f35b3480156105f257600080fd5b5061060d60048036038101906106089190614541565b612600565b60405161061a9190614d47565b60405180910390f35b61063d60048036038101906106389190614d62565b612633565b005b34801561064b57600080fd5b50610654612a0e565b6040516106619190614d47565b60405180910390f35b34801561067657600080fd5b5061067f612a37565b60405161068c9190614c96565b60405180910390f35b3480156106a157600080fd5b506106bc60048036038101906106b79190614541565b612a3d565b6040516106d0989796959493929190614b97565b60405180910390f35b3480156106e557600080fd5b5061070060048036038101906106fb9190614541565b612c4a565b60405161071599989796959493929190614da2565b60405180910390f35b34801561072a57600080fd5b50610733612e62565b6040516107409190614c96565b60405180910390f35b34801561075557600080fd5b5061075e612e68565b60405161076b9190614c96565b60405180910390f35b34801561078057600080fd5b5061079b60048036038101906107969190614e3d565b612e6e565b005b3480156107a957600080fd5b506107b26136e6565b6040516107bf9190614c96565b60405180910390f35b3480156107d457600080fd5b506107dd6136ec565b6040516107ea9190615091565b60405180910390f35b3480156107ff57600080fd5b5061081a60048036038101906108159190614d62565b6139b1565b005b34801561082857600080fd5b50610843600480360381019061083e9190614541565b613b09565b604051610857989796959493929190614b97565b60405180910390f35b34801561086c57600080fd5b5061088760048036038101906108829190614541565b613d26565b60405161089491906144f0565b60405180910390f35b3480156108a957600080fd5b506108c460048036038101906108bf9190614b6a565b613d46565b005b6012818051602081018201805184825260208301602085012081835280955050505050506000915054906101000a900460ff1681565b60008060006060806060600087600115156009600083815260200190815260200160002060009054906101000a900460ff16151514610970576040517f08c379a0000000000000000000000000000000000000000000000000000000008152600401610967906150ff565b60405180910390fd5b6000600760008b815260200190815260200160002090508060000154985080600101549750806002015496508060030180546109ab9061514e565b80601f01602080910402602001604051908101604052809291908181526020018280546109d79061514e565b8015610a245780601f106109f957610100808354040283529160200191610a24565b820191906000526020600020905b815481529060010190602001808311610a0757829003601f168201915b50505050509550806005018054610a3a9061514e565b80601f0160208091040260200160405190810160405280929190818152602001828054610a669061514e565b8015610ab35780601f10610a8857610100808354040283529160200191610ab3565b820191906000526020600020905b815481529060010190602001808311610a9657829003601f168201915b50505050509450806006018054610ac99061514e565b80601f0160208091040260200160405190810160405280929190818152602001828054610af59061514e565b8015610b425780601f10610b1757610100808354040283529160200191610b42565b820191906000526020600020905b815481529060010190602001808311610b2557829003601f168201915b505050505093508060040160009054906101000a900460ff1692505050919395979092949650565b600560009054906101000a900460ff1681565b6060600d805480602002602001604051908101604052809291908181526020016000905b82821015610d9b57838290600052602060002090600802016040518061012001604052908160008201548152602001600182015481526020016002820154815260200160038201548152602001600482015481526020016005820160009054906101000a900460ff161515151581526020016005820160019054906101000a900473ffffffffffffffffffffffffffffffffffffffff1673ffffffffffffffffffffffffffffffffffffffff1673ffffffffffffffffffffffffffffffffffffffff168152602001600682018054610c789061514e565b80601f0160208091040260200160405190810160405280929190818152602001828054610ca49061514e565b8015610cf15780601f10610cc657610100808354040283529160200191610cf1565b820191906000526020600020905b815481529060010190602001808311610cd457829003601f168201915b50505050508152602001600782018054610d0a9061514e565b80601f0160208091040260200160405190810160405280929190818152602001828054610d369061514e565b8015610d835780601f10610d5857610100808354040283529160200191610d83565b820191906000526020600020905b815481529060010190602001808311610d6657829003601f168201915b50505050508152505081526020019060010190610ba1565b50505050905090565b610dac613e3e565b73ffffffffffffffffffffffffffffffffffffffff16610dca612a0e565b73ffffffffffffffffffffffffffffffffffffffff1614610e20576040517f08c379a0000000000000000000000000000000000000000000000000000000008152600401610e17906151cc565b60405180910390fd5b6000811415610e64576040517f08c379a0000000000000000000000000000000000000000000000000000000008152600401610e5b90615238565b60405180910390fd5b8060038190555080423373ffffffffffffffffffffffffffffffffffffffff167fd86cac97cd3caa153b72db918dc0feb1ed9683dfd389c345d07f7d00390b63b760405160405180910390a450565b600d8181548110610ec357600080fd5b90600052602060002090600802016000915090508060000154908060010154908060020154908060030154908060040154908060050160009054906101000a900460ff16908060050160019054906101000a900473ffffffffffffffffffffffffffffffffffffffff1690806006018054610f3d9061514e565b80601f0160208091040260200160405190810160405280929190818152602001828054610f699061514e565b8015610fb65780601f10610f8b57610100808354040283529160200191610fb6565b820191906000526020600020905b815481529060010190602001808311610f9957829003601f168201915b505050505090806007018054610fcb9061514e565b80601f0160208091040260200160405190810160405280929190818152602001828054610ff79061514e565b80156110445780601f1061101957610100808354040283529160200191611044565b820191906000526020600020905b81548152906001019060200180831161102757829003601f168201915b5050505050905089565b60026001541415611094576040517f08c379a000000000000000000000000000000000000000000000000000000000815260040161108b906152a4565b60405180910390fd5b60026001819055506000601060008381526020019081526020016000209050600115158160050160009054906101000a900460ff1615151461110b576040517f08c379a000000000000000000000000000000000000000000000000000000000815260040161110290615310565b60405180910390fd5b600f60008260000154815260200190815260200160002060009054906101000a900473ffffffffffffffffffffffffffffffffffffffff1673ffffffffffffffffffffffffffffffffffffffff163373ffffffffffffffffffffffffffffffffffffffff16146111b0576040517f08c379a00000000000000000000000000000000000000000000000000000000081526004016111a7906153a2565b60405180910390fd5b60008160050160006101000a81548160ff0219169083151502179055504281600001543373ffffffffffffffffffffffffffffffffffffffff167f1e7d243bbd980a7b6407550d96c8d6557b193cd3a9cf91f820d9f6720636304260405160405180910390a4506001808190555050565b8260001515600a8260405161123691906153fe565b908152602001604051809103902060009054906101000a900460ff16151514611294576040517f08c379a000000000000000000000000000000000000000000000000000000000815260040161128b90615461565b60405180910390fd5b60008151116112d8576040517f08c379a00000000000000000000000000000000000000000000000000000000081526004016112cf906154cd565b60405180910390fd5b6002600154141561131e576040517f08c379a0000000000000000000000000000000000000000000000000000000008152600401611315906152a4565b60405180910390fd5b6002600181905550600073ffffffffffffffffffffffffffffffffffffffff163373ffffffffffffffffffffffffffffffffffffffff16141561136057600080fd5b60035434146113a4576040517f08c379a000000000000000000000000000000000000000000000000000000000815260040161139b90615539565b60405180910390fd5b60008514156113e8576040517f08c379a00000000000000000000000000000000000000000000000000000000081526004016113df906155a5565b60405180910390fd5b600083511161142c576040517f08c379a000000000000000000000000000000000000000000000000000000000815260040161142390615637565b60405180910390fd5b6000825111611470576040517f08c379a0000000000000000000000000000000000000000000000000000000008152600401611467906156c9565b60405180910390fd5b61147a6004613e46565b60006114866004613e5c565b9050604051806101000160405280828152602001878152602001428152602001868152602001600060068111156114c0576114bf614605565b5b81526020018581526020018481526020013373ffffffffffffffffffffffffffffffffffffffff16815250600760008381526020019081526020016000206000820151816000015560208201518160010155604082015181600201556060820151816003019080519060200190611538929190614202565b5060808201518160040160006101000a81548160ff0219169083600681111561156457611563614605565b5b021790555060a0820151816005019080519060200190611585929190614202565b5060c08201518160060190805190602001906115a2929190614202565b5060e08201518160070160006101000a81548173ffffffffffffffffffffffffffffffffffffffff021916908373ffffffffffffffffffffffffffffffffffffffff1602179055509050506006600760008381526020019081526020016000209080600181540180825580915050600190039060005260206000209060080201600090919091909150600082015481600001556001820154816001015560028201548160020155600382018160030190805461165d9061514e565b611668929190614288565b506004820160009054906101000a900460ff168160040160006101000a81548160ff021916908360068111156116a1576116a0614605565b5b021790555060058201816005019080546116ba9061514e565b6116c5929190614288565b5060068201816006019080546116da9061514e565b6116e5929190614288565b506007820160009054906101000a900473ffffffffffffffffffffffffffffffffffffffff168160070160006101000a81548173ffffffffffffffffffffffffffffffffffffffff021916908373ffffffffffffffffffffffffffffffffffffffff160217905550505060076000828152602001908152602001600020600860003373ffffffffffffffffffffffffffffffffffffffff1673ffffffffffffffffffffffffffffffffffffffff16815260200190815260200160002060008201548160000155600182015481600101556002820154816002015560038201816003019080546117d39061514e565b6117de929190614288565b506004820160009054906101000a900460ff168160040160006101000a81548160ff0219169083600681111561181757611816614605565b5b021790555060058201816005019080546118309061514e565b61183b929190614288565b5060068201816006019080546118509061514e565b61185b929190614288565b506007820160009054906101000a900473ffffffffffffffffffffffffffffffffffffffff168160070160006101000a81548173ffffffffffffffffffffffffffffffffffffffff021916908373ffffffffffffffffffffffffffffffffffffffff1602179055509050506118dc6001600254613e6a90919063ffffffff16565b60028190555060016009600083815260200190815260200160002060006101000a81548160ff0219169083151502179055506001600a8660405161192091906153fe565b908152602001604051809103902060006101000a81548160ff02191690831515021790555061194d612a0e565b73ffffffffffffffffffffffffffffffffffffffff166108fc349081150290604051600060405180830381858888f19350505050158015611992573d6000803e3d6000fd5b50803373ffffffffffffffffffffffffffffffffffffffff167fc8103fc44f19a39b2be3834708c831e6292d5b110a99e06a1f9c1c5f24faf5dd426040516119da9190614c96565b60405180910390a350600180819055505050505050565b60138181548110611a0157600080fd5b90600052602060002090600502016000915090508060000154908060010154908060020154908060030154908060040160009054906101000a900473ffffffffffffffffffffffffffffffffffffffff16905085565b60106020528060005260406000206000915090508060000154908060010154908060020154908060030154908060040154908060050160009054906101000a900460ff16908060050160019054906101000a900473ffffffffffffffffffffffffffffffffffffffff1690806006018054611ad19061514e565b80601f0160208091040260200160405190810160405280929190818152602001828054611afd9061514e565b8015611b4a5780601f10611b1f57610100808354040283529160200191611b4a565b820191906000526020600020905b815481529060010190602001808311611b2d57829003601f168201915b505050505090806007018054611b5f9061514e565b80601f0160208091040260200160405190810160405280929190818152602001828054611b8b9061514e565b8015611bd85780601f10611bad57610100808354040283529160200191611bd8565b820191906000526020600020905b815481529060010190602001808311611bbb57829003601f168201915b5050505050905089565b6008602052806000526040600020600091509050806000015490806001015490806002015490806003018054611c179061514e565b80601f0160208091040260200160405190810160405280929190818152602001828054611c439061514e565b8015611c905780601f10611c6557610100808354040283529160200191611c90565b820191906000526020600020905b815481529060010190602001808311611c7357829003601f168201915b5050505050908060040160009054906101000a900460ff1690806005018054611cb89061514e565b80601f0160208091040260200160405190810160405280929190818152602001828054611ce49061514e565b8015611d315780601f10611d0657610100808354040283529160200191611d31565b820191906000526020600020905b815481529060010190602001808311611d1457829003601f168201915b505050505090806006018054611d469061514e565b80601f0160208091040260200160405190810160405280929190818152602001828054611d729061514e565b8015611dbf5780601f10611d9457610100808354040283529160200191611dbf565b820191906000526020600020905b815481529060010190602001808311611da257829003601f168201915b5050505050908060070160009054906101000a900473ffffffffffffffffffffffffffffffffffffffff16905088565b80600115156009600083815260200190815260200160002060009054906101000a900460ff16151514611e57576040517f08c379a0000000000000000000000000000000000000000000000000000000008152600401611e4e906150ff565b60405180910390fd5b816007600082815260200190815260200160002060070160009054906101000a900473ffffffffffffffffffffffffffffffffffffffff1673ffffffffffffffffffffffffffffffffffffffff163373ffffffffffffffffffffffffffffffffffffffff1614611efc576040517f08c379a0000000000000000000000000000000000000000000000000000000008152600401611ef390615735565b60405180910390fd5b8373ffffffffffffffffffffffffffffffffffffffff163373ffffffffffffffffffffffffffffffffffffffff161415611f6b576040517f08c379a0000000000000000000000000000000000000000000000000000000008152600401611f62906157c7565b60405180910390fd5b600073ffffffffffffffffffffffffffffffffffffffff168473ffffffffffffffffffffffffffffffffffffffff161415611fdb576040517f08c379a0000000000000000000000000000000000000000000000000000000008152600401611fd290615859565b60405180910390fd5b836007600085815260200190815260200160002060070160006101000a81548173ffffffffffffffffffffffffffffffffffffffff021916908373ffffffffffffffffffffffffffffffffffffffff1602179055508373ffffffffffffffffffffffffffffffffffffffff163373ffffffffffffffffffffffffffffffffffffffff167fa4384cd8553d716f837cc7d68ed60529f9672b59cf96f1ce8bef3334183db34a4260405161208d9190614c96565b60405180910390a350505050565b600a818051602081018201805184825260208301602085012081835280955050505050506000915054906101000a900460ff1681565b600e6020528060005260406000206000915090508060000154908060010154908060020154908060030154908060040154908060050160009054906101000a900460ff16908060050160019054906101000a900473ffffffffffffffffffffffffffffffffffffffff169080600601805461214b9061514e565b80601f01602080910402602001604051908101604052809291908181526020018280546121779061514e565b80156121c45780601f10612199576101008083540402835291602001916121c4565b820191906000526020600020905b8154815290600101906020018083116121a757829003601f168201915b5050505050908060070180546121d99061514e565b80601f01602080910402602001604051908101604052809291908181526020018280546122059061514e565b80156122525780601f1061222757610100808354040283529160200191612252565b820191906000526020600020905b81548152906001019060200180831161223557829003601f168201915b5050505050905089565b600060106000838152602001908152602001600020600001549050919050565b606060106000838152602001908152602001600020600601805461229f9061514e565b80601f01602080910402602001604051908101604052809291908181526020018280546122cb9061514e565b80156123185780601f106122ed57610100808354040283529160200191612318565b820191906000526020600020905b8154815290600101906020018083116122fb57829003601f168201915b50505050509050919050565b81600115156009600083815260200190815260200160002060009054906101000a900460ff1615151461238c576040517f08c379a0000000000000000000000000000000000000000000000000000000008152600401612383906150ff565b60405180910390fd5b826007600082815260200190815260200160002060070160009054906101000a900473ffffffffffffffffffffffffffffffffffffffff1673ffffffffffffffffffffffffffffffffffffffff163373ffffffffffffffffffffffffffffffffffffffff1614612431576040517f08c379a000000000000000000000000000000000000000000000000000000000815260040161242890615735565b60405180910390fd5b60006007600086815260200190815260200160002090506000600681111561245c5761245b614605565b5b84600681111561246f5761246e614605565b5b141561247e5761247d615879565b5b8060040160009054906101000a900460ff1660068111156124a2576124a1614605565b5b8460068111156124b5576124b4614605565b5b14156124c4576124c3615879565b5b838160040160006101000a81548160ff021916908360068111156124eb576124ea614605565b5b021790555083600681111561250357612502614605565b5b3373ffffffffffffffffffffffffffffffffffffffff167ff5b844f9650efd8a638976417da0e54ababae9d5ae6ec7dbc97124f00d5a5c5e426040516125499190614c96565b60405180910390a35050505050565b612560613e3e565b73ffffffffffffffffffffffffffffffffffffffff1661257e612a0e565b73ffffffffffffffffffffffffffffffffffffffff16146125d4576040517f08c379a00000000000000000000000000000000000000000000000000000000081526004016125cb906151cc565b60405180910390fd5b6125de6000613e80565b565b60096020528060005260406000206000915054906101000a900460ff1681565b600f6020528060005260406000206000915054906101000a900473ffffffffffffffffffffffffffffffffffffffff1681565b60026001541415612679576040517f08c379a0000000000000000000000000000000000000000000000000000000008152600401612670906152a4565b60405180910390fd5b600260018190555081600115156011600083815260200190815260200160002060009054906101000a900460ff161515146126e9576040517f08c379a00000000000000000000000000000000000000000000000000000000081526004016126e0906158f4565b60405180910390fd5b82600015156010600083815260200190815260200160002060050160009054906101000a900460ff16151514612754576040517f08c379a000000000000000000000000000000000000000000000000000000000815260040161274b90615960565b60405180910390fd5b60006010600086815260200190815260200160002090506000612784826003015486613f4490919063ffffffff16565b90508160050160019054906101000a900473ffffffffffffffffffffffffffffffffffffffff1673ffffffffffffffffffffffffffffffffffffffff163373ffffffffffffffffffffffffffffffffffffffff161415612819576040517f08c379a0000000000000000000000000000000000000000000000000000000008152600401612810906159cc565b60405180910390fd5b803373ffffffffffffffffffffffffffffffffffffffff16311015612873576040517f08c379a000000000000000000000000000000000000000000000000000000000815260040161286a90615a38565b60405180910390fd5b60008514156128b7576040517f08c379a00000000000000000000000000000000000000000000000000000000081526004016128ae90615aa4565b60405180910390fd5b670de0b6b3a7640000816128cb9190615af3565b341461290c576040517f08c379a000000000000000000000000000000000000000000000000000000000815260040161290390615bbf565b60405180910390fd5b6129166015613e46565b60006129226015613e5c565b90508260050160019054906101000a900473ffffffffffffffffffffffffffffffffffffffff1673ffffffffffffffffffffffffffffffffffffffff166108fc349081150290604051600060405180830381858888f1935050505015801561298e573d6000803e3d6000fd5b5061299887613f5a565b6129a88360000154823433613ff5565b33600f60008560000154815260200190815260200160002060006101000a81548173ffffffffffffffffffffffffffffffffffffffff021916908373ffffffffffffffffffffffffffffffffffffffff1602179055505050505050600180819055505050565b60008060009054906101000a900473ffffffffffffffffffffffffffffffffffffffff16905090565b60035481565b6007602052806000526040600020600091509050806000015490806001015490806002015490806003018054612a729061514e565b80601f0160208091040260200160405190810160405280929190818152602001828054612a9e9061514e565b8015612aeb5780601f10612ac057610100808354040283529160200191612aeb565b820191906000526020600020905b815481529060010190602001808311612ace57829003601f168201915b5050505050908060040160009054906101000a900460ff1690806005018054612b139061514e565b80601f0160208091040260200160405190810160405280929190818152602001828054612b3f9061514e565b8015612b8c5780601f10612b6157610100808354040283529160200191612b8c565b820191906000526020600020905b815481529060010190602001808311612b6f57829003601f168201915b505050505090806006018054612ba19061514e565b80601f0160208091040260200160405190810160405280929190818152602001828054612bcd9061514e565b8015612c1a5780601f10612bef57610100808354040283529160200191612c1a565b820191906000526020600020905b815481529060010190602001808311612bfd57829003601f168201915b5050505050908060070160009054906101000a900473ffffffffffffffffffffffffffffffffffffffff16905088565b600080600080600080600060608089600115156011600083815260200190815260200160002060009054906101000a900460ff16151514612cc0576040517f08c379a0000000000000000000000000000000000000000000000000000000008152600401612cb7906158f4565b60405180910390fd5b6000601060008d8152602001908152602001600020905080600001549a50806001015499508060020154985080600301549750806004015496508060050160009054906101000a900460ff1695508060050160019054906101000a900473ffffffffffffffffffffffffffffffffffffffff169450806006018054612d449061514e565b80601f0160208091040260200160405190810160405280929190818152602001828054612d709061514e565b8015612dbd5780601f10612d9257610100808354040283529160200191612dbd565b820191906000526020600020905b815481529060010190602001808311612da057829003601f168201915b50505050509350806007018054612dd39061514e565b80601f0160208091040260200160405190810160405280929190818152602001828054612dff9061514e565b8015612e4c5780601f10612e2157610100808354040283529160200191612e4c565b820191906000526020600020905b815481529060010190602001808311612e2f57829003601f168201915b5050505050925050509193959799909294969850565b60145481565b600b5481565b8560006007600083815260200190815260200160002060070160009054906101000a900473ffffffffffffffffffffffffffffffffffffffff1673ffffffffffffffffffffffffffffffffffffffff163373ffffffffffffffffffffffffffffffffffffffff161415612ee057600190505b6001151581151514612f27576040517f08c379a0000000000000000000000000000000000000000000000000000000008152600401612f1e90615c51565b60405180910390fd5b876007600082815260200190815260200160002060070160009054906101000a900473ffffffffffffffffffffffffffffffffffffffff1673ffffffffffffffffffffffffffffffffffffffff163373ffffffffffffffffffffffffffffffffffffffff1614612fcc576040517f08c379a0000000000000000000000000000000000000000000000000000000008152600401612fc390615735565b60405180910390fd5b88600115156009600083815260200190815260200160002060009054906101000a900460ff16151514613034576040517f08c379a000000000000000000000000000000000000000000000000000000000815260040161302b906150ff565b60405180910390fd5b856000815111613079576040517f08c379a000000000000000000000000000000000000000000000000000000000815260040161307090615cbd565b60405180910390fd5b6000151560128260405161308d91906153fe565b908152602001604051809103902060009054906101000a900460ff161515146130eb576040517f08c379a00000000000000000000000000000000000000000000000000000000081526004016130e290615d29565b60405180910390fd5b600073ffffffffffffffffffffffffffffffffffffffff163373ffffffffffffffffffffffffffffffffffffffff16141561312557600080fd5b60008a1415613169576040517f08c379a000000000000000000000000000000000000000000000000000000000815260040161316090615d95565b60405180910390fd5b60008651116131ad576040517f08c379a00000000000000000000000000000000000000000000000000000000081526004016131a490615e27565b60405180910390fd5b60008914156131f1576040517f08c379a00000000000000000000000000000000000000000000000000000000081526004016131e890615eb9565b60405180910390fd5b6131fb600c613e46565b6000613207600c613e5c565b90506000600760008e81526020019081526020016000206000015490506040518061012001604052808381526020018d81526020018281526020018c81526020018b81526020016000151581526020013373ffffffffffffffffffffffffffffffffffffffff1681526020018a81526020018981525060106000848152602001908152602001600020600082015181600001556020820151816001015560408201518160020155606082015181600301556080820151816004015560a08201518160050160006101000a81548160ff02191690831515021790555060c08201518160050160016101000a81548173ffffffffffffffffffffffffffffffffffffffff021916908373ffffffffffffffffffffffffffffffffffffffff16021790555060e0820151816006019080519060200190613345929190614202565b50610100820151816007019080519060200190613363929190614202565b50905050600d60106000848152602001908152602001600020908060018154018082558091505060019003906000526020600020906008020160009091909190915060008201548160000155600182015481600101556002820154816002015560038201548160030155600482015481600401556005820160009054906101000a900460ff168160050160006101000a81548160ff0219169083151502179055506005820160019054906101000a900473ffffffffffffffffffffffffffffffffffffffff168160050160016101000a81548173ffffffffffffffffffffffffffffffffffffffff021916908373ffffffffffffffffffffffffffffffffffffffff160217905550600682018160060190805461347f9061514e565b61348a929190614288565b50600782018160070190805461349f9061514e565b6134aa929190614288565b50505060106000838152602001908152602001600020600e60003373ffffffffffffffffffffffffffffffffffffffff1673ffffffffffffffffffffffffffffffffffffffff16815260200190815260200160002060008201548160000155600182015481600101556002820154816002015560038201548160030155600482015481600401556005820160009054906101000a900460ff168160050160006101000a81548160ff0219169083151502179055506005820160019054906101000a900473ffffffffffffffffffffffffffffffffffffffff168160050160016101000a81548173ffffffffffffffffffffffffffffffffffffffff021916908373ffffffffffffffffffffffffffffffffffffffff16021790555060068201816006019080546135d99061514e565b6135e4929190614288565b5060078201816007019080546135f99061514e565b613604929190614288565b5090505061361e6001600b54613e6a90919063ffffffff16565b600b8190555060016011600084815260200190815260200160002060006101000a81548160ff021916908315150217905550600160128a60405161366291906153fe565b908152602001604051809103902060006101000a81548160ff0219169083151502179055503373ffffffffffffffffffffffffffffffffffffffff167f3733808b347b3e95cb4b664d5c8e8fe364fc4dd34b77f49cde3ba2564d78888c42846040516136cf929190615ed9565b60405180910390a250505050505050505050505050565b60025481565b60606006805480602002602001604051908101604052809291908181526020016000905b828210156139a85783829060005260206000209060080201604051806101000160405290816000820154815260200160018201548152602001600282015481526020016003820180546137629061514e565b80601f016020809104026020016040519081016040528092919081815260200182805461378e9061514e565b80156137db5780601f106137b0576101008083540402835291602001916137db565b820191906000526020600020905b8154815290600101906020018083116137be57829003601f168201915b505050505081526020016004820160009054906101000a900460ff16600681111561380957613808614605565b5b600681111561381b5761381a614605565b5b815260200160058201805461382f9061514e565b80601f016020809104026020016040519081016040528092919081815260200182805461385b9061514e565b80156138a85780601f1061387d576101008083540402835291602001916138a8565b820191906000526020600020905b81548152906001019060200180831161388b57829003601f168201915b505050505081526020016006820180546138c19061514e565b80601f01602080910402602001604051908101604052809291908181526020018280546138ed9061514e565b801561393a5780601f1061390f5761010080835404028352916020019161393a565b820191906000526020600020905b81548152906001019060200180831161391d57829003601f168201915b505050505081526020016007820160009054906101000a900473ffffffffffffffffffffffffffffffffffffffff1673ffffffffffffffffffffffffffffffffffffffff1673ffffffffffffffffffffffffffffffffffffffff168152505081526020019060010190613710565b50505050905090565b816010600082815260200190815260200160002060050160019054906101000a900473ffffffffffffffffffffffffffffffffffffffff1673ffffffffffffffffffffffffffffffffffffffff163373ffffffffffffffffffffffffffffffffffffffff1614613a56576040517f08c379a0000000000000000000000000000000000000000000000000000000008152600401613a4d90615f4e565b60405180910390fd5b6000821415613a9a576040517f08c379a0000000000000000000000000000000000000000000000000000000008152600401613a9190615fba565b60405180910390fd5b816010600085815260200190815260200160002060030181905550423373ffffffffffffffffffffffffffffffffffffffff167f2adffbd83a80d927a3a5c687edc852ca8941019a58261ffb685cc98972ba7c2484604051613afc9190614c96565b60405180910390a3505050565b60068181548110613b1957600080fd5b9060005260206000209060080201600091509050806000015490806001015490806002015490806003018054613b4e9061514e565b80601f0160208091040260200160405190810160405280929190818152602001828054613b7a9061514e565b8015613bc75780601f10613b9c57610100808354040283529160200191613bc7565b820191906000526020600020905b815481529060010190602001808311613baa57829003601f168201915b5050505050908060040160009054906101000a900460ff1690806005018054613bef9061514e565b80601f0160208091040260200160405190810160405280929190818152602001828054613c1b9061514e565b8015613c685780601f10613c3d57610100808354040283529160200191613c68565b820191906000526020600020905b815481529060010190602001808311613c4b57829003601f168201915b505050505090806006018054613c7d9061514e565b80601f0160208091040260200160405190810160405280929190818152602001828054613ca99061514e565b8015613cf65780601f10613ccb57610100808354040283529160200191613cf6565b820191906000526020600020905b815481529060010190602001808311613cd957829003601f168201915b5050505050908060070160009054906101000a900473ffffffffffffffffffffffffffffffffffffffff16905088565b60116020528060005260406000206000915054906101000a900460ff1681565b613d4e613e3e565b73ffffffffffffffffffffffffffffffffffffffff16613d6c612a0e565b73ffffffffffffffffffffffffffffffffffffffff1614613dc2576040517f08c379a0000000000000000000000000000000000000000000000000000000008152600401613db9906151cc565b60405180910390fd5b600073ffffffffffffffffffffffffffffffffffffffff168173ffffffffffffffffffffffffffffffffffffffff161415613e32576040517f08c379a0000000000000000000000000000000000000000000000000000000008152600401613e299061604c565b60405180910390fd5b613e3b81613e80565b50565b600033905090565b6001816000016000828254019250508190555050565b600081600001549050919050565b60008183613e78919061606c565b905092915050565b60008060009054906101000a900473ffffffffffffffffffffffffffffffffffffffff169050816000806101000a81548173ffffffffffffffffffffffffffffffffffffffff021916908373ffffffffffffffffffffffffffffffffffffffff1602179055508173ffffffffffffffffffffffffffffffffffffffff168173ffffffffffffffffffffffffffffffffffffffff167f8be0079c531659141344cd1fd0a4f28419497f9722a3daafe3b4186f6b6457e060405160405180910390a35050565b60008183613f529190615af3565b905092915050565b80600115156011600083815260200190815260200160002060009054906101000a900460ff16151514613fc2576040517f08c379a0000000000000000000000000000000000000000000000000000000008152600401613fb9906158f4565b60405180910390fd5b60016010600084815260200190815260200160002060050160006101000a81548160ff0219169083151502179055505050565b600073ffffffffffffffffffffffffffffffffffffffff168173ffffffffffffffffffffffffffffffffffffffff16141561403357614032615879565b5b600073ffffffffffffffffffffffffffffffffffffffff163373ffffffffffffffffffffffffffffffffffffffff16141561406d57600080fd5b60008314156140b1576040517f08c379a00000000000000000000000000000000000000000000000000000000081526004016140a89061610e565b60405180910390fd5b60006040518060a001604052808681526020018581526020014281526020018481526020018373ffffffffffffffffffffffffffffffffffffffff16815250905060138190806001815401808255809150506001900390600052602060002090600502016000909190919091506000820151816000015560208201518160010155604082015181600201556060820151816003015560808201518160040160006101000a81548173ffffffffffffffffffffffffffffffffffffffff021916908373ffffffffffffffffffffffffffffffffffffffff16021790555050506141a56001601454613e6a90919063ffffffff16565b60148190555084343373ffffffffffffffffffffffffffffffffffffffff167f414e8daa25ba8dde6e691876495db5da793781eed1794da14679b2af00301df6426040516141f39190614c96565b60405180910390a45050505050565b82805461420e9061514e565b90600052602060002090601f0160209004810192826142305760008555614277565b82601f1061424957805160ff1916838001178555614277565b82800160010185558215614277579182015b8281111561427657825182559160200191906001019061425b565b5b5090506142849190614315565b5090565b8280546142949061514e565b90600052602060002090601f0160209004810192826142b65760008555614304565b82601f106142c75780548555614304565b8280016001018555821561430457600052602060002091601f016020900482015b828111156143035782548255916001019190600101906142e8565b5b5090506143119190614315565b5090565b5b8082111561432e576000816000905550600101614316565b5090565b6000604051905090565b600080fd5b600080fd5b600080fd5b600080fd5b6000601f19601f8301169050919050565b7f4e487b7100000000000000000000000000000000000000000000000000000000600052604160045260246000fd5b61439982614350565b810181811067ffffffffffffffff821117156143b8576143b7614361565b5b80604052505050565b60006143cb614332565b90506143d78282614390565b919050565b600067ffffffffffffffff8211156143f7576143f6614361565b5b61440082614350565b9050602081019050919050565b82818337600083830152505050565b600061442f61442a846143dc565b6143c1565b90508281526020810184848401111561444b5761444a61434b565b5b61445684828561440d565b509392505050565b600082601f83011261447357614472614346565b5b813561448384826020860161441c565b91505092915050565b6000602082840312156144a2576144a161433c565b5b600082013567ffffffffffffffff8111156144c0576144bf614341565b5b6144cc8482850161445e565b91505092915050565b60008115159050919050565b6144ea816144d5565b82525050565b600060208201905061450560008301846144e1565b92915050565b6000819050919050565b61451e8161450b565b811461452957600080fd5b50565b60008135905061453b81614515565b92915050565b6000602082840312156145575761455661433c565b5b60006145658482850161452c565b91505092915050565b6145778161450b565b82525050565b600081519050919050565b600082825260208201905092915050565b60005b838110156145b757808201518184015260208101905061459c565b838111156145c6576000848401525b50505050565b60006145d78261457d565b6145e18185614588565b93506145f1818560208601614599565b6145fa81614350565b840191505092915050565b7f4e487b7100000000000000000000000000000000000000000000000000000000600052602160045260246000fd5b6007811061464557614644614605565b5b50565b600081905061465682614634565b919050565b600061466682614648565b9050919050565b6146768161465b565b82525050565b600060e082019050614691600083018a61456e565b61469e602083018961456e565b6146ab604083018861456e565b81810360608301526146bd81876145cc565b905081810360808301526146d181866145cc565b905081810360a08301526146e581856145cc565b90506146f460c083018461466d565b98975050505050505050565b6000602082019050614715600083018461466d565b92915050565b600081519050919050565b600082825260208201905092915050565b6000819050602082019050919050565b6147508161450b565b82525050565b61475f816144d5565b82525050565b600073ffffffffffffffffffffffffffffffffffffffff82169050919050565b600061479082614765565b9050919050565b6147a081614785565b82525050565b600082825260208201905092915050565b60006147c28261457d565b6147cc81856147a6565b93506147dc818560208601614599565b6147e581614350565b840191505092915050565b6000610120830160008301516148096000860182614747565b50602083015161481c6020860182614747565b50604083015161482f6040860182614747565b5060608301516148426060860182614747565b5060808301516148556080860182614747565b5060a083015161486860a0860182614756565b5060c083015161487b60c0860182614797565b5060e083015184820360e086015261489382826147b7565b9150506101008301518482036101008601526148af82826147b7565b9150508091505092915050565b60006148c883836147f0565b905092915050565b6000602082019050919050565b60006148e88261471b565b6148f28185614726565b93508360208202850161490485614737565b8060005b85811015614940578484038952815161492185826148bc565b945061492c836148d0565b925060208a01995050600181019050614908565b50829750879550505050505092915050565b6000602082019050818103600083015261496c81846148dd565b905092915050565b61497d81614785565b82525050565b600061012082019050614999600083018c61456e565b6149a6602083018b61456e565b6149b3604083018a61456e565b6149c0606083018961456e565b6149cd608083018861456e565b6149da60a08301876144e1565b6149e760c0830186614974565b81810360e08301526149f981856145cc565b9050818103610100830152614a0e81846145cc565b90509a9950505050505050505050565b60008060008060808587031215614a3857614a3761433c565b5b6000614a468782880161452c565b945050602085013567ffffffffffffffff811115614a6757614a66614341565b5b614a738782880161445e565b935050604085013567ffffffffffffffff811115614a9457614a93614341565b5b614aa08782880161445e565b925050606085013567ffffffffffffffff811115614ac157614ac0614341565b5b614acd8782880161445e565b91505092959194509250565b600060a082019050614aee600083018861456e565b614afb602083018761456e565b614b08604083018661456e565b614b15606083018561456e565b614b226080830184614974565b9695505050505050565b6000614b3782614765565b9050919050565b614b4781614b2c565b8114614b5257600080fd5b50565b600081359050614b6481614b3e565b92915050565b600060208284031215614b8057614b7f61433c565b5b6000614b8e84828501614b55565b91505092915050565b600061010082019050614bad600083018b61456e565b614bba602083018a61456e565b614bc7604083018961456e565b8181036060830152614bd981886145cc565b9050614be8608083018761466d565b81810360a0830152614bfa81866145cc565b905081810360c0830152614c0e81856145cc565b9050614c1d60e0830184614974565b9998505050505050505050565b614c3381614785565b8114614c3e57600080fd5b50565b600081359050614c5081614c2a565b92915050565b60008060408385031215614c6d57614c6c61433c565b5b6000614c7b85828601614c41565b9250506020614c8c8582860161452c565b9150509250929050565b6000602082019050614cab600083018461456e565b92915050565b60006020820190508181036000830152614ccb81846145cc565b905092915050565b60078110614ce057600080fd5b50565b600081359050614cf281614cd3565b92915050565b60008060408385031215614d0f57614d0e61433c565b5b6000614d1d8582860161452c565b9250506020614d2e85828601614ce3565b9150509250929050565b614d4181614b2c565b82525050565b6000602082019050614d5c6000830184614d38565b92915050565b60008060408385031215614d7957614d7861433c565b5b6000614d878582860161452c565b9250506020614d988582860161452c565b9150509250929050565b600061012082019050614db8600083018c61456e565b614dc5602083018b61456e565b614dd2604083018a61456e565b614ddf606083018961456e565b614dec608083018861456e565b614df960a08301876144e1565b614e0660c0830186614d38565b81810360e0830152614e1881856145cc565b9050818103610100830152614e2d81846145cc565b90509a9950505050505050505050565b60008060008060008060c08789031215614e5a57614e5961433c565b5b6000614e6889828a0161452c565b9650506020614e7989828a0161452c565b9550506040614e8a89828a0161452c565b9450506060614e9b89828a0161452c565b935050608087013567ffffffffffffffff811115614ebc57614ebb614341565b5b614ec889828a0161445e565b92505060a087013567ffffffffffffffff811115614ee957614ee8614341565b5b614ef589828a0161445e565b9150509295509295509295565b600081519050919050565b600082825260208201905092915050565b6000819050602082019050919050565b614f378161465b565b82525050565b600061010083016000830151614f566000860182614747565b506020830151614f696020860182614747565b506040830151614f7c6040860182614747565b5060608301518482036060860152614f9482826147b7565b9150506080830151614fa96080860182614f2e565b5060a083015184820360a0860152614fc182826147b7565b91505060c083015184820360c0860152614fdb82826147b7565b91505060e0830151614ff060e0860182614797565b508091505092915050565b60006150078383614f3d565b905092915050565b6000602082019050919050565b600061502782614f02565b6150318185614f0d565b93508360208202850161504385614f1e565b8060005b8581101561507f57848403895281516150608582614ffb565b945061506b8361500f565b925060208a01995050600181019050615047565b50829750879550505050505092915050565b600060208201905081810360008301526150ab818461501c565b905092915050565b7f486f74656c20446f6573204e6f74204578697374000000000000000000000000600082015250565b60006150e9601483614588565b91506150f4826150b3565b602082019050919050565b60006020820190508181036000830152615118816150dc565b9050919050565b7f4e487b7100000000000000000000000000000000000000000000000000000000600052602260045260246000fd5b6000600282049050600182168061516657607f821691505b6020821081141561517a5761517961511f565b5b50919050565b7f4f776e61626c653a2063616c6c6572206973206e6f7420746865206f776e6572600082015250565b60006151b6602083614588565b91506151c182615180565b602082019050919050565b600060208201905081810360008301526151e5816151a9565b9050919050565b7f4c697374696e67204665652043616e6e6f74206265207a65726f000000000000600082015250565b6000615222601a83614588565b915061522d826151ec565b602082019050919050565b6000602082019050818103600083015261525181615215565b9050919050565b7f5265656e7472616e637947756172643a207265656e7472616e742063616c6c00600082015250565b600061528e601f83614588565b915061529982615258565b602082019050919050565b600060208201905081810360008301526152bd81615281565b9050919050565b7f526f6f6d206973206e6f7420626f6f6b65640000000000000000000000000000600082015250565b60006152fa601283614588565b9150615305826152c4565b602082019050919050565b60006020820190508181036000830152615329816152ed565b9050919050565b7f596f752063757272656e746c7920646f6e742072657369646520696e2074686960008201527f7320726f6f6d0000000000000000000000000000000000000000000000000000602082015250565b600061538c602683614588565b915061539782615330565b604082019050919050565b600060208201905081810360008301526153bb8161537f565b9050919050565b600081905092915050565b60006153d88261457d565b6153e281856153c2565b93506153f2818560208601614599565b80840191505092915050565b600061540a82846153cd565b915081905092915050565b7f486f74656c204e616d6520457869737473000000000000000000000000000000600082015250565b600061544b601183614588565b915061545682615415565b602082019050919050565b6000602082019050818103600083015261547a8161543e565b9050919050565b7f506c6561736520737065636966792074686520686f74656c206e616d65000000600082015250565b60006154b7601d83614588565b91506154c282615481565b602082019050919050565b600060208201905081810360008301526154e6816154aa565b9050919050565b7f496e76616c6964204c697374696e672046656500000000000000000000000000600082015250565b6000615523601383614588565b915061552e826154ed565b602082019050919050565b6000602082019050818103600083015261555281615516565b9050919050565b7f4e756d626572206f6620726f6f6d732063616e6e6f74206265207a65726f0000600082015250565b600061558f601e83614588565b915061559a82615559565b602082019050919050565b600060208201905081810360008301526155be81615582565b9050919050565b7f506c6561736520737065636966792074686520686f74656c206465736372697060008201527f74696f6e00000000000000000000000000000000000000000000000000000000602082015250565b6000615621602483614588565b915061562c826155c5565b604082019050919050565b6000602082019050818103600083015261565081615614565b9050919050565b7f506c65617365207370656369667920746865206c6f636174696f6e206f66207460008201527f686520686f74656c000000000000000000000000000000000000000000000000602082015250565b60006156b3602883614588565b91506156be82615657565b604082019050919050565b600060208201905081810360008301526156e2816156a6565b9050919050565b7f596f7520446f204e6f74204f776e205468697320486f74656c204974656d0000600082015250565b600061571f601e83614588565b915061572a826156e9565b602082019050919050565b6000602082019050818103600083015261574e81615712565b9050919050565b7f596f75206172652074686520726967687466756c206f776e657220616c72656160008201527f6479000000000000000000000000000000000000000000000000000000000000602082015250565b60006157b1602283614588565b91506157bc82615755565b604082019050919050565b600060208201905081810360008301526157e0816157a4565b9050919050565b7f506c65617365207370656369667920612076616c69642045544820616464726560008201527f7373000000000000000000000000000000000000000000000000000000000000602082015250565b6000615843602283614588565b915061584e826157e7565b604082019050919050565b6000602082019050818103600083015261587281615836565b9050919050565b7f4e487b7100000000000000000000000000000000000000000000000000000000600052600160045260246000fd5b7f526f6f6d20446f6573204e6f7420457869737400000000000000000000000000600082015250565b60006158de601383614588565b91506158e9826158a8565b602082019050919050565b6000602082019050818103600083015261590d816158d1565b9050919050565b7f526f6f6d206973206f6363757069656400000000000000000000000000000000600082015250565b600061594a601083614588565b915061595582615914565b602082019050919050565b600060208201905081810360008301526159798161593d565b9050919050565b7f596f752063616e6e6f7420626f6f6b20796f7572206f776e20726f6f6d000000600082015250565b60006159b6601d83614588565b91506159c182615980565b602082019050919050565b600060208201905081810360008301526159e5816159a9565b9050919050565b7f496e73756666696369656e742046756e64730000000000000000000000000000600082015250565b6000615a22601283614588565b9150615a2d826159ec565b602082019050919050565b60006020820190508181036000830152615a5181615a15565b9050919050565b7f4e756d626572206f66206e69676874732063616e6e6f74206265207a65726f00600082015250565b6000615a8e601f83614588565b9150615a9982615a58565b602082019050919050565b60006020820190508181036000830152615abd81615a81565b9050919050565b7f4e487b7100000000000000000000000000000000000000000000000000000000600052601160045260246000fd5b6000615afe8261450b565b9150615b098361450b565b9250817fffffffffffffffffffffffffffffffffffffffffffffffffffffffffffffffff0483118215151615615b4257615b41615ac4565b5b828202905092915050565b7f506c65617365207061792074686520626f6f6b696e672066656520626173656460008201527f206f6e206e756d626572206f66206e696768747320746f206265207370656e74602082015250565b6000615ba9604083614588565b9150615bb482615b4d565b604082019050919050565b60006020820190508181036000830152615bd881615b9c565b9050919050565b7f506c65617365204c697374204120486f74656c204265666f726520416464696e60008201527f67204120526f6f6d000000000000000000000000000000000000000000000000602082015250565b6000615c3b602883614588565b9150615c4682615bdf565b604082019050919050565b60006020820190508181036000830152615c6a81615c2e565b9050919050565b7f506c6561736520737065636966792074686520726f6f6d206e616d6500000000600082015250565b6000615ca7601c83614588565b9150615cb282615c71565b602082019050919050565b60006020820190508181036000830152615cd681615c9a565b9050919050565b7f526f6f6d204e616d652045786973747300000000000000000000000000000000600082015250565b6000615d13601083614588565b9150615d1e82615cdd565b602082019050919050565b60006020820190508181036000830152615d4281615d06565b9050919050565b7f4e756d626572206f6620626564732063616e6e6f74206265207a65726f000000600082015250565b6000615d7f601d83614588565b9150615d8a82615d49565b602082019050919050565b60006020820190508181036000830152615dae81615d72565b9050919050565b7f506c6561736520737065636966792074686520726f6f6d20646573637269707460008201527f696f6e0000000000000000000000000000000000000000000000000000000000602082015250565b6000615e11602383614588565b9150615e1c82615db5565b604082019050919050565b60006020820190508181036000830152615e4081615e04565b9050919050565b7f54686520726f6f6d206e696768742070726963652063616e6e6f74206265207a60008201527f65726f0000000000000000000000000000000000000000000000000000000000602082015250565b6000615ea3602383614588565b9150615eae82615e47565b604082019050919050565b60006020820190508181036000830152615ed281615e96565b9050919050565b6000604082019050615eee600083018561456e565b615efb602083018461456e565b9392505050565b7f596f7520446f204e6f74204f776e205468697320526f6f6d0000000000000000600082015250565b6000615f38601883614588565b9150615f4382615f02565b602082019050919050565b60006020820190508181036000830152615f6781615f2b565b9050919050565b7f70726963652043616e6e6f74206265207a65726f000000000000000000000000600082015250565b6000615fa4601483614588565b9150615faf82615f6e565b602082019050919050565b60006020820190508181036000830152615fd381615f97565b9050919050565b7f4f776e61626c653a206e6577206f776e657220697320746865207a65726f206160008201527f6464726573730000000000000000000000000000000000000000000000000000602082015250565b6000616036602683614588565b915061604182615fda565b604082019050919050565b6000602082019050818103600083015261606581616029565b9050919050565b60006160778261450b565b91506160828361450b565b9250827fffffffffffffffffffffffffffffffffffffffffffffffffffffffffffffffff038211156160b7576160b6615ac4565b5b828201905092915050565b7f426f6f6b696e672049442063616e6e6f74206265207a65726f00000000000000600082015250565b60006160f8601983614588565b9150616103826160c2565b602082019050919050565b60006020820190508181036000830152616127816160eb565b905091905056fea26469706673582212207c3489c8c875f394b05fa9dff20c8005672c3a63243e1af65d8b2571233bb01364736f6c634300080a0033",
  "immutableReferences": {},
  "source": "// SPDX-License-Identifier: MIT\npragma solidity ^0.8.0;\nimport '@openzeppelin/contracts/utils/math/SafeMath.sol';\nimport '@openzeppelin/contracts/security/ReentrancyGuard.sol';\nimport '@openzeppelin/contracts/utils/Counters.sol';\nimport './Room.sol';\n\ncontract Booking is Room{\n  using SafeMath for uint256;\n  using Counters for Counters.Counter;\n\n  struct BookingItem{\n    uint roomId;\n    uint bookingId;\n    uint bookingDate;\n    uint amountPaid;\n    address payable tenant;\n  }\n\n  BookingItem[] public bookings;\n\n  uint public totalBookings = 0;\n  Counters.Counter private _bookingIds;\n\n  event CheckoutSuccessfull(address indexed tenant, uint indexed roomId, uint indexed date);\n\n  constructor() public {\n\n  }\n\n  function _registerBooking(uint _roomId, uint _bookingId,uint _amountPaid, address payable _tenant) internal{\n    assert(_tenant != address(0));\n    require(msg.sender != address(0));\n    require(_bookingId != 0,\"Booking ID cannot be zero\");\n    BookingItem memory newBooking = BookingItem(_roomId,_bookingId, block.timestamp,_amountPaid,_tenant);\n    bookings.push(newBooking);\n    totalBookings = totalBookings.add(1);\n    emit RoomBooked(block.timestamp, msg.sender,msg.value,_roomId);\n  }\n  \n  function bookRoom(uint _roomId,uint _numOfNights) public payable nonReentrant roomExists(_roomId) isNotBooked(_roomId){\n    RoomItem storage room = roomItemId[_roomId];\n    uint totalPayableAmount = _numOfNights.mul(room.pricePerNight);\n    require(msg.sender != room.user,\"You cannot book your own room\");\n    require(msg.sender.balance >= totalPayableAmount,\"Insufficient Funds\");\n    require(_numOfNights != 0,\"Number of nights cannot be zero\");\n    require(msg.value == totalPayableAmount * 1 ether,\"Please pay the booking fee based on number of nights to be spent\");\n    _bookingIds.increment();\n    uint currentBookingId = _bookingIds.current();\n    room.user.transfer(msg.value);\n    _setBooked(_roomId);\n    _registerBooking(room.id,currentBookingId,msg.value, payable(msg.sender));\n    roomTenant[room.id] = msg.sender;\n  }\n\n  function checkOut(uint _roomId) public payable nonReentrant {\n    RoomItem storage room = roomItemId[_roomId];\n    require(room.isBooked == true,\"Room is not booked\");\n    require(msg.sender == roomTenant[room.id],\"You currently dont reside in this room\");\n    room.isBooked = false;\n    emit CheckoutSuccessfull(msg.sender,room.id,block.timestamp);\n  }\n\n}\n",
  "sourcePath": "D:/Dickens/Programming/Blockchain/Projects/Personal/HotelDapp/contracts/Booking.sol",
  "compiler": {
    "name": "solc",
    "version": "0.8.10+commit.fc410830.Emscripten.clang"
  },
  "schemaVersion": "3.4.1",
  "updatedAt": "2021-11-19T14:39:10.540Z",
  "devdoc": {
    "kind": "dev",
    "methods": {
      "owner()": {
        "details": "Returns the address of the current owner."
      },
      "renounceOwnership()": {
        "details": "Leaves the contract without owner. It will not be possible to call `onlyOwner` functions anymore. Can only be called by the current owner. NOTE: Renouncing ownership will leave the contract without an owner, thereby removing any functionality that is only available to the owner."
      },
      "transferOwnership(address)": {
        "details": "Transfers ownership of the contract to a new account (`newOwner`). Can only be called by the current owner."
      }
    },
    "version": 1
  },
  "userdoc": {
    "kind": "user",
    "methods": {},
    "version": 1
  }
}