{
  "contractName": "Hotel",
  "abi": [
    {
      "inputs": [],
      "stateMutability": "nonpayable",
      "type": "constructor"
    },
    {
      "anonymous": false,
      "inputs": [
        {
          "indexed": true,
          "internalType": "address",
          "name": "causer",
          "type": "address"
        },
        {
          "indexed": false,
          "internalType": "uint256",
          "name": "date",
          "type": "uint256"
        },
        {
          "indexed": true,
          "internalType": "enum Hotel.HOTEL_CATEGORY",
          "name": "newCategory",
          "type": "uint8"
        }
      ],
      "name": "HotelCategoryChanged",
      "type": "event"
    },
    {
      "anonymous": false,
      "inputs": [
        {
          "indexed": false,
          "internalType": "uint256",
          "name": "date",
          "type": "uint256"
        },
        {
          "indexed": true,
          "internalType": "address",
          "name": "causer",
          "type": "address"
        },
        {
          "indexed": true,
          "internalType": "uint256",
          "name": "id",
          "type": "uint256"
        }
      ],
      "name": "HotelCreated",
      "type": "event"
    },
    {
      "anonymous": false,
      "inputs": [
        {
          "indexed": true,
          "internalType": "address",
          "name": "user",
          "type": "address"
        },
        {
          "indexed": true,
          "internalType": "uint256",
          "name": "date",
          "type": "uint256"
        },
        {
          "indexed": true,
          "internalType": "uint256",
          "name": "fee",
          "type": "uint256"
        }
      ],
      "name": "HotelListingFeeChanged",
      "type": "event"
    },
    {
      "anonymous": false,
      "inputs": [
        {
          "indexed": true,
          "internalType": "address",
          "name": "causer",
          "type": "address"
        },
        {
          "indexed": true,
          "internalType": "address",
          "name": "newOwner",
          "type": "address"
        },
        {
          "indexed": false,
          "internalType": "uint256",
          "name": "date",
          "type": "uint256"
        }
      ],
      "name": "HotelOwnerChanged",
      "type": "event"
    },
    {
      "anonymous": false,
      "inputs": [
        {
          "indexed": true,
          "internalType": "address",
          "name": "previousOwner",
          "type": "address"
        },
        {
          "indexed": true,
          "internalType": "address",
          "name": "newOwner",
          "type": "address"
        }
      ],
      "name": "OwnershipTransferred",
      "type": "event"
    },
    {
      "inputs": [
        {
          "internalType": "uint256",
          "name": "",
          "type": "uint256"
        }
      ],
      "name": "existingHotelItemId",
      "outputs": [
        {
          "internalType": "bool",
          "name": "",
          "type": "bool"
        }
      ],
      "stateMutability": "view",
      "type": "function",
      "constant": true
    },
    {
      "inputs": [
        {
          "internalType": "string",
          "name": "",
          "type": "string"
        }
      ],
      "name": "existingHotelItemName",
      "outputs": [
        {
          "internalType": "bool",
          "name": "",
          "type": "bool"
        }
      ],
      "stateMutability": "view",
      "type": "function",
      "constant": true
    },
    {
      "inputs": [],
      "name": "hotelCategory",
      "outputs": [
        {
          "internalType": "enum Hotel.HOTEL_CATEGORY",
          "name": "",
          "type": "uint8"
        }
      ],
      "stateMutability": "view",
      "type": "function",
      "constant": true
    },
    {
      "inputs": [
        {
          "internalType": "uint256",
          "name": "",
          "type": "uint256"
        }
      ],
      "name": "hotelItemId",
      "outputs": [
        {
          "internalType": "uint256",
          "name": "id",
          "type": "uint256"
        },
        {
          "internalType": "uint256",
          "name": "totalRooms",
          "type": "uint256"
        },
        {
          "internalType": "uint256",
          "name": "creationDate",
          "type": "uint256"
        },
        {
          "internalType": "string",
          "name": "name",
          "type": "string"
        },
        {
          "internalType": "enum Hotel.HOTEL_CATEGORY",
          "name": "hotelCategory",
          "type": "uint8"
        },
        {
          "internalType": "string",
          "name": "description",
          "type": "string"
        },
        {
          "internalType": "string",
          "name": "locationAddress",
          "type": "string"
        },
        {
          "internalType": "address payable",
          "name": "user",
          "type": "address"
        }
      ],
      "stateMutability": "view",
      "type": "function",
      "constant": true
    },
    {
      "inputs": [
        {
          "internalType": "uint256",
          "name": "",
          "type": "uint256"
        }
      ],
      "name": "hotelItems",
      "outputs": [
        {
          "internalType": "uint256",
          "name": "id",
          "type": "uint256"
        },
        {
          "internalType": "uint256",
          "name": "totalRooms",
          "type": "uint256"
        },
        {
          "internalType": "uint256",
          "name": "creationDate",
          "type": "uint256"
        },
        {
          "internalType": "string",
          "name": "name",
          "type": "string"
        },
        {
          "internalType": "enum Hotel.HOTEL_CATEGORY",
          "name": "hotelCategory",
          "type": "uint8"
        },
        {
          "internalType": "string",
          "name": "description",
          "type": "string"
        },
        {
          "internalType": "string",
          "name": "locationAddress",
          "type": "string"
        },
        {
          "internalType": "address payable",
          "name": "user",
          "type": "address"
        }
      ],
      "stateMutability": "view",
      "type": "function",
      "constant": true
    },
    {
      "inputs": [],
      "name": "hotelListingFee",
      "outputs": [
        {
          "internalType": "uint256",
          "name": "",
          "type": "uint256"
        }
      ],
      "stateMutability": "view",
      "type": "function",
      "constant": true
    },
    {
      "inputs": [
        {
          "internalType": "address",
          "name": "",
          "type": "address"
        }
      ],
      "name": "hotelOwner",
      "outputs": [
        {
          "internalType": "uint256",
          "name": "id",
          "type": "uint256"
        },
        {
          "internalType": "uint256",
          "name": "totalRooms",
          "type": "uint256"
        },
        {
          "internalType": "uint256",
          "name": "creationDate",
          "type": "uint256"
        },
        {
          "internalType": "string",
          "name": "name",
          "type": "string"
        },
        {
          "internalType": "enum Hotel.HOTEL_CATEGORY",
          "name": "hotelCategory",
          "type": "uint8"
        },
        {
          "internalType": "string",
          "name": "description",
          "type": "string"
        },
        {
          "internalType": "string",
          "name": "locationAddress",
          "type": "string"
        },
        {
          "internalType": "address payable",
          "name": "user",
          "type": "address"
        }
      ],
      "stateMutability": "view",
      "type": "function",
      "constant": true
    },
    {
      "inputs": [],
      "name": "owner",
      "outputs": [
        {
          "internalType": "address",
          "name": "",
          "type": "address"
        }
      ],
      "stateMutability": "view",
      "type": "function",
      "constant": true
    },
    {
      "inputs": [],
      "name": "renounceOwnership",
      "outputs": [],
      "stateMutability": "nonpayable",
      "type": "function"
    },
    {
      "inputs": [],
      "name": "totalHotels",
      "outputs": [
        {
          "internalType": "uint256",
          "name": "",
          "type": "uint256"
        }
      ],
      "stateMutability": "view",
      "type": "function",
      "constant": true
    },
    {
      "inputs": [
        {
          "internalType": "address",
          "name": "newOwner",
          "type": "address"
        }
      ],
      "name": "transferOwnership",
      "outputs": [],
      "stateMutability": "nonpayable",
      "type": "function"
    },
    {
      "inputs": [
        {
          "internalType": "uint256",
          "name": "_fee",
          "type": "uint256"
        }
      ],
      "name": "setListingFee",
      "outputs": [],
      "stateMutability": "nonpayable",
      "type": "function"
    },
    {
      "inputs": [
        {
          "internalType": "uint256",
          "name": "_numOfRooms",
          "type": "uint256"
        },
        {
          "internalType": "string",
          "name": "_name",
          "type": "string"
        },
        {
          "internalType": "string",
          "name": "_description",
          "type": "string"
        },
        {
          "internalType": "string",
          "name": "_location",
          "type": "string"
        }
      ],
      "name": "addHotel",
      "outputs": [],
      "stateMutability": "payable",
      "type": "function",
      "payable": true
    },
    {
      "inputs": [],
      "name": "listAllHotels",
      "outputs": [
        {
          "components": [
            {
              "internalType": "uint256",
              "name": "id",
              "type": "uint256"
            },
            {
              "internalType": "uint256",
              "name": "totalRooms",
              "type": "uint256"
            },
            {
              "internalType": "uint256",
              "name": "creationDate",
              "type": "uint256"
            },
            {
              "internalType": "string",
              "name": "name",
              "type": "string"
            },
            {
              "internalType": "enum Hotel.HOTEL_CATEGORY",
              "name": "hotelCategory",
              "type": "uint8"
            },
            {
              "internalType": "string",
              "name": "description",
              "type": "string"
            },
            {
              "internalType": "string",
              "name": "locationAddress",
              "type": "string"
            },
            {
              "internalType": "address payable",
              "name": "user",
              "type": "address"
            }
          ],
          "internalType": "struct Hotel.HotelItem[]",
          "name": "",
          "type": "tuple[]"
        }
      ],
      "stateMutability": "view",
      "type": "function",
      "constant": true
    },
    {
      "inputs": [
        {
          "internalType": "uint256",
          "name": "_hotelId",
          "type": "uint256"
        }
      ],
      "name": "getHotelBioData",
      "outputs": [
        {
          "internalType": "uint256",
          "name": "_id",
          "type": "uint256"
        },
        {
          "internalType": "uint256",
          "name": "_totalRooms",
          "type": "uint256"
        },
        {
          "internalType": "uint256",
          "name": "_date",
          "type": "uint256"
        },
        {
          "internalType": "string",
          "name": "_name",
          "type": "string"
        },
        {
          "internalType": "string",
          "name": "_description",
          "type": "string"
        },
        {
          "internalType": "string",
          "name": "_location",
          "type": "string"
        },
        {
          "internalType": "enum Hotel.HOTEL_CATEGORY",
          "name": "_category",
          "type": "uint8"
        }
      ],
      "stateMutability": "view",
      "type": "function",
      "constant": true
    },
    {
      "inputs": [
        {
          "internalType": "uint256",
          "name": "_hotelId",
          "type": "uint256"
        },
        {
          "internalType": "enum Hotel.HOTEL_CATEGORY",
          "name": "_category",
          "type": "uint8"
        }
      ],
      "name": "changeHotelCategory",
      "outputs": [],
      "stateMutability": "nonpayable",
      "type": "function"
    },
    {
      "inputs": [
        {
          "internalType": "uint256",
          "name": "_hotelId",
          "type": "uint256"
        }
      ],
      "name": "getName",
      "outputs": [
        {
          "internalType": "string",
          "name": "",
          "type": "string"
        }
      ],
      "stateMutability": "view",
      "type": "function",
      "constant": true
    },
    {
      "inputs": [
        {
          "internalType": "uint256",
          "name": "_hotelId",
          "type": "uint256"
        }
      ],
      "name": "getId",
      "outputs": [
        {
          "internalType": "uint256",
          "name": "",
          "type": "uint256"
        }
      ],
      "stateMutability": "view",
      "type": "function",
      "constant": true
    },
    {
      "inputs": [
        {
          "internalType": "address payable",
          "name": "_newOwner",
          "type": "address"
        },
        {
          "internalType": "uint256",
          "name": "_hotelId",
          "type": "uint256"
        }
      ],
      "name": "changeHotelOwner",
      "outputs": [],
      "stateMutability": "nonpayable",
      "type": "function"
    }
  ],
  "bytecode": "0x60806040526000600255660187152d40e0006003553480156200002157600080fd5b5062000042620000366200004f60201b60201c565b6200005760201b60201c565b600180819055506200011b565b600033905090565b60008060009054906101000a900473ffffffffffffffffffffffffffffffffffffffff169050816000806101000a81548173ffffffffffffffffffffffffffffffffffffffff021916908373ffffffffffffffffffffffffffffffffffffffff1602179055508173ffffffffffffffffffffffffffffffffffffffff168173ffffffffffffffffffffffffffffffffffffffff167f8be0079c531659141344cd1fd0a4f28419497f9722a3daafe3b4186f6b6457e060405160405180910390a35050565b613559806200012b6000396000f3fe6080604052600436106101145760003560e01c806370f3bfd8116100a05780639524a38e116100645780639524a38e146103c3578063bbc02ce214610407578063c210c53214610432578063c89e49631461045d578063f2fde38b146104a157610114565b806370f3bfd8146102f0578063715018a61461031957806374dbda05146103305780638da5cb5b1461036d57806391aa84891461039857610114565b80633716236e116100e75780633716236e146101cc578063387329f9146102105780634dce717e14610239578063545a153a146102765780636b8ff574146102b357610114565b80630af272f7146101195780630fa0200d1461015c578063131dbd09146101875780631c5c9b5d146101b0575b600080fd5b34801561012557600080fd5b50610140600480360381019061013b919061242b565b6104ca565b6040516101539796959493929190612577565b60405180910390f35b34801561016857600080fd5b50610171610738565b60405161017e91906125fb565b60405180910390f35b34801561019357600080fd5b506101ae60048036038101906101a9919061242b565b61074b565b005b6101ca60048036038101906101c5919061274b565b61085a565b005b3480156101d857600080fd5b506101f360048036038101906101ee9190612864565b61102a565b6040516102079897969594939291906128b2565b60405180910390f35b34801561021c57600080fd5b5061023760048036038101906102329190612971565b611237565b005b34801561024557600080fd5b50610260600480360381019061025b91906129b1565b6114e3565b60405161026d9190612a15565b60405180910390f35b34801561028257600080fd5b5061029d6004803603810190610298919061242b565b611519565b6040516102aa9190612a30565b60405180910390f35b3480156102bf57600080fd5b506102da60048036038101906102d5919061242b565b6115a2565b6040516102e79190612a4b565b60405180910390f35b3480156102fc57600080fd5b5061031760048036038101906103129190612a92565b6116b3565b005b34801561032557600080fd5b5061032e6118e7565b005b34801561033c57600080fd5b506103576004803603810190610352919061242b565b61196f565b6040516103649190612a15565b60405180910390f35b34801561037957600080fd5b5061038261198f565b60405161038f9190612ae1565b60405180910390f35b3480156103a457600080fd5b506103ad6119b8565b6040516103ba9190612a30565b60405180910390f35b3480156103cf57600080fd5b506103ea60048036038101906103e5919061242b565b6119be565b6040516103fe9897969594939291906128b2565b60405180910390f35b34801561041357600080fd5b5061041c611bcb565b6040516104299190612a30565b60405180910390f35b34801561043e57600080fd5b50610447611bd1565b6040516104549190612cf3565b60405180910390f35b34801561046957600080fd5b50610484600480360381019061047f919061242b565b611e96565b6040516104989897969594939291906128b2565b60405180910390f35b3480156104ad57600080fd5b506104c860048036038101906104c39190612864565b6120b3565b005b60008060006060806060600087600115156009600083815260200190815260200160002060009054906101000a900460ff1615151461053e576040517f08c379a000000000000000000000000000000000000000000000000000000000815260040161053590612d61565b60405180910390fd5b6000600760008b8152602001908152602001600020905080600001549850806001015497508060020154965080600301805461057990612db0565b80601f01602080910402602001604051908101604052809291908181526020018280546105a590612db0565b80156105f25780601f106105c7576101008083540402835291602001916105f2565b820191906000526020600020905b8154815290600101906020018083116105d557829003601f168201915b5050505050955080600501805461060890612db0565b80601f016020809104026020016040519081016040528092919081815260200182805461063490612db0565b80156106815780601f1061065657610100808354040283529160200191610681565b820191906000526020600020905b81548152906001019060200180831161066457829003601f168201915b5050505050945080600601805461069790612db0565b80601f01602080910402602001604051908101604052809291908181526020018280546106c390612db0565b80156107105780601f106106e557610100808354040283529160200191610710565b820191906000526020600020905b8154815290600101906020018083116106f357829003601f168201915b505050505093508060040160009054906101000a900460ff1692505050919395979092949650565b600560009054906101000a900460ff1681565b6107536121ab565b73ffffffffffffffffffffffffffffffffffffffff1661077161198f565b73ffffffffffffffffffffffffffffffffffffffff16146107c7576040517f08c379a00000000000000000000000000000000000000000000000000000000081526004016107be90612e2e565b60405180910390fd5b600081141561080b576040517f08c379a000000000000000000000000000000000000000000000000000000000815260040161080290612e9a565b60405180910390fd5b8060038190555080423373ffffffffffffffffffffffffffffffffffffffff167fd86cac97cd3caa153b72db918dc0feb1ed9683dfd389c345d07f7d00390b63b760405160405180910390a450565b8260001515600a8260405161086f9190612ef6565b908152602001604051809103902060009054906101000a900460ff161515146108cd576040517f08c379a00000000000000000000000000000000000000000000000000000000081526004016108c490612f59565b60405180910390fd5b6000815111610911576040517f08c379a000000000000000000000000000000000000000000000000000000000815260040161090890612fc5565b60405180910390fd5b60026001541415610957576040517f08c379a000000000000000000000000000000000000000000000000000000000815260040161094e90613031565b60405180910390fd5b6002600181905550600073ffffffffffffffffffffffffffffffffffffffff163373ffffffffffffffffffffffffffffffffffffffff16141561099957600080fd5b60035434146109dd576040517f08c379a00000000000000000000000000000000000000000000000000000000081526004016109d49061309d565b60405180910390fd5b6000851415610a21576040517f08c379a0000000000000000000000000000000000000000000000000000000008152600401610a1890613109565b60405180910390fd5b6000835111610a65576040517f08c379a0000000000000000000000000000000000000000000000000000000008152600401610a5c9061319b565b60405180910390fd5b6000825111610aa9576040517f08c379a0000000000000000000000000000000000000000000000000000000008152600401610aa09061322d565b60405180910390fd5b610ab360046121b3565b6000610abf60046121c9565b905060405180610100016040528082815260200187815260200142815260200186815260200160006006811115610af957610af8612500565b5b81526020018581526020018481526020013373ffffffffffffffffffffffffffffffffffffffff16815250600760008381526020019081526020016000206000820151816000015560208201518160010155604082015181600201556060820151816003019080519060200190610b719291906122b1565b5060808201518160040160006101000a81548160ff02191690836006811115610b9d57610b9c612500565b5b021790555060a0820151816005019080519060200190610bbe9291906122b1565b5060c0820151816006019080519060200190610bdb9291906122b1565b5060e08201518160070160006101000a81548173ffffffffffffffffffffffffffffffffffffffff021916908373ffffffffffffffffffffffffffffffffffffffff16021790555090505060066007600083815260200190815260200160002090806001815401808255809150506001900390600052602060002090600802016000909190919091506000820154816000015560018201548160010155600282015481600201556003820181600301908054610c9690612db0565b610ca1929190612337565b506004820160009054906101000a900460ff168160040160006101000a81548160ff02191690836006811115610cda57610cd9612500565b5b02179055506005820181600501908054610cf390612db0565b610cfe929190612337565b506006820181600601908054610d1390612db0565b610d1e929190612337565b506007820160009054906101000a900473ffffffffffffffffffffffffffffffffffffffff168160070160006101000a81548173ffffffffffffffffffffffffffffffffffffffff021916908373ffffffffffffffffffffffffffffffffffffffff160217905550505060076000828152602001908152602001600020600860003373ffffffffffffffffffffffffffffffffffffffff1673ffffffffffffffffffffffffffffffffffffffff1681526020019081526020016000206000820154816000015560018201548160010155600282015481600201556003820181600301908054610e0c90612db0565b610e17929190612337565b506004820160009054906101000a900460ff168160040160006101000a81548160ff02191690836006811115610e5057610e4f612500565b5b02179055506005820181600501908054610e6990612db0565b610e74929190612337565b506006820181600601908054610e8990612db0565b610e94929190612337565b506007820160009054906101000a900473ffffffffffffffffffffffffffffffffffffffff168160070160006101000a81548173ffffffffffffffffffffffffffffffffffffffff021916908373ffffffffffffffffffffffffffffffffffffffff160217905550905050610f1560016002546121d790919063ffffffff16565b60028190555060016009600083815260200190815260200160002060006101000a81548160ff0219169083151502179055506001600a86604051610f599190612ef6565b908152602001604051809103902060006101000a81548160ff021916908315150217905550610f8661198f565b73ffffffffffffffffffffffffffffffffffffffff166108fc349081150290604051600060405180830381858888f19350505050158015610fcb573d6000803e3d6000fd5b50803373ffffffffffffffffffffffffffffffffffffffff167fc8103fc44f19a39b2be3834708c831e6292d5b110a99e06a1f9c1c5f24faf5dd426040516110139190612a30565b60405180910390a350600180819055505050505050565b600860205280600052604060002060009150905080600001549080600101549080600201549080600301805461105f90612db0565b80601f016020809104026020016040519081016040528092919081815260200182805461108b90612db0565b80156110d85780601f106110ad576101008083540402835291602001916110d8565b820191906000526020600020905b8154815290600101906020018083116110bb57829003601f168201915b5050505050908060040160009054906101000a900460ff169080600501805461110090612db0565b80601f016020809104026020016040519081016040528092919081815260200182805461112c90612db0565b80156111795780601f1061114e57610100808354040283529160200191611179565b820191906000526020600020905b81548152906001019060200180831161115c57829003601f168201915b50505050509080600601805461118e90612db0565b80601f01602080910402602001604051908101604052809291908181526020018280546111ba90612db0565b80156112075780601f106111dc57610100808354040283529160200191611207565b820191906000526020600020905b8154815290600101906020018083116111ea57829003601f168201915b5050505050908060070160009054906101000a900473ffffffffffffffffffffffffffffffffffffffff16905088565b80600115156009600083815260200190815260200160002060009054906101000a900460ff1615151461129f576040517f08c379a000000000000000000000000000000000000000000000000000000000815260040161129690612d61565b60405180910390fd5b816007600082815260200190815260200160002060070160009054906101000a900473ffffffffffffffffffffffffffffffffffffffff1673ffffffffffffffffffffffffffffffffffffffff163373ffffffffffffffffffffffffffffffffffffffff1614611344576040517f08c379a000000000000000000000000000000000000000000000000000000000815260040161133b90613299565b60405180910390fd5b8373ffffffffffffffffffffffffffffffffffffffff163373ffffffffffffffffffffffffffffffffffffffff1614156113b3576040517f08c379a00000000000000000000000000000000000000000000000000000000081526004016113aa9061332b565b60405180910390fd5b600073ffffffffffffffffffffffffffffffffffffffff168473ffffffffffffffffffffffffffffffffffffffff161415611423576040517f08c379a000000000000000000000000000000000000000000000000000000000815260040161141a906133bd565b60405180910390fd5b836007600085815260200190815260200160002060070160006101000a81548173ffffffffffffffffffffffffffffffffffffffff021916908373ffffffffffffffffffffffffffffffffffffffff1602179055508373ffffffffffffffffffffffffffffffffffffffff163373ffffffffffffffffffffffffffffffffffffffff167fa4384cd8553d716f837cc7d68ed60529f9672b59cf96f1ce8bef3334183db34a426040516114d59190612a30565b60405180910390a350505050565b600a818051602081018201805184825260208301602085012081835280955050505050506000915054906101000a900460ff1681565b600081600115156009600083815260200190815260200160002060009054906101000a900460ff16151514611583576040517f08c379a000000000000000000000000000000000000000000000000000000000815260040161157a90612d61565b60405180910390fd5b6007600084815260200190815260200160002060000154915050919050565b606081600115156009600083815260200190815260200160002060009054906101000a900460ff1615151461160c576040517f08c379a000000000000000000000000000000000000000000000000000000000815260040161160390612d61565b60405180910390fd5b60076000848152602001908152602001600020600301805461162d90612db0565b80601f016020809104026020016040519081016040528092919081815260200182805461165990612db0565b80156116a65780601f1061167b576101008083540402835291602001916116a6565b820191906000526020600020905b81548152906001019060200180831161168957829003601f168201915b5050505050915050919050565b81600115156009600083815260200190815260200160002060009054906101000a900460ff1615151461171b576040517f08c379a000000000000000000000000000000000000000000000000000000000815260040161171290612d61565b60405180910390fd5b826007600082815260200190815260200160002060070160009054906101000a900473ffffffffffffffffffffffffffffffffffffffff1673ffffffffffffffffffffffffffffffffffffffff163373ffffffffffffffffffffffffffffffffffffffff16146117c0576040517f08c379a00000000000000000000000000000000000000000000000000000000081526004016117b790613299565b60405180910390fd5b6000600760008681526020019081526020016000209050600060068111156117eb576117ea612500565b5b8460068111156117fe576117fd612500565b5b141561180d5761180c6133dd565b5b8060040160009054906101000a900460ff16600681111561183157611830612500565b5b84600681111561184457611843612500565b5b1415611853576118526133dd565b5b838160040160006101000a81548160ff0219169083600681111561187a57611879612500565b5b021790555083600681111561189257611891612500565b5b3373ffffffffffffffffffffffffffffffffffffffff167ff5b844f9650efd8a638976417da0e54ababae9d5ae6ec7dbc97124f00d5a5c5e426040516118d89190612a30565b60405180910390a35050505050565b6118ef6121ab565b73ffffffffffffffffffffffffffffffffffffffff1661190d61198f565b73ffffffffffffffffffffffffffffffffffffffff1614611963576040517f08c379a000000000000000000000000000000000000000000000000000000000815260040161195a90612e2e565b60405180910390fd5b61196d60006121ed565b565b60096020528060005260406000206000915054906101000a900460ff1681565b60008060009054906101000a900473ffffffffffffffffffffffffffffffffffffffff16905090565b60035481565b60076020528060005260406000206000915090508060000154908060010154908060020154908060030180546119f390612db0565b80601f0160208091040260200160405190810160405280929190818152602001828054611a1f90612db0565b8015611a6c5780601f10611a4157610100808354040283529160200191611a6c565b820191906000526020600020905b815481529060010190602001808311611a4f57829003601f168201915b5050505050908060040160009054906101000a900460ff1690806005018054611a9490612db0565b80601f0160208091040260200160405190810160405280929190818152602001828054611ac090612db0565b8015611b0d5780601f10611ae257610100808354040283529160200191611b0d565b820191906000526020600020905b815481529060010190602001808311611af057829003601f168201915b505050505090806006018054611b2290612db0565b80601f0160208091040260200160405190810160405280929190818152602001828054611b4e90612db0565b8015611b9b5780601f10611b7057610100808354040283529160200191611b9b565b820191906000526020600020905b815481529060010190602001808311611b7e57829003601f168201915b5050505050908060070160009054906101000a900473ffffffffffffffffffffffffffffffffffffffff16905088565b60025481565b60606006805480602002602001604051908101604052809291908181526020016000905b82821015611e8d578382906000526020600020906008020160405180610100016040529081600082015481526020016001820154815260200160028201548152602001600382018054611c4790612db0565b80601f0160208091040260200160405190810160405280929190818152602001828054611c7390612db0565b8015611cc05780601f10611c9557610100808354040283529160200191611cc0565b820191906000526020600020905b815481529060010190602001808311611ca357829003601f168201915b505050505081526020016004820160009054906101000a900460ff166006811115611cee57611ced612500565b5b6006811115611d0057611cff612500565b5b8152602001600582018054611d1490612db0565b80601f0160208091040260200160405190810160405280929190818152602001828054611d4090612db0565b8015611d8d5780601f10611d6257610100808354040283529160200191611d8d565b820191906000526020600020905b815481529060010190602001808311611d7057829003601f168201915b50505050508152602001600682018054611da690612db0565b80601f0160208091040260200160405190810160405280929190818152602001828054611dd290612db0565b8015611e1f5780601f10611df457610100808354040283529160200191611e1f565b820191906000526020600020905b815481529060010190602001808311611e0257829003601f168201915b505050505081526020016007820160009054906101000a900473ffffffffffffffffffffffffffffffffffffffff1673ffffffffffffffffffffffffffffffffffffffff1673ffffffffffffffffffffffffffffffffffffffff168152505081526020019060010190611bf5565b50505050905090565b60068181548110611ea657600080fd5b9060005260206000209060080201600091509050806000015490806001015490806002015490806003018054611edb90612db0565b80601f0160208091040260200160405190810160405280929190818152602001828054611f0790612db0565b8015611f545780601f10611f2957610100808354040283529160200191611f54565b820191906000526020600020905b815481529060010190602001808311611f3757829003601f168201915b5050505050908060040160009054906101000a900460ff1690806005018054611f7c90612db0565b80601f0160208091040260200160405190810160405280929190818152602001828054611fa890612db0565b8015611ff55780601f10611fca57610100808354040283529160200191611ff5565b820191906000526020600020905b815481529060010190602001808311611fd857829003601f168201915b50505050509080600601805461200a90612db0565b80601f016020809104026020016040519081016040528092919081815260200182805461203690612db0565b80156120835780601f1061205857610100808354040283529160200191612083565b820191906000526020600020905b81548152906001019060200180831161206657829003601f168201915b5050505050908060070160009054906101000a900473ffffffffffffffffffffffffffffffffffffffff16905088565b6120bb6121ab565b73ffffffffffffffffffffffffffffffffffffffff166120d961198f565b73ffffffffffffffffffffffffffffffffffffffff161461212f576040517f08c379a000000000000000000000000000000000000000000000000000000000815260040161212690612e2e565b60405180910390fd5b600073ffffffffffffffffffffffffffffffffffffffff168173ffffffffffffffffffffffffffffffffffffffff16141561219f576040517f08c379a00000000000000000000000000000000000000000000000000000000081526004016121969061347e565b60405180910390fd5b6121a8816121ed565b50565b600033905090565b6001816000016000828254019250508190555050565b600081600001549050919050565b600081836121e591906134cd565b905092915050565b60008060009054906101000a900473ffffffffffffffffffffffffffffffffffffffff169050816000806101000a81548173ffffffffffffffffffffffffffffffffffffffff021916908373ffffffffffffffffffffffffffffffffffffffff1602179055508173ffffffffffffffffffffffffffffffffffffffff168173ffffffffffffffffffffffffffffffffffffffff167f8be0079c531659141344cd1fd0a4f28419497f9722a3daafe3b4186f6b6457e060405160405180910390a35050565b8280546122bd90612db0565b90600052602060002090601f0160209004810192826122df5760008555612326565b82601f106122f857805160ff1916838001178555612326565b82800160010185558215612326579182015b8281111561232557825182559160200191906001019061230a565b5b50905061233391906123c4565b5090565b82805461234390612db0565b90600052602060002090601f01602090048101928261236557600085556123b3565b82601f1061237657805485556123b3565b828001600101855582156123b357600052602060002091601f016020900482015b828111156123b2578254825591600101919060010190612397565b5b5090506123c091906123c4565b5090565b5b808211156123dd5760008160009055506001016123c5565b5090565b6000604051905090565b600080fd5b600080fd5b6000819050919050565b612408816123f5565b811461241357600080fd5b50565b600081359050612425816123ff565b92915050565b600060208284031215612441576124406123eb565b5b600061244f84828501612416565b91505092915050565b612461816123f5565b82525050565b600081519050919050565b600082825260208201905092915050565b60005b838110156124a1578082015181840152602081019050612486565b838111156124b0576000848401525b50505050565b6000601f19601f8301169050919050565b60006124d282612467565b6124dc8185612472565b93506124ec818560208601612483565b6124f5816124b6565b840191505092915050565b7f4e487b7100000000000000000000000000000000000000000000000000000000600052602160045260246000fd5b600781106125405761253f612500565b5b50565b60008190506125518261252f565b919050565b600061256182612543565b9050919050565b61257181612556565b82525050565b600060e08201905061258c600083018a612458565b6125996020830189612458565b6125a66040830188612458565b81810360608301526125b881876124c7565b905081810360808301526125cc81866124c7565b905081810360a08301526125e081856124c7565b90506125ef60c0830184612568565b98975050505050505050565b60006020820190506126106000830184612568565b92915050565b600080fd5b600080fd5b7f4e487b7100000000000000000000000000000000000000000000000000000000600052604160045260246000fd5b612658826124b6565b810181811067ffffffffffffffff8211171561267757612676612620565b5b80604052505050565b600061268a6123e1565b9050612696828261264f565b919050565b600067ffffffffffffffff8211156126b6576126b5612620565b5b6126bf826124b6565b9050602081019050919050565b82818337600083830152505050565b60006126ee6126e98461269b565b612680565b90508281526020810184848401111561270a5761270961261b565b5b6127158482856126cc565b509392505050565b600082601f83011261273257612731612616565b5b81356127428482602086016126db565b91505092915050565b60008060008060808587031215612765576127646123eb565b5b600061277387828801612416565b945050602085013567ffffffffffffffff811115612794576127936123f0565b5b6127a08782880161271d565b935050604085013567ffffffffffffffff8111156127c1576127c06123f0565b5b6127cd8782880161271d565b925050606085013567ffffffffffffffff8111156127ee576127ed6123f0565b5b6127fa8782880161271d565b91505092959194509250565b600073ffffffffffffffffffffffffffffffffffffffff82169050919050565b600061283182612806565b9050919050565b61284181612826565b811461284c57600080fd5b50565b60008135905061285e81612838565b92915050565b60006020828403121561287a576128796123eb565b5b60006128888482850161284f565b91505092915050565b600061289c82612806565b9050919050565b6128ac81612891565b82525050565b6000610100820190506128c8600083018b612458565b6128d5602083018a612458565b6128e26040830189612458565b81810360608301526128f481886124c7565b90506129036080830187612568565b81810360a083015261291581866124c7565b905081810360c083015261292981856124c7565b905061293860e08301846128a3565b9998505050505050505050565b61294e81612891565b811461295957600080fd5b50565b60008135905061296b81612945565b92915050565b60008060408385031215612988576129876123eb565b5b60006129968582860161295c565b92505060206129a785828601612416565b9150509250929050565b6000602082840312156129c7576129c66123eb565b5b600082013567ffffffffffffffff8111156129e5576129e46123f0565b5b6129f18482850161271d565b91505092915050565b60008115159050919050565b612a0f816129fa565b82525050565b6000602082019050612a2a6000830184612a06565b92915050565b6000602082019050612a456000830184612458565b92915050565b60006020820190508181036000830152612a6581846124c7565b905092915050565b60078110612a7a57600080fd5b50565b600081359050612a8c81612a6d565b92915050565b60008060408385031215612aa957612aa86123eb565b5b6000612ab785828601612416565b9250506020612ac885828601612a7d565b9150509250929050565b612adb81612826565b82525050565b6000602082019050612af66000830184612ad2565b92915050565b600081519050919050565b600082825260208201905092915050565b6000819050602082019050919050565b612b31816123f5565b82525050565b600082825260208201905092915050565b6000612b5382612467565b612b5d8185612b37565b9350612b6d818560208601612483565b612b76816124b6565b840191505092915050565b612b8a81612556565b82525050565b612b9981612891565b82525050565b600061010083016000830151612bb86000860182612b28565b506020830151612bcb6020860182612b28565b506040830151612bde6040860182612b28565b5060608301518482036060860152612bf68282612b48565b9150506080830151612c0b6080860182612b81565b5060a083015184820360a0860152612c238282612b48565b91505060c083015184820360c0860152612c3d8282612b48565b91505060e0830151612c5260e0860182612b90565b508091505092915050565b6000612c698383612b9f565b905092915050565b6000602082019050919050565b6000612c8982612afc565b612c938185612b07565b935083602082028501612ca585612b18565b8060005b85811015612ce15784840389528151612cc28582612c5d565b9450612ccd83612c71565b925060208a01995050600181019050612ca9565b50829750879550505050505092915050565b60006020820190508181036000830152612d0d8184612c7e565b905092915050565b7f486f74656c20446f6573204e6f74204578697374000000000000000000000000600082015250565b6000612d4b601483612472565b9150612d5682612d15565b602082019050919050565b60006020820190508181036000830152612d7a81612d3e565b9050919050565b7f4e487b7100000000000000000000000000000000000000000000000000000000600052602260045260246000fd5b60006002820490506001821680612dc857607f821691505b60208210811415612ddc57612ddb612d81565b5b50919050565b7f4f776e61626c653a2063616c6c6572206973206e6f7420746865206f776e6572600082015250565b6000612e18602083612472565b9150612e2382612de2565b602082019050919050565b60006020820190508181036000830152612e4781612e0b565b9050919050565b7f4c697374696e67204665652043616e6e6f74206265207a65726f000000000000600082015250565b6000612e84601a83612472565b9150612e8f82612e4e565b602082019050919050565b60006020820190508181036000830152612eb381612e77565b9050919050565b600081905092915050565b6000612ed082612467565b612eda8185612eba565b9350612eea818560208601612483565b80840191505092915050565b6000612f028284612ec5565b915081905092915050565b7f486f74656c204e616d6520457869737473000000000000000000000000000000600082015250565b6000612f43601183612472565b9150612f4e82612f0d565b602082019050919050565b60006020820190508181036000830152612f7281612f36565b9050919050565b7f506c6561736520737065636966792074686520686f74656c206e616d65000000600082015250565b6000612faf601d83612472565b9150612fba82612f79565b602082019050919050565b60006020820190508181036000830152612fde81612fa2565b9050919050565b7f5265656e7472616e637947756172643a207265656e7472616e742063616c6c00600082015250565b600061301b601f83612472565b915061302682612fe5565b602082019050919050565b6000602082019050818103600083015261304a8161300e565b9050919050565b7f496e76616c6964204c697374696e672046656500000000000000000000000000600082015250565b6000613087601383612472565b915061309282613051565b602082019050919050565b600060208201905081810360008301526130b68161307a565b9050919050565b7f4e756d626572206f6620726f6f6d732063616e6e6f74206265207a65726f0000600082015250565b60006130f3601e83612472565b91506130fe826130bd565b602082019050919050565b60006020820190508181036000830152613122816130e6565b9050919050565b7f506c6561736520737065636966792074686520686f74656c206465736372697060008201527f74696f6e00000000000000000000000000000000000000000000000000000000602082015250565b6000613185602483612472565b915061319082613129565b604082019050919050565b600060208201905081810360008301526131b481613178565b9050919050565b7f506c65617365207370656369667920746865206c6f636174696f6e206f66207460008201527f686520686f74656c000000000000000000000000000000000000000000000000602082015250565b6000613217602883612472565b9150613222826131bb565b604082019050919050565b600060208201905081810360008301526132468161320a565b9050919050565b7f596f7520446f204e6f74204f776e205468697320486f74656c204974656d0000600082015250565b6000613283601e83612472565b915061328e8261324d565b602082019050919050565b600060208201905081810360008301526132b281613276565b9050919050565b7f596f75206172652074686520726967687466756c206f776e657220616c72656160008201527f6479000000000000000000000000000000000000000000000000000000000000602082015250565b6000613315602283612472565b9150613320826132b9565b604082019050919050565b6000602082019050818103600083015261334481613308565b9050919050565b7f506c65617365207370656369667920612076616c69642045544820616464726560008201527f7373000000000000000000000000000000000000000000000000000000000000602082015250565b60006133a7602283612472565b91506133b28261334b565b604082019050919050565b600060208201905081810360008301526133d68161339a565b9050919050565b7f4e487b7100000000000000000000000000000000000000000000000000000000600052600160045260246000fd5b7f4f776e61626c653a206e6577206f776e657220697320746865207a65726f206160008201527f6464726573730000000000000000000000000000000000000000000000000000602082015250565b6000613468602683612472565b91506134738261340c565b604082019050919050565b600060208201905081810360008301526134978161345b565b9050919050565b7f4e487b7100000000000000000000000000000000000000000000000000000000600052601160045260246000fd5b60006134d8826123f5565b91506134e3836123f5565b9250827fffffffffffffffffffffffffffffffffffffffffffffffffffffffffffffffff038211156135185761351761349e565b5b82820190509291505056fea2646970667358221220096ef91f6d149b404f582ffa09789a0aee5e57499532e8f7fabbf82963b1e5dc64736f6c634300080a0033",
  "immutableReferences": {},
  "source": "// SPDX-License-Identifier: MIT\npragma solidity ^0.8.0;\nimport '@openzeppelin/contracts/utils/math/SafeMath.sol';\nimport '@openzeppelin/contracts/security/ReentrancyGuard.sol';\nimport '@openzeppelin/contracts/access/Ownable.sol';\nimport '@openzeppelin/contracts/utils/Counters.sol';\nimport './HotelBookingInterface.sol';\n\n  /**\n   * @dev A simple Smart Contract for hotel management\n   * @author Dickens Odera dickensodera9@gmail.com\n  **/\n\ncontract Hotel is Ownable, HotelBookingInterface, ReentrancyGuard {\n  using SafeMath for uint256;\n  using Counters for Counters.Counter;\n\n  uint public totalHotels = 0; //the total number of the hotels\n  uint public hotelListingFee = 0.00043 ether; //200 Ksh at the time of writing this smart contract\n  Counters.Counter private _hotelIds; //hotel id to be inrecemented when a new hotel is created\n\n  enum HOTEL_CATEGORY {CHAIN_HOTEL, MOTEL, RESORT, INN, ALL_SUITS, BOUTIGUE, EXTENDED_STAY} // hotel types\n  HOTEL_CATEGORY public hotelCategory;\n  HOTEL_CATEGORY constant DEFAULT_HOTEL_TYPE = HOTEL_CATEGORY.CHAIN_HOTEL; //default hotel type as it is the most common around the world\n\n  //Group hotel data together in a Struct\n  struct HotelItem{\n    uint id;\n    uint totalRooms;\n    uint creationDate;\n    string name;\n    HOTEL_CATEGORY hotelCategory;\n    string description;\n    string locationAddress;\n    address payable user;\n  }\n\n  HotelItem[] public hotelItems; //hotels array of the Hotel struct above\n\n  mapping(uint => HotelItem) public hotelItemId;\n  mapping(address => HotelItem) public hotelOwner; //the owner of this hotel\n  mapping(uint => bool) public existingHotelItemId;\n  mapping(string => bool) public existingHotelItemName;\n\n  //events\n  event HotelCreated(uint date, address indexed causer, uint indexed id);\n  event HotelCategoryChanged(address indexed causer, uint date, HOTEL_CATEGORY indexed newCategory);\n  event HotelOwnerChanged(address indexed causer, address indexed newOwner, uint date);\n  event HotelListingFeeChanged(address indexed user, uint indexed date,uint indexed fee);\n\n  constructor() public {\n\n  }\n\n  //ensure that the hotel exists in the blockchain before performing related transactions\n  modifier hotelExists(uint _hotelId){\n      require(existingHotelItemId[_hotelId] == true,\"Hotel Does Not Exist\");\n      _;\n  }\n\n  //to avoid duplicate hotel names in the contract\n  modifier hotelNameExists(string memory _name){\n     require(existingHotelItemName[_name] == false,\"Hotel Name Exists\");\n     require(bytes(_name).length > 0,\"Please specify the hotel name\");\n     _;\n  }\n\n  //ensure the transactionsender owns this hotel before the transaction\n  modifier ownsHotel(uint _hotelId){\n      require(msg.sender == hotelItemId[_hotelId].user,\"You Do Not Own This Hotel Item\");\n      _;\n  }\n\n  //check that this user address has hotel before adding a room\n  modifier hasListedHotel(uint _hotelId){\n      bool isListed = false;\n        if(msg.sender == hotelItemId[_hotelId].user){\n            isListed = true;\n        }\n      require(isListed == true,\"Please List A Hotel Before Adding A Room\");\n      _;\n  }\n\n  function setListingFee(uint _fee) public onlyOwner{\n    require(_fee != 0,\"Listing Fee Cannot be zero\");\n    hotelListingFee = _fee;\n    emit HotelListingFeeChanged(msg.sender,block.timestamp, _fee);\n  }\n\n  function addHotel(uint _numOfRooms, string memory _name,string memory _description, string memory _location) public hotelNameExists(_name) nonReentrant payable{\n    require(msg.sender != address(0));\n    require(msg.value == hotelListingFee,\"Invalid Listing Fee\");\n    require(_numOfRooms != 0,\"Number of rooms cannot be zero\");\n    require(bytes(_description).length > 0,\"Please specify the hotel description\");\n    require(bytes(_location).length > 0,\"Please specify the location of the hotel\");\n    _hotelIds.increment();\n    uint currentHotelId = _hotelIds.current();\n    hotelItemId[currentHotelId] = HotelItem(currentHotelId, _numOfRooms, block.timestamp, _name, DEFAULT_HOTEL_TYPE,_description, _location, payable(msg.sender));\n    hotelItems.push(hotelItemId[currentHotelId]);\n    hotelOwner[msg.sender] = hotelItemId[currentHotelId];\n    totalHotels = totalHotels.add(1);\n    existingHotelItemId[currentHotelId] = true;\n    existingHotelItemName[_name] = true;\n    payable(owner()).transfer(msg.value);\n    emit HotelCreated(block.timestamp, msg.sender, currentHotelId);\n  }\n\n  function listAllHotels() public view returns(HotelItem[] memory){\n      return hotelItems;\n  }\n\n  function getHotelBioData(uint _hotelId) public view hotelExists(_hotelId) returns(\n      uint _id,\n      uint _totalRooms,\n      uint _date,\n      string memory _name,\n      string memory _description,\n      string memory _location,\n      HOTEL_CATEGORY _category\n      ){\n    HotelItem storage hotelItem = hotelItemId[_hotelId];\n    _id = hotelItem.id;\n    _totalRooms = hotelItem.totalRooms;\n    _date = hotelItem.creationDate;\n    _name = hotelItem.name;\n    _description = hotelItem.description;\n    _location = hotelItem.locationAddress;\n    _category = hotelItem.hotelCategory;\n  }\n\n  function changeHotelCategory(uint _hotelId, HOTEL_CATEGORY _category) public hotelExists(_hotelId) ownsHotel(_hotelId) {\n     HotelItem storage hotelItem = hotelItemId[_hotelId];\n     assert(_category != DEFAULT_HOTEL_TYPE);\n     assert(_category != hotelItem.hotelCategory);\n     hotelItem.hotelCategory = _category;\n     emit HotelCategoryChanged(msg.sender, block.timestamp, _category);\n  }\n\n  function getName(uint _hotelId) external virtual view override hotelExists(_hotelId) returns(string memory){\n      return hotelItemId[_hotelId].name;\n  }\n\n  function getId(uint _hotelId) external virtual view override hotelExists(_hotelId) returns(uint){\n      return hotelItemId[_hotelId].id;\n  }\n\n  function changeHotelOwner(address payable _newOwner, uint _hotelId) public hotelExists(_hotelId) ownsHotel(_hotelId){\n      require(msg.sender != _newOwner,\"You are the rightful owner already\");\n      require(_newOwner != address(0),\"Please specify a valid ETH address\");\n      hotelItemId[_hotelId].user = _newOwner;\n      emit HotelOwnerChanged(msg.sender, _newOwner, block.timestamp);\n  }\n}\n",
  "sourcePath": "D:/Dickens/Programming/Blockchain/Projects/Personal/HotelDapp/contracts/Hotel.sol",
  "compiler": {
    "name": "solc",
    "version": "0.8.10+commit.fc410830.Emscripten.clang"
  },
  "schemaVersion": "3.4.1",
  "updatedAt": "2021-11-19T14:40:56.277Z",
  "networkType": "ethereum",
  "devdoc": {
    "author": "Dickens Odera dickensodera9@gmail.com*",
    "details": "A simple Smart Contract for hotel management",
    "kind": "dev",
    "methods": {
      "owner()": {
        "details": "Returns the address of the current owner."
      },
      "renounceOwnership()": {
        "details": "Leaves the contract without owner. It will not be possible to call `onlyOwner` functions anymore. Can only be called by the current owner. NOTE: Renouncing ownership will leave the contract without an owner, thereby removing any functionality that is only available to the owner."
      },
      "transferOwnership(address)": {
        "details": "Transfers ownership of the contract to a new account (`newOwner`). Can only be called by the current owner."
      }
    },
    "version": 1
  },
  "userdoc": {
    "kind": "user",
    "methods": {},
    "version": 1
  }
}