{
  "contractName": "Hotel",
  "abi": [
    {
      "inputs": [],
      "stateMutability": "nonpayable",
      "type": "constructor"
    },
    {
      "anonymous": false,
      "inputs": [
        {
          "indexed": true,
          "internalType": "address",
          "name": "causer",
          "type": "address"
        },
        {
          "indexed": false,
          "internalType": "uint256",
          "name": "date",
          "type": "uint256"
        },
        {
          "indexed": true,
          "internalType": "enum Hotel.HOTEL_CATEGORY",
          "name": "newCategory",
          "type": "uint8"
        }
      ],
      "name": "HotelCategoryChanged",
      "type": "event"
    },
    {
      "anonymous": false,
      "inputs": [
        {
          "indexed": false,
          "internalType": "uint256",
          "name": "date",
          "type": "uint256"
        },
        {
          "indexed": true,
          "internalType": "address",
          "name": "causer",
          "type": "address"
        },
        {
          "indexed": true,
          "internalType": "uint256",
          "name": "id",
          "type": "uint256"
        }
      ],
      "name": "HotelCreated",
      "type": "event"
    },
    {
      "anonymous": false,
      "inputs": [
        {
          "indexed": true,
          "internalType": "address",
          "name": "user",
          "type": "address"
        },
        {
          "indexed": true,
          "internalType": "uint256",
          "name": "date",
          "type": "uint256"
        },
        {
          "indexed": true,
          "internalType": "uint256",
          "name": "fee",
          "type": "uint256"
        }
      ],
      "name": "HotelListingFeeChanged",
      "type": "event"
    },
    {
      "anonymous": false,
      "inputs": [
        {
          "indexed": true,
          "internalType": "address",
          "name": "causer",
          "type": "address"
        },
        {
          "indexed": true,
          "internalType": "address",
          "name": "newOwner",
          "type": "address"
        },
        {
          "indexed": false,
          "internalType": "uint256",
          "name": "date",
          "type": "uint256"
        }
      ],
      "name": "HotelOwnerChanged",
      "type": "event"
    },
    {
      "anonymous": false,
      "inputs": [
        {
          "indexed": true,
          "internalType": "address",
          "name": "previousOwner",
          "type": "address"
        },
        {
          "indexed": true,
          "internalType": "address",
          "name": "newOwner",
          "type": "address"
        }
      ],
      "name": "OwnershipTransferred",
      "type": "event"
    },
    {
      "inputs": [
        {
          "internalType": "uint256",
          "name": "",
          "type": "uint256"
        }
      ],
      "name": "existingHotelItemId",
      "outputs": [
        {
          "internalType": "bool",
          "name": "",
          "type": "bool"
        }
      ],
      "stateMutability": "view",
      "type": "function",
      "constant": true
    },
    {
      "inputs": [
        {
          "internalType": "string",
          "name": "",
          "type": "string"
        }
      ],
      "name": "existingHotelItemName",
      "outputs": [
        {
          "internalType": "bool",
          "name": "",
          "type": "bool"
        }
      ],
      "stateMutability": "view",
      "type": "function",
      "constant": true
    },
    {
      "inputs": [],
      "name": "hotelCategory",
      "outputs": [
        {
          "internalType": "enum Hotel.HOTEL_CATEGORY",
          "name": "",
          "type": "uint8"
        }
      ],
      "stateMutability": "view",
      "type": "function",
      "constant": true
    },
    {
      "inputs": [
        {
          "internalType": "uint256",
          "name": "",
          "type": "uint256"
        }
      ],
      "name": "hotelItemId",
      "outputs": [
        {
          "internalType": "uint256",
          "name": "id",
          "type": "uint256"
        },
        {
          "internalType": "uint256",
          "name": "totalRooms",
          "type": "uint256"
        },
        {
          "internalType": "uint256",
          "name": "creationDate",
          "type": "uint256"
        },
        {
          "internalType": "string",
          "name": "name",
          "type": "string"
        },
        {
          "internalType": "enum Hotel.HOTEL_CATEGORY",
          "name": "hotelCategory",
          "type": "uint8"
        },
        {
          "internalType": "string",
          "name": "description",
          "type": "string"
        },
        {
          "internalType": "string",
          "name": "locationAddress",
          "type": "string"
        },
        {
          "internalType": "address payable",
          "name": "user",
          "type": "address"
        },
        {
          "internalType": "string",
          "name": "imageHash",
          "type": "string"
        }
      ],
      "stateMutability": "view",
      "type": "function",
      "constant": true
    },
    {
      "inputs": [
        {
          "internalType": "uint256",
          "name": "",
          "type": "uint256"
        }
      ],
      "name": "hotelItems",
      "outputs": [
        {
          "internalType": "uint256",
          "name": "id",
          "type": "uint256"
        },
        {
          "internalType": "uint256",
          "name": "totalRooms",
          "type": "uint256"
        },
        {
          "internalType": "uint256",
          "name": "creationDate",
          "type": "uint256"
        },
        {
          "internalType": "string",
          "name": "name",
          "type": "string"
        },
        {
          "internalType": "enum Hotel.HOTEL_CATEGORY",
          "name": "hotelCategory",
          "type": "uint8"
        },
        {
          "internalType": "string",
          "name": "description",
          "type": "string"
        },
        {
          "internalType": "string",
          "name": "locationAddress",
          "type": "string"
        },
        {
          "internalType": "address payable",
          "name": "user",
          "type": "address"
        },
        {
          "internalType": "string",
          "name": "imageHash",
          "type": "string"
        }
      ],
      "stateMutability": "view",
      "type": "function",
      "constant": true
    },
    {
      "inputs": [],
      "name": "hotelListingFee",
      "outputs": [
        {
          "internalType": "uint256",
          "name": "",
          "type": "uint256"
        }
      ],
      "stateMutability": "view",
      "type": "function",
      "constant": true
    },
    {
      "inputs": [
        {
          "internalType": "address",
          "name": "",
          "type": "address"
        }
      ],
      "name": "hotelOwner",
      "outputs": [
        {
          "internalType": "uint256",
          "name": "id",
          "type": "uint256"
        },
        {
          "internalType": "uint256",
          "name": "totalRooms",
          "type": "uint256"
        },
        {
          "internalType": "uint256",
          "name": "creationDate",
          "type": "uint256"
        },
        {
          "internalType": "string",
          "name": "name",
          "type": "string"
        },
        {
          "internalType": "enum Hotel.HOTEL_CATEGORY",
          "name": "hotelCategory",
          "type": "uint8"
        },
        {
          "internalType": "string",
          "name": "description",
          "type": "string"
        },
        {
          "internalType": "string",
          "name": "locationAddress",
          "type": "string"
        },
        {
          "internalType": "address payable",
          "name": "user",
          "type": "address"
        },
        {
          "internalType": "string",
          "name": "imageHash",
          "type": "string"
        }
      ],
      "stateMutability": "view",
      "type": "function",
      "constant": true
    },
    {
      "inputs": [],
      "name": "owner",
      "outputs": [
        {
          "internalType": "address",
          "name": "",
          "type": "address"
        }
      ],
      "stateMutability": "view",
      "type": "function",
      "constant": true
    },
    {
      "inputs": [],
      "name": "renounceOwnership",
      "outputs": [],
      "stateMutability": "nonpayable",
      "type": "function"
    },
    {
      "inputs": [],
      "name": "totalHotels",
      "outputs": [
        {
          "internalType": "uint256",
          "name": "",
          "type": "uint256"
        }
      ],
      "stateMutability": "view",
      "type": "function",
      "constant": true
    },
    {
      "inputs": [
        {
          "internalType": "address",
          "name": "newOwner",
          "type": "address"
        }
      ],
      "name": "transferOwnership",
      "outputs": [],
      "stateMutability": "nonpayable",
      "type": "function"
    },
    {
      "inputs": [
        {
          "internalType": "uint256",
          "name": "_fee",
          "type": "uint256"
        }
      ],
      "name": "setListingFee",
      "outputs": [],
      "stateMutability": "nonpayable",
      "type": "function"
    },
    {
      "inputs": [
        {
          "internalType": "uint256",
          "name": "_numOfRooms",
          "type": "uint256"
        },
        {
          "internalType": "string",
          "name": "_name",
          "type": "string"
        },
        {
          "internalType": "string",
          "name": "_description",
          "type": "string"
        },
        {
          "internalType": "string",
          "name": "_location",
          "type": "string"
        },
        {
          "internalType": "string",
          "name": "_imageHash",
          "type": "string"
        }
      ],
      "name": "addHotel",
      "outputs": [],
      "stateMutability": "payable",
      "type": "function",
      "payable": true
    },
    {
      "inputs": [],
      "name": "listAllHotels",
      "outputs": [
        {
          "components": [
            {
              "internalType": "uint256",
              "name": "id",
              "type": "uint256"
            },
            {
              "internalType": "uint256",
              "name": "totalRooms",
              "type": "uint256"
            },
            {
              "internalType": "uint256",
              "name": "creationDate",
              "type": "uint256"
            },
            {
              "internalType": "string",
              "name": "name",
              "type": "string"
            },
            {
              "internalType": "enum Hotel.HOTEL_CATEGORY",
              "name": "hotelCategory",
              "type": "uint8"
            },
            {
              "internalType": "string",
              "name": "description",
              "type": "string"
            },
            {
              "internalType": "string",
              "name": "locationAddress",
              "type": "string"
            },
            {
              "internalType": "address payable",
              "name": "user",
              "type": "address"
            },
            {
              "internalType": "string",
              "name": "imageHash",
              "type": "string"
            }
          ],
          "internalType": "struct Hotel.HotelItem[]",
          "name": "",
          "type": "tuple[]"
        }
      ],
      "stateMutability": "view",
      "type": "function",
      "constant": true
    },
    {
      "inputs": [
        {
          "internalType": "uint256",
          "name": "_hotelId",
          "type": "uint256"
        }
      ],
      "name": "getHotelBioData",
      "outputs": [
        {
          "internalType": "uint256",
          "name": "_id",
          "type": "uint256"
        },
        {
          "internalType": "uint256",
          "name": "_totalRooms",
          "type": "uint256"
        },
        {
          "internalType": "uint256",
          "name": "_date",
          "type": "uint256"
        },
        {
          "internalType": "string",
          "name": "_name",
          "type": "string"
        },
        {
          "internalType": "string",
          "name": "_description",
          "type": "string"
        },
        {
          "internalType": "string",
          "name": "_location",
          "type": "string"
        },
        {
          "internalType": "enum Hotel.HOTEL_CATEGORY",
          "name": "_category",
          "type": "uint8"
        },
        {
          "internalType": "string",
          "name": "_photo",
          "type": "string"
        }
      ],
      "stateMutability": "view",
      "type": "function",
      "constant": true
    },
    {
      "inputs": [
        {
          "internalType": "uint256",
          "name": "_hotelId",
          "type": "uint256"
        },
        {
          "internalType": "enum Hotel.HOTEL_CATEGORY",
          "name": "_category",
          "type": "uint8"
        }
      ],
      "name": "changeHotelCategory",
      "outputs": [],
      "stateMutability": "nonpayable",
      "type": "function"
    },
    {
      "inputs": [
        {
          "internalType": "uint256",
          "name": "_hotelId",
          "type": "uint256"
        }
      ],
      "name": "getName",
      "outputs": [
        {
          "internalType": "string",
          "name": "",
          "type": "string"
        }
      ],
      "stateMutability": "view",
      "type": "function",
      "constant": true
    },
    {
      "inputs": [
        {
          "internalType": "uint256",
          "name": "_hotelId",
          "type": "uint256"
        }
      ],
      "name": "getId",
      "outputs": [
        {
          "internalType": "uint256",
          "name": "",
          "type": "uint256"
        }
      ],
      "stateMutability": "view",
      "type": "function",
      "constant": true
    },
    {
      "inputs": [
        {
          "internalType": "address payable",
          "name": "_newOwner",
          "type": "address"
        },
        {
          "internalType": "uint256",
          "name": "_hotelId",
          "type": "uint256"
        }
      ],
      "name": "changeHotelOwner",
      "outputs": [],
      "stateMutability": "nonpayable",
      "type": "function"
    }
  ],
  "bytecode": "0x60806040526000600255660187152d40e0006003553480156200002157600080fd5b5062000042620000366200004f60201b60201c565b6200005760201b60201c565b600180819055506200011b565b600033905090565b60008060009054906101000a900473ffffffffffffffffffffffffffffffffffffffff169050816000806101000a81548173ffffffffffffffffffffffffffffffffffffffff021916908373ffffffffffffffffffffffffffffffffffffffff1602179055508173ffffffffffffffffffffffffffffffffffffffff168173ffffffffffffffffffffffffffffffffffffffff167f8be0079c531659141344cd1fd0a4f28419497f9722a3daafe3b4186f6b6457e060405160405180910390a35050565b613907806200012b6000396000f3fe6080604052600436106101145760003560e01c8063715018a6116100a0578063bbc02ce211610064578063bbc02ce2146103ee578063c210c53214610419578063c89e496314610444578063cecd7e7a14610489578063f2fde38b146104a557610114565b8063715018a6146102ff57806374dbda05146103165780638da5cb5b1461035357806391aa84891461037e5780639524a38e146103a957610114565b8063387329f9116100e7578063387329f9146101f65780634dce717e1461021f578063545a153a1461025c5780636b8ff5741461029957806370f3bfd8146102d657610114565b80630af272f7146101195780630fa0200d1461015d578063131dbd09146101885780633716236e146101b1575b600080fd5b34801561012557600080fd5b50610140600480360381019061013b9190612761565b6104ce565b6040516101549897969594939291906128ad565b60405180910390f35b34801561016957600080fd5b506101726107cd565b60405161017f9190612947565b60405180910390f35b34801561019457600080fd5b506101af60048036038101906101aa9190612761565b6107e0565b005b3480156101bd57600080fd5b506101d860048036038101906101d391906129c0565b6108ef565b6040516101ed99989796959493929190612a0e565b60405180910390f35b34801561020257600080fd5b5061021d60048036038101906102189190612ae3565b610b8a565b005b34801561022b57600080fd5b5061024660048036038101906102419190612c58565b610e36565b6040516102539190612cbc565b60405180910390f35b34801561026857600080fd5b50610283600480360381019061027e9190612761565b610e6c565b6040516102909190612cd7565b60405180910390f35b3480156102a557600080fd5b506102c060048036038101906102bb9190612761565b610ef5565b6040516102cd9190612cf2565b60405180910390f35b3480156102e257600080fd5b506102fd60048036038101906102f89190612d39565b611006565b005b34801561030b57600080fd5b5061031461123a565b005b34801561032257600080fd5b5061033d60048036038101906103389190612761565b6112c2565b60405161034a9190612cbc565b60405180910390f35b34801561035f57600080fd5b506103686112e2565b6040516103759190612d88565b60405180910390f35b34801561038a57600080fd5b5061039361130b565b6040516103a09190612cd7565b60405180910390f35b3480156103b557600080fd5b506103d060048036038101906103cb9190612761565b611311565b6040516103e599989796959493929190612a0e565b60405180910390f35b3480156103fa57600080fd5b506104036115ac565b6040516104109190612cd7565b60405180910390f35b34801561042557600080fd5b5061042e6115b2565b60405161043b9190612fb6565b60405180910390f35b34801561045057600080fd5b5061046b60048036038101906104669190612761565b611909565b60405161048099989796959493929190612a0e565b60405180910390f35b6104a3600480360381019061049e9190612fd8565b611bb4565b005b3480156104b157600080fd5b506104cc60048036038101906104c791906129c0565b6123e9565b005b600080600060608060606000606088600115156009600083815260200190815260200160002060009054906101000a900460ff16151514610544576040517f08c379a000000000000000000000000000000000000000000000000000000000815260040161053b9061310f565b60405180910390fd5b6000600760008c8152602001908152602001600020905080600001549950806001015498508060020154975080600301805461057f9061315e565b80601f01602080910402602001604051908101604052809291908181526020018280546105ab9061315e565b80156105f85780601f106105cd576101008083540402835291602001916105f8565b820191906000526020600020905b8154815290600101906020018083116105db57829003601f168201915b5050505050965080600501805461060e9061315e565b80601f016020809104026020016040519081016040528092919081815260200182805461063a9061315e565b80156106875780601f1061065c57610100808354040283529160200191610687565b820191906000526020600020905b81548152906001019060200180831161066a57829003601f168201915b5050505050955080600601805461069d9061315e565b80601f01602080910402602001604051908101604052809291908181526020018280546106c99061315e565b80156107165780601f106106eb57610100808354040283529160200191610716565b820191906000526020600020905b8154815290600101906020018083116106f957829003601f168201915b505050505094508060040160009054906101000a900460ff1693508060080180546107409061315e565b80601f016020809104026020016040519081016040528092919081815260200182805461076c9061315e565b80156107b95780601f1061078e576101008083540402835291602001916107b9565b820191906000526020600020905b81548152906001019060200180831161079c57829003601f168201915b505050505092505050919395975091939597565b600560009054906101000a900460ff1681565b6107e86124e1565b73ffffffffffffffffffffffffffffffffffffffff166108066112e2565b73ffffffffffffffffffffffffffffffffffffffff161461085c576040517f08c379a0000000000000000000000000000000000000000000000000000000008152600401610853906131dc565b60405180910390fd5b60008114156108a0576040517f08c379a000000000000000000000000000000000000000000000000000000000815260040161089790613248565b60405180910390fd5b8060038190555080423373ffffffffffffffffffffffffffffffffffffffff167fd86cac97cd3caa153b72db918dc0feb1ed9683dfd389c345d07f7d00390b63b760405160405180910390a450565b60086020528060005260406000206000915090508060000154908060010154908060020154908060030180546109249061315e565b80601f01602080910402602001604051908101604052809291908181526020018280546109509061315e565b801561099d5780601f106109725761010080835404028352916020019161099d565b820191906000526020600020905b81548152906001019060200180831161098057829003601f168201915b5050505050908060040160009054906101000a900460ff16908060050180546109c59061315e565b80601f01602080910402602001604051908101604052809291908181526020018280546109f19061315e565b8015610a3e5780601f10610a1357610100808354040283529160200191610a3e565b820191906000526020600020905b815481529060010190602001808311610a2157829003601f168201915b505050505090806006018054610a539061315e565b80601f0160208091040260200160405190810160405280929190818152602001828054610a7f9061315e565b8015610acc5780601f10610aa157610100808354040283529160200191610acc565b820191906000526020600020905b815481529060010190602001808311610aaf57829003601f168201915b5050505050908060070160009054906101000a900473ffffffffffffffffffffffffffffffffffffffff1690806008018054610b079061315e565b80601f0160208091040260200160405190810160405280929190818152602001828054610b339061315e565b8015610b805780601f10610b5557610100808354040283529160200191610b80565b820191906000526020600020905b815481529060010190602001808311610b6357829003601f168201915b5050505050905089565b80600115156009600083815260200190815260200160002060009054906101000a900460ff16151514610bf2576040517f08c379a0000000000000000000000000000000000000000000000000000000008152600401610be99061310f565b60405180910390fd5b816007600082815260200190815260200160002060070160009054906101000a900473ffffffffffffffffffffffffffffffffffffffff1673ffffffffffffffffffffffffffffffffffffffff163373ffffffffffffffffffffffffffffffffffffffff1614610c97576040517f08c379a0000000000000000000000000000000000000000000000000000000008152600401610c8e906132b4565b60405180910390fd5b8373ffffffffffffffffffffffffffffffffffffffff163373ffffffffffffffffffffffffffffffffffffffff161415610d06576040517f08c379a0000000000000000000000000000000000000000000000000000000008152600401610cfd90613346565b60405180910390fd5b600073ffffffffffffffffffffffffffffffffffffffff168473ffffffffffffffffffffffffffffffffffffffff161415610d76576040517f08c379a0000000000000000000000000000000000000000000000000000000008152600401610d6d906133d8565b60405180910390fd5b836007600085815260200190815260200160002060070160006101000a81548173ffffffffffffffffffffffffffffffffffffffff021916908373ffffffffffffffffffffffffffffffffffffffff1602179055508373ffffffffffffffffffffffffffffffffffffffff163373ffffffffffffffffffffffffffffffffffffffff167fa4384cd8553d716f837cc7d68ed60529f9672b59cf96f1ce8bef3334183db34a42604051610e289190612cd7565b60405180910390a350505050565b600a818051602081018201805184825260208301602085012081835280955050505050506000915054906101000a900460ff1681565b600081600115156009600083815260200190815260200160002060009054906101000a900460ff16151514610ed6576040517f08c379a0000000000000000000000000000000000000000000000000000000008152600401610ecd9061310f565b60405180910390fd5b6007600084815260200190815260200160002060000154915050919050565b606081600115156009600083815260200190815260200160002060009054906101000a900460ff16151514610f5f576040517f08c379a0000000000000000000000000000000000000000000000000000000008152600401610f569061310f565b60405180910390fd5b600760008481526020019081526020016000206003018054610f809061315e565b80601f0160208091040260200160405190810160405280929190818152602001828054610fac9061315e565b8015610ff95780601f10610fce57610100808354040283529160200191610ff9565b820191906000526020600020905b815481529060010190602001808311610fdc57829003601f168201915b5050505050915050919050565b81600115156009600083815260200190815260200160002060009054906101000a900460ff1615151461106e576040517f08c379a00000000000000000000000000000000000000000000000000000000081526004016110659061310f565b60405180910390fd5b826007600082815260200190815260200160002060070160009054906101000a900473ffffffffffffffffffffffffffffffffffffffff1673ffffffffffffffffffffffffffffffffffffffff163373ffffffffffffffffffffffffffffffffffffffff1614611113576040517f08c379a000000000000000000000000000000000000000000000000000000000815260040161110a906132b4565b60405180910390fd5b60006007600086815260200190815260200160002090506000600681111561113e5761113d612836565b5b84600681111561115157611150612836565b5b14156111605761115f6133f8565b5b8060040160009054906101000a900460ff16600681111561118457611183612836565b5b84600681111561119757611196612836565b5b14156111a6576111a56133f8565b5b838160040160006101000a81548160ff021916908360068111156111cd576111cc612836565b5b02179055508360068111156111e5576111e4612836565b5b3373ffffffffffffffffffffffffffffffffffffffff167ff5b844f9650efd8a638976417da0e54ababae9d5ae6ec7dbc97124f00d5a5c5e4260405161122b9190612cd7565b60405180910390a35050505050565b6112426124e1565b73ffffffffffffffffffffffffffffffffffffffff166112606112e2565b73ffffffffffffffffffffffffffffffffffffffff16146112b6576040517f08c379a00000000000000000000000000000000000000000000000000000000081526004016112ad906131dc565b60405180910390fd5b6112c060006124e9565b565b60096020528060005260406000206000915054906101000a900460ff1681565b60008060009054906101000a900473ffffffffffffffffffffffffffffffffffffffff16905090565b60035481565b60076020528060005260406000206000915090508060000154908060010154908060020154908060030180546113469061315e565b80601f01602080910402602001604051908101604052809291908181526020018280546113729061315e565b80156113bf5780601f10611394576101008083540402835291602001916113bf565b820191906000526020600020905b8154815290600101906020018083116113a257829003601f168201915b5050505050908060040160009054906101000a900460ff16908060050180546113e79061315e565b80601f01602080910402602001604051908101604052809291908181526020018280546114139061315e565b80156114605780601f1061143557610100808354040283529160200191611460565b820191906000526020600020905b81548152906001019060200180831161144357829003601f168201915b5050505050908060060180546114759061315e565b80601f01602080910402602001604051908101604052809291908181526020018280546114a19061315e565b80156114ee5780601f106114c3576101008083540402835291602001916114ee565b820191906000526020600020905b8154815290600101906020018083116114d157829003601f168201915b5050505050908060070160009054906101000a900473ffffffffffffffffffffffffffffffffffffffff16908060080180546115299061315e565b80601f01602080910402602001604051908101604052809291908181526020018280546115559061315e565b80156115a25780601f10611577576101008083540402835291602001916115a2565b820191906000526020600020905b81548152906001019060200180831161158557829003601f168201915b5050505050905089565b60025481565b60606006805480602002602001604051908101604052809291908181526020016000905b828210156119005783829060005260206000209060090201604051806101200160405290816000820154815260200160018201548152602001600282015481526020016003820180546116289061315e565b80601f01602080910402602001604051908101604052809291908181526020018280546116549061315e565b80156116a15780601f10611676576101008083540402835291602001916116a1565b820191906000526020600020905b81548152906001019060200180831161168457829003601f168201915b505050505081526020016004820160009054906101000a900460ff1660068111156116cf576116ce612836565b5b60068111156116e1576116e0612836565b5b81526020016005820180546116f59061315e565b80601f01602080910402602001604051908101604052809291908181526020018280546117219061315e565b801561176e5780601f106117435761010080835404028352916020019161176e565b820191906000526020600020905b81548152906001019060200180831161175157829003601f168201915b505050505081526020016006820180546117879061315e565b80601f01602080910402602001604051908101604052809291908181526020018280546117b39061315e565b80156118005780601f106117d557610100808354040283529160200191611800565b820191906000526020600020905b8154815290600101906020018083116117e357829003601f168201915b505050505081526020016007820160009054906101000a900473ffffffffffffffffffffffffffffffffffffffff1673ffffffffffffffffffffffffffffffffffffffff1673ffffffffffffffffffffffffffffffffffffffff16815260200160088201805461186f9061315e565b80601f016020809104026020016040519081016040528092919081815260200182805461189b9061315e565b80156118e85780601f106118bd576101008083540402835291602001916118e8565b820191906000526020600020905b8154815290600101906020018083116118cb57829003601f168201915b505050505081525050815260200190600101906115d6565b50505050905090565b6006818154811061191957600080fd5b906000526020600020906009020160009150905080600001549080600101549080600201549080600301805461194e9061315e565b80601f016020809104026020016040519081016040528092919081815260200182805461197a9061315e565b80156119c75780601f1061199c576101008083540402835291602001916119c7565b820191906000526020600020905b8154815290600101906020018083116119aa57829003601f168201915b5050505050908060040160009054906101000a900460ff16908060050180546119ef9061315e565b80601f0160208091040260200160405190810160405280929190818152602001828054611a1b9061315e565b8015611a685780601f10611a3d57610100808354040283529160200191611a68565b820191906000526020600020905b815481529060010190602001808311611a4b57829003601f168201915b505050505090806006018054611a7d9061315e565b80601f0160208091040260200160405190810160405280929190818152602001828054611aa99061315e565b8015611af65780601f10611acb57610100808354040283529160200191611af6565b820191906000526020600020905b815481529060010190602001808311611ad957829003601f168201915b5050505050908060070160009054906101000a900473ffffffffffffffffffffffffffffffffffffffff1690806008018054611b319061315e565b80601f0160208091040260200160405190810160405280929190818152602001828054611b5d9061315e565b8015611baa5780601f10611b7f57610100808354040283529160200191611baa565b820191906000526020600020905b815481529060010190602001808311611b8d57829003601f168201915b5050505050905089565b8360001515600a82604051611bc99190613463565b908152602001604051809103902060009054906101000a900460ff16151514611c27576040517f08c379a0000000000000000000000000000000000000000000000000000000008152600401611c1e906134c6565b60405180910390fd5b6000815111611c6b576040517f08c379a0000000000000000000000000000000000000000000000000000000008152600401611c6290613532565b60405180910390fd5b60026001541415611cb1576040517f08c379a0000000000000000000000000000000000000000000000000000000008152600401611ca89061359e565b60405180910390fd5b6002600181905550600073ffffffffffffffffffffffffffffffffffffffff163373ffffffffffffffffffffffffffffffffffffffff161415611cf357600080fd5b6003543414611d37576040517f08c379a0000000000000000000000000000000000000000000000000000000008152600401611d2e9061360a565b60405180910390fd5b6000861415611d7b576040517f08c379a0000000000000000000000000000000000000000000000000000000008152600401611d7290613676565b60405180910390fd5b6000845111611dbf576040517f08c379a0000000000000000000000000000000000000000000000000000000008152600401611db690613708565b60405180910390fd5b6000835111611e03576040517f08c379a0000000000000000000000000000000000000000000000000000000008152600401611dfa9061379a565b60405180910390fd5b611e0d60046125ad565b6000611e1960046125c3565b905060405180610120016040528082815260200188815260200142815260200187815260200160006006811115611e5357611e52612836565b5b81526020018681526020018581526020013373ffffffffffffffffffffffffffffffffffffffff16815260200184815250600760008381526020019081526020016000206000820151816000015560208201518160010155604082015181600201556060820151816003019080519060200190611ed19291906125e7565b5060808201518160040160006101000a81548160ff02191690836006811115611efd57611efc612836565b5b021790555060a0820151816005019080519060200190611f1e9291906125e7565b5060c0820151816006019080519060200190611f3b9291906125e7565b5060e08201518160070160006101000a81548173ffffffffffffffffffffffffffffffffffffffff021916908373ffffffffffffffffffffffffffffffffffffffff160217905550610100820151816008019080519060200190611fa09291906125e7565b50905050600660076000838152602001908152602001600020908060018154018082558091505060019003906000526020600020906009020160009091909190915060008201548160000155600182015481600101556002820154816002015560038201816003019080546120149061315e565b61201f92919061266d565b506004820160009054906101000a900460ff168160040160006101000a81548160ff0219169083600681111561205857612057612836565b5b021790555060058201816005019080546120719061315e565b61207c92919061266d565b5060068201816006019080546120919061315e565b61209c92919061266d565b506007820160009054906101000a900473ffffffffffffffffffffffffffffffffffffffff168160070160006101000a81548173ffffffffffffffffffffffffffffffffffffffff021916908373ffffffffffffffffffffffffffffffffffffffff16021790555060088201816008019080546121189061315e565b61212392919061266d565b50505060076000828152602001908152602001600020600860003373ffffffffffffffffffffffffffffffffffffffff1673ffffffffffffffffffffffffffffffffffffffff16815260200190815260200160002060008201548160000155600182015481600101556002820154816002015560038201816003019080546121aa9061315e565b6121b592919061266d565b506004820160009054906101000a900460ff168160040160006101000a81548160ff021916908360068111156121ee576121ed612836565b5b021790555060058201816005019080546122079061315e565b61221292919061266d565b5060068201816006019080546122279061315e565b61223292919061266d565b506007820160009054906101000a900473ffffffffffffffffffffffffffffffffffffffff168160070160006101000a81548173ffffffffffffffffffffffffffffffffffffffff021916908373ffffffffffffffffffffffffffffffffffffffff16021790555060088201816008019080546122ae9061315e565b6122b992919061266d565b509050506122d360016002546125d190919063ffffffff16565b60028190555060016009600083815260200190815260200160002060006101000a81548160ff0219169083151502179055506001600a876040516123179190613463565b908152602001604051809103902060006101000a81548160ff0219169083151502179055506123446112e2565b73ffffffffffffffffffffffffffffffffffffffff166108fc349081150290604051600060405180830381858888f19350505050158015612389573d6000803e3d6000fd5b50803373ffffffffffffffffffffffffffffffffffffffff167fc8103fc44f19a39b2be3834708c831e6292d5b110a99e06a1f9c1c5f24faf5dd426040516123d19190612cd7565b60405180910390a35060018081905550505050505050565b6123f16124e1565b73ffffffffffffffffffffffffffffffffffffffff1661240f6112e2565b73ffffffffffffffffffffffffffffffffffffffff1614612465576040517f08c379a000000000000000000000000000000000000000000000000000000000815260040161245c906131dc565b60405180910390fd5b600073ffffffffffffffffffffffffffffffffffffffff168173ffffffffffffffffffffffffffffffffffffffff1614156124d5576040517f08c379a00000000000000000000000000000000000000000000000000000000081526004016124cc9061382c565b60405180910390fd5b6124de816124e9565b50565b600033905090565b60008060009054906101000a900473ffffffffffffffffffffffffffffffffffffffff169050816000806101000a81548173ffffffffffffffffffffffffffffffffffffffff021916908373ffffffffffffffffffffffffffffffffffffffff1602179055508173ffffffffffffffffffffffffffffffffffffffff168173ffffffffffffffffffffffffffffffffffffffff167f8be0079c531659141344cd1fd0a4f28419497f9722a3daafe3b4186f6b6457e060405160405180910390a35050565b6001816000016000828254019250508190555050565b600081600001549050919050565b600081836125df919061387b565b905092915050565b8280546125f39061315e565b90600052602060002090601f016020900481019282612615576000855561265c565b82601f1061262e57805160ff191683800117855561265c565b8280016001018555821561265c579182015b8281111561265b578251825591602001919060010190612640565b5b50905061266991906126fa565b5090565b8280546126799061315e565b90600052602060002090601f01602090048101928261269b57600085556126e9565b82601f106126ac57805485556126e9565b828001600101855582156126e957600052602060002091601f016020900482015b828111156126e85782548255916001019190600101906126cd565b5b5090506126f691906126fa565b5090565b5b808211156127135760008160009055506001016126fb565b5090565b6000604051905090565b600080fd5b600080fd5b6000819050919050565b61273e8161272b565b811461274957600080fd5b50565b60008135905061275b81612735565b92915050565b60006020828403121561277757612776612721565b5b60006127858482850161274c565b91505092915050565b6127978161272b565b82525050565b600081519050919050565b600082825260208201905092915050565b60005b838110156127d75780820151818401526020810190506127bc565b838111156127e6576000848401525b50505050565b6000601f19601f8301169050919050565b60006128088261279d565b61281281856127a8565b93506128228185602086016127b9565b61282b816127ec565b840191505092915050565b7f4e487b7100000000000000000000000000000000000000000000000000000000600052602160045260246000fd5b6007811061287657612875612836565b5b50565b600081905061288782612865565b919050565b600061289782612879565b9050919050565b6128a78161288c565b82525050565b6000610100820190506128c3600083018b61278e565b6128d0602083018a61278e565b6128dd604083018961278e565b81810360608301526128ef81886127fd565b9050818103608083015261290381876127fd565b905081810360a083015261291781866127fd565b905061292660c083018561289e565b81810360e083015261293881846127fd565b90509998505050505050505050565b600060208201905061295c600083018461289e565b92915050565b600073ffffffffffffffffffffffffffffffffffffffff82169050919050565b600061298d82612962565b9050919050565b61299d81612982565b81146129a857600080fd5b50565b6000813590506129ba81612994565b92915050565b6000602082840312156129d6576129d5612721565b5b60006129e4848285016129ab565b91505092915050565b60006129f882612962565b9050919050565b612a08816129ed565b82525050565b600061012082019050612a24600083018c61278e565b612a31602083018b61278e565b612a3e604083018a61278e565b8181036060830152612a5081896127fd565b9050612a5f608083018861289e565b81810360a0830152612a7181876127fd565b905081810360c0830152612a8581866127fd565b9050612a9460e08301856129ff565b818103610100830152612aa781846127fd565b90509a9950505050505050505050565b612ac0816129ed565b8114612acb57600080fd5b50565b600081359050612add81612ab7565b92915050565b60008060408385031215612afa57612af9612721565b5b6000612b0885828601612ace565b9250506020612b198582860161274c565b9150509250929050565b600080fd5b600080fd5b7f4e487b7100000000000000000000000000000000000000000000000000000000600052604160045260246000fd5b612b65826127ec565b810181811067ffffffffffffffff82111715612b8457612b83612b2d565b5b80604052505050565b6000612b97612717565b9050612ba38282612b5c565b919050565b600067ffffffffffffffff821115612bc357612bc2612b2d565b5b612bcc826127ec565b9050602081019050919050565b82818337600083830152505050565b6000612bfb612bf684612ba8565b612b8d565b905082815260208101848484011115612c1757612c16612b28565b5b612c22848285612bd9565b509392505050565b600082601f830112612c3f57612c3e612b23565b5b8135612c4f848260208601612be8565b91505092915050565b600060208284031215612c6e57612c6d612721565b5b600082013567ffffffffffffffff811115612c8c57612c8b612726565b5b612c9884828501612c2a565b91505092915050565b60008115159050919050565b612cb681612ca1565b82525050565b6000602082019050612cd16000830184612cad565b92915050565b6000602082019050612cec600083018461278e565b92915050565b60006020820190508181036000830152612d0c81846127fd565b905092915050565b60078110612d2157600080fd5b50565b600081359050612d3381612d14565b92915050565b60008060408385031215612d5057612d4f612721565b5b6000612d5e8582860161274c565b9250506020612d6f85828601612d24565b9150509250929050565b612d8281612982565b82525050565b6000602082019050612d9d6000830184612d79565b92915050565b600081519050919050565b600082825260208201905092915050565b6000819050602082019050919050565b612dd88161272b565b82525050565b600082825260208201905092915050565b6000612dfa8261279d565b612e048185612dde565b9350612e148185602086016127b9565b612e1d816127ec565b840191505092915050565b612e318161288c565b82525050565b612e40816129ed565b82525050565b600061012083016000830151612e5f6000860182612dcf565b506020830151612e726020860182612dcf565b506040830151612e856040860182612dcf565b5060608301518482036060860152612e9d8282612def565b9150506080830151612eb26080860182612e28565b5060a083015184820360a0860152612eca8282612def565b91505060c083015184820360c0860152612ee48282612def565b91505060e0830151612ef960e0860182612e37565b50610100830151848203610100860152612f138282612def565b9150508091505092915050565b6000612f2c8383612e46565b905092915050565b6000602082019050919050565b6000612f4c82612da3565b612f568185612dae565b935083602082028501612f6885612dbf565b8060005b85811015612fa45784840389528151612f858582612f20565b9450612f9083612f34565b925060208a01995050600181019050612f6c565b50829750879550505050505092915050565b60006020820190508181036000830152612fd08184612f41565b905092915050565b600080600080600060a08688031215612ff457612ff3612721565b5b60006130028882890161274c565b955050602086013567ffffffffffffffff81111561302357613022612726565b5b61302f88828901612c2a565b945050604086013567ffffffffffffffff8111156130505761304f612726565b5b61305c88828901612c2a565b935050606086013567ffffffffffffffff81111561307d5761307c612726565b5b61308988828901612c2a565b925050608086013567ffffffffffffffff8111156130aa576130a9612726565b5b6130b688828901612c2a565b9150509295509295909350565b7f486f74656c20446f6573204e6f74204578697374000000000000000000000000600082015250565b60006130f96014836127a8565b9150613104826130c3565b602082019050919050565b60006020820190508181036000830152613128816130ec565b9050919050565b7f4e487b7100000000000000000000000000000000000000000000000000000000600052602260045260246000fd5b6000600282049050600182168061317657607f821691505b6020821081141561318a5761318961312f565b5b50919050565b7f4f776e61626c653a2063616c6c6572206973206e6f7420746865206f776e6572600082015250565b60006131c66020836127a8565b91506131d182613190565b602082019050919050565b600060208201905081810360008301526131f5816131b9565b9050919050565b7f4c697374696e67204665652043616e6e6f74206265207a65726f000000000000600082015250565b6000613232601a836127a8565b915061323d826131fc565b602082019050919050565b6000602082019050818103600083015261326181613225565b9050919050565b7f596f7520446f204e6f74204f776e205468697320486f74656c204974656d0000600082015250565b600061329e601e836127a8565b91506132a982613268565b602082019050919050565b600060208201905081810360008301526132cd81613291565b9050919050565b7f596f75206172652074686520726967687466756c206f776e657220616c72656160008201527f6479000000000000000000000000000000000000000000000000000000000000602082015250565b60006133306022836127a8565b915061333b826132d4565b604082019050919050565b6000602082019050818103600083015261335f81613323565b9050919050565b7f506c65617365207370656369667920612076616c69642045544820616464726560008201527f7373000000000000000000000000000000000000000000000000000000000000602082015250565b60006133c26022836127a8565b91506133cd82613366565b604082019050919050565b600060208201905081810360008301526133f1816133b5565b9050919050565b7f4e487b7100000000000000000000000000000000000000000000000000000000600052600160045260246000fd5b600081905092915050565b600061343d8261279d565b6134478185613427565b93506134578185602086016127b9565b80840191505092915050565b600061346f8284613432565b915081905092915050565b7f486f74656c204e616d6520457869737473000000000000000000000000000000600082015250565b60006134b06011836127a8565b91506134bb8261347a565b602082019050919050565b600060208201905081810360008301526134df816134a3565b9050919050565b7f506c6561736520737065636966792074686520686f74656c206e616d65000000600082015250565b600061351c601d836127a8565b9150613527826134e6565b602082019050919050565b6000602082019050818103600083015261354b8161350f565b9050919050565b7f5265656e7472616e637947756172643a207265656e7472616e742063616c6c00600082015250565b6000613588601f836127a8565b915061359382613552565b602082019050919050565b600060208201905081810360008301526135b78161357b565b9050919050565b7f496e76616c6964204c697374696e672046656500000000000000000000000000600082015250565b60006135f46013836127a8565b91506135ff826135be565b602082019050919050565b60006020820190508181036000830152613623816135e7565b9050919050565b7f4e756d626572206f6620726f6f6d732063616e6e6f74206265207a65726f0000600082015250565b6000613660601e836127a8565b915061366b8261362a565b602082019050919050565b6000602082019050818103600083015261368f81613653565b9050919050565b7f506c6561736520737065636966792074686520686f74656c206465736372697060008201527f74696f6e00000000000000000000000000000000000000000000000000000000602082015250565b60006136f26024836127a8565b91506136fd82613696565b604082019050919050565b60006020820190508181036000830152613721816136e5565b9050919050565b7f506c65617365207370656369667920746865206c6f636174696f6e206f66207460008201527f686520686f74656c000000000000000000000000000000000000000000000000602082015250565b60006137846028836127a8565b915061378f82613728565b604082019050919050565b600060208201905081810360008301526137b381613777565b9050919050565b7f4f776e61626c653a206e6577206f776e657220697320746865207a65726f206160008201527f6464726573730000000000000000000000000000000000000000000000000000602082015250565b60006138166026836127a8565b9150613821826137ba565b604082019050919050565b6000602082019050818103600083015261384581613809565b9050919050565b7f4e487b7100000000000000000000000000000000000000000000000000000000600052601160045260246000fd5b60006138868261272b565b91506138918361272b565b9250827fffffffffffffffffffffffffffffffffffffffffffffffffffffffffffffffff038211156138c6576138c561384c565b5b82820190509291505056fea2646970667358221220d24b55203b16362470d943fb82b22bbd913166382f41caf990eff73015a10c4364736f6c634300080a0033",
  "immutableReferences": {},
  "source": "// SPDX-License-Identifier: MIT\npragma solidity ^0.8.0;\nimport '@openzeppelin/contracts/utils/math/SafeMath.sol';\nimport '@openzeppelin/contracts/security/ReentrancyGuard.sol';\nimport '@openzeppelin/contracts/access/Ownable.sol';\nimport '@openzeppelin/contracts/utils/Counters.sol';\nimport './HotelBookingInterface.sol';\n\n  /**\n   * @title Hotel Booking \n   * @dev A simple Smart Contract for hotel management\n   * @author Dickens Odera dickensodera9@gmail.com\n  **/\n\ncontract Hotel is Ownable, HotelBookingInterface, ReentrancyGuard {\n  using SafeMath for uint256;\n  using Counters for Counters.Counter;\n\n  uint public totalHotels = 0; //the total number of the hotels\n  uint public hotelListingFee = 0.00043 ether; //200 Ksh at the time of writing this smart contract\n  Counters.Counter private _hotelIds; //hotel id to be inrecemented when a new hotel is created\n\n  enum HOTEL_CATEGORY {CHAIN_HOTEL, MOTEL, RESORT, INN, ALL_SUITS, BOUTIGUE, EXTENDED_STAY} // hotel types\n  HOTEL_CATEGORY public hotelCategory;\n  HOTEL_CATEGORY constant DEFAULT_HOTEL_TYPE = HOTEL_CATEGORY.CHAIN_HOTEL; //default hotel type as it is the most common around the world\n\n  //Group hotel data together in a Struct\n  struct HotelItem{\n    uint id;\n    uint totalRooms;\n    uint creationDate;\n    string name;\n    HOTEL_CATEGORY hotelCategory;\n    string description;\n    string locationAddress;\n    address payable user;\n    string imageHash;\n  }\n\n  HotelItem[] public hotelItems; //hotels array of the Hotel struct above\n\n  mapping(uint => HotelItem) public hotelItemId;\n  mapping(address => HotelItem) public hotelOwner; //the owner of this hotel\n  mapping(uint => bool) public existingHotelItemId;\n  mapping(string => bool) public existingHotelItemName;\n\n  //events\n  event HotelCreated(uint date, address indexed causer, uint indexed id);\n  event HotelCategoryChanged(address indexed causer, uint date, HOTEL_CATEGORY indexed newCategory);\n  event HotelOwnerChanged(address indexed causer, address indexed newOwner, uint date);\n  event HotelListingFeeChanged(address indexed user, uint indexed date,uint indexed fee);\n\n  constructor() public {\n\n  }\n\n  //ensure that the hotel exists in the blockchain before performing related transactions\n  modifier hotelExists(uint _hotelId){\n      require(existingHotelItemId[_hotelId] == true,\"Hotel Does Not Exist\");\n      _;\n  }\n\n  //to avoid duplicate hotel names in the contract\n  modifier hotelNameExists(string memory _name){\n     require(existingHotelItemName[_name] == false,\"Hotel Name Exists\");\n     require(bytes(_name).length > 0,\"Please specify the hotel name\");\n     _;\n  }\n\n  //ensure the transactionsender owns this hotel before the transaction\n  modifier ownsHotel(uint _hotelId){\n      require(msg.sender == hotelItemId[_hotelId].user,\"You Do Not Own This Hotel Item\");\n      _;\n  }\n\n  //check that this user address has hotel before adding a room\n  modifier hasListedHotel(uint _hotelId){\n      bool isListed = false;\n        if(msg.sender == hotelItemId[_hotelId].user){\n            isListed = true;\n        }\n      require(isListed == true,\"Please List A Hotel Before Adding A Room\");\n      _;\n  }\n\n  function setListingFee(uint _fee) public onlyOwner{\n    require(_fee != 0,\"Listing Fee Cannot be zero\");\n    hotelListingFee = _fee;\n    emit HotelListingFeeChanged(msg.sender,block.timestamp, _fee);\n  }\n\n  function addHotel(uint _numOfRooms, string memory _name,string memory _description, string memory _location, string memory _imageHash) public hotelNameExists(_name) nonReentrant payable{\n    require(msg.sender != address(0));\n    require(msg.value == hotelListingFee,\"Invalid Listing Fee\");\n    require(_numOfRooms != 0,\"Number of rooms cannot be zero\");\n    require(bytes(_description).length > 0,\"Please specify the hotel description\");\n    require(bytes(_location).length > 0,\"Please specify the location of the hotel\");\n    _hotelIds.increment();\n    uint currentHotelId = _hotelIds.current();\n    hotelItemId[currentHotelId] = HotelItem(currentHotelId, _numOfRooms, block.timestamp, _name, DEFAULT_HOTEL_TYPE,_description, _location, payable(msg.sender), _imageHash);\n    hotelItems.push(hotelItemId[currentHotelId]);\n    hotelOwner[msg.sender] = hotelItemId[currentHotelId];\n    totalHotels = totalHotels.add(1);\n    existingHotelItemId[currentHotelId] = true;\n    existingHotelItemName[_name] = true;\n    payable(owner()).transfer(msg.value);\n    emit HotelCreated(block.timestamp, msg.sender, currentHotelId);\n  }\n\n  function listAllHotels() public view returns(HotelItem[] memory){\n      return hotelItems;\n  }\n\n  function getHotelBioData(uint _hotelId) public view hotelExists(_hotelId) returns(\n      uint _id,\n      uint _totalRooms,\n      uint _date,\n      string memory _name,\n      string memory _description,\n      string memory _location,\n      HOTEL_CATEGORY _category,\n      string memory _photo\n      ){\n    HotelItem storage hotelItem = hotelItemId[_hotelId];\n    _id = hotelItem.id;\n    _totalRooms = hotelItem.totalRooms;\n    _date = hotelItem.creationDate;\n    _name = hotelItem.name;\n    _description = hotelItem.description;\n    _location = hotelItem.locationAddress;\n    _category = hotelItem.hotelCategory;\n    _photo  = hotelItem.imageHash;\n  }\n\n  function changeHotelCategory(uint _hotelId, HOTEL_CATEGORY _category) public hotelExists(_hotelId) ownsHotel(_hotelId) {\n     HotelItem storage hotelItem = hotelItemId[_hotelId];\n     assert(_category != DEFAULT_HOTEL_TYPE);\n     assert(_category != hotelItem.hotelCategory);\n     hotelItem.hotelCategory = _category;\n     emit HotelCategoryChanged(msg.sender, block.timestamp, _category);\n  }\n\n  function getName(uint _hotelId) external virtual view override hotelExists(_hotelId) returns(string memory){\n      return hotelItemId[_hotelId].name;\n  }\n\n  function getId(uint _hotelId) external virtual view override hotelExists(_hotelId) returns(uint){\n      return hotelItemId[_hotelId].id;\n  }\n\n  function changeHotelOwner(address payable _newOwner, uint _hotelId) public hotelExists(_hotelId) ownsHotel(_hotelId){\n      require(msg.sender != _newOwner,\"You are the rightful owner already\");\n      require(_newOwner != address(0),\"Please specify a valid ETH address\");\n      hotelItemId[_hotelId].user = _newOwner;\n      emit HotelOwnerChanged(msg.sender, _newOwner, block.timestamp);\n  }\n}\n",
  "sourcePath": "D:/Dickens/Programming/Blockchain/Projects/Personal/HotelDapp/contracts/Hotel.sol",
  "compiler": {
    "name": "solc",
    "version": "0.8.10+commit.fc410830.Emscripten.clang"
  },
  "schemaVersion": "3.4.1",
  "updatedAt": "2021-11-20T18:58:16.934Z",
  "networkType": "ethereum",
  "devdoc": {
    "author": "Dickens Odera dickensodera9@gmail.com*",
    "details": "A simple Smart Contract for hotel management",
    "kind": "dev",
    "methods": {
      "owner()": {
        "details": "Returns the address of the current owner."
      },
      "renounceOwnership()": {
        "details": "Leaves the contract without owner. It will not be possible to call `onlyOwner` functions anymore. Can only be called by the current owner. NOTE: Renouncing ownership will leave the contract without an owner, thereby removing any functionality that is only available to the owner."
      },
      "transferOwnership(address)": {
        "details": "Transfers ownership of the contract to a new account (`newOwner`). Can only be called by the current owner."
      }
    },
    "title": "Hotel Booking ",
    "version": 1
  },
  "userdoc": {
    "kind": "user",
    "methods": {},
    "version": 1
  }
}