{
  "contractName": "Hotel",
  "abi": [
    {
      "inputs": [],
      "stateMutability": "nonpayable",
      "type": "constructor"
    },
    {
      "anonymous": false,
      "inputs": [
        {
          "indexed": true,
          "internalType": "address",
          "name": "causer",
          "type": "address"
        },
        {
          "indexed": false,
          "internalType": "uint256",
          "name": "date",
          "type": "uint256"
        },
        {
          "indexed": true,
          "internalType": "enum Hotel.HOTEL_CATEGORY",
          "name": "newCategory",
          "type": "uint8"
        }
      ],
      "name": "HotelCategoryChanged",
      "type": "event"
    },
    {
      "anonymous": false,
      "inputs": [
        {
          "indexed": false,
          "internalType": "uint256",
          "name": "date",
          "type": "uint256"
        },
        {
          "indexed": true,
          "internalType": "address",
          "name": "causer",
          "type": "address"
        },
        {
          "indexed": true,
          "internalType": "uint256",
          "name": "id",
          "type": "uint256"
        }
      ],
      "name": "HotelCreated",
      "type": "event"
    },
    {
      "anonymous": false,
      "inputs": [
        {
          "indexed": true,
          "internalType": "address",
          "name": "user",
          "type": "address"
        },
        {
          "indexed": true,
          "internalType": "uint256",
          "name": "date",
          "type": "uint256"
        },
        {
          "indexed": true,
          "internalType": "uint256",
          "name": "fee",
          "type": "uint256"
        }
      ],
      "name": "HotelListingFeeChanged",
      "type": "event"
    },
    {
      "anonymous": false,
      "inputs": [
        {
          "indexed": true,
          "internalType": "address",
          "name": "causer",
          "type": "address"
        },
        {
          "indexed": true,
          "internalType": "address",
          "name": "newOwner",
          "type": "address"
        },
        {
          "indexed": false,
          "internalType": "uint256",
          "name": "date",
          "type": "uint256"
        }
      ],
      "name": "HotelOwnerChanged",
      "type": "event"
    },
    {
      "anonymous": false,
      "inputs": [
        {
          "indexed": true,
          "internalType": "address",
          "name": "previousOwner",
          "type": "address"
        },
        {
          "indexed": true,
          "internalType": "address",
          "name": "newOwner",
          "type": "address"
        }
      ],
      "name": "OwnershipTransferred",
      "type": "event"
    },
    {
      "inputs": [
        {
          "internalType": "uint256",
          "name": "",
          "type": "uint256"
        }
      ],
      "name": "existingHotelItemId",
      "outputs": [
        {
          "internalType": "bool",
          "name": "",
          "type": "bool"
        }
      ],
      "stateMutability": "view",
      "type": "function",
      "constant": true
    },
    {
      "inputs": [
        {
          "internalType": "string",
          "name": "",
          "type": "string"
        }
      ],
      "name": "existingHotelItemName",
      "outputs": [
        {
          "internalType": "bool",
          "name": "",
          "type": "bool"
        }
      ],
      "stateMutability": "view",
      "type": "function",
      "constant": true
    },
    {
      "inputs": [],
      "name": "hotelCategory",
      "outputs": [
        {
          "internalType": "enum Hotel.HOTEL_CATEGORY",
          "name": "",
          "type": "uint8"
        }
      ],
      "stateMutability": "view",
      "type": "function",
      "constant": true
    },
    {
      "inputs": [
        {
          "internalType": "uint256",
          "name": "",
          "type": "uint256"
        }
      ],
      "name": "hotelItemId",
      "outputs": [
        {
          "internalType": "uint256",
          "name": "id",
          "type": "uint256"
        },
        {
          "internalType": "uint256",
          "name": "totalRooms",
          "type": "uint256"
        },
        {
          "internalType": "uint256",
          "name": "creationDate",
          "type": "uint256"
        },
        {
          "internalType": "string",
          "name": "name",
          "type": "string"
        },
        {
          "internalType": "enum Hotel.HOTEL_CATEGORY",
          "name": "hotelCategory",
          "type": "uint8"
        },
        {
          "internalType": "string",
          "name": "description",
          "type": "string"
        },
        {
          "internalType": "string",
          "name": "locationAddress",
          "type": "string"
        },
        {
          "internalType": "address payable",
          "name": "user",
          "type": "address"
        },
        {
          "internalType": "string",
          "name": "imageHash",
          "type": "string"
        }
      ],
      "stateMutability": "view",
      "type": "function",
      "constant": true
    },
    {
      "inputs": [
        {
          "internalType": "uint256",
          "name": "",
          "type": "uint256"
        }
      ],
      "name": "hotelItems",
      "outputs": [
        {
          "internalType": "uint256",
          "name": "id",
          "type": "uint256"
        },
        {
          "internalType": "uint256",
          "name": "totalRooms",
          "type": "uint256"
        },
        {
          "internalType": "uint256",
          "name": "creationDate",
          "type": "uint256"
        },
        {
          "internalType": "string",
          "name": "name",
          "type": "string"
        },
        {
          "internalType": "enum Hotel.HOTEL_CATEGORY",
          "name": "hotelCategory",
          "type": "uint8"
        },
        {
          "internalType": "string",
          "name": "description",
          "type": "string"
        },
        {
          "internalType": "string",
          "name": "locationAddress",
          "type": "string"
        },
        {
          "internalType": "address payable",
          "name": "user",
          "type": "address"
        },
        {
          "internalType": "string",
          "name": "imageHash",
          "type": "string"
        }
      ],
      "stateMutability": "view",
      "type": "function",
      "constant": true
    },
    {
      "inputs": [],
      "name": "hotelListingFee",
      "outputs": [
        {
          "internalType": "uint256",
          "name": "",
          "type": "uint256"
        }
      ],
      "stateMutability": "view",
      "type": "function",
      "constant": true
    },
    {
      "inputs": [
        {
          "internalType": "address",
          "name": "",
          "type": "address"
        }
      ],
      "name": "hotelOwner",
      "outputs": [
        {
          "internalType": "uint256",
          "name": "id",
          "type": "uint256"
        },
        {
          "internalType": "uint256",
          "name": "totalRooms",
          "type": "uint256"
        },
        {
          "internalType": "uint256",
          "name": "creationDate",
          "type": "uint256"
        },
        {
          "internalType": "string",
          "name": "name",
          "type": "string"
        },
        {
          "internalType": "enum Hotel.HOTEL_CATEGORY",
          "name": "hotelCategory",
          "type": "uint8"
        },
        {
          "internalType": "string",
          "name": "description",
          "type": "string"
        },
        {
          "internalType": "string",
          "name": "locationAddress",
          "type": "string"
        },
        {
          "internalType": "address payable",
          "name": "user",
          "type": "address"
        },
        {
          "internalType": "string",
          "name": "imageHash",
          "type": "string"
        }
      ],
      "stateMutability": "view",
      "type": "function",
      "constant": true
    },
    {
      "inputs": [],
      "name": "owner",
      "outputs": [
        {
          "internalType": "address",
          "name": "",
          "type": "address"
        }
      ],
      "stateMutability": "view",
      "type": "function",
      "constant": true
    },
    {
      "inputs": [],
      "name": "renounceOwnership",
      "outputs": [],
      "stateMutability": "nonpayable",
      "type": "function"
    },
    {
      "inputs": [],
      "name": "totalHotels",
      "outputs": [
        {
          "internalType": "uint256",
          "name": "",
          "type": "uint256"
        }
      ],
      "stateMutability": "view",
      "type": "function",
      "constant": true
    },
    {
      "inputs": [
        {
          "internalType": "address",
          "name": "newOwner",
          "type": "address"
        }
      ],
      "name": "transferOwnership",
      "outputs": [],
      "stateMutability": "nonpayable",
      "type": "function"
    },
    {
      "inputs": [
        {
          "internalType": "uint256",
          "name": "_fee",
          "type": "uint256"
        }
      ],
      "name": "setListingFee",
      "outputs": [],
      "stateMutability": "nonpayable",
      "type": "function"
    },
    {
      "inputs": [
        {
          "internalType": "uint256",
          "name": "hotelId",
          "type": "uint256"
        },
        {
          "internalType": "string",
          "name": "imageHash",
          "type": "string"
        }
      ],
      "name": "setImageHash",
      "outputs": [],
      "stateMutability": "nonpayable",
      "type": "function"
    },
    {
      "inputs": [
        {
          "internalType": "uint256",
          "name": "hotelId",
          "type": "uint256"
        }
      ],
      "name": "getImageHash",
      "outputs": [
        {
          "internalType": "string",
          "name": "_imageHash",
          "type": "string"
        }
      ],
      "stateMutability": "view",
      "type": "function",
      "constant": true
    },
    {
      "inputs": [
        {
          "internalType": "string",
          "name": "_name",
          "type": "string"
        },
        {
          "internalType": "string",
          "name": "_description",
          "type": "string"
        },
        {
          "internalType": "string",
          "name": "_location",
          "type": "string"
        },
        {
          "internalType": "string",
          "name": "_imageHash",
          "type": "string"
        }
      ],
      "name": "addHotel",
      "outputs": [],
      "stateMutability": "payable",
      "type": "function",
      "payable": true
    },
    {
      "inputs": [],
      "name": "listAllHotels",
      "outputs": [
        {
          "components": [
            {
              "internalType": "uint256",
              "name": "id",
              "type": "uint256"
            },
            {
              "internalType": "uint256",
              "name": "totalRooms",
              "type": "uint256"
            },
            {
              "internalType": "uint256",
              "name": "creationDate",
              "type": "uint256"
            },
            {
              "internalType": "string",
              "name": "name",
              "type": "string"
            },
            {
              "internalType": "enum Hotel.HOTEL_CATEGORY",
              "name": "hotelCategory",
              "type": "uint8"
            },
            {
              "internalType": "string",
              "name": "description",
              "type": "string"
            },
            {
              "internalType": "string",
              "name": "locationAddress",
              "type": "string"
            },
            {
              "internalType": "address payable",
              "name": "user",
              "type": "address"
            },
            {
              "internalType": "string",
              "name": "imageHash",
              "type": "string"
            }
          ],
          "internalType": "struct Hotel.HotelItem[]",
          "name": "",
          "type": "tuple[]"
        }
      ],
      "stateMutability": "view",
      "type": "function",
      "constant": true
    },
    {
      "inputs": [
        {
          "internalType": "uint256",
          "name": "_hotelId",
          "type": "uint256"
        }
      ],
      "name": "getHotelBioData",
      "outputs": [
        {
          "internalType": "uint256",
          "name": "_id",
          "type": "uint256"
        },
        {
          "internalType": "uint256",
          "name": "_totalRooms",
          "type": "uint256"
        },
        {
          "internalType": "uint256",
          "name": "_date",
          "type": "uint256"
        },
        {
          "internalType": "string",
          "name": "_name",
          "type": "string"
        },
        {
          "internalType": "string",
          "name": "_description",
          "type": "string"
        },
        {
          "internalType": "string",
          "name": "_location",
          "type": "string"
        },
        {
          "internalType": "enum Hotel.HOTEL_CATEGORY",
          "name": "_category",
          "type": "uint8"
        },
        {
          "internalType": "string",
          "name": "_photo",
          "type": "string"
        }
      ],
      "stateMutability": "view",
      "type": "function",
      "constant": true
    },
    {
      "inputs": [
        {
          "internalType": "uint256",
          "name": "_hotelId",
          "type": "uint256"
        },
        {
          "internalType": "enum Hotel.HOTEL_CATEGORY",
          "name": "_category",
          "type": "uint8"
        }
      ],
      "name": "changeHotelCategory",
      "outputs": [],
      "stateMutability": "nonpayable",
      "type": "function"
    },
    {
      "inputs": [
        {
          "internalType": "uint256",
          "name": "_hotelId",
          "type": "uint256"
        }
      ],
      "name": "getName",
      "outputs": [
        {
          "internalType": "string",
          "name": "",
          "type": "string"
        }
      ],
      "stateMutability": "view",
      "type": "function",
      "constant": true
    },
    {
      "inputs": [
        {
          "internalType": "uint256",
          "name": "_hotelId",
          "type": "uint256"
        }
      ],
      "name": "getId",
      "outputs": [
        {
          "internalType": "uint256",
          "name": "",
          "type": "uint256"
        }
      ],
      "stateMutability": "view",
      "type": "function",
      "constant": true
    },
    {
      "inputs": [
        {
          "internalType": "address payable",
          "name": "_newOwner",
          "type": "address"
        },
        {
          "internalType": "uint256",
          "name": "_hotelId",
          "type": "uint256"
        }
      ],
      "name": "changeHotelOwner",
      "outputs": [],
      "stateMutability": "nonpayable",
      "type": "function"
    }
  ],
  "bytecode": "0x60806040526000600255660187152d40e00060035534801561002057600080fd5b5061002a33610033565b60018055610083565b600080546001600160a01b038381166001600160a01b0319831681178455604051919092169283917f8be0079c531659141344cd1fd0a4f28419497f9722a3daafe3b4186f6b6457e09190a35050565b612325806100926000396000f3fe60806040526004361061012a5760003560e01c8063715018a6116100ab5780639e3edce91161006f5780639e3edce914610393578063bbc02ce2146103b3578063c210c532146103c9578063c89e4963146103eb578063f2fde38b1461040b578063fd5fddd81461042b57600080fd5b8063715018a6146102f057806374dbda05146103055780638da5cb5b1461033557806391aa84891461035d5780639524a38e1461037357600080fd5b80634dce717e116100f25780634dce717e1461020a578063545a153a1461025557806362834462146102835780636b8ff574146102b057806370f3bfd8146102d057600080fd5b80630af272f71461012f5780630fa0200d1461016c578063131dbd09146101935780633716236e146101b5578063387329f9146101ea575b600080fd5b34801561013b57600080fd5b5061014f61014a366004611ca8565b61043e565b604051610163989796959493929190611d55565b60405180910390f35b34801561017857600080fd5b506005546101869060ff1681565b6040516101639190611dd3565b34801561019f57600080fd5b506101b36101ae366004611ca8565b610705565b005b3480156101c157600080fd5b506101d56101d0366004611df6565b6107b3565b60405161016399989796959493929190611e1a565b3480156101f657600080fd5b506101b3610205366004611ea9565b610a34565b34801561021657600080fd5b50610245610225366004611f78565b8051602081830181018051600a8252928201919093012091525460ff1681565b6040519015158152602001610163565b34801561026157600080fd5b50610275610270366004611ca8565b610c03565b604051908152602001610163565b34801561028f57600080fd5b506102a361029e366004611ca8565b610c50565b6040516101639190611fb5565b3480156102bc57600080fd5b506102a36102cb366004611ca8565b610d27565b3480156102dc57600080fd5b506101b36102eb366004611fc8565b610e01565b3480156102fc57600080fd5b506101b3610f7e565b34801561031157600080fd5b50610245610320366004611ca8565b60096020526000908152604090205460ff1681565b34801561034157600080fd5b506000546040516001600160a01b039091168152602001610163565b34801561036957600080fd5b5061027560035481565b34801561037f57600080fd5b506101d561038e366004611ca8565b610fb4565b34801561039f57600080fd5b506101b36103ae366004611ffc565b610fe4565b3480156103bf57600080fd5b5061027560025481565b3480156103d557600080fd5b506103de611041565b6040516101639190612043565b3480156103f757600080fd5b506101d5610406366004611ca8565b611351565b34801561041757600080fd5b506101b3610426366004611df6565b611396565b6101b3610439366004612152565b611431565b600081815260096020526040812054819081906060908190819084908290899060ff16151560011461048b5760405162461bcd60e51b8152600401610482906121ff565b60405180910390fd5b60008a8152600760205260409020805460018201546002830154600384018054939d50919b509950906104bd9061222d565b80601f01602080910402602001604051908101604052809291908181526020018280546104e99061222d565b80156105365780601f1061050b57610100808354040283529160200191610536565b820191906000526020600020905b81548152906001019060200180831161051957829003601f168201915b5050505050965080600501805461054c9061222d565b80601f01602080910402602001604051908101604052809291908181526020018280546105789061222d565b80156105c55780601f1061059a576101008083540402835291602001916105c5565b820191906000526020600020905b8154815290600101906020018083116105a857829003601f168201915b505050505095508060060180546105db9061222d565b80601f01602080910402602001604051908101604052809291908181526020018280546106079061222d565b80156106545780601f1061062957610100808354040283529160200191610654565b820191906000526020600020905b81548152906001019060200180831161063757829003601f168201915b50505050600483015460088401805493985060ff909116965091610678915061222d565b80601f01602080910402602001604051908101604052809291908181526020018280546106a49061222d565b80156106f15780601f106106c6576101008083540402835291602001916106f1565b820191906000526020600020905b8154815290600101906020018083116106d457829003601f168201915b505050505092505050919395975091939597565b6000546001600160a01b0316331461072f5760405162461bcd60e51b815260040161048290612262565b8061077c5760405162461bcd60e51b815260206004820152601a60248201527f4c697374696e67204665652043616e6e6f74206265207a65726f0000000000006044820152606401610482565b60038190556040518190429033907fd86cac97cd3caa153b72db918dc0feb1ed9683dfd389c345d07f7d00390b63b790600090a450565b6008602052600090815260409020805460018201546002830154600384018054939492939192916107e39061222d565b80601f016020809104026020016040519081016040528092919081815260200182805461080f9061222d565b801561085c5780601f106108315761010080835404028352916020019161085c565b820191906000526020600020905b81548152906001019060200180831161083f57829003601f168201915b5050506004840154600585018054949560ff9092169491935091506108809061222d565b80601f01602080910402602001604051908101604052809291908181526020018280546108ac9061222d565b80156108f95780601f106108ce576101008083540402835291602001916108f9565b820191906000526020600020905b8154815290600101906020018083116108dc57829003601f168201915b50505050509080600601805461090e9061222d565b80601f016020809104026020016040519081016040528092919081815260200182805461093a9061222d565b80156109875780601f1061095c57610100808354040283529160200191610987565b820191906000526020600020905b81548152906001019060200180831161096a57829003601f168201915b505050600784015460088501805494956001600160a01b039092169491935091506109b19061222d565b80601f01602080910402602001604051908101604052809291908181526020018280546109dd9061222d565b8015610a2a5780601f106109ff57610100808354040283529160200191610a2a565b820191906000526020600020905b815481529060010190602001808311610a0d57829003601f168201915b5050505050905089565b600081815260096020526040902054819060ff161515600114610a695760405162461bcd60e51b8152600401610482906121ff565b6000828152600760208190526040909120015482906001600160a01b03163314610ad55760405162461bcd60e51b815260206004820152601e60248201527f596f7520446f204e6f74204f776e205468697320486f74656c204974656d00006044820152606401610482565b336001600160a01b0385161415610b395760405162461bcd60e51b815260206004820152602260248201527f596f75206172652074686520726967687466756c206f776e657220616c726561604482015261647960f01b6064820152608401610482565b6001600160a01b038416610b9a5760405162461bcd60e51b815260206004820152602260248201527f506c65617365207370656369667920612076616c696420455448206164647265604482015261737360f01b6064820152608401610482565b60008381526007602081815260409283902090910180546001600160a01b0319166001600160a01b038816908117909155915142815233917fa4384cd8553d716f837cc7d68ed60529f9672b59cf96f1ce8bef3334183db34a910160405180910390a350505050565b600081815260096020526040812054829060ff161515600114610c385760405162461bcd60e51b8152600401610482906121ff565b60008381526007602052604090205491505b50919050565b60008181526009602052604090205460609060ff161515600114610c865760405162461bcd60e51b8152600401610482906121ff565b60008281526007602052604090206008018054610ca29061222d565b80601f0160208091040260200160405190810160405280929190818152602001828054610cce9061222d565b8015610d1b5780601f10610cf057610100808354040283529160200191610d1b565b820191906000526020600020905b815481529060010190602001808311610cfe57829003601f168201915b50505050509050919050565b600081815260096020526040902054606090829060ff161515600114610d5f5760405162461bcd60e51b8152600401610482906121ff565b60008381526007602052604090206003018054610d7b9061222d565b80601f0160208091040260200160405190810160405280929190818152602001828054610da79061222d565b8015610df45780601f10610dc957610100808354040283529160200191610df4565b820191906000526020600020905b815481529060010190602001808311610dd757829003601f168201915b5050505050915050919050565b600082815260096020526040902054829060ff161515600114610e365760405162461bcd60e51b8152600401610482906121ff565b6000838152600760208190526040909120015483906001600160a01b03163314610ea25760405162461bcd60e51b815260206004820152601e60248201527f596f7520446f204e6f74204f776e205468697320486f74656c204974656d00006044820152606401610482565b600084815260076020526040812090846006811115610ec357610ec3611d1d565b1415610ed157610ed1612297565b600481015460ff166006811115610eea57610eea611d1d565b846006811115610efc57610efc611d1d565b1415610f0a57610f0a612297565b60048101805485919060ff19166001836006811115610f2b57610f2b611d1d565b0217905550836006811115610f4257610f42611d1d565b60405142815233907ff5b844f9650efd8a638976417da0e54ababae9d5ae6ec7dbc97124f00d5a5c5e9060200160405180910390a35050505050565b6000546001600160a01b03163314610fa85760405162461bcd60e51b815260040161048290612262565b610fb26000611b2f565b565b6007602052600090815260409020805460018201546002830154600384018054939492939192916107e39061222d565b60008281526009602052604090205460ff1615156001146110175760405162461bcd60e51b8152600401610482906121ff565b6000828152600760209081526040909120825161103c92600890920191840190611b94565b505050565b60606006805480602002602001604051908101604052809291908181526020016000905b828210156113485783829060005260206000209060090201604051806101200160405290816000820154815260200160018201548152602001600282015481526020016003820180546110b79061222d565b80601f01602080910402602001604051908101604052809291908181526020018280546110e39061222d565b80156111305780601f1061110557610100808354040283529160200191611130565b820191906000526020600020905b81548152906001019060200180831161111357829003601f168201915b5050509183525050600482015460209091019060ff16600681111561115757611157611d1d565b600681111561116857611168611d1d565b815260200160058201805461117c9061222d565b80601f01602080910402602001604051908101604052809291908181526020018280546111a89061222d565b80156111f55780601f106111ca576101008083540402835291602001916111f5565b820191906000526020600020905b8154815290600101906020018083116111d857829003601f168201915b5050505050815260200160068201805461120e9061222d565b80601f016020809104026020016040519081016040528092919081815260200182805461123a9061222d565b80156112875780601f1061125c57610100808354040283529160200191611287565b820191906000526020600020905b81548152906001019060200180831161126a57829003601f168201915b505050918352505060078201546001600160a01b031660208201526008820180546040909201916112b79061222d565b80601f01602080910402602001604051908101604052809291908181526020018280546112e39061222d565b80156113305780601f1061130557610100808354040283529160200191611330565b820191906000526020600020905b81548152906001019060200180831161131357829003601f168201915b50505050508152505081526020019060010190611065565b50505050905090565b6006818154811061136157600080fd5b90600052602060002090600902016000915090508060000154908060010154908060020154908060030180546107e39061222d565b6000546001600160a01b031633146113c05760405162461bcd60e51b815260040161048290612262565b6001600160a01b0381166114255760405162461bcd60e51b815260206004820152602660248201527f4f776e61626c653a206e6577206f776e657220697320746865207a65726f206160448201526564647265737360d01b6064820152608401610482565b61142e81611b2f565b50565b83600a8160405161144291906122ad565b9081526040519081900360200190205460ff16156114965760405162461bcd60e51b8152602060048201526011602482015270486f74656c204e616d652045786973747360781b6044820152606401610482565b60008151116114e75760405162461bcd60e51b815260206004820152601d60248201527f506c6561736520737065636966792074686520686f74656c206e616d650000006044820152606401610482565b6002600154141561153a5760405162461bcd60e51b815260206004820152601f60248201527f5265656e7472616e637947756172643a207265656e7472616e742063616c6c006044820152606401610482565b60026001553361154957600080fd5b60035434146115905760405162461bcd60e51b8152602060048201526013602482015272496e76616c6964204c697374696e672046656560681b6044820152606401610482565b60008451116115ed5760405162461bcd60e51b8152602060048201526024808201527f506c6561736520737065636966792074686520686f74656c20646573637269706044820152633a34b7b760e11b6064820152608401610482565b600083511161164f5760405162461bcd60e51b815260206004820152602860248201527f506c65617365207370656369667920746865206c6f636174696f6e206f6620746044820152671a19481a1bdd195b60c21b6064820152608401610482565b61165d600480546001019055565b600061166860045490565b905060405180610120016040528082815260200160008152602001428152602001878152602001600060068111156116a2576116a2611d1d565b815260208082018890526040808301889052336060808501919091526080909301879052600085815260078352819020845181558483015160018201559084015160028201559183015180516116fe9260038501920190611b94565b50608082015160048201805460ff1916600183600681111561172257611722611d1d565b021790555060a08201518051611742916005840191602090910190611b94565b5060c0820151805161175e916006840191602090910190611b94565b5060e08201516007820180546001600160a01b0319166001600160a01b0390921691909117905561010082015180516117a1916008840191602090910190611b94565b5050506000818152600760205260408120600680546001818101835591909352815460099093027ff652222313e28459528d920b65115c16c04f3efc82aaedc97be59f3f377c0d3f8101938455908201547ff652222313e28459528d920b65115c16c04f3efc82aaedc97be59f3f377c0d4082015560028201547ff652222313e28459528d920b65115c16c04f3efc82aaedc97be59f3f377c0d418201556003820180549293927ff652222313e28459528d920b65115c16c04f3efc82aaedc97be59f3f377c0d42909201916118769061222d565b611881929190611c18565b50600482810154908201805460ff9092169160ff191660018360068111156118ab576118ab611d1d565b021790555060058201816005019080546118c49061222d565b6118cf929190611c18565b5060068201816006019080546118e49061222d565b6118ef929190611c18565b5060078281015490820180546001600160a01b0319166001600160a01b03909216919091179055600880830180549183019161192a9061222d565b611935929190611c18565b5050506000818152600760209081526040808320338452600890925290912081548155600180830154908201556002808301549082015560038083018054918301916119809061222d565b61198b929190611c18565b50600482810154908201805460ff9092169160ff191660018360068111156119b5576119b5611d1d565b021790555060058201816005019080546119ce9061222d565b6119d9929190611c18565b5060068201816006019080546119ee9061222d565b6119f9929190611c18565b5060078281015490820180546001600160a01b0319166001600160a01b039092169190911790556008808301805491830191611a349061222d565b611a3f929190611c18565b5050600254611a5091506001611b7f565b60025560008181526009602052604090819020805460ff191660019081179091559051600a90611a819089906122ad565b908152604051908190036020019020805491151560ff19909216919091179055611ab36000546001600160a01b031690565b6001600160a01b03166108fc349081150290604051600060405180830381858888f19350505050158015611aeb573d6000803e3d6000fd5b50604051428152819033907fc8103fc44f19a39b2be3834708c831e6292d5b110a99e06a1f9c1c5f24faf5dd9060200160405180910390a350506001805550505050565b600080546001600160a01b038381166001600160a01b0319831681178455604051919092169283917f8be0079c531659141344cd1fd0a4f28419497f9722a3daafe3b4186f6b6457e09190a35050565b6000611b8b82846122c9565b90505b92915050565b828054611ba09061222d565b90600052602060002090601f016020900481019282611bc25760008555611c08565b82601f10611bdb57805160ff1916838001178555611c08565b82800160010185558215611c08579182015b82811115611c08578251825591602001919060010190611bed565b50611c14929150611c93565b5090565b828054611c249061222d565b90600052602060002090601f016020900481019282611c465760008555611c08565b82601f10611c575780548555611c08565b82800160010185558215611c0857600052602060002091601f016020900482015b82811115611c08578254825591600101919060010190611c78565b5b80821115611c145760008155600101611c94565b600060208284031215611cba57600080fd5b5035919050565b60005b83811015611cdc578181015183820152602001611cc4565b83811115611ceb576000848401525b50505050565b60008151808452611d09816020860160208601611cc1565b601f01601f19169290920160200192915050565b634e487b7160e01b600052602160045260246000fd5b60078110611d5157634e487b7160e01b600052602160045260246000fd5b9052565b60006101008a8352896020840152886040840152806060840152611d7b81840189611cf1565b90508281036080840152611d8f8188611cf1565b905082810360a0840152611da38187611cf1565b9050611db260c0840186611d33565b82810360e0840152611dc48185611cf1565b9b9a5050505050505050505050565b60208101611b8e8284611d33565b6001600160a01b038116811461142e57600080fd5b600060208284031215611e0857600080fd5b8135611e1381611de1565b9392505050565b60006101208b83528a6020840152896040840152806060840152611e408184018a611cf1565b9050611e4f6080840189611d33565b82810360a0840152611e618188611cf1565b905082810360c0840152611e758187611cf1565b6001600160a01b03861660e08501528381036101008501529050611e998185611cf1565b9c9b505050505050505050505050565b60008060408385031215611ebc57600080fd5b8235611ec781611de1565b946020939093013593505050565b634e487b7160e01b600052604160045260246000fd5b600082601f830112611efc57600080fd5b813567ffffffffffffffff80821115611f1757611f17611ed5565b604051601f8301601f19908116603f01168101908282118183101715611f3f57611f3f611ed5565b81604052838152866020858801011115611f5857600080fd5b836020870160208301376000602085830101528094505050505092915050565b600060208284031215611f8a57600080fd5b813567ffffffffffffffff811115611fa157600080fd5b611fad84828501611eeb565b949350505050565b602081526000611b8b6020830184611cf1565b60008060408385031215611fdb57600080fd5b82359150602083013560078110611ff157600080fd5b809150509250929050565b6000806040838503121561200f57600080fd5b82359150602083013567ffffffffffffffff81111561202d57600080fd5b61203985828601611eeb565b9150509250929050565b60006020808301818452808551808352604092508286019150828160051b87010184880160005b8381101561214457603f198984030185528151610120815185528882015189860152878201518886015260608083015182828801526120ab83880182611cf1565b925050506080808301516120c182880182611d33565b505060a080830151868303828801526120da8382611cf1565b9250505060c080830151868303828801526120f58382611cf1565b9250505060e080830151612113828801826001600160a01b03169052565b505061010080830151925085820381870152506121308183611cf1565b96890196945050509086019060010161206a565b509098975050505050505050565b6000806000806080858703121561216857600080fd5b843567ffffffffffffffff8082111561218057600080fd5b61218c88838901611eeb565b955060208701359150808211156121a257600080fd5b6121ae88838901611eeb565b945060408701359150808211156121c457600080fd5b6121d088838901611eeb565b935060608701359150808211156121e657600080fd5b506121f387828801611eeb565b91505092959194509250565b602080825260149082015273121bdd195b08111bd95cc8139bdd08115e1a5cdd60621b604082015260600190565b600181811c9082168061224157607f821691505b60208210811415610c4a57634e487b7160e01b600052602260045260246000fd5b6020808252818101527f4f776e61626c653a2063616c6c6572206973206e6f7420746865206f776e6572604082015260600190565b634e487b7160e01b600052600160045260246000fd5b600082516122bf818460208701611cc1565b9190910192915050565b600082198211156122ea57634e487b7160e01b600052601160045260246000fd5b50019056fea2646970667358221220c65afb089288ba04b3e6eab20e98977c9701fa62974cce27eed0e6a09e6f7cbd64736f6c634300080a0033",
  "immutableReferences": {},
  "source": "// SPDX-License-Identifier: MIT\npragma solidity ^0.8.0;\nimport '@openzeppelin/contracts/utils/math/SafeMath.sol';\nimport '@openzeppelin/contracts/security/ReentrancyGuard.sol';\nimport '@openzeppelin/contracts/access/Ownable.sol';\nimport '@openzeppelin/contracts/utils/Counters.sol';\nimport './HotelBookingInterface.sol';\n\n  /**\n   * @title Hotel Booking \n   * @dev A simple Smart Contract for hotel management\n   * @author Dickens Odera dickensodera9@gmail.com\n  **/\n\ncontract Hotel is Ownable, HotelBookingInterface, ReentrancyGuard {\n  using SafeMath for uint256;\n  using Counters for Counters.Counter;\n\n  uint public totalHotels = 0; //the total number of the hotels\n  uint public hotelListingFee = 0.00043 ether; //200 Ksh at the time of writing this smart contract\n  Counters.Counter private _hotelIds; //hotel id to be inrecemented when a new hotel is created\n\n  enum HOTEL_CATEGORY {CHAIN_HOTEL, MOTEL, RESORT, INN, ALL_SUITS, BOUTIGUE, EXTENDED_STAY} // hotel types\n  HOTEL_CATEGORY public hotelCategory;\n  HOTEL_CATEGORY constant DEFAULT_HOTEL_TYPE = HOTEL_CATEGORY.CHAIN_HOTEL; //default hotel type as it is the most common around the world\n\n  //Group hotel data together in a Struct\n  struct HotelItem{\n    uint id;\n    uint totalRooms;\n    uint creationDate;\n    string name;\n    HOTEL_CATEGORY hotelCategory;\n    string description;\n    string locationAddress;\n    address payable user;\n    string imageHash;\n  }\n\n  HotelItem[] public hotelItems; //hotels array of the Hotel struct above\n\n  mapping(uint => HotelItem) public hotelItemId;\n  mapping(address => HotelItem) public hotelOwner; //the owner of this hotel\n  mapping(uint => bool) public existingHotelItemId;\n  mapping(string => bool) public existingHotelItemName;\n\n  //events\n  event HotelCreated(uint date, address indexed causer, uint indexed id);\n  event HotelCategoryChanged(address indexed causer, uint date, HOTEL_CATEGORY indexed newCategory);\n  event HotelOwnerChanged(address indexed causer, address indexed newOwner, uint date);\n  event HotelListingFeeChanged(address indexed user, uint indexed date,uint indexed fee);\n\n  constructor() public {\n\n  }\n\n  //ensure that the hotel exists in the blockchain before performing related transactions\n  modifier hotelExists(uint _hotelId){\n      require(existingHotelItemId[_hotelId] == true,\"Hotel Does Not Exist\");\n      _;\n  }\n\n  //to avoid duplicate hotel names in the contract\n  modifier hotelNameExists(string memory _name){\n     require(existingHotelItemName[_name] == false,\"Hotel Name Exists\");\n     require(bytes(_name).length > 0,\"Please specify the hotel name\");\n     _;\n  }\n\n  //ensure the transactionsender owns this hotel before the transaction\n  modifier ownsHotel(uint _hotelId){\n      require(msg.sender == hotelItemId[_hotelId].user,\"You Do Not Own This Hotel Item\");\n      _;\n  }\n\n  //check that this user address has hotel before adding a room\n  modifier hasListedHotel(uint _hotelId){\n      bool isListed = false;\n        if(msg.sender == hotelItemId[_hotelId].user){\n            isListed = true;\n        }\n      require(isListed == true,\"Please List A Hotel Before Adding A Room\");\n      _;\n  }\n\n  function setListingFee(uint _fee) public onlyOwner{\n    require(_fee != 0,\"Listing Fee Cannot be zero\");\n    hotelListingFee = _fee;\n    emit HotelListingFeeChanged(msg.sender,block.timestamp, _fee);\n  }\n\n  function setImageHash(uint hotelId, string memory imageHash) public{\n    require(existingHotelItemId[hotelId] == true,\"Hotel Does Not Exist\");\n    hotelItemId[hotelId].imageHash = imageHash;\n  }\n\n  function getImageHash(uint hotelId) public view returns(string memory _imageHash){\n    require(existingHotelItemId[hotelId] == true,\"Hotel Does Not Exist\");\n    return hotelItemId[hotelId].imageHash;\n  }\n\n  function addHotel(string memory _name,string memory _description, string memory _location, string memory _imageHash) public hotelNameExists(_name) nonReentrant payable{\n    require(msg.sender != address(0));\n    require(msg.value == hotelListingFee,\"Invalid Listing Fee\");\n    require(bytes(_description).length > 0,\"Please specify the hotel description\");\n    require(bytes(_location).length > 0,\"Please specify the location of the hotel\");\n    _hotelIds.increment();\n    uint currentHotelId = _hotelIds.current();\n    hotelItemId[currentHotelId] = HotelItem(currentHotelId,0, block.timestamp, _name, DEFAULT_HOTEL_TYPE,_description, _location, payable(msg.sender), _imageHash);\n    hotelItems.push(hotelItemId[currentHotelId]);\n    hotelOwner[msg.sender] = hotelItemId[currentHotelId];\n    totalHotels = totalHotels.add(1);\n    existingHotelItemId[currentHotelId] = true;\n    existingHotelItemName[_name] = true;\n    payable(owner()).transfer(msg.value);\n    emit HotelCreated(block.timestamp, msg.sender, currentHotelId);\n  }\n\n  function listAllHotels() public view returns(HotelItem[] memory){\n      return hotelItems;\n  }\n\n  function getHotelBioData(uint _hotelId) public view hotelExists(_hotelId) returns(\n      uint _id,\n      uint _totalRooms,\n      uint _date,\n      string memory _name,\n      string memory _description,\n      string memory _location,\n      HOTEL_CATEGORY _category,\n      string memory _photo\n      ){\n    HotelItem storage hotelItem = hotelItemId[_hotelId];\n    _id = hotelItem.id;\n    _totalRooms = hotelItem.totalRooms;\n    _date = hotelItem.creationDate;\n    _name = hotelItem.name;\n    _description = hotelItem.description;\n    _location = hotelItem.locationAddress;\n    _category = hotelItem.hotelCategory;\n    _photo  = hotelItem.imageHash;\n  }\n\n  function changeHotelCategory(uint _hotelId, HOTEL_CATEGORY _category) public hotelExists(_hotelId) ownsHotel(_hotelId) {\n     HotelItem storage hotelItem = hotelItemId[_hotelId];\n     assert(_category != DEFAULT_HOTEL_TYPE);\n     assert(_category != hotelItem.hotelCategory);\n     hotelItem.hotelCategory = _category;\n     emit HotelCategoryChanged(msg.sender, block.timestamp, _category);\n  }\n\n  function getName(uint _hotelId) external virtual view override hotelExists(_hotelId) returns(string memory){\n      return hotelItemId[_hotelId].name;\n  }\n\n  function getId(uint _hotelId) external virtual view override hotelExists(_hotelId) returns(uint){\n      return hotelItemId[_hotelId].id;\n  }\n\n  function changeHotelOwner(address payable _newOwner, uint _hotelId) public hotelExists(_hotelId) ownsHotel(_hotelId){\n      require(msg.sender != _newOwner,\"You are the rightful owner already\");\n      require(_newOwner != address(0),\"Please specify a valid ETH address\");\n      hotelItemId[_hotelId].user = _newOwner;\n      emit HotelOwnerChanged(msg.sender, _newOwner, block.timestamp);\n  }\n}\n",
  "sourcePath": "D:/Dickens/Programming/Blockchain/Projects/Personal/HotelDapp/contracts/Hotel.sol",
  "compiler": {
    "name": "solc",
    "version": "0.8.10+commit.fc410830.Emscripten.clang"
  },
  "schemaVersion": "3.4.1",
  "updatedAt": "2021-12-03T04:24:51.300Z",
  "networkType": "ethereum",
  "devdoc": {
    "author": "Dickens Odera dickensodera9@gmail.com*",
    "details": "A simple Smart Contract for hotel management",
    "kind": "dev",
    "methods": {
      "owner()": {
        "details": "Returns the address of the current owner."
      },
      "renounceOwnership()": {
        "details": "Leaves the contract without owner. It will not be possible to call `onlyOwner` functions anymore. Can only be called by the current owner. NOTE: Renouncing ownership will leave the contract without an owner, thereby removing any functionality that is only available to the owner."
      },
      "transferOwnership(address)": {
        "details": "Transfers ownership of the contract to a new account (`newOwner`). Can only be called by the current owner."
      }
    },
    "title": "Hotel Booking ",
    "version": 1
  },
  "userdoc": {
    "kind": "user",
    "methods": {},
    "version": 1
  }
}