{
  "contractName": "Hotel",
  "abi": [
    {
      "inputs": [],
      "stateMutability": "nonpayable",
      "type": "constructor"
    },
    {
      "anonymous": false,
      "inputs": [
        {
          "indexed": true,
          "internalType": "address",
          "name": "causer",
          "type": "address"
        },
        {
          "indexed": false,
          "internalType": "uint256",
          "name": "date",
          "type": "uint256"
        },
        {
          "indexed": true,
          "internalType": "enum Hotel.HOTEL_CATEGORY",
          "name": "newCategory",
          "type": "uint8"
        }
      ],
      "name": "HotelCategoryChanged",
      "type": "event"
    },
    {
      "anonymous": false,
      "inputs": [
        {
          "indexed": false,
          "internalType": "uint256",
          "name": "date",
          "type": "uint256"
        },
        {
          "indexed": true,
          "internalType": "address",
          "name": "causer",
          "type": "address"
        },
        {
          "indexed": true,
          "internalType": "uint256",
          "name": "id",
          "type": "uint256"
        }
      ],
      "name": "HotelCreated",
      "type": "event"
    },
    {
      "anonymous": false,
      "inputs": [
        {
          "indexed": true,
          "internalType": "address",
          "name": "user",
          "type": "address"
        },
        {
          "indexed": true,
          "internalType": "uint256",
          "name": "date",
          "type": "uint256"
        },
        {
          "indexed": true,
          "internalType": "uint256",
          "name": "fee",
          "type": "uint256"
        }
      ],
      "name": "HotelListingFeeChanged",
      "type": "event"
    },
    {
      "anonymous": false,
      "inputs": [
        {
          "indexed": true,
          "internalType": "address",
          "name": "causer",
          "type": "address"
        },
        {
          "indexed": true,
          "internalType": "address",
          "name": "newOwner",
          "type": "address"
        },
        {
          "indexed": false,
          "internalType": "uint256",
          "name": "date",
          "type": "uint256"
        }
      ],
      "name": "HotelOwnerChanged",
      "type": "event"
    },
    {
      "anonymous": false,
      "inputs": [
        {
          "indexed": true,
          "internalType": "address",
          "name": "previousOwner",
          "type": "address"
        },
        {
          "indexed": true,
          "internalType": "address",
          "name": "newOwner",
          "type": "address"
        }
      ],
      "name": "OwnershipTransferred",
      "type": "event"
    },
    {
      "inputs": [
        {
          "internalType": "uint256",
          "name": "",
          "type": "uint256"
        }
      ],
      "name": "existingHotelItemId",
      "outputs": [
        {
          "internalType": "bool",
          "name": "",
          "type": "bool"
        }
      ],
      "stateMutability": "view",
      "type": "function",
      "constant": true
    },
    {
      "inputs": [
        {
          "internalType": "string",
          "name": "",
          "type": "string"
        }
      ],
      "name": "existingHotelItemName",
      "outputs": [
        {
          "internalType": "bool",
          "name": "",
          "type": "bool"
        }
      ],
      "stateMutability": "view",
      "type": "function",
      "constant": true
    },
    {
      "inputs": [],
      "name": "hotelCategory",
      "outputs": [
        {
          "internalType": "enum Hotel.HOTEL_CATEGORY",
          "name": "",
          "type": "uint8"
        }
      ],
      "stateMutability": "view",
      "type": "function",
      "constant": true
    },
    {
      "inputs": [
        {
          "internalType": "uint256",
          "name": "",
          "type": "uint256"
        }
      ],
      "name": "hotelItemId",
      "outputs": [
        {
          "internalType": "uint256",
          "name": "id",
          "type": "uint256"
        },
        {
          "internalType": "uint256",
          "name": "totalRooms",
          "type": "uint256"
        },
        {
          "internalType": "uint256",
          "name": "creationDate",
          "type": "uint256"
        },
        {
          "internalType": "string",
          "name": "name",
          "type": "string"
        },
        {
          "internalType": "enum Hotel.HOTEL_CATEGORY",
          "name": "hotelCategory",
          "type": "uint8"
        },
        {
          "internalType": "string",
          "name": "description",
          "type": "string"
        },
        {
          "internalType": "string",
          "name": "locationAddress",
          "type": "string"
        },
        {
          "internalType": "address payable",
          "name": "user",
          "type": "address"
        },
        {
          "internalType": "string",
          "name": "imageHash",
          "type": "string"
        }
      ],
      "stateMutability": "view",
      "type": "function",
      "constant": true
    },
    {
      "inputs": [
        {
          "internalType": "uint256",
          "name": "",
          "type": "uint256"
        }
      ],
      "name": "hotelItems",
      "outputs": [
        {
          "internalType": "uint256",
          "name": "id",
          "type": "uint256"
        },
        {
          "internalType": "uint256",
          "name": "totalRooms",
          "type": "uint256"
        },
        {
          "internalType": "uint256",
          "name": "creationDate",
          "type": "uint256"
        },
        {
          "internalType": "string",
          "name": "name",
          "type": "string"
        },
        {
          "internalType": "enum Hotel.HOTEL_CATEGORY",
          "name": "hotelCategory",
          "type": "uint8"
        },
        {
          "internalType": "string",
          "name": "description",
          "type": "string"
        },
        {
          "internalType": "string",
          "name": "locationAddress",
          "type": "string"
        },
        {
          "internalType": "address payable",
          "name": "user",
          "type": "address"
        },
        {
          "internalType": "string",
          "name": "imageHash",
          "type": "string"
        }
      ],
      "stateMutability": "view",
      "type": "function",
      "constant": true
    },
    {
      "inputs": [],
      "name": "hotelListingFee",
      "outputs": [
        {
          "internalType": "uint256",
          "name": "",
          "type": "uint256"
        }
      ],
      "stateMutability": "view",
      "type": "function",
      "constant": true
    },
    {
      "inputs": [
        {
          "internalType": "address",
          "name": "",
          "type": "address"
        }
      ],
      "name": "hotelOwner",
      "outputs": [
        {
          "internalType": "uint256",
          "name": "id",
          "type": "uint256"
        },
        {
          "internalType": "uint256",
          "name": "totalRooms",
          "type": "uint256"
        },
        {
          "internalType": "uint256",
          "name": "creationDate",
          "type": "uint256"
        },
        {
          "internalType": "string",
          "name": "name",
          "type": "string"
        },
        {
          "internalType": "enum Hotel.HOTEL_CATEGORY",
          "name": "hotelCategory",
          "type": "uint8"
        },
        {
          "internalType": "string",
          "name": "description",
          "type": "string"
        },
        {
          "internalType": "string",
          "name": "locationAddress",
          "type": "string"
        },
        {
          "internalType": "address payable",
          "name": "user",
          "type": "address"
        },
        {
          "internalType": "string",
          "name": "imageHash",
          "type": "string"
        }
      ],
      "stateMutability": "view",
      "type": "function",
      "constant": true
    },
    {
      "inputs": [],
      "name": "owner",
      "outputs": [
        {
          "internalType": "address",
          "name": "",
          "type": "address"
        }
      ],
      "stateMutability": "view",
      "type": "function",
      "constant": true
    },
    {
      "inputs": [],
      "name": "renounceOwnership",
      "outputs": [],
      "stateMutability": "nonpayable",
      "type": "function"
    },
    {
      "inputs": [],
      "name": "totalHotels",
      "outputs": [
        {
          "internalType": "uint256",
          "name": "",
          "type": "uint256"
        }
      ],
      "stateMutability": "view",
      "type": "function",
      "constant": true
    },
    {
      "inputs": [
        {
          "internalType": "address",
          "name": "newOwner",
          "type": "address"
        }
      ],
      "name": "transferOwnership",
      "outputs": [],
      "stateMutability": "nonpayable",
      "type": "function"
    },
    {
      "inputs": [
        {
          "internalType": "uint256",
          "name": "_fee",
          "type": "uint256"
        }
      ],
      "name": "setListingFee",
      "outputs": [],
      "stateMutability": "nonpayable",
      "type": "function"
    },
    {
      "inputs": [
        {
          "internalType": "uint256",
          "name": "hotelId",
          "type": "uint256"
        },
        {
          "internalType": "string",
          "name": "imageHash",
          "type": "string"
        }
      ],
      "name": "setImageHash",
      "outputs": [],
      "stateMutability": "nonpayable",
      "type": "function"
    },
    {
      "inputs": [
        {
          "internalType": "uint256",
          "name": "hotelId",
          "type": "uint256"
        }
      ],
      "name": "getImageHash",
      "outputs": [
        {
          "internalType": "string",
          "name": "_imageHash",
          "type": "string"
        }
      ],
      "stateMutability": "view",
      "type": "function",
      "constant": true
    },
    {
      "inputs": [
        {
          "internalType": "string",
          "name": "_name",
          "type": "string"
        },
        {
          "internalType": "string",
          "name": "_description",
          "type": "string"
        },
        {
          "internalType": "string",
          "name": "_location",
          "type": "string"
        },
        {
          "internalType": "string",
          "name": "_imageHash",
          "type": "string"
        }
      ],
      "name": "addHotel",
      "outputs": [],
      "stateMutability": "payable",
      "type": "function",
      "payable": true
    },
    {
      "inputs": [],
      "name": "listAllHotels",
      "outputs": [
        {
          "components": [
            {
              "internalType": "uint256",
              "name": "id",
              "type": "uint256"
            },
            {
              "internalType": "uint256",
              "name": "totalRooms",
              "type": "uint256"
            },
            {
              "internalType": "uint256",
              "name": "creationDate",
              "type": "uint256"
            },
            {
              "internalType": "string",
              "name": "name",
              "type": "string"
            },
            {
              "internalType": "enum Hotel.HOTEL_CATEGORY",
              "name": "hotelCategory",
              "type": "uint8"
            },
            {
              "internalType": "string",
              "name": "description",
              "type": "string"
            },
            {
              "internalType": "string",
              "name": "locationAddress",
              "type": "string"
            },
            {
              "internalType": "address payable",
              "name": "user",
              "type": "address"
            },
            {
              "internalType": "string",
              "name": "imageHash",
              "type": "string"
            }
          ],
          "internalType": "struct Hotel.HotelItem[]",
          "name": "",
          "type": "tuple[]"
        }
      ],
      "stateMutability": "view",
      "type": "function",
      "constant": true
    },
    {
      "inputs": [
        {
          "internalType": "uint256",
          "name": "_hotelId",
          "type": "uint256"
        }
      ],
      "name": "getHotelBioData",
      "outputs": [
        {
          "internalType": "uint256",
          "name": "_id",
          "type": "uint256"
        },
        {
          "internalType": "uint256",
          "name": "_totalRooms",
          "type": "uint256"
        },
        {
          "internalType": "uint256",
          "name": "_date",
          "type": "uint256"
        },
        {
          "internalType": "string",
          "name": "_name",
          "type": "string"
        },
        {
          "internalType": "string",
          "name": "_description",
          "type": "string"
        },
        {
          "internalType": "string",
          "name": "_location",
          "type": "string"
        },
        {
          "internalType": "enum Hotel.HOTEL_CATEGORY",
          "name": "_category",
          "type": "uint8"
        },
        {
          "internalType": "string",
          "name": "_photo",
          "type": "string"
        }
      ],
      "stateMutability": "view",
      "type": "function",
      "constant": true
    },
    {
      "inputs": [
        {
          "internalType": "uint256",
          "name": "_hotelId",
          "type": "uint256"
        },
        {
          "internalType": "enum Hotel.HOTEL_CATEGORY",
          "name": "_category",
          "type": "uint8"
        }
      ],
      "name": "changeHotelCategory",
      "outputs": [],
      "stateMutability": "nonpayable",
      "type": "function"
    },
    {
      "inputs": [
        {
          "internalType": "uint256",
          "name": "_hotelId",
          "type": "uint256"
        }
      ],
      "name": "getName",
      "outputs": [
        {
          "internalType": "string",
          "name": "",
          "type": "string"
        }
      ],
      "stateMutability": "view",
      "type": "function",
      "constant": true
    },
    {
      "inputs": [
        {
          "internalType": "uint256",
          "name": "_hotelId",
          "type": "uint256"
        }
      ],
      "name": "getId",
      "outputs": [
        {
          "internalType": "uint256",
          "name": "",
          "type": "uint256"
        }
      ],
      "stateMutability": "view",
      "type": "function",
      "constant": true
    },
    {
      "inputs": [
        {
          "internalType": "address payable",
          "name": "_newOwner",
          "type": "address"
        },
        {
          "internalType": "uint256",
          "name": "_hotelId",
          "type": "uint256"
        }
      ],
      "name": "changeHotelOwner",
      "outputs": [],
      "stateMutability": "nonpayable",
      "type": "function"
    }
  ],
  "bytecode": "0x60806040526000600255660187152d40e0006003553480156200002157600080fd5b5062000042620000366200004f60201b60201c565b6200005760201b60201c565b600180819055506200011b565b600033905090565b60008060009054906101000a900473ffffffffffffffffffffffffffffffffffffffff169050816000806101000a81548173ffffffffffffffffffffffffffffffffffffffff021916908373ffffffffffffffffffffffffffffffffffffffff1602179055508173ffffffffffffffffffffffffffffffffffffffff168173ffffffffffffffffffffffffffffffffffffffff167f8be0079c531659141344cd1fd0a4f28419497f9722a3daafe3b4186f6b6457e060405160405180910390a35050565b613ac0806200012b6000396000f3fe60806040526004361061012a5760003560e01c8063715018a6116100ab5780639e3edce91161006f5780639e3edce914610441578063bbc02ce21461046a578063c210c53214610495578063c89e4963146104c0578063f2fde38b14610505578063fd5fddd81461052e5761012a565b8063715018a61461035257806374dbda05146103695780638da5cb5b146103a657806391aa8489146103d15780639524a38e146103fc5761012a565b80634dce717e116100f25780634dce717e14610235578063545a153a1461027257806362834462146102af5780636b8ff574146102ec57806370f3bfd8146103295761012a565b80630af272f71461012f5780630fa0200d14610173578063131dbd091461019e5780633716236e146101c7578063387329f91461020c575b600080fd5b34801561013b57600080fd5b506101566004803603810190610151919061293e565b61054a565b60405161016a989796959493929190612a8a565b60405180910390f35b34801561017f57600080fd5b50610188610849565b6040516101959190612b24565b60405180910390f35b3480156101aa57600080fd5b506101c560048036038101906101c0919061293e565b61085c565b005b3480156101d357600080fd5b506101ee60048036038101906101e99190612b9d565b61096b565b60405161020399989796959493929190612beb565b60405180910390f35b34801561021857600080fd5b50610233600480360381019061022e9190612cc0565b610c06565b005b34801561024157600080fd5b5061025c60048036038101906102579190612e35565b610eb2565b6040516102699190612e99565b60405180910390f35b34801561027e57600080fd5b506102996004803603810190610294919061293e565b610ee8565b6040516102a69190612eb4565b60405180910390f35b3480156102bb57600080fd5b506102d660048036038101906102d1919061293e565b610f71565b6040516102e39190612ecf565b60405180910390f35b3480156102f857600080fd5b50610313600480360381019061030e919061293e565b611080565b6040516103209190612ecf565b60405180910390f35b34801561033557600080fd5b50610350600480360381019061034b9190612f16565b611191565b005b34801561035e57600080fd5b506103676113c5565b005b34801561037557600080fd5b50610390600480360381019061038b919061293e565b61144d565b60405161039d9190612e99565b60405180910390f35b3480156103b257600080fd5b506103bb61146d565b6040516103c89190612f65565b60405180910390f35b3480156103dd57600080fd5b506103e6611496565b6040516103f39190612eb4565b60405180910390f35b34801561040857600080fd5b50610423600480360381019061041e919061293e565b61149c565b60405161043899989796959493929190612beb565b60405180910390f35b34801561044d57600080fd5b5061046860048036038101906104639190612f80565b611737565b005b34801561047657600080fd5b5061047f6117cd565b60405161048c9190612eb4565b60405180910390f35b3480156104a157600080fd5b506104aa6117d3565b6040516104b791906131ef565b60405180910390f35b3480156104cc57600080fd5b506104e760048036038101906104e2919061293e565b611b2a565b6040516104fc99989796959493929190612beb565b60405180910390f35b34801561051157600080fd5b5061052c60048036038101906105279190612b9d565b611dd5565b005b61054860048036038101906105439190613211565b611ecd565b005b600080600060608060606000606088600115156009600083815260200190815260200160002060009054906101000a900460ff161515146105c0576040517f08c379a00000000000000000000000000000000000000000000000000000000081526004016105b790613334565b60405180910390fd5b6000600760008c815260200190815260200160002090508060000154995080600101549850806002015497508060030180546105fb90613383565b80601f016020809104026020016040519081016040528092919081815260200182805461062790613383565b80156106745780601f1061064957610100808354040283529160200191610674565b820191906000526020600020905b81548152906001019060200180831161065757829003601f168201915b5050505050965080600501805461068a90613383565b80601f01602080910402602001604051908101604052809291908181526020018280546106b690613383565b80156107035780601f106106d857610100808354040283529160200191610703565b820191906000526020600020905b8154815290600101906020018083116106e657829003601f168201915b5050505050955080600601805461071990613383565b80601f016020809104026020016040519081016040528092919081815260200182805461074590613383565b80156107925780601f1061076757610100808354040283529160200191610792565b820191906000526020600020905b81548152906001019060200180831161077557829003601f168201915b505050505094508060040160009054906101000a900460ff1693508060080180546107bc90613383565b80601f01602080910402602001604051908101604052809291908181526020018280546107e890613383565b80156108355780601f1061080a57610100808354040283529160200191610835565b820191906000526020600020905b81548152906001019060200180831161081857829003601f168201915b505050505092505050919395975091939597565b600560009054906101000a900460ff1681565b6108646126be565b73ffffffffffffffffffffffffffffffffffffffff1661088261146d565b73ffffffffffffffffffffffffffffffffffffffff16146108d8576040517f08c379a00000000000000000000000000000000000000000000000000000000081526004016108cf90613401565b60405180910390fd5b600081141561091c576040517f08c379a00000000000000000000000000000000000000000000000000000000081526004016109139061346d565b60405180910390fd5b8060038190555080423373ffffffffffffffffffffffffffffffffffffffff167fd86cac97cd3caa153b72db918dc0feb1ed9683dfd389c345d07f7d00390b63b760405160405180910390a450565b60086020528060005260406000206000915090508060000154908060010154908060020154908060030180546109a090613383565b80601f01602080910402602001604051908101604052809291908181526020018280546109cc90613383565b8015610a195780601f106109ee57610100808354040283529160200191610a19565b820191906000526020600020905b8154815290600101906020018083116109fc57829003601f168201915b5050505050908060040160009054906101000a900460ff1690806005018054610a4190613383565b80601f0160208091040260200160405190810160405280929190818152602001828054610a6d90613383565b8015610aba5780601f10610a8f57610100808354040283529160200191610aba565b820191906000526020600020905b815481529060010190602001808311610a9d57829003601f168201915b505050505090806006018054610acf90613383565b80601f0160208091040260200160405190810160405280929190818152602001828054610afb90613383565b8015610b485780601f10610b1d57610100808354040283529160200191610b48565b820191906000526020600020905b815481529060010190602001808311610b2b57829003601f168201915b5050505050908060070160009054906101000a900473ffffffffffffffffffffffffffffffffffffffff1690806008018054610b8390613383565b80601f0160208091040260200160405190810160405280929190818152602001828054610baf90613383565b8015610bfc5780601f10610bd157610100808354040283529160200191610bfc565b820191906000526020600020905b815481529060010190602001808311610bdf57829003601f168201915b5050505050905089565b80600115156009600083815260200190815260200160002060009054906101000a900460ff16151514610c6e576040517f08c379a0000000000000000000000000000000000000000000000000000000008152600401610c6590613334565b60405180910390fd5b816007600082815260200190815260200160002060070160009054906101000a900473ffffffffffffffffffffffffffffffffffffffff1673ffffffffffffffffffffffffffffffffffffffff163373ffffffffffffffffffffffffffffffffffffffff1614610d13576040517f08c379a0000000000000000000000000000000000000000000000000000000008152600401610d0a906134d9565b60405180910390fd5b8373ffffffffffffffffffffffffffffffffffffffff163373ffffffffffffffffffffffffffffffffffffffff161415610d82576040517f08c379a0000000000000000000000000000000000000000000000000000000008152600401610d799061356b565b60405180910390fd5b600073ffffffffffffffffffffffffffffffffffffffff168473ffffffffffffffffffffffffffffffffffffffff161415610df2576040517f08c379a0000000000000000000000000000000000000000000000000000000008152600401610de9906135fd565b60405180910390fd5b836007600085815260200190815260200160002060070160006101000a81548173ffffffffffffffffffffffffffffffffffffffff021916908373ffffffffffffffffffffffffffffffffffffffff1602179055508373ffffffffffffffffffffffffffffffffffffffff163373ffffffffffffffffffffffffffffffffffffffff167fa4384cd8553d716f837cc7d68ed60529f9672b59cf96f1ce8bef3334183db34a42604051610ea49190612eb4565b60405180910390a350505050565b600a818051602081018201805184825260208301602085012081835280955050505050506000915054906101000a900460ff1681565b600081600115156009600083815260200190815260200160002060009054906101000a900460ff16151514610f52576040517f08c379a0000000000000000000000000000000000000000000000000000000008152600401610f4990613334565b60405180910390fd5b6007600084815260200190815260200160002060000154915050919050565b6060600115156009600084815260200190815260200160002060009054906101000a900460ff16151514610fda576040517f08c379a0000000000000000000000000000000000000000000000000000000008152600401610fd190613334565b60405180910390fd5b600760008381526020019081526020016000206008018054610ffb90613383565b80601f016020809104026020016040519081016040528092919081815260200182805461102790613383565b80156110745780601f1061104957610100808354040283529160200191611074565b820191906000526020600020905b81548152906001019060200180831161105757829003601f168201915b50505050509050919050565b606081600115156009600083815260200190815260200160002060009054906101000a900460ff161515146110ea576040517f08c379a00000000000000000000000000000000000000000000000000000000081526004016110e190613334565b60405180910390fd5b60076000848152602001908152602001600020600301805461110b90613383565b80601f016020809104026020016040519081016040528092919081815260200182805461113790613383565b80156111845780601f1061115957610100808354040283529160200191611184565b820191906000526020600020905b81548152906001019060200180831161116757829003601f168201915b5050505050915050919050565b81600115156009600083815260200190815260200160002060009054906101000a900460ff161515146111f9576040517f08c379a00000000000000000000000000000000000000000000000000000000081526004016111f090613334565b60405180910390fd5b826007600082815260200190815260200160002060070160009054906101000a900473ffffffffffffffffffffffffffffffffffffffff1673ffffffffffffffffffffffffffffffffffffffff163373ffffffffffffffffffffffffffffffffffffffff161461129e576040517f08c379a0000000000000000000000000000000000000000000000000000000008152600401611295906134d9565b60405180910390fd5b6000600760008681526020019081526020016000209050600060068111156112c9576112c8612a13565b5b8460068111156112dc576112db612a13565b5b14156112eb576112ea61361d565b5b8060040160009054906101000a900460ff16600681111561130f5761130e612a13565b5b84600681111561132257611321612a13565b5b14156113315761133061361d565b5b838160040160006101000a81548160ff0219169083600681111561135857611357612a13565b5b02179055508360068111156113705761136f612a13565b5b3373ffffffffffffffffffffffffffffffffffffffff167ff5b844f9650efd8a638976417da0e54ababae9d5ae6ec7dbc97124f00d5a5c5e426040516113b69190612eb4565b60405180910390a35050505050565b6113cd6126be565b73ffffffffffffffffffffffffffffffffffffffff166113eb61146d565b73ffffffffffffffffffffffffffffffffffffffff1614611441576040517f08c379a000000000000000000000000000000000000000000000000000000000815260040161143890613401565b60405180910390fd5b61144b60006126c6565b565b60096020528060005260406000206000915054906101000a900460ff1681565b60008060009054906101000a900473ffffffffffffffffffffffffffffffffffffffff16905090565b60035481565b60076020528060005260406000206000915090508060000154908060010154908060020154908060030180546114d190613383565b80601f01602080910402602001604051908101604052809291908181526020018280546114fd90613383565b801561154a5780601f1061151f5761010080835404028352916020019161154a565b820191906000526020600020905b81548152906001019060200180831161152d57829003601f168201915b5050505050908060040160009054906101000a900460ff169080600501805461157290613383565b80601f016020809104026020016040519081016040528092919081815260200182805461159e90613383565b80156115eb5780601f106115c0576101008083540402835291602001916115eb565b820191906000526020600020905b8154815290600101906020018083116115ce57829003601f168201915b50505050509080600601805461160090613383565b80601f016020809104026020016040519081016040528092919081815260200182805461162c90613383565b80156116795780601f1061164e57610100808354040283529160200191611679565b820191906000526020600020905b81548152906001019060200180831161165c57829003601f168201915b5050505050908060070160009054906101000a900473ffffffffffffffffffffffffffffffffffffffff16908060080180546116b490613383565b80601f01602080910402602001604051908101604052809291908181526020018280546116e090613383565b801561172d5780601f106117025761010080835404028352916020019161172d565b820191906000526020600020905b81548152906001019060200180831161171057829003601f168201915b5050505050905089565b600115156009600084815260200190815260200160002060009054906101000a900460ff1615151461179e576040517f08c379a000000000000000000000000000000000000000000000000000000000815260040161179590613334565b60405180910390fd5b806007600084815260200190815260200160002060080190805190602001906117c89291906127c4565b505050565b60025481565b60606006805480602002602001604051908101604052809291908181526020016000905b82821015611b2157838290600052602060002090600902016040518061012001604052908160008201548152602001600182015481526020016002820154815260200160038201805461184990613383565b80601f016020809104026020016040519081016040528092919081815260200182805461187590613383565b80156118c25780601f10611897576101008083540402835291602001916118c2565b820191906000526020600020905b8154815290600101906020018083116118a557829003601f168201915b505050505081526020016004820160009054906101000a900460ff1660068111156118f0576118ef612a13565b5b600681111561190257611901612a13565b5b815260200160058201805461191690613383565b80601f016020809104026020016040519081016040528092919081815260200182805461194290613383565b801561198f5780601f106119645761010080835404028352916020019161198f565b820191906000526020600020905b81548152906001019060200180831161197257829003601f168201915b505050505081526020016006820180546119a890613383565b80601f01602080910402602001604051908101604052809291908181526020018280546119d490613383565b8015611a215780601f106119f657610100808354040283529160200191611a21565b820191906000526020600020905b815481529060010190602001808311611a0457829003601f168201915b505050505081526020016007820160009054906101000a900473ffffffffffffffffffffffffffffffffffffffff1673ffffffffffffffffffffffffffffffffffffffff1673ffffffffffffffffffffffffffffffffffffffff168152602001600882018054611a9090613383565b80601f0160208091040260200160405190810160405280929190818152602001828054611abc90613383565b8015611b095780601f10611ade57610100808354040283529160200191611b09565b820191906000526020600020905b815481529060010190602001808311611aec57829003601f168201915b505050505081525050815260200190600101906117f7565b50505050905090565b60068181548110611b3a57600080fd5b9060005260206000209060090201600091509050806000015490806001015490806002015490806003018054611b6f90613383565b80601f0160208091040260200160405190810160405280929190818152602001828054611b9b90613383565b8015611be85780601f10611bbd57610100808354040283529160200191611be8565b820191906000526020600020905b815481529060010190602001808311611bcb57829003601f168201915b5050505050908060040160009054906101000a900460ff1690806005018054611c1090613383565b80601f0160208091040260200160405190810160405280929190818152602001828054611c3c90613383565b8015611c895780601f10611c5e57610100808354040283529160200191611c89565b820191906000526020600020905b815481529060010190602001808311611c6c57829003601f168201915b505050505090806006018054611c9e90613383565b80601f0160208091040260200160405190810160405280929190818152602001828054611cca90613383565b8015611d175780601f10611cec57610100808354040283529160200191611d17565b820191906000526020600020905b815481529060010190602001808311611cfa57829003601f168201915b5050505050908060070160009054906101000a900473ffffffffffffffffffffffffffffffffffffffff1690806008018054611d5290613383565b80601f0160208091040260200160405190810160405280929190818152602001828054611d7e90613383565b8015611dcb5780601f10611da057610100808354040283529160200191611dcb565b820191906000526020600020905b815481529060010190602001808311611dae57829003601f168201915b5050505050905089565b611ddd6126be565b73ffffffffffffffffffffffffffffffffffffffff16611dfb61146d565b73ffffffffffffffffffffffffffffffffffffffff1614611e51576040517f08c379a0000000000000000000000000000000000000000000000000000000008152600401611e4890613401565b60405180910390fd5b600073ffffffffffffffffffffffffffffffffffffffff168173ffffffffffffffffffffffffffffffffffffffff161415611ec1576040517f08c379a0000000000000000000000000000000000000000000000000000000008152600401611eb8906136be565b60405180910390fd5b611eca816126c6565b50565b8360001515600a82604051611ee2919061371a565b908152602001604051809103902060009054906101000a900460ff16151514611f40576040517f08c379a0000000000000000000000000000000000000000000000000000000008152600401611f379061377d565b60405180910390fd5b6000815111611f84576040517f08c379a0000000000000000000000000000000000000000000000000000000008152600401611f7b906137e9565b60405180910390fd5b60026001541415611fca576040517f08c379a0000000000000000000000000000000000000000000000000000000008152600401611fc190613855565b60405180910390fd5b6002600181905550600073ffffffffffffffffffffffffffffffffffffffff163373ffffffffffffffffffffffffffffffffffffffff16141561200c57600080fd5b6003543414612050576040517f08c379a0000000000000000000000000000000000000000000000000000000008152600401612047906138c1565b60405180910390fd5b6000845111612094576040517f08c379a000000000000000000000000000000000000000000000000000000000815260040161208b90613953565b60405180910390fd5b60008351116120d8576040517f08c379a00000000000000000000000000000000000000000000000000000000081526004016120cf906139e5565b60405180910390fd5b6120e2600461278a565b60006120ee60046127a0565b9050604051806101200160405280828152602001600081526020014281526020018781526020016000600681111561212957612128612a13565b5b81526020018681526020018581526020013373ffffffffffffffffffffffffffffffffffffffff168152602001848152506007600083815260200190815260200160002060008201518160000155602082015181600101556040820151816002015560608201518160030190805190602001906121a79291906127c4565b5060808201518160040160006101000a81548160ff021916908360068111156121d3576121d2612a13565b5b021790555060a08201518160050190805190602001906121f49291906127c4565b5060c08201518160060190805190602001906122119291906127c4565b5060e08201518160070160006101000a81548173ffffffffffffffffffffffffffffffffffffffff021916908373ffffffffffffffffffffffffffffffffffffffff1602179055506101008201518160080190805190602001906122769291906127c4565b50905050600660076000838152602001908152602001600020908060018154018082558091505060019003906000526020600020906009020160009091909190915060008201548160000155600182015481600101556002820154816002015560038201816003019080546122ea90613383565b6122f592919061284a565b506004820160009054906101000a900460ff168160040160006101000a81548160ff0219169083600681111561232e5761232d612a13565b5b0217905550600582018160050190805461234790613383565b61235292919061284a565b50600682018160060190805461236790613383565b61237292919061284a565b506007820160009054906101000a900473ffffffffffffffffffffffffffffffffffffffff168160070160006101000a81548173ffffffffffffffffffffffffffffffffffffffff021916908373ffffffffffffffffffffffffffffffffffffffff16021790555060088201816008019080546123ee90613383565b6123f992919061284a565b50505060076000828152602001908152602001600020600860003373ffffffffffffffffffffffffffffffffffffffff1673ffffffffffffffffffffffffffffffffffffffff168152602001908152602001600020600082015481600001556001820154816001015560028201548160020155600382018160030190805461248090613383565b61248b92919061284a565b506004820160009054906101000a900460ff168160040160006101000a81548160ff021916908360068111156124c4576124c3612a13565b5b021790555060058201816005019080546124dd90613383565b6124e892919061284a565b5060068201816006019080546124fd90613383565b61250892919061284a565b506007820160009054906101000a900473ffffffffffffffffffffffffffffffffffffffff168160070160006101000a81548173ffffffffffffffffffffffffffffffffffffffff021916908373ffffffffffffffffffffffffffffffffffffffff160217905550600882018160080190805461258490613383565b61258f92919061284a565b509050506125a960016002546127ae90919063ffffffff16565b60028190555060016009600083815260200190815260200160002060006101000a81548160ff0219169083151502179055506001600a876040516125ed919061371a565b908152602001604051809103902060006101000a81548160ff02191690831515021790555061261a61146d565b73ffffffffffffffffffffffffffffffffffffffff166108fc349081150290604051600060405180830381858888f1935050505015801561265f573d6000803e3d6000fd5b50803373ffffffffffffffffffffffffffffffffffffffff167fc8103fc44f19a39b2be3834708c831e6292d5b110a99e06a1f9c1c5f24faf5dd426040516126a79190612eb4565b60405180910390a350600180819055505050505050565b600033905090565b60008060009054906101000a900473ffffffffffffffffffffffffffffffffffffffff169050816000806101000a81548173ffffffffffffffffffffffffffffffffffffffff021916908373ffffffffffffffffffffffffffffffffffffffff1602179055508173ffffffffffffffffffffffffffffffffffffffff168173ffffffffffffffffffffffffffffffffffffffff167f8be0079c531659141344cd1fd0a4f28419497f9722a3daafe3b4186f6b6457e060405160405180910390a35050565b6001816000016000828254019250508190555050565b600081600001549050919050565b600081836127bc9190613a34565b905092915050565b8280546127d090613383565b90600052602060002090601f0160209004810192826127f25760008555612839565b82601f1061280b57805160ff1916838001178555612839565b82800160010185558215612839579182015b8281111561283857825182559160200191906001019061281d565b5b50905061284691906128d7565b5090565b82805461285690613383565b90600052602060002090601f01602090048101928261287857600085556128c6565b82601f1061288957805485556128c6565b828001600101855582156128c657600052602060002091601f016020900482015b828111156128c55782548255916001019190600101906128aa565b5b5090506128d391906128d7565b5090565b5b808211156128f05760008160009055506001016128d8565b5090565b6000604051905090565b600080fd5b600080fd5b6000819050919050565b61291b81612908565b811461292657600080fd5b50565b60008135905061293881612912565b92915050565b600060208284031215612954576129536128fe565b5b600061296284828501612929565b91505092915050565b61297481612908565b82525050565b600081519050919050565b600082825260208201905092915050565b60005b838110156129b4578082015181840152602081019050612999565b838111156129c3576000848401525b50505050565b6000601f19601f8301169050919050565b60006129e58261297a565b6129ef8185612985565b93506129ff818560208601612996565b612a08816129c9565b840191505092915050565b7f4e487b7100000000000000000000000000000000000000000000000000000000600052602160045260246000fd5b60078110612a5357612a52612a13565b5b50565b6000819050612a6482612a42565b919050565b6000612a7482612a56565b9050919050565b612a8481612a69565b82525050565b600061010082019050612aa0600083018b61296b565b612aad602083018a61296b565b612aba604083018961296b565b8181036060830152612acc81886129da565b90508181036080830152612ae081876129da565b905081810360a0830152612af481866129da565b9050612b0360c0830185612a7b565b81810360e0830152612b1581846129da565b90509998505050505050505050565b6000602082019050612b396000830184612a7b565b92915050565b600073ffffffffffffffffffffffffffffffffffffffff82169050919050565b6000612b6a82612b3f565b9050919050565b612b7a81612b5f565b8114612b8557600080fd5b50565b600081359050612b9781612b71565b92915050565b600060208284031215612bb357612bb26128fe565b5b6000612bc184828501612b88565b91505092915050565b6000612bd582612b3f565b9050919050565b612be581612bca565b82525050565b600061012082019050612c01600083018c61296b565b612c0e602083018b61296b565b612c1b604083018a61296b565b8181036060830152612c2d81896129da565b9050612c3c6080830188612a7b565b81810360a0830152612c4e81876129da565b905081810360c0830152612c6281866129da565b9050612c7160e0830185612bdc565b818103610100830152612c8481846129da565b90509a9950505050505050505050565b612c9d81612bca565b8114612ca857600080fd5b50565b600081359050612cba81612c94565b92915050565b60008060408385031215612cd757612cd66128fe565b5b6000612ce585828601612cab565b9250506020612cf685828601612929565b9150509250929050565b600080fd5b600080fd5b7f4e487b7100000000000000000000000000000000000000000000000000000000600052604160045260246000fd5b612d42826129c9565b810181811067ffffffffffffffff82111715612d6157612d60612d0a565b5b80604052505050565b6000612d746128f4565b9050612d808282612d39565b919050565b600067ffffffffffffffff821115612da057612d9f612d0a565b5b612da9826129c9565b9050602081019050919050565b82818337600083830152505050565b6000612dd8612dd384612d85565b612d6a565b905082815260208101848484011115612df457612df3612d05565b5b612dff848285612db6565b509392505050565b600082601f830112612e1c57612e1b612d00565b5b8135612e2c848260208601612dc5565b91505092915050565b600060208284031215612e4b57612e4a6128fe565b5b600082013567ffffffffffffffff811115612e6957612e68612903565b5b612e7584828501612e07565b91505092915050565b60008115159050919050565b612e9381612e7e565b82525050565b6000602082019050612eae6000830184612e8a565b92915050565b6000602082019050612ec9600083018461296b565b92915050565b60006020820190508181036000830152612ee981846129da565b905092915050565b60078110612efe57600080fd5b50565b600081359050612f1081612ef1565b92915050565b60008060408385031215612f2d57612f2c6128fe565b5b6000612f3b85828601612929565b9250506020612f4c85828601612f01565b9150509250929050565b612f5f81612b5f565b82525050565b6000602082019050612f7a6000830184612f56565b92915050565b60008060408385031215612f9757612f966128fe565b5b6000612fa585828601612929565b925050602083013567ffffffffffffffff811115612fc657612fc5612903565b5b612fd285828601612e07565b9150509250929050565b600081519050919050565b600082825260208201905092915050565b6000819050602082019050919050565b61301181612908565b82525050565b600082825260208201905092915050565b60006130338261297a565b61303d8185613017565b935061304d818560208601612996565b613056816129c9565b840191505092915050565b61306a81612a69565b82525050565b61307981612bca565b82525050565b6000610120830160008301516130986000860182613008565b5060208301516130ab6020860182613008565b5060408301516130be6040860182613008565b50606083015184820360608601526130d68282613028565b91505060808301516130eb6080860182613061565b5060a083015184820360a08601526131038282613028565b91505060c083015184820360c086015261311d8282613028565b91505060e083015161313260e0860182613070565b5061010083015184820361010086015261314c8282613028565b9150508091505092915050565b6000613165838361307f565b905092915050565b6000602082019050919050565b600061318582612fdc565b61318f8185612fe7565b9350836020820285016131a185612ff8565b8060005b858110156131dd57848403895281516131be8582613159565b94506131c98361316d565b925060208a019950506001810190506131a5565b50829750879550505050505092915050565b60006020820190508181036000830152613209818461317a565b905092915050565b6000806000806080858703121561322b5761322a6128fe565b5b600085013567ffffffffffffffff81111561324957613248612903565b5b61325587828801612e07565b945050602085013567ffffffffffffffff81111561327657613275612903565b5b61328287828801612e07565b935050604085013567ffffffffffffffff8111156132a3576132a2612903565b5b6132af87828801612e07565b925050606085013567ffffffffffffffff8111156132d0576132cf612903565b5b6132dc87828801612e07565b91505092959194509250565b7f486f74656c20446f6573204e6f74204578697374000000000000000000000000600082015250565b600061331e601483612985565b9150613329826132e8565b602082019050919050565b6000602082019050818103600083015261334d81613311565b9050919050565b7f4e487b7100000000000000000000000000000000000000000000000000000000600052602260045260246000fd5b6000600282049050600182168061339b57607f821691505b602082108114156133af576133ae613354565b5b50919050565b7f4f776e61626c653a2063616c6c6572206973206e6f7420746865206f776e6572600082015250565b60006133eb602083612985565b91506133f6826133b5565b602082019050919050565b6000602082019050818103600083015261341a816133de565b9050919050565b7f4c697374696e67204665652043616e6e6f74206265207a65726f000000000000600082015250565b6000613457601a83612985565b915061346282613421565b602082019050919050565b600060208201905081810360008301526134868161344a565b9050919050565b7f596f7520446f204e6f74204f776e205468697320486f74656c204974656d0000600082015250565b60006134c3601e83612985565b91506134ce8261348d565b602082019050919050565b600060208201905081810360008301526134f2816134b6565b9050919050565b7f596f75206172652074686520726967687466756c206f776e657220616c72656160008201527f6479000000000000000000000000000000000000000000000000000000000000602082015250565b6000613555602283612985565b9150613560826134f9565b604082019050919050565b6000602082019050818103600083015261358481613548565b9050919050565b7f506c65617365207370656369667920612076616c69642045544820616464726560008201527f7373000000000000000000000000000000000000000000000000000000000000602082015250565b60006135e7602283612985565b91506135f28261358b565b604082019050919050565b60006020820190508181036000830152613616816135da565b9050919050565b7f4e487b7100000000000000000000000000000000000000000000000000000000600052600160045260246000fd5b7f4f776e61626c653a206e6577206f776e657220697320746865207a65726f206160008201527f6464726573730000000000000000000000000000000000000000000000000000602082015250565b60006136a8602683612985565b91506136b38261364c565b604082019050919050565b600060208201905081810360008301526136d78161369b565b9050919050565b600081905092915050565b60006136f48261297a565b6136fe81856136de565b935061370e818560208601612996565b80840191505092915050565b600061372682846136e9565b915081905092915050565b7f486f74656c204e616d6520457869737473000000000000000000000000000000600082015250565b6000613767601183612985565b915061377282613731565b602082019050919050565b600060208201905081810360008301526137968161375a565b9050919050565b7f506c6561736520737065636966792074686520686f74656c206e616d65000000600082015250565b60006137d3601d83612985565b91506137de8261379d565b602082019050919050565b60006020820190508181036000830152613802816137c6565b9050919050565b7f5265656e7472616e637947756172643a207265656e7472616e742063616c6c00600082015250565b600061383f601f83612985565b915061384a82613809565b602082019050919050565b6000602082019050818103600083015261386e81613832565b9050919050565b7f496e76616c6964204c697374696e672046656500000000000000000000000000600082015250565b60006138ab601383612985565b91506138b682613875565b602082019050919050565b600060208201905081810360008301526138da8161389e565b9050919050565b7f506c6561736520737065636966792074686520686f74656c206465736372697060008201527f74696f6e00000000000000000000000000000000000000000000000000000000602082015250565b600061393d602483612985565b9150613948826138e1565b604082019050919050565b6000602082019050818103600083015261396c81613930565b9050919050565b7f506c65617365207370656369667920746865206c6f636174696f6e206f66207460008201527f686520686f74656c000000000000000000000000000000000000000000000000602082015250565b60006139cf602883612985565b91506139da82613973565b604082019050919050565b600060208201905081810360008301526139fe816139c2565b9050919050565b7f4e487b7100000000000000000000000000000000000000000000000000000000600052601160045260246000fd5b6000613a3f82612908565b9150613a4a83612908565b9250827fffffffffffffffffffffffffffffffffffffffffffffffffffffffffffffffff03821115613a7f57613a7e613a05565b5b82820190509291505056fea26469706673582212204187e5627546945da2c9170bfc7643f2853f7a25ad1b041f5951e8f4b7d0fb6464736f6c634300080a0033",
  "immutableReferences": {},
  "source": "// SPDX-License-Identifier: MIT\npragma solidity ^0.8.0;\nimport '@openzeppelin/contracts/utils/math/SafeMath.sol';\nimport '@openzeppelin/contracts/security/ReentrancyGuard.sol';\nimport '@openzeppelin/contracts/access/Ownable.sol';\nimport '@openzeppelin/contracts/utils/Counters.sol';\nimport './HotelBookingInterface.sol';\n\n  /**\n   * @title Hotel Booking \n   * @dev A simple Smart Contract for hotel management\n   * @author Dickens Odera dickensodera9@gmail.com\n  **/\n\ncontract Hotel is Ownable, HotelBookingInterface, ReentrancyGuard {\n  using SafeMath for uint256;\n  using Counters for Counters.Counter;\n\n  uint public totalHotels = 0; //the total number of the hotels\n  uint public hotelListingFee = 0.00043 ether; //200 Ksh at the time of writing this smart contract\n  Counters.Counter private _hotelIds; //hotel id to be inrecemented when a new hotel is created\n\n  enum HOTEL_CATEGORY {CHAIN_HOTEL, MOTEL, RESORT, INN, ALL_SUITS, BOUTIGUE, EXTENDED_STAY} // hotel types\n  HOTEL_CATEGORY public hotelCategory;\n  HOTEL_CATEGORY constant DEFAULT_HOTEL_TYPE = HOTEL_CATEGORY.CHAIN_HOTEL; //default hotel type as it is the most common around the world\n\n  //Group hotel data together in a Struct\n  struct HotelItem{\n    uint id;\n    uint totalRooms;\n    uint creationDate;\n    string name;\n    HOTEL_CATEGORY hotelCategory;\n    string description;\n    string locationAddress;\n    address payable user;\n    string imageHash;\n  }\n\n  HotelItem[] public hotelItems; //hotels array of the Hotel struct above\n\n  mapping(uint => HotelItem) public hotelItemId;\n  mapping(address => HotelItem) public hotelOwner; //the owner of this hotel\n  mapping(uint => bool) public existingHotelItemId;\n  mapping(string => bool) public existingHotelItemName;\n\n  //events\n  event HotelCreated(uint date, address indexed causer, uint indexed id);\n  event HotelCategoryChanged(address indexed causer, uint date, HOTEL_CATEGORY indexed newCategory);\n  event HotelOwnerChanged(address indexed causer, address indexed newOwner, uint date);\n  event HotelListingFeeChanged(address indexed user, uint indexed date,uint indexed fee);\n\n  constructor() public {\n\n  }\n\n  //ensure that the hotel exists in the blockchain before performing related transactions\n  modifier hotelExists(uint _hotelId){\n      require(existingHotelItemId[_hotelId] == true,\"Hotel Does Not Exist\");\n      _;\n  }\n\n  //to avoid duplicate hotel names in the contract\n  modifier hotelNameExists(string memory _name){\n     require(existingHotelItemName[_name] == false,\"Hotel Name Exists\");\n     require(bytes(_name).length > 0,\"Please specify the hotel name\");\n     _;\n  }\n\n  //ensure the transactionsender owns this hotel before the transaction\n  modifier ownsHotel(uint _hotelId){\n      require(msg.sender == hotelItemId[_hotelId].user,\"You Do Not Own This Hotel Item\");\n      _;\n  }\n\n  //check that this user address has hotel before adding a room\n  modifier hasListedHotel(uint _hotelId){\n      bool isListed = false;\n        if(msg.sender == hotelItemId[_hotelId].user){\n            isListed = true;\n        }\n      require(isListed == true,\"Please List A Hotel Before Adding A Room\");\n      _;\n  }\n\n  function setListingFee(uint _fee) public onlyOwner{\n    require(_fee != 0,\"Listing Fee Cannot be zero\");\n    hotelListingFee = _fee;\n    emit HotelListingFeeChanged(msg.sender,block.timestamp, _fee);\n  }\n\n  function setImageHash(uint hotelId, string memory imageHash) public{\n    require(existingHotelItemId[hotelId] == true,\"Hotel Does Not Exist\");\n    hotelItemId[hotelId].imageHash = imageHash;\n  }\n\n  function getImageHash(uint hotelId) public view returns(string memory _imageHash){\n    require(existingHotelItemId[hotelId] == true,\"Hotel Does Not Exist\");\n    return hotelItemId[hotelId].imageHash;\n  }\n\n  function addHotel(string memory _name,string memory _description, string memory _location, string memory _imageHash) public hotelNameExists(_name) nonReentrant payable{\n    require(msg.sender != address(0));\n    require(msg.value == hotelListingFee,\"Invalid Listing Fee\");\n    //require(_numOfRooms != 0,\"Number of rooms cannot be zero\");\n    require(bytes(_description).length > 0,\"Please specify the hotel description\");\n    require(bytes(_location).length > 0,\"Please specify the location of the hotel\");\n    _hotelIds.increment();\n    uint currentHotelId = _hotelIds.current();\n    hotelItemId[currentHotelId] = HotelItem(currentHotelId,0, block.timestamp, _name, DEFAULT_HOTEL_TYPE,_description, _location, payable(msg.sender), _imageHash);\n    hotelItems.push(hotelItemId[currentHotelId]);\n    hotelOwner[msg.sender] = hotelItemId[currentHotelId];\n    totalHotels = totalHotels.add(1);\n    existingHotelItemId[currentHotelId] = true;\n    existingHotelItemName[_name] = true;\n    payable(owner()).transfer(msg.value);\n    emit HotelCreated(block.timestamp, msg.sender, currentHotelId);\n  }\n\n  function listAllHotels() public view returns(HotelItem[] memory){\n      return hotelItems;\n  }\n\n  function getHotelBioData(uint _hotelId) public view hotelExists(_hotelId) returns(\n      uint _id,\n      uint _totalRooms,\n      uint _date,\n      string memory _name,\n      string memory _description,\n      string memory _location,\n      HOTEL_CATEGORY _category,\n      string memory _photo\n      ){\n    HotelItem storage hotelItem = hotelItemId[_hotelId];\n    _id = hotelItem.id;\n    _totalRooms = hotelItem.totalRooms;\n    _date = hotelItem.creationDate;\n    _name = hotelItem.name;\n    _description = hotelItem.description;\n    _location = hotelItem.locationAddress;\n    _category = hotelItem.hotelCategory;\n    _photo  = hotelItem.imageHash;\n  }\n\n  function changeHotelCategory(uint _hotelId, HOTEL_CATEGORY _category) public hotelExists(_hotelId) ownsHotel(_hotelId) {\n     HotelItem storage hotelItem = hotelItemId[_hotelId];\n     assert(_category != DEFAULT_HOTEL_TYPE);\n     assert(_category != hotelItem.hotelCategory);\n     hotelItem.hotelCategory = _category;\n     emit HotelCategoryChanged(msg.sender, block.timestamp, _category);\n  }\n\n  function getName(uint _hotelId) external virtual view override hotelExists(_hotelId) returns(string memory){\n      return hotelItemId[_hotelId].name;\n  }\n\n  function getId(uint _hotelId) external virtual view override hotelExists(_hotelId) returns(uint){\n      return hotelItemId[_hotelId].id;\n  }\n\n  function changeHotelOwner(address payable _newOwner, uint _hotelId) public hotelExists(_hotelId) ownsHotel(_hotelId){\n      require(msg.sender != _newOwner,\"You are the rightful owner already\");\n      require(_newOwner != address(0),\"Please specify a valid ETH address\");\n      hotelItemId[_hotelId].user = _newOwner;\n      emit HotelOwnerChanged(msg.sender, _newOwner, block.timestamp);\n  }\n}\n",
  "sourcePath": "D:/Dickens/Programming/Blockchain/Projects/Personal/HotelDapp/contracts/Hotel.sol",
  "compiler": {
    "name": "solc",
    "version": "0.8.10+commit.fc410830.Emscripten.clang"
  },
  "schemaVersion": "3.4.1",
  "updatedAt": "2021-12-01T21:19:30.318Z",
  "networkType": "ethereum",
  "devdoc": {
    "author": "Dickens Odera dickensodera9@gmail.com*",
    "details": "A simple Smart Contract for hotel management",
    "kind": "dev",
    "methods": {
      "owner()": {
        "details": "Returns the address of the current owner."
      },
      "renounceOwnership()": {
        "details": "Leaves the contract without owner. It will not be possible to call `onlyOwner` functions anymore. Can only be called by the current owner. NOTE: Renouncing ownership will leave the contract without an owner, thereby removing any functionality that is only available to the owner."
      },
      "transferOwnership(address)": {
        "details": "Transfers ownership of the contract to a new account (`newOwner`). Can only be called by the current owner."
      }
    },
    "title": "Hotel Booking ",
    "version": 1
  },
  "userdoc": {
    "kind": "user",
    "methods": {},
    "version": 1
  }
}