{
  "contractName": "Room",
  "abi": [
    {
      "inputs": [],
      "stateMutability": "nonpayable",
      "type": "constructor"
    },
    {
      "anonymous": false,
      "inputs": [
        {
          "indexed": true,
          "internalType": "address",
          "name": "causer",
          "type": "address"
        },
        {
          "indexed": false,
          "internalType": "uint256",
          "name": "date",
          "type": "uint256"
        },
        {
          "indexed": true,
          "internalType": "enum Hotel.HOTEL_CATEGORY",
          "name": "newCategory",
          "type": "uint8"
        }
      ],
      "name": "HotelCategoryChanged",
      "type": "event"
    },
    {
      "anonymous": false,
      "inputs": [
        {
          "indexed": false,
          "internalType": "uint256",
          "name": "date",
          "type": "uint256"
        },
        {
          "indexed": true,
          "internalType": "address",
          "name": "causer",
          "type": "address"
        },
        {
          "indexed": true,
          "internalType": "uint256",
          "name": "id",
          "type": "uint256"
        }
      ],
      "name": "HotelCreated",
      "type": "event"
    },
    {
      "anonymous": false,
      "inputs": [
        {
          "indexed": true,
          "internalType": "address",
          "name": "user",
          "type": "address"
        },
        {
          "indexed": true,
          "internalType": "uint256",
          "name": "date",
          "type": "uint256"
        },
        {
          "indexed": true,
          "internalType": "uint256",
          "name": "fee",
          "type": "uint256"
        }
      ],
      "name": "HotelListingFeeChanged",
      "type": "event"
    },
    {
      "anonymous": false,
      "inputs": [
        {
          "indexed": true,
          "internalType": "address",
          "name": "causer",
          "type": "address"
        },
        {
          "indexed": true,
          "internalType": "address",
          "name": "newOwner",
          "type": "address"
        },
        {
          "indexed": false,
          "internalType": "uint256",
          "name": "date",
          "type": "uint256"
        }
      ],
      "name": "HotelOwnerChanged",
      "type": "event"
    },
    {
      "anonymous": false,
      "inputs": [
        {
          "indexed": true,
          "internalType": "address",
          "name": "user",
          "type": "address"
        },
        {
          "indexed": false,
          "internalType": "uint256",
          "name": "date",
          "type": "uint256"
        },
        {
          "indexed": false,
          "internalType": "uint256",
          "name": "id",
          "type": "uint256"
        }
      ],
      "name": "NewRoomCreated",
      "type": "event"
    },
    {
      "anonymous": false,
      "inputs": [
        {
          "indexed": true,
          "internalType": "address",
          "name": "previousOwner",
          "type": "address"
        },
        {
          "indexed": true,
          "internalType": "address",
          "name": "newOwner",
          "type": "address"
        }
      ],
      "name": "OwnershipTransferred",
      "type": "event"
    },
    {
      "anonymous": false,
      "inputs": [
        {
          "indexed": false,
          "internalType": "uint256",
          "name": "date",
          "type": "uint256"
        },
        {
          "indexed": true,
          "internalType": "address",
          "name": "tenant",
          "type": "address"
        },
        {
          "indexed": true,
          "internalType": "uint256",
          "name": "amountPaid",
          "type": "uint256"
        },
        {
          "indexed": true,
          "internalType": "uint256",
          "name": "roomId",
          "type": "uint256"
        }
      ],
      "name": "RoomBooked",
      "type": "event"
    },
    {
      "anonymous": false,
      "inputs": [
        {
          "indexed": true,
          "internalType": "address",
          "name": "user",
          "type": "address"
        },
        {
          "indexed": false,
          "internalType": "uint256",
          "name": "price",
          "type": "uint256"
        },
        {
          "indexed": true,
          "internalType": "uint256",
          "name": "date",
          "type": "uint256"
        }
      ],
      "name": "RoomNightPriceSet",
      "type": "event"
    },
    {
      "inputs": [
        {
          "internalType": "uint256",
          "name": "_numOfRooms",
          "type": "uint256"
        },
        {
          "internalType": "string",
          "name": "_name",
          "type": "string"
        },
        {
          "internalType": "string",
          "name": "_description",
          "type": "string"
        },
        {
          "internalType": "string",
          "name": "_location",
          "type": "string"
        },
        {
          "internalType": "string",
          "name": "_imageHash",
          "type": "string"
        }
      ],
      "name": "addHotel",
      "outputs": [],
      "stateMutability": "payable",
      "type": "function",
      "payable": true
    },
    {
      "inputs": [
        {
          "internalType": "uint256",
          "name": "_hotelId",
          "type": "uint256"
        },
        {
          "internalType": "enum Hotel.HOTEL_CATEGORY",
          "name": "_category",
          "type": "uint8"
        }
      ],
      "name": "changeHotelCategory",
      "outputs": [],
      "stateMutability": "nonpayable",
      "type": "function"
    },
    {
      "inputs": [
        {
          "internalType": "address payable",
          "name": "_newOwner",
          "type": "address"
        },
        {
          "internalType": "uint256",
          "name": "_hotelId",
          "type": "uint256"
        }
      ],
      "name": "changeHotelOwner",
      "outputs": [],
      "stateMutability": "nonpayable",
      "type": "function"
    },
    {
      "inputs": [
        {
          "internalType": "uint256",
          "name": "",
          "type": "uint256"
        }
      ],
      "name": "existingHotelItemId",
      "outputs": [
        {
          "internalType": "bool",
          "name": "",
          "type": "bool"
        }
      ],
      "stateMutability": "view",
      "type": "function",
      "constant": true
    },
    {
      "inputs": [
        {
          "internalType": "string",
          "name": "",
          "type": "string"
        }
      ],
      "name": "existingHotelItemName",
      "outputs": [
        {
          "internalType": "bool",
          "name": "",
          "type": "bool"
        }
      ],
      "stateMutability": "view",
      "type": "function",
      "constant": true
    },
    {
      "inputs": [
        {
          "internalType": "uint256",
          "name": "",
          "type": "uint256"
        }
      ],
      "name": "existingRoomItem",
      "outputs": [
        {
          "internalType": "bool",
          "name": "",
          "type": "bool"
        }
      ],
      "stateMutability": "view",
      "type": "function",
      "constant": true
    },
    {
      "inputs": [
        {
          "internalType": "string",
          "name": "",
          "type": "string"
        }
      ],
      "name": "existingRoomItemName",
      "outputs": [
        {
          "internalType": "bool",
          "name": "",
          "type": "bool"
        }
      ],
      "stateMutability": "view",
      "type": "function",
      "constant": true
    },
    {
      "inputs": [
        {
          "internalType": "uint256",
          "name": "_hotelId",
          "type": "uint256"
        }
      ],
      "name": "getHotelBioData",
      "outputs": [
        {
          "internalType": "uint256",
          "name": "_id",
          "type": "uint256"
        },
        {
          "internalType": "uint256",
          "name": "_totalRooms",
          "type": "uint256"
        },
        {
          "internalType": "uint256",
          "name": "_date",
          "type": "uint256"
        },
        {
          "internalType": "string",
          "name": "_name",
          "type": "string"
        },
        {
          "internalType": "string",
          "name": "_description",
          "type": "string"
        },
        {
          "internalType": "string",
          "name": "_location",
          "type": "string"
        },
        {
          "internalType": "enum Hotel.HOTEL_CATEGORY",
          "name": "_category",
          "type": "uint8"
        },
        {
          "internalType": "string",
          "name": "_photo",
          "type": "string"
        }
      ],
      "stateMutability": "view",
      "type": "function",
      "constant": true
    },
    {
      "inputs": [],
      "name": "hotelCategory",
      "outputs": [
        {
          "internalType": "enum Hotel.HOTEL_CATEGORY",
          "name": "",
          "type": "uint8"
        }
      ],
      "stateMutability": "view",
      "type": "function",
      "constant": true
    },
    {
      "inputs": [
        {
          "internalType": "uint256",
          "name": "",
          "type": "uint256"
        }
      ],
      "name": "hotelItemId",
      "outputs": [
        {
          "internalType": "uint256",
          "name": "id",
          "type": "uint256"
        },
        {
          "internalType": "uint256",
          "name": "totalRooms",
          "type": "uint256"
        },
        {
          "internalType": "uint256",
          "name": "creationDate",
          "type": "uint256"
        },
        {
          "internalType": "string",
          "name": "name",
          "type": "string"
        },
        {
          "internalType": "enum Hotel.HOTEL_CATEGORY",
          "name": "hotelCategory",
          "type": "uint8"
        },
        {
          "internalType": "string",
          "name": "description",
          "type": "string"
        },
        {
          "internalType": "string",
          "name": "locationAddress",
          "type": "string"
        },
        {
          "internalType": "address payable",
          "name": "user",
          "type": "address"
        },
        {
          "internalType": "string",
          "name": "imageHash",
          "type": "string"
        }
      ],
      "stateMutability": "view",
      "type": "function",
      "constant": true
    },
    {
      "inputs": [
        {
          "internalType": "uint256",
          "name": "",
          "type": "uint256"
        }
      ],
      "name": "hotelItems",
      "outputs": [
        {
          "internalType": "uint256",
          "name": "id",
          "type": "uint256"
        },
        {
          "internalType": "uint256",
          "name": "totalRooms",
          "type": "uint256"
        },
        {
          "internalType": "uint256",
          "name": "creationDate",
          "type": "uint256"
        },
        {
          "internalType": "string",
          "name": "name",
          "type": "string"
        },
        {
          "internalType": "enum Hotel.HOTEL_CATEGORY",
          "name": "hotelCategory",
          "type": "uint8"
        },
        {
          "internalType": "string",
          "name": "description",
          "type": "string"
        },
        {
          "internalType": "string",
          "name": "locationAddress",
          "type": "string"
        },
        {
          "internalType": "address payable",
          "name": "user",
          "type": "address"
        },
        {
          "internalType": "string",
          "name": "imageHash",
          "type": "string"
        }
      ],
      "stateMutability": "view",
      "type": "function",
      "constant": true
    },
    {
      "inputs": [],
      "name": "hotelListingFee",
      "outputs": [
        {
          "internalType": "uint256",
          "name": "",
          "type": "uint256"
        }
      ],
      "stateMutability": "view",
      "type": "function",
      "constant": true
    },
    {
      "inputs": [
        {
          "internalType": "address",
          "name": "",
          "type": "address"
        }
      ],
      "name": "hotelOwner",
      "outputs": [
        {
          "internalType": "uint256",
          "name": "id",
          "type": "uint256"
        },
        {
          "internalType": "uint256",
          "name": "totalRooms",
          "type": "uint256"
        },
        {
          "internalType": "uint256",
          "name": "creationDate",
          "type": "uint256"
        },
        {
          "internalType": "string",
          "name": "name",
          "type": "string"
        },
        {
          "internalType": "enum Hotel.HOTEL_CATEGORY",
          "name": "hotelCategory",
          "type": "uint8"
        },
        {
          "internalType": "string",
          "name": "description",
          "type": "string"
        },
        {
          "internalType": "string",
          "name": "locationAddress",
          "type": "string"
        },
        {
          "internalType": "address payable",
          "name": "user",
          "type": "address"
        },
        {
          "internalType": "string",
          "name": "imageHash",
          "type": "string"
        }
      ],
      "stateMutability": "view",
      "type": "function",
      "constant": true
    },
    {
      "inputs": [],
      "name": "listAllHotels",
      "outputs": [
        {
          "components": [
            {
              "internalType": "uint256",
              "name": "id",
              "type": "uint256"
            },
            {
              "internalType": "uint256",
              "name": "totalRooms",
              "type": "uint256"
            },
            {
              "internalType": "uint256",
              "name": "creationDate",
              "type": "uint256"
            },
            {
              "internalType": "string",
              "name": "name",
              "type": "string"
            },
            {
              "internalType": "enum Hotel.HOTEL_CATEGORY",
              "name": "hotelCategory",
              "type": "uint8"
            },
            {
              "internalType": "string",
              "name": "description",
              "type": "string"
            },
            {
              "internalType": "string",
              "name": "locationAddress",
              "type": "string"
            },
            {
              "internalType": "address payable",
              "name": "user",
              "type": "address"
            },
            {
              "internalType": "string",
              "name": "imageHash",
              "type": "string"
            }
          ],
          "internalType": "struct Hotel.HotelItem[]",
          "name": "",
          "type": "tuple[]"
        }
      ],
      "stateMutability": "view",
      "type": "function",
      "constant": true
    },
    {
      "inputs": [],
      "name": "owner",
      "outputs": [
        {
          "internalType": "address",
          "name": "",
          "type": "address"
        }
      ],
      "stateMutability": "view",
      "type": "function",
      "constant": true
    },
    {
      "inputs": [],
      "name": "renounceOwnership",
      "outputs": [],
      "stateMutability": "nonpayable",
      "type": "function"
    },
    {
      "inputs": [
        {
          "internalType": "uint256",
          "name": "",
          "type": "uint256"
        }
      ],
      "name": "roomItemId",
      "outputs": [
        {
          "internalType": "uint256",
          "name": "id",
          "type": "uint256"
        },
        {
          "internalType": "uint256",
          "name": "totalBeds",
          "type": "uint256"
        },
        {
          "internalType": "uint256",
          "name": "hotelId",
          "type": "uint256"
        },
        {
          "internalType": "uint256",
          "name": "pricePerNight",
          "type": "uint256"
        },
        {
          "internalType": "uint256",
          "name": "number",
          "type": "uint256"
        },
        {
          "internalType": "bool",
          "name": "isBooked",
          "type": "bool"
        },
        {
          "internalType": "address payable",
          "name": "user",
          "type": "address"
        },
        {
          "internalType": "string",
          "name": "name",
          "type": "string"
        },
        {
          "internalType": "string",
          "name": "description",
          "type": "string"
        }
      ],
      "stateMutability": "view",
      "type": "function",
      "constant": true
    },
    {
      "inputs": [
        {
          "internalType": "address",
          "name": "",
          "type": "address"
        }
      ],
      "name": "roomOwner",
      "outputs": [
        {
          "internalType": "uint256",
          "name": "id",
          "type": "uint256"
        },
        {
          "internalType": "uint256",
          "name": "totalBeds",
          "type": "uint256"
        },
        {
          "internalType": "uint256",
          "name": "hotelId",
          "type": "uint256"
        },
        {
          "internalType": "uint256",
          "name": "pricePerNight",
          "type": "uint256"
        },
        {
          "internalType": "uint256",
          "name": "number",
          "type": "uint256"
        },
        {
          "internalType": "bool",
          "name": "isBooked",
          "type": "bool"
        },
        {
          "internalType": "address payable",
          "name": "user",
          "type": "address"
        },
        {
          "internalType": "string",
          "name": "name",
          "type": "string"
        },
        {
          "internalType": "string",
          "name": "description",
          "type": "string"
        }
      ],
      "stateMutability": "view",
      "type": "function",
      "constant": true
    },
    {
      "inputs": [
        {
          "internalType": "uint256",
          "name": "",
          "type": "uint256"
        }
      ],
      "name": "roomTenant",
      "outputs": [
        {
          "internalType": "address",
          "name": "",
          "type": "address"
        }
      ],
      "stateMutability": "view",
      "type": "function",
      "constant": true
    },
    {
      "inputs": [
        {
          "internalType": "uint256",
          "name": "",
          "type": "uint256"
        }
      ],
      "name": "rooms",
      "outputs": [
        {
          "internalType": "uint256",
          "name": "id",
          "type": "uint256"
        },
        {
          "internalType": "uint256",
          "name": "totalBeds",
          "type": "uint256"
        },
        {
          "internalType": "uint256",
          "name": "hotelId",
          "type": "uint256"
        },
        {
          "internalType": "uint256",
          "name": "pricePerNight",
          "type": "uint256"
        },
        {
          "internalType": "uint256",
          "name": "number",
          "type": "uint256"
        },
        {
          "internalType": "bool",
          "name": "isBooked",
          "type": "bool"
        },
        {
          "internalType": "address payable",
          "name": "user",
          "type": "address"
        },
        {
          "internalType": "string",
          "name": "name",
          "type": "string"
        },
        {
          "internalType": "string",
          "name": "description",
          "type": "string"
        }
      ],
      "stateMutability": "view",
      "type": "function",
      "constant": true
    },
    {
      "inputs": [
        {
          "internalType": "uint256",
          "name": "_fee",
          "type": "uint256"
        }
      ],
      "name": "setListingFee",
      "outputs": [],
      "stateMutability": "nonpayable",
      "type": "function"
    },
    {
      "inputs": [],
      "name": "totalHotels",
      "outputs": [
        {
          "internalType": "uint256",
          "name": "",
          "type": "uint256"
        }
      ],
      "stateMutability": "view",
      "type": "function",
      "constant": true
    },
    {
      "inputs": [],
      "name": "totalRooms",
      "outputs": [
        {
          "internalType": "uint256",
          "name": "",
          "type": "uint256"
        }
      ],
      "stateMutability": "view",
      "type": "function",
      "constant": true
    },
    {
      "inputs": [
        {
          "internalType": "address",
          "name": "newOwner",
          "type": "address"
        }
      ],
      "name": "transferOwnership",
      "outputs": [],
      "stateMutability": "nonpayable",
      "type": "function"
    },
    {
      "inputs": [
        {
          "internalType": "uint256",
          "name": "_hotelId",
          "type": "uint256"
        },
        {
          "internalType": "uint256",
          "name": "_totalBeds",
          "type": "uint256"
        },
        {
          "internalType": "uint256",
          "name": "_pricePerNight",
          "type": "uint256"
        },
        {
          "internalType": "uint256",
          "name": "_number",
          "type": "uint256"
        },
        {
          "internalType": "string",
          "name": "_name",
          "type": "string"
        },
        {
          "internalType": "string",
          "name": "_description",
          "type": "string"
        }
      ],
      "name": "addRoom",
      "outputs": [],
      "stateMutability": "nonpayable",
      "type": "function"
    },
    {
      "inputs": [
        {
          "internalType": "uint256",
          "name": "_roomId",
          "type": "uint256"
        }
      ],
      "name": "getRoomBioData",
      "outputs": [
        {
          "internalType": "uint256",
          "name": "_id",
          "type": "uint256"
        },
        {
          "internalType": "uint256",
          "name": "_numOfBeds",
          "type": "uint256"
        },
        {
          "internalType": "uint256",
          "name": "_hotelId",
          "type": "uint256"
        },
        {
          "internalType": "uint256",
          "name": "_pricePerNight",
          "type": "uint256"
        },
        {
          "internalType": "uint256",
          "name": "_number",
          "type": "uint256"
        },
        {
          "internalType": "bool",
          "name": "_isBooked",
          "type": "bool"
        },
        {
          "internalType": "address",
          "name": "_user",
          "type": "address"
        },
        {
          "internalType": "string",
          "name": "_name",
          "type": "string"
        },
        {
          "internalType": "string",
          "name": "_description",
          "type": "string"
        }
      ],
      "stateMutability": "view",
      "type": "function",
      "constant": true
    },
    {
      "inputs": [
        {
          "internalType": "uint256",
          "name": "_roomId",
          "type": "uint256"
        }
      ],
      "name": "getName",
      "outputs": [
        {
          "internalType": "string",
          "name": "",
          "type": "string"
        }
      ],
      "stateMutability": "view",
      "type": "function",
      "constant": true
    },
    {
      "inputs": [
        {
          "internalType": "uint256",
          "name": "_roomId",
          "type": "uint256"
        }
      ],
      "name": "getId",
      "outputs": [
        {
          "internalType": "uint256",
          "name": "",
          "type": "uint256"
        }
      ],
      "stateMutability": "view",
      "type": "function",
      "constant": true
    },
    {
      "inputs": [
        {
          "internalType": "uint256",
          "name": "_roomId",
          "type": "uint256"
        },
        {
          "internalType": "uint256",
          "name": "_price",
          "type": "uint256"
        }
      ],
      "name": "setNightPrice",
      "outputs": [],
      "stateMutability": "nonpayable",
      "type": "function"
    },
    {
      "inputs": [],
      "name": "listRooms",
      "outputs": [
        {
          "components": [
            {
              "internalType": "uint256",
              "name": "id",
              "type": "uint256"
            },
            {
              "internalType": "uint256",
              "name": "totalBeds",
              "type": "uint256"
            },
            {
              "internalType": "uint256",
              "name": "hotelId",
              "type": "uint256"
            },
            {
              "internalType": "uint256",
              "name": "pricePerNight",
              "type": "uint256"
            },
            {
              "internalType": "uint256",
              "name": "number",
              "type": "uint256"
            },
            {
              "internalType": "bool",
              "name": "isBooked",
              "type": "bool"
            },
            {
              "internalType": "address payable",
              "name": "user",
              "type": "address"
            },
            {
              "internalType": "string",
              "name": "name",
              "type": "string"
            },
            {
              "internalType": "string",
              "name": "description",
              "type": "string"
            }
          ],
          "internalType": "struct Room.RoomItem[]",
          "name": "",
          "type": "tuple[]"
        }
      ],
      "stateMutability": "view",
      "type": "function",
      "constant": true
    }
  ],
  "bytecode": "0x60806040526000600255660187152d40e0006003556000600b553480156200002657600080fd5b50620000476200003b6200005460201b60201c565b6200005c60201b60201c565b6001808190555062000120565b600033905090565b60008060009054906101000a900473ffffffffffffffffffffffffffffffffffffffff169050816000806101000a81548173ffffffffffffffffffffffffffffffffffffffff021916908373ffffffffffffffffffffffffffffffffffffffff1602179055508173ffffffffffffffffffffffffffffffffffffffff168173ffffffffffffffffffffffffffffffffffffffff167f8be0079c531659141344cd1fd0a4f28419497f9722a3daafe3b4186f6b6457e060405160405180910390a35050565b61571180620001306000396000f3fe6080604052600436106101cd5760003560e01c806374dbda05116100f7578063b2afef8211610095578063c89e496311610064578063c89e496314610733578063cecd7e7a14610778578063cee9e07814610794578063f2fde38b146107d1576101cd565b8063b2afef821461068b578063bbc02ce2146106b4578063c210c532146106df578063c5a56e821461070a576101cd565b806391aa8489116100d157806391aa8489146105ab5780639524a38e146105d6578063958aa59b1461061b578063af5537fa14610660576101cd565b806374dbda051461050657806380865877146105435780638da5cb5b14610580576101cd565b80633716236e1161016f578063545a153a1161013e578063545a153a1461044c5780636b8ff5741461048957806370f3bfd8146104c6578063715018a6146104ef576101cd565b80633716236e1461035c578063387329f9146103a15780634dce717e146103ca5780634ee9a94d14610407576101cd565b806310f70192116101ab57806310f701921461027e578063131dbd09146102a95780631bae0ac8146102d25780633077649714610317576101cd565b80630aaecc35146101d25780630af272f71461020f5780630fa0200d14610253575b600080fd5b3480156101de57600080fd5b506101f960048036038101906101f49190613e1a565b6107fa565b6040516102069190613e7e565b60405180910390f35b34801561021b57600080fd5b5061023660048036038101906102319190613ecf565b610830565b60405161024a98979695949392919061400a565b60405180910390f35b34801561025f57600080fd5b50610268610b2f565b60405161027591906140a4565b60405180910390f35b34801561028a57600080fd5b50610293610b42565b6040516102a091906142f6565b60405180910390f35b3480156102b557600080fd5b506102d060048036038101906102cb9190613ecf565b610d69565b005b3480156102de57600080fd5b506102f960048036038101906102f49190613ecf565b610e78565b60405161030e99989796959493929190614327565b60405180910390f35b34801561032357600080fd5b5061033e60048036038101906103399190613ecf565b611013565b60405161035399989796959493929190614327565b60405180910390f35b34801561036857600080fd5b50610383600480360381019061037e9190614400565b61119e565b6040516103989998979695949392919061442d565b60405180910390f35b3480156103ad57600080fd5b506103c860048036038101906103c39190614502565b611439565b005b3480156103d657600080fd5b506103f160048036038101906103ec9190613e1a565b6116e5565b6040516103fe9190613e7e565b60405180910390f35b34801561041357600080fd5b5061042e60048036038101906104299190614400565b61171b565b60405161044399989796959493929190614327565b60405180910390f35b34801561045857600080fd5b50610473600480360381019061046e9190613ecf565b6118a6565b6040516104809190614542565b60405180910390f35b34801561049557600080fd5b506104b060048036038101906104ab9190613ecf565b6118c6565b6040516104bd919061455d565b60405180910390f35b3480156104d257600080fd5b506104ed60048036038101906104e891906145a4565b61196e565b005b3480156104fb57600080fd5b50610504611ba2565b005b34801561051257600080fd5b5061052d60048036038101906105289190613ecf565b611c2a565b60405161053a9190613e7e565b60405180910390f35b34801561054f57600080fd5b5061056a60048036038101906105659190613ecf565b611c4a565b60405161057791906145f3565b60405180910390f35b34801561058c57600080fd5b50610595611c7d565b6040516105a291906145f3565b60405180910390f35b3480156105b757600080fd5b506105c0611ca6565b6040516105cd9190614542565b60405180910390f35b3480156105e257600080fd5b506105fd60048036038101906105f89190613ecf565b611cac565b6040516106129998979695949392919061442d565b60405180910390f35b34801561062757600080fd5b50610642600480360381019061063d9190613ecf565b611f47565b6040516106579998979695949392919061460e565b60405180910390f35b34801561066c57600080fd5b5061067561215f565b6040516106829190614542565b60405180910390f35b34801561069757600080fd5b506106b260048036038101906106ad91906146a9565b612165565b005b3480156106c057600080fd5b506106c96129dd565b6040516106d69190614542565b60405180910390f35b3480156106eb57600080fd5b506106f46129e3565b6040516107019190614919565b60405180910390f35b34801561071657600080fd5b50610731600480360381019061072c919061493b565b612d3a565b005b34801561073f57600080fd5b5061075a60048036038101906107559190613ecf565b612e92565b60405161076f9998979695949392919061442d565b60405180910390f35b610792600480360381019061078d919061497b565b61313d565b005b3480156107a057600080fd5b506107bb60048036038101906107b69190613ecf565b613972565b6040516107c89190613e7e565b60405180910390f35b3480156107dd57600080fd5b506107f860048036038101906107f39190614400565b613992565b005b6012818051602081018201805184825260208301602085012081835280955050505050506000915054906101000a900460ff1681565b600080600060608060606000606088600115156009600083815260200190815260200160002060009054906101000a900460ff161515146108a6576040517f08c379a000000000000000000000000000000000000000000000000000000000815260040161089d90614ab2565b60405180910390fd5b6000600760008c815260200190815260200160002090508060000154995080600101549850806002015497508060030180546108e190614b01565b80601f016020809104026020016040519081016040528092919081815260200182805461090d90614b01565b801561095a5780601f1061092f5761010080835404028352916020019161095a565b820191906000526020600020905b81548152906001019060200180831161093d57829003601f168201915b5050505050965080600501805461097090614b01565b80601f016020809104026020016040519081016040528092919081815260200182805461099c90614b01565b80156109e95780601f106109be576101008083540402835291602001916109e9565b820191906000526020600020905b8154815290600101906020018083116109cc57829003601f168201915b505050505095508060060180546109ff90614b01565b80601f0160208091040260200160405190810160405280929190818152602001828054610a2b90614b01565b8015610a785780601f10610a4d57610100808354040283529160200191610a78565b820191906000526020600020905b815481529060010190602001808311610a5b57829003601f168201915b505050505094508060040160009054906101000a900460ff169350806008018054610aa290614b01565b80601f0160208091040260200160405190810160405280929190818152602001828054610ace90614b01565b8015610b1b5780601f10610af057610100808354040283529160200191610b1b565b820191906000526020600020905b815481529060010190602001808311610afe57829003601f168201915b505050505092505050919395975091939597565b600560009054906101000a900460ff1681565b6060600d805480602002602001604051908101604052809291908181526020016000905b82821015610d6057838290600052602060002090600802016040518061012001604052908160008201548152602001600182015481526020016002820154815260200160038201548152602001600482015481526020016005820160009054906101000a900460ff161515151581526020016005820160019054906101000a900473ffffffffffffffffffffffffffffffffffffffff1673ffffffffffffffffffffffffffffffffffffffff1673ffffffffffffffffffffffffffffffffffffffff168152602001600682018054610c3d90614b01565b80601f0160208091040260200160405190810160405280929190818152602001828054610c6990614b01565b8015610cb65780601f10610c8b57610100808354040283529160200191610cb6565b820191906000526020600020905b815481529060010190602001808311610c9957829003601f168201915b50505050508152602001600782018054610ccf90614b01565b80601f0160208091040260200160405190810160405280929190818152602001828054610cfb90614b01565b8015610d485780601f10610d1d57610100808354040283529160200191610d48565b820191906000526020600020905b815481529060010190602001808311610d2b57829003601f168201915b50505050508152505081526020019060010190610b66565b50505050905090565b610d71613a8a565b73ffffffffffffffffffffffffffffffffffffffff16610d8f611c7d565b73ffffffffffffffffffffffffffffffffffffffff1614610de5576040517f08c379a0000000000000000000000000000000000000000000000000000000008152600401610ddc90614b7f565b60405180910390fd5b6000811415610e29576040517f08c379a0000000000000000000000000000000000000000000000000000000008152600401610e2090614beb565b60405180910390fd5b8060038190555080423373ffffffffffffffffffffffffffffffffffffffff167fd86cac97cd3caa153b72db918dc0feb1ed9683dfd389c345d07f7d00390b63b760405160405180910390a450565b600d8181548110610e8857600080fd5b90600052602060002090600802016000915090508060000154908060010154908060020154908060030154908060040154908060050160009054906101000a900460ff16908060050160019054906101000a900473ffffffffffffffffffffffffffffffffffffffff1690806006018054610f0290614b01565b80601f0160208091040260200160405190810160405280929190818152602001828054610f2e90614b01565b8015610f7b5780601f10610f5057610100808354040283529160200191610f7b565b820191906000526020600020905b815481529060010190602001808311610f5e57829003601f168201915b505050505090806007018054610f9090614b01565b80601f0160208091040260200160405190810160405280929190818152602001828054610fbc90614b01565b80156110095780601f10610fde57610100808354040283529160200191611009565b820191906000526020600020905b815481529060010190602001808311610fec57829003601f168201915b5050505050905089565b60106020528060005260406000206000915090508060000154908060010154908060020154908060030154908060040154908060050160009054906101000a900460ff16908060050160019054906101000a900473ffffffffffffffffffffffffffffffffffffffff169080600601805461108d90614b01565b80601f01602080910402602001604051908101604052809291908181526020018280546110b990614b01565b80156111065780601f106110db57610100808354040283529160200191611106565b820191906000526020600020905b8154815290600101906020018083116110e957829003601f168201915b50505050509080600701805461111b90614b01565b80601f016020809104026020016040519081016040528092919081815260200182805461114790614b01565b80156111945780601f1061116957610100808354040283529160200191611194565b820191906000526020600020905b81548152906001019060200180831161117757829003601f168201915b5050505050905089565b60086020528060005260406000206000915090508060000154908060010154908060020154908060030180546111d390614b01565b80601f01602080910402602001604051908101604052809291908181526020018280546111ff90614b01565b801561124c5780601f106112215761010080835404028352916020019161124c565b820191906000526020600020905b81548152906001019060200180831161122f57829003601f168201915b5050505050908060040160009054906101000a900460ff169080600501805461127490614b01565b80601f01602080910402602001604051908101604052809291908181526020018280546112a090614b01565b80156112ed5780601f106112c2576101008083540402835291602001916112ed565b820191906000526020600020905b8154815290600101906020018083116112d057829003601f168201915b50505050509080600601805461130290614b01565b80601f016020809104026020016040519081016040528092919081815260200182805461132e90614b01565b801561137b5780601f106113505761010080835404028352916020019161137b565b820191906000526020600020905b81548152906001019060200180831161135e57829003601f168201915b5050505050908060070160009054906101000a900473ffffffffffffffffffffffffffffffffffffffff16908060080180546113b690614b01565b80601f01602080910402602001604051908101604052809291908181526020018280546113e290614b01565b801561142f5780601f106114045761010080835404028352916020019161142f565b820191906000526020600020905b81548152906001019060200180831161141257829003601f168201915b5050505050905089565b80600115156009600083815260200190815260200160002060009054906101000a900460ff161515146114a1576040517f08c379a000000000000000000000000000000000000000000000000000000000815260040161149890614ab2565b60405180910390fd5b816007600082815260200190815260200160002060070160009054906101000a900473ffffffffffffffffffffffffffffffffffffffff1673ffffffffffffffffffffffffffffffffffffffff163373ffffffffffffffffffffffffffffffffffffffff1614611546576040517f08c379a000000000000000000000000000000000000000000000000000000000815260040161153d90614c57565b60405180910390fd5b8373ffffffffffffffffffffffffffffffffffffffff163373ffffffffffffffffffffffffffffffffffffffff1614156115b5576040517f08c379a00000000000000000000000000000000000000000000000000000000081526004016115ac90614ce9565b60405180910390fd5b600073ffffffffffffffffffffffffffffffffffffffff168473ffffffffffffffffffffffffffffffffffffffff161415611625576040517f08c379a000000000000000000000000000000000000000000000000000000000815260040161161c90614d7b565b60405180910390fd5b836007600085815260200190815260200160002060070160006101000a81548173ffffffffffffffffffffffffffffffffffffffff021916908373ffffffffffffffffffffffffffffffffffffffff1602179055508373ffffffffffffffffffffffffffffffffffffffff163373ffffffffffffffffffffffffffffffffffffffff167fa4384cd8553d716f837cc7d68ed60529f9672b59cf96f1ce8bef3334183db34a426040516116d79190614542565b60405180910390a350505050565b600a818051602081018201805184825260208301602085012081835280955050505050506000915054906101000a900460ff1681565b600e6020528060005260406000206000915090508060000154908060010154908060020154908060030154908060040154908060050160009054906101000a900460ff16908060050160019054906101000a900473ffffffffffffffffffffffffffffffffffffffff169080600601805461179590614b01565b80601f01602080910402602001604051908101604052809291908181526020018280546117c190614b01565b801561180e5780601f106117e35761010080835404028352916020019161180e565b820191906000526020600020905b8154815290600101906020018083116117f157829003601f168201915b50505050509080600701805461182390614b01565b80601f016020809104026020016040519081016040528092919081815260200182805461184f90614b01565b801561189c5780601f106118715761010080835404028352916020019161189c565b820191906000526020600020905b81548152906001019060200180831161187f57829003601f168201915b5050505050905089565b600060106000838152602001908152602001600020600001549050919050565b60606010600083815260200190815260200160002060060180546118e990614b01565b80601f016020809104026020016040519081016040528092919081815260200182805461191590614b01565b80156119625780601f1061193757610100808354040283529160200191611962565b820191906000526020600020905b81548152906001019060200180831161194557829003601f168201915b50505050509050919050565b81600115156009600083815260200190815260200160002060009054906101000a900460ff161515146119d6576040517f08c379a00000000000000000000000000000000000000000000000000000000081526004016119cd90614ab2565b60405180910390fd5b826007600082815260200190815260200160002060070160009054906101000a900473ffffffffffffffffffffffffffffffffffffffff1673ffffffffffffffffffffffffffffffffffffffff163373ffffffffffffffffffffffffffffffffffffffff1614611a7b576040517f08c379a0000000000000000000000000000000000000000000000000000000008152600401611a7290614c57565b60405180910390fd5b600060076000868152602001908152602001600020905060006006811115611aa657611aa5613f93565b5b846006811115611ab957611ab8613f93565b5b1415611ac857611ac7614d9b565b5b8060040160009054906101000a900460ff166006811115611aec57611aeb613f93565b5b846006811115611aff57611afe613f93565b5b1415611b0e57611b0d614d9b565b5b838160040160006101000a81548160ff02191690836006811115611b3557611b34613f93565b5b0217905550836006811115611b4d57611b4c613f93565b5b3373ffffffffffffffffffffffffffffffffffffffff167ff5b844f9650efd8a638976417da0e54ababae9d5ae6ec7dbc97124f00d5a5c5e42604051611b939190614542565b60405180910390a35050505050565b611baa613a8a565b73ffffffffffffffffffffffffffffffffffffffff16611bc8611c7d565b73ffffffffffffffffffffffffffffffffffffffff1614611c1e576040517f08c379a0000000000000000000000000000000000000000000000000000000008152600401611c1590614b7f565b60405180910390fd5b611c286000613a92565b565b60096020528060005260406000206000915054906101000a900460ff1681565b600f6020528060005260406000206000915054906101000a900473ffffffffffffffffffffffffffffffffffffffff1681565b60008060009054906101000a900473ffffffffffffffffffffffffffffffffffffffff16905090565b60035481565b6007602052806000526040600020600091509050806000015490806001015490806002015490806003018054611ce190614b01565b80601f0160208091040260200160405190810160405280929190818152602001828054611d0d90614b01565b8015611d5a5780601f10611d2f57610100808354040283529160200191611d5a565b820191906000526020600020905b815481529060010190602001808311611d3d57829003601f168201915b5050505050908060040160009054906101000a900460ff1690806005018054611d8290614b01565b80601f0160208091040260200160405190810160405280929190818152602001828054611dae90614b01565b8015611dfb5780601f10611dd057610100808354040283529160200191611dfb565b820191906000526020600020905b815481529060010190602001808311611dde57829003601f168201915b505050505090806006018054611e1090614b01565b80601f0160208091040260200160405190810160405280929190818152602001828054611e3c90614b01565b8015611e895780601f10611e5e57610100808354040283529160200191611e89565b820191906000526020600020905b815481529060010190602001808311611e6c57829003601f168201915b5050505050908060070160009054906101000a900473ffffffffffffffffffffffffffffffffffffffff1690806008018054611ec490614b01565b80601f0160208091040260200160405190810160405280929190818152602001828054611ef090614b01565b8015611f3d5780601f10611f1257610100808354040283529160200191611f3d565b820191906000526020600020905b815481529060010190602001808311611f2057829003601f168201915b5050505050905089565b600080600080600080600060608089600115156011600083815260200190815260200160002060009054906101000a900460ff16151514611fbd576040517f08c379a0000000000000000000000000000000000000000000000000000000008152600401611fb490614e16565b60405180910390fd5b6000601060008d8152602001908152602001600020905080600001549a50806001015499508060020154985080600301549750806004015496508060050160009054906101000a900460ff1695508060050160019054906101000a900473ffffffffffffffffffffffffffffffffffffffff16945080600601805461204190614b01565b80601f016020809104026020016040519081016040528092919081815260200182805461206d90614b01565b80156120ba5780601f1061208f576101008083540402835291602001916120ba565b820191906000526020600020905b81548152906001019060200180831161209d57829003601f168201915b505050505093508060070180546120d090614b01565b80601f01602080910402602001604051908101604052809291908181526020018280546120fc90614b01565b80156121495780601f1061211e57610100808354040283529160200191612149565b820191906000526020600020905b81548152906001019060200180831161212c57829003601f168201915b5050505050925050509193959799909294969850565b600b5481565b8560006007600083815260200190815260200160002060070160009054906101000a900473ffffffffffffffffffffffffffffffffffffffff1673ffffffffffffffffffffffffffffffffffffffff163373ffffffffffffffffffffffffffffffffffffffff1614156121d757600190505b600115158115151461221e576040517f08c379a000000000000000000000000000000000000000000000000000000000815260040161221590614ea8565b60405180910390fd5b876007600082815260200190815260200160002060070160009054906101000a900473ffffffffffffffffffffffffffffffffffffffff1673ffffffffffffffffffffffffffffffffffffffff163373ffffffffffffffffffffffffffffffffffffffff16146122c3576040517f08c379a00000000000000000000000000000000000000000000000000000000081526004016122ba90614c57565b60405180910390fd5b88600115156009600083815260200190815260200160002060009054906101000a900460ff1615151461232b576040517f08c379a000000000000000000000000000000000000000000000000000000000815260040161232290614ab2565b60405180910390fd5b856000815111612370576040517f08c379a000000000000000000000000000000000000000000000000000000000815260040161236790614f14565b60405180910390fd5b600015156012826040516123849190614f70565b908152602001604051809103902060009054906101000a900460ff161515146123e2576040517f08c379a00000000000000000000000000000000000000000000000000000000081526004016123d990614fd3565b60405180910390fd5b600073ffffffffffffffffffffffffffffffffffffffff163373ffffffffffffffffffffffffffffffffffffffff16141561241c57600080fd5b60008a1415612460576040517f08c379a00000000000000000000000000000000000000000000000000000000081526004016124579061503f565b60405180910390fd5b60008651116124a4576040517f08c379a000000000000000000000000000000000000000000000000000000000815260040161249b906150d1565b60405180910390fd5b60008914156124e8576040517f08c379a00000000000000000000000000000000000000000000000000000000081526004016124df90615163565b60405180910390fd5b6124f2600c613b56565b60006124fe600c613b6c565b90506000600760008e81526020019081526020016000206000015490506040518061012001604052808381526020018d81526020018281526020018c81526020018b81526020016000151581526020013373ffffffffffffffffffffffffffffffffffffffff1681526020018a81526020018981525060106000848152602001908152602001600020600082015181600001556020820151816001015560408201518160020155606082015181600301556080820151816004015560a08201518160050160006101000a81548160ff02191690831515021790555060c08201518160050160016101000a81548173ffffffffffffffffffffffffffffffffffffffff021916908373ffffffffffffffffffffffffffffffffffffffff16021790555060e082015181600601908051906020019061263c929190613b90565b5061010082015181600701908051906020019061265a929190613b90565b50905050600d60106000848152602001908152602001600020908060018154018082558091505060019003906000526020600020906008020160009091909190915060008201548160000155600182015481600101556002820154816002015560038201548160030155600482015481600401556005820160009054906101000a900460ff168160050160006101000a81548160ff0219169083151502179055506005820160019054906101000a900473ffffffffffffffffffffffffffffffffffffffff168160050160016101000a81548173ffffffffffffffffffffffffffffffffffffffff021916908373ffffffffffffffffffffffffffffffffffffffff160217905550600682018160060190805461277690614b01565b612781929190613c16565b50600782018160070190805461279690614b01565b6127a1929190613c16565b50505060106000838152602001908152602001600020600e60003373ffffffffffffffffffffffffffffffffffffffff1673ffffffffffffffffffffffffffffffffffffffff16815260200190815260200160002060008201548160000155600182015481600101556002820154816002015560038201548160030155600482015481600401556005820160009054906101000a900460ff168160050160006101000a81548160ff0219169083151502179055506005820160019054906101000a900473ffffffffffffffffffffffffffffffffffffffff168160050160016101000a81548173ffffffffffffffffffffffffffffffffffffffff021916908373ffffffffffffffffffffffffffffffffffffffff16021790555060068201816006019080546128d090614b01565b6128db929190613c16565b5060078201816007019080546128f090614b01565b6128fb929190613c16565b509050506129156001600b54613b7a90919063ffffffff16565b600b8190555060016011600084815260200190815260200160002060006101000a81548160ff021916908315150217905550600160128a6040516129599190614f70565b908152602001604051809103902060006101000a81548160ff0219169083151502179055503373ffffffffffffffffffffffffffffffffffffffff167f3733808b347b3e95cb4b664d5c8e8fe364fc4dd34b77f49cde3ba2564d78888c42846040516129c6929190615183565b60405180910390a250505050505050505050505050565b60025481565b60606006805480602002602001604051908101604052809291908181526020016000905b82821015612d31578382906000526020600020906009020160405180610120016040529081600082015481526020016001820154815260200160028201548152602001600382018054612a5990614b01565b80601f0160208091040260200160405190810160405280929190818152602001828054612a8590614b01565b8015612ad25780601f10612aa757610100808354040283529160200191612ad2565b820191906000526020600020905b815481529060010190602001808311612ab557829003601f168201915b505050505081526020016004820160009054906101000a900460ff166006811115612b0057612aff613f93565b5b6006811115612b1257612b11613f93565b5b8152602001600582018054612b2690614b01565b80601f0160208091040260200160405190810160405280929190818152602001828054612b5290614b01565b8015612b9f5780601f10612b7457610100808354040283529160200191612b9f565b820191906000526020600020905b815481529060010190602001808311612b8257829003601f168201915b50505050508152602001600682018054612bb890614b01565b80601f0160208091040260200160405190810160405280929190818152602001828054612be490614b01565b8015612c315780601f10612c0657610100808354040283529160200191612c31565b820191906000526020600020905b815481529060010190602001808311612c1457829003601f168201915b505050505081526020016007820160009054906101000a900473ffffffffffffffffffffffffffffffffffffffff1673ffffffffffffffffffffffffffffffffffffffff1673ffffffffffffffffffffffffffffffffffffffff168152602001600882018054612ca090614b01565b80601f0160208091040260200160405190810160405280929190818152602001828054612ccc90614b01565b8015612d195780601f10612cee57610100808354040283529160200191612d19565b820191906000526020600020905b815481529060010190602001808311612cfc57829003601f168201915b50505050508152505081526020019060010190612a07565b50505050905090565b816010600082815260200190815260200160002060050160019054906101000a900473ffffffffffffffffffffffffffffffffffffffff1673ffffffffffffffffffffffffffffffffffffffff163373ffffffffffffffffffffffffffffffffffffffff1614612ddf576040517f08c379a0000000000000000000000000000000000000000000000000000000008152600401612dd6906151f8565b60405180910390fd5b6000821415612e23576040517f08c379a0000000000000000000000000000000000000000000000000000000008152600401612e1a90615264565b60405180910390fd5b816010600085815260200190815260200160002060030181905550423373ffffffffffffffffffffffffffffffffffffffff167f2adffbd83a80d927a3a5c687edc852ca8941019a58261ffb685cc98972ba7c2484604051612e859190614542565b60405180910390a3505050565b60068181548110612ea257600080fd5b9060005260206000209060090201600091509050806000015490806001015490806002015490806003018054612ed790614b01565b80601f0160208091040260200160405190810160405280929190818152602001828054612f0390614b01565b8015612f505780601f10612f2557610100808354040283529160200191612f50565b820191906000526020600020905b815481529060010190602001808311612f3357829003601f168201915b5050505050908060040160009054906101000a900460ff1690806005018054612f7890614b01565b80601f0160208091040260200160405190810160405280929190818152602001828054612fa490614b01565b8015612ff15780601f10612fc657610100808354040283529160200191612ff1565b820191906000526020600020905b815481529060010190602001808311612fd457829003601f168201915b50505050509080600601805461300690614b01565b80601f016020809104026020016040519081016040528092919081815260200182805461303290614b01565b801561307f5780601f106130545761010080835404028352916020019161307f565b820191906000526020600020905b81548152906001019060200180831161306257829003601f168201915b5050505050908060070160009054906101000a900473ffffffffffffffffffffffffffffffffffffffff16908060080180546130ba90614b01565b80601f01602080910402602001604051908101604052809291908181526020018280546130e690614b01565b80156131335780601f1061310857610100808354040283529160200191613133565b820191906000526020600020905b81548152906001019060200180831161311657829003601f168201915b5050505050905089565b8360001515600a826040516131529190614f70565b908152602001604051809103902060009054906101000a900460ff161515146131b0576040517f08c379a00000000000000000000000000000000000000000000000000000000081526004016131a7906152d0565b60405180910390fd5b60008151116131f4576040517f08c379a00000000000000000000000000000000000000000000000000000000081526004016131eb9061533c565b60405180910390fd5b6002600154141561323a576040517f08c379a0000000000000000000000000000000000000000000000000000000008152600401613231906153a8565b60405180910390fd5b6002600181905550600073ffffffffffffffffffffffffffffffffffffffff163373ffffffffffffffffffffffffffffffffffffffff16141561327c57600080fd5b60035434146132c0576040517f08c379a00000000000000000000000000000000000000000000000000000000081526004016132b790615414565b60405180910390fd5b6000861415613304576040517f08c379a00000000000000000000000000000000000000000000000000000000081526004016132fb90615480565b60405180910390fd5b6000845111613348576040517f08c379a000000000000000000000000000000000000000000000000000000000815260040161333f90615512565b60405180910390fd5b600083511161338c576040517f08c379a0000000000000000000000000000000000000000000000000000000008152600401613383906155a4565b60405180910390fd5b6133966004613b56565b60006133a26004613b6c565b9050604051806101200160405280828152602001888152602001428152602001878152602001600060068111156133dc576133db613f93565b5b81526020018681526020018581526020013373ffffffffffffffffffffffffffffffffffffffff1681526020018481525060076000838152602001908152602001600020600082015181600001556020820151816001015560408201518160020155606082015181600301908051906020019061345a929190613b90565b5060808201518160040160006101000a81548160ff0219169083600681111561348657613485613f93565b5b021790555060a08201518160050190805190602001906134a7929190613b90565b5060c08201518160060190805190602001906134c4929190613b90565b5060e08201518160070160006101000a81548173ffffffffffffffffffffffffffffffffffffffff021916908373ffffffffffffffffffffffffffffffffffffffff160217905550610100820151816008019080519060200190613529929190613b90565b509050506006600760008381526020019081526020016000209080600181540180825580915050600190039060005260206000209060090201600090919091909150600082015481600001556001820154816001015560028201548160020155600382018160030190805461359d90614b01565b6135a8929190613c16565b506004820160009054906101000a900460ff168160040160006101000a81548160ff021916908360068111156135e1576135e0613f93565b5b021790555060058201816005019080546135fa90614b01565b613605929190613c16565b50600682018160060190805461361a90614b01565b613625929190613c16565b506007820160009054906101000a900473ffffffffffffffffffffffffffffffffffffffff168160070160006101000a81548173ffffffffffffffffffffffffffffffffffffffff021916908373ffffffffffffffffffffffffffffffffffffffff16021790555060088201816008019080546136a190614b01565b6136ac929190613c16565b50505060076000828152602001908152602001600020600860003373ffffffffffffffffffffffffffffffffffffffff1673ffffffffffffffffffffffffffffffffffffffff168152602001908152602001600020600082015481600001556001820154816001015560028201548160020155600382018160030190805461373390614b01565b61373e929190613c16565b506004820160009054906101000a900460ff168160040160006101000a81548160ff0219169083600681111561377757613776613f93565b5b0217905550600582018160050190805461379090614b01565b61379b929190613c16565b5060068201816006019080546137b090614b01565b6137bb929190613c16565b506007820160009054906101000a900473ffffffffffffffffffffffffffffffffffffffff168160070160006101000a81548173ffffffffffffffffffffffffffffffffffffffff021916908373ffffffffffffffffffffffffffffffffffffffff160217905550600882018160080190805461383790614b01565b613842929190613c16565b5090505061385c6001600254613b7a90919063ffffffff16565b60028190555060016009600083815260200190815260200160002060006101000a81548160ff0219169083151502179055506001600a876040516138a09190614f70565b908152602001604051809103902060006101000a81548160ff0219169083151502179055506138cd611c7d565b73ffffffffffffffffffffffffffffffffffffffff166108fc349081150290604051600060405180830381858888f19350505050158015613912573d6000803e3d6000fd5b50803373ffffffffffffffffffffffffffffffffffffffff167fc8103fc44f19a39b2be3834708c831e6292d5b110a99e06a1f9c1c5f24faf5dd4260405161395a9190614542565b60405180910390a35060018081905550505050505050565b60116020528060005260406000206000915054906101000a900460ff1681565b61399a613a8a565b73ffffffffffffffffffffffffffffffffffffffff166139b8611c7d565b73ffffffffffffffffffffffffffffffffffffffff1614613a0e576040517f08c379a0000000000000000000000000000000000000000000000000000000008152600401613a0590614b7f565b60405180910390fd5b600073ffffffffffffffffffffffffffffffffffffffff168173ffffffffffffffffffffffffffffffffffffffff161415613a7e576040517f08c379a0000000000000000000000000000000000000000000000000000000008152600401613a7590615636565b60405180910390fd5b613a8781613a92565b50565b600033905090565b60008060009054906101000a900473ffffffffffffffffffffffffffffffffffffffff169050816000806101000a81548173ffffffffffffffffffffffffffffffffffffffff021916908373ffffffffffffffffffffffffffffffffffffffff1602179055508173ffffffffffffffffffffffffffffffffffffffff168173ffffffffffffffffffffffffffffffffffffffff167f8be0079c531659141344cd1fd0a4f28419497f9722a3daafe3b4186f6b6457e060405160405180910390a35050565b6001816000016000828254019250508190555050565b600081600001549050919050565b60008183613b889190615685565b905092915050565b828054613b9c90614b01565b90600052602060002090601f016020900481019282613bbe5760008555613c05565b82601f10613bd757805160ff1916838001178555613c05565b82800160010185558215613c05579182015b82811115613c04578251825591602001919060010190613be9565b5b509050613c129190613ca3565b5090565b828054613c2290614b01565b90600052602060002090601f016020900481019282613c445760008555613c92565b82601f10613c555780548555613c92565b82800160010185558215613c9257600052602060002091601f016020900482015b82811115613c91578254825591600101919060010190613c76565b5b509050613c9f9190613ca3565b5090565b5b80821115613cbc576000816000905550600101613ca4565b5090565b6000604051905090565b600080fd5b600080fd5b600080fd5b600080fd5b6000601f19601f8301169050919050565b7f4e487b7100000000000000000000000000000000000000000000000000000000600052604160045260246000fd5b613d2782613cde565b810181811067ffffffffffffffff82111715613d4657613d45613cef565b5b80604052505050565b6000613d59613cc0565b9050613d658282613d1e565b919050565b600067ffffffffffffffff821115613d8557613d84613cef565b5b613d8e82613cde565b9050602081019050919050565b82818337600083830152505050565b6000613dbd613db884613d6a565b613d4f565b905082815260208101848484011115613dd957613dd8613cd9565b5b613de4848285613d9b565b509392505050565b600082601f830112613e0157613e00613cd4565b5b8135613e11848260208601613daa565b91505092915050565b600060208284031215613e3057613e2f613cca565b5b600082013567ffffffffffffffff811115613e4e57613e4d613ccf565b5b613e5a84828501613dec565b91505092915050565b60008115159050919050565b613e7881613e63565b82525050565b6000602082019050613e936000830184613e6f565b92915050565b6000819050919050565b613eac81613e99565b8114613eb757600080fd5b50565b600081359050613ec981613ea3565b92915050565b600060208284031215613ee557613ee4613cca565b5b6000613ef384828501613eba565b91505092915050565b613f0581613e99565b82525050565b600081519050919050565b600082825260208201905092915050565b60005b83811015613f45578082015181840152602081019050613f2a565b83811115613f54576000848401525b50505050565b6000613f6582613f0b565b613f6f8185613f16565b9350613f7f818560208601613f27565b613f8881613cde565b840191505092915050565b7f4e487b7100000000000000000000000000000000000000000000000000000000600052602160045260246000fd5b60078110613fd357613fd2613f93565b5b50565b6000819050613fe482613fc2565b919050565b6000613ff482613fd6565b9050919050565b61400481613fe9565b82525050565b600061010082019050614020600083018b613efc565b61402d602083018a613efc565b61403a6040830189613efc565b818103606083015261404c8188613f5a565b905081810360808301526140608187613f5a565b905081810360a08301526140748186613f5a565b905061408360c0830185613ffb565b81810360e08301526140958184613f5a565b90509998505050505050505050565b60006020820190506140b96000830184613ffb565b92915050565b600081519050919050565b600082825260208201905092915050565b6000819050602082019050919050565b6140f481613e99565b82525050565b61410381613e63565b82525050565b600073ffffffffffffffffffffffffffffffffffffffff82169050919050565b600061413482614109565b9050919050565b61414481614129565b82525050565b600082825260208201905092915050565b600061416682613f0b565b614170818561414a565b9350614180818560208601613f27565b61418981613cde565b840191505092915050565b6000610120830160008301516141ad60008601826140eb565b5060208301516141c060208601826140eb565b5060408301516141d360408601826140eb565b5060608301516141e660608601826140eb565b5060808301516141f960808601826140eb565b5060a083015161420c60a08601826140fa565b5060c083015161421f60c086018261413b565b5060e083015184820360e0860152614237828261415b565b915050610100830151848203610100860152614253828261415b565b9150508091505092915050565b600061426c8383614194565b905092915050565b6000602082019050919050565b600061428c826140bf565b61429681856140ca565b9350836020820285016142a8856140db565b8060005b858110156142e457848403895281516142c58582614260565b94506142d083614274565b925060208a019950506001810190506142ac565b50829750879550505050505092915050565b600060208201905081810360008301526143108184614281565b905092915050565b61432181614129565b82525050565b60006101208201905061433d600083018c613efc565b61434a602083018b613efc565b614357604083018a613efc565b6143646060830189613efc565b6143716080830188613efc565b61437e60a0830187613e6f565b61438b60c0830186614318565b81810360e083015261439d8185613f5a565b90508181036101008301526143b28184613f5a565b90509a9950505050505050505050565b60006143cd82614109565b9050919050565b6143dd816143c2565b81146143e857600080fd5b50565b6000813590506143fa816143d4565b92915050565b60006020828403121561441657614415613cca565b5b6000614424848285016143eb565b91505092915050565b600061012082019050614443600083018c613efc565b614450602083018b613efc565b61445d604083018a613efc565b818103606083015261446f8189613f5a565b905061447e6080830188613ffb565b81810360a08301526144908187613f5a565b905081810360c08301526144a48186613f5a565b90506144b360e0830185614318565b8181036101008301526144c68184613f5a565b90509a9950505050505050505050565b6144df81614129565b81146144ea57600080fd5b50565b6000813590506144fc816144d6565b92915050565b6000806040838503121561451957614518613cca565b5b6000614527858286016144ed565b925050602061453885828601613eba565b9150509250929050565b60006020820190506145576000830184613efc565b92915050565b600060208201905081810360008301526145778184613f5a565b905092915050565b6007811061458c57600080fd5b50565b60008135905061459e8161457f565b92915050565b600080604083850312156145bb576145ba613cca565b5b60006145c985828601613eba565b92505060206145da8582860161458f565b9150509250929050565b6145ed816143c2565b82525050565b600060208201905061460860008301846145e4565b92915050565b600061012082019050614624600083018c613efc565b614631602083018b613efc565b61463e604083018a613efc565b61464b6060830189613efc565b6146586080830188613efc565b61466560a0830187613e6f565b61467260c08301866145e4565b81810360e08301526146848185613f5a565b90508181036101008301526146998184613f5a565b90509a9950505050505050505050565b60008060008060008060c087890312156146c6576146c5613cca565b5b60006146d489828a01613eba565b96505060206146e589828a01613eba565b95505060406146f689828a01613eba565b945050606061470789828a01613eba565b935050608087013567ffffffffffffffff81111561472857614727613ccf565b5b61473489828a01613dec565b92505060a087013567ffffffffffffffff81111561475557614754613ccf565b5b61476189828a01613dec565b9150509295509295509295565b600081519050919050565b600082825260208201905092915050565b6000819050602082019050919050565b6147a381613fe9565b82525050565b6000610120830160008301516147c260008601826140eb565b5060208301516147d560208601826140eb565b5060408301516147e860408601826140eb565b5060608301518482036060860152614800828261415b565b9150506080830151614815608086018261479a565b5060a083015184820360a086015261482d828261415b565b91505060c083015184820360c0860152614847828261415b565b91505060e083015161485c60e086018261413b565b50610100830151848203610100860152614876828261415b565b9150508091505092915050565b600061488f83836147a9565b905092915050565b6000602082019050919050565b60006148af8261476e565b6148b98185614779565b9350836020820285016148cb8561478a565b8060005b8581101561490757848403895281516148e88582614883565b94506148f383614897565b925060208a019950506001810190506148cf565b50829750879550505050505092915050565b6000602082019050818103600083015261493381846148a4565b905092915050565b6000806040838503121561495257614951613cca565b5b600061496085828601613eba565b925050602061497185828601613eba565b9150509250929050565b600080600080600060a0868803121561499757614996613cca565b5b60006149a588828901613eba565b955050602086013567ffffffffffffffff8111156149c6576149c5613ccf565b5b6149d288828901613dec565b945050604086013567ffffffffffffffff8111156149f3576149f2613ccf565b5b6149ff88828901613dec565b935050606086013567ffffffffffffffff811115614a2057614a1f613ccf565b5b614a2c88828901613dec565b925050608086013567ffffffffffffffff811115614a4d57614a4c613ccf565b5b614a5988828901613dec565b9150509295509295909350565b7f486f74656c20446f6573204e6f74204578697374000000000000000000000000600082015250565b6000614a9c601483613f16565b9150614aa782614a66565b602082019050919050565b60006020820190508181036000830152614acb81614a8f565b9050919050565b7f4e487b7100000000000000000000000000000000000000000000000000000000600052602260045260246000fd5b60006002820490506001821680614b1957607f821691505b60208210811415614b2d57614b2c614ad2565b5b50919050565b7f4f776e61626c653a2063616c6c6572206973206e6f7420746865206f776e6572600082015250565b6000614b69602083613f16565b9150614b7482614b33565b602082019050919050565b60006020820190508181036000830152614b9881614b5c565b9050919050565b7f4c697374696e67204665652043616e6e6f74206265207a65726f000000000000600082015250565b6000614bd5601a83613f16565b9150614be082614b9f565b602082019050919050565b60006020820190508181036000830152614c0481614bc8565b9050919050565b7f596f7520446f204e6f74204f776e205468697320486f74656c204974656d0000600082015250565b6000614c41601e83613f16565b9150614c4c82614c0b565b602082019050919050565b60006020820190508181036000830152614c7081614c34565b9050919050565b7f596f75206172652074686520726967687466756c206f776e657220616c72656160008201527f6479000000000000000000000000000000000000000000000000000000000000602082015250565b6000614cd3602283613f16565b9150614cde82614c77565b604082019050919050565b60006020820190508181036000830152614d0281614cc6565b9050919050565b7f506c65617365207370656369667920612076616c69642045544820616464726560008201527f7373000000000000000000000000000000000000000000000000000000000000602082015250565b6000614d65602283613f16565b9150614d7082614d09565b604082019050919050565b60006020820190508181036000830152614d9481614d58565b9050919050565b7f4e487b7100000000000000000000000000000000000000000000000000000000600052600160045260246000fd5b7f526f6f6d20446f6573204e6f7420457869737400000000000000000000000000600082015250565b6000614e00601383613f16565b9150614e0b82614dca565b602082019050919050565b60006020820190508181036000830152614e2f81614df3565b9050919050565b7f506c65617365204c697374204120486f74656c204265666f726520416464696e60008201527f67204120526f6f6d000000000000000000000000000000000000000000000000602082015250565b6000614e92602883613f16565b9150614e9d82614e36565b604082019050919050565b60006020820190508181036000830152614ec181614e85565b9050919050565b7f506c6561736520737065636966792074686520726f6f6d206e616d6500000000600082015250565b6000614efe601c83613f16565b9150614f0982614ec8565b602082019050919050565b60006020820190508181036000830152614f2d81614ef1565b9050919050565b600081905092915050565b6000614f4a82613f0b565b614f548185614f34565b9350614f64818560208601613f27565b80840191505092915050565b6000614f7c8284614f3f565b915081905092915050565b7f526f6f6d204e616d652045786973747300000000000000000000000000000000600082015250565b6000614fbd601083613f16565b9150614fc882614f87565b602082019050919050565b60006020820190508181036000830152614fec81614fb0565b9050919050565b7f4e756d626572206f6620626564732063616e6e6f74206265207a65726f000000600082015250565b6000615029601d83613f16565b915061503482614ff3565b602082019050919050565b600060208201905081810360008301526150588161501c565b9050919050565b7f506c6561736520737065636966792074686520726f6f6d20646573637269707460008201527f696f6e0000000000000000000000000000000000000000000000000000000000602082015250565b60006150bb602383613f16565b91506150c68261505f565b604082019050919050565b600060208201905081810360008301526150ea816150ae565b9050919050565b7f54686520726f6f6d206e696768742070726963652063616e6e6f74206265207a60008201527f65726f0000000000000000000000000000000000000000000000000000000000602082015250565b600061514d602383613f16565b9150615158826150f1565b604082019050919050565b6000602082019050818103600083015261517c81615140565b9050919050565b60006040820190506151986000830185613efc565b6151a56020830184613efc565b9392505050565b7f596f7520446f204e6f74204f776e205468697320526f6f6d0000000000000000600082015250565b60006151e2601883613f16565b91506151ed826151ac565b602082019050919050565b60006020820190508181036000830152615211816151d5565b9050919050565b7f70726963652043616e6e6f74206265207a65726f000000000000000000000000600082015250565b600061524e601483613f16565b915061525982615218565b602082019050919050565b6000602082019050818103600083015261527d81615241565b9050919050565b7f486f74656c204e616d6520457869737473000000000000000000000000000000600082015250565b60006152ba601183613f16565b91506152c582615284565b602082019050919050565b600060208201905081810360008301526152e9816152ad565b9050919050565b7f506c6561736520737065636966792074686520686f74656c206e616d65000000600082015250565b6000615326601d83613f16565b9150615331826152f0565b602082019050919050565b6000602082019050818103600083015261535581615319565b9050919050565b7f5265656e7472616e637947756172643a207265656e7472616e742063616c6c00600082015250565b6000615392601f83613f16565b915061539d8261535c565b602082019050919050565b600060208201905081810360008301526153c181615385565b9050919050565b7f496e76616c6964204c697374696e672046656500000000000000000000000000600082015250565b60006153fe601383613f16565b9150615409826153c8565b602082019050919050565b6000602082019050818103600083015261542d816153f1565b9050919050565b7f4e756d626572206f6620726f6f6d732063616e6e6f74206265207a65726f0000600082015250565b600061546a601e83613f16565b915061547582615434565b602082019050919050565b600060208201905081810360008301526154998161545d565b9050919050565b7f506c6561736520737065636966792074686520686f74656c206465736372697060008201527f74696f6e00000000000000000000000000000000000000000000000000000000602082015250565b60006154fc602483613f16565b9150615507826154a0565b604082019050919050565b6000602082019050818103600083015261552b816154ef565b9050919050565b7f506c65617365207370656369667920746865206c6f636174696f6e206f66207460008201527f686520686f74656c000000000000000000000000000000000000000000000000602082015250565b600061558e602883613f16565b915061559982615532565b604082019050919050565b600060208201905081810360008301526155bd81615581565b9050919050565b7f4f776e61626c653a206e6577206f776e657220697320746865207a65726f206160008201527f6464726573730000000000000000000000000000000000000000000000000000602082015250565b6000615620602683613f16565b915061562b826155c4565b604082019050919050565b6000602082019050818103600083015261564f81615613565b9050919050565b7f4e487b7100000000000000000000000000000000000000000000000000000000600052601160045260246000fd5b600061569082613e99565b915061569b83613e99565b9250827fffffffffffffffffffffffffffffffffffffffffffffffffffffffffffffffff038211156156d0576156cf615656565b5b82820190509291505056fea264697066735822122099439e3663a554b4a1b92fc650ff81e34e152612387a1aad497fce16cad7755664736f6c634300080a0033",
  "immutableReferences": {},
  "source": "// SPDX-License-Identifier: MIT\npragma solidity ^0.8.0;\nimport '@openzeppelin/contracts/utils/math/SafeMath.sol';\nimport '@openzeppelin/contracts/utils/Counters.sol';\nimport './Hotel.sol';\n\ncontract Room is Hotel{\n    using SafeMath for uint256;\n    using Counters for Counters.Counter;\n\n    uint public totalRooms = 0;\n    Counters.Counter private _roomIds;\n\n    struct RoomItem{\n        uint id;\n        uint totalBeds;\n        uint hotelId;\n        uint pricePerNight;\n        uint number;\n        bool isBooked;\n        address payable user;\n        string name;\n        string description;\n    }\n\n    RoomItem[] public rooms;\n\n    mapping(address => RoomItem) public roomOwner;\n    mapping(uint => address) public roomTenant; //who currently resides in the room\n    mapping(uint => RoomItem) public roomItemId; //to help track a room item by it's id\n    mapping(uint => bool) public existingRoomItem;\n    mapping(string => bool) public existingRoomItemName;\n\n    event NewRoomCreated(address indexed user, uint date, uint id);\n    event RoomNightPriceSet(address indexed user, uint price, uint indexed date);\n    event RoomBooked(uint date, address indexed tenant, uint indexed amountPaid, uint indexed roomId);\n\n    constructor() public{\n\n    }\n\n    modifier roomExists(uint _roomId){\n        require(existingRoomItem[_roomId] == true,\"Room Does Not Exist\");\n        _;\n    }\n\n    modifier roomNameDoesNotExist(string memory _name) {\n      require(bytes(_name).length > 0,\"Please specify the room name\");\n      require(existingRoomItemName[_name] == false,\"Room Name Exists\");\n      _;\n    }\n\n    modifier onlyRoomOwner(uint _roomId){\n        require(msg.sender == roomItemId[_roomId].user,\"You Do Not Own This Room\");\n        _;\n    }\n\n    modifier isNotBooked(uint _roomId){\n      require(roomItemId[_roomId].isBooked == false,\"Room is occupied\");\n      _;\n    }\n\n    function addRoom(uint _hotelId, uint _totalBeds, uint _pricePerNight, uint _number,string memory _name, string memory _description) public\n    hasListedHotel(_hotelId)\n    ownsHotel(_hotelId)\n    hotelExists(_hotelId)\n    roomNameDoesNotExist(_name)\n    {\n        require(msg.sender != address(0));\n        require(_totalBeds != 0,\"Number of beds cannot be zero\");\n        require(bytes(_description).length > 0,\"Please specify the room description\");\n        require(_pricePerNight != 0,\"The room night price cannot be zero\");\n        _roomIds.increment();\n        uint currentRoomId = _roomIds.current();\n        uint hotelId = hotelItemId[_hotelId].id;\n        roomItemId[currentRoomId]  = RoomItem(currentRoomId,_totalBeds,hotelId,_pricePerNight, _number, false, payable(msg.sender),_name,_description);\n        rooms.push(roomItemId[currentRoomId]);\n        roomOwner[msg.sender] = roomItemId[currentRoomId];\n        totalRooms = totalRooms.add(1);\n        existingRoomItem[currentRoomId] = true;\n        existingRoomItemName[_name] = true;\n        emit NewRoomCreated(msg.sender, block.timestamp, currentRoomId);\n    }\n\n    function getRoomBioData(uint _roomId) public view roomExists(_roomId) returns(\n        uint _id,\n        uint _numOfBeds,\n        uint _hotelId,\n        uint _pricePerNight,\n        uint _number,\n        bool _isBooked,\n        address _user,\n        string memory _name,\n        string memory _description)\n        {\n            RoomItem storage room = roomItemId[_roomId];\n            _id = room.id;\n            _numOfBeds = room.totalBeds;\n            _hotelId = room.hotelId;\n            _pricePerNight = room.pricePerNight;\n            _number = room.number;\n            _isBooked = room.isBooked;\n            _user = room.user;\n            _name = room.name;\n            _description = room.description;\n        }\n\n    function getName(uint _roomId) external virtual view override returns(string memory){\n      return roomItemId[_roomId].name;\n    }\n\n    function getId(uint _roomId) external virtual view override returns(uint){\n        return roomItemId[_roomId].id;\n    }\n\n    function setNightPrice(uint _roomId, uint _price) public onlyRoomOwner(_roomId){\n        require(_price != 0,\"price Cannot be zero\");\n        roomItemId[_roomId].pricePerNight = _price;\n        emit RoomNightPriceSet(msg.sender, _price, block.timestamp);\n    }\n\n    function _setBooked(uint _roomId) internal roomExists(_roomId){\n        roomItemId[_roomId].isBooked = true;\n    }\n\n    function listRooms() public view returns(RoomItem[] memory){\n        return rooms;\n    }\n}\n",
  "sourcePath": "D:/Dickens/Programming/Blockchain/Projects/Personal/HotelDapp/contracts/Room.sol",
  "compiler": {
    "name": "solc",
    "version": "0.8.10+commit.fc410830.Emscripten.clang"
  },
  "schemaVersion": "3.4.1",
  "updatedAt": "2021-11-20T18:58:22.010Z",
  "networkType": "ethereum",
  "devdoc": {
    "kind": "dev",
    "methods": {
      "owner()": {
        "details": "Returns the address of the current owner."
      },
      "renounceOwnership()": {
        "details": "Leaves the contract without owner. It will not be possible to call `onlyOwner` functions anymore. Can only be called by the current owner. NOTE: Renouncing ownership will leave the contract without an owner, thereby removing any functionality that is only available to the owner."
      },
      "transferOwnership(address)": {
        "details": "Transfers ownership of the contract to a new account (`newOwner`). Can only be called by the current owner."
      }
    },
    "version": 1
  },
  "userdoc": {
    "kind": "user",
    "methods": {},
    "version": 1
  }
}