{
  "contractName": "Room",
  "abi": [
    {
      "inputs": [],
      "stateMutability": "nonpayable",
      "type": "constructor"
    },
    {
      "anonymous": false,
      "inputs": [
        {
          "indexed": true,
          "internalType": "address",
          "name": "causer",
          "type": "address"
        },
        {
          "indexed": false,
          "internalType": "uint256",
          "name": "date",
          "type": "uint256"
        },
        {
          "indexed": true,
          "internalType": "enum Hotel.HOTEL_CATEGORY",
          "name": "newCategory",
          "type": "uint8"
        }
      ],
      "name": "HotelCategoryChanged",
      "type": "event"
    },
    {
      "anonymous": false,
      "inputs": [
        {
          "indexed": false,
          "internalType": "uint256",
          "name": "date",
          "type": "uint256"
        },
        {
          "indexed": true,
          "internalType": "address",
          "name": "causer",
          "type": "address"
        },
        {
          "indexed": true,
          "internalType": "uint256",
          "name": "id",
          "type": "uint256"
        }
      ],
      "name": "HotelCreated",
      "type": "event"
    },
    {
      "anonymous": false,
      "inputs": [
        {
          "indexed": true,
          "internalType": "address",
          "name": "user",
          "type": "address"
        },
        {
          "indexed": true,
          "internalType": "uint256",
          "name": "date",
          "type": "uint256"
        },
        {
          "indexed": true,
          "internalType": "uint256",
          "name": "fee",
          "type": "uint256"
        }
      ],
      "name": "HotelListingFeeChanged",
      "type": "event"
    },
    {
      "anonymous": false,
      "inputs": [
        {
          "indexed": true,
          "internalType": "address",
          "name": "causer",
          "type": "address"
        },
        {
          "indexed": true,
          "internalType": "address",
          "name": "newOwner",
          "type": "address"
        },
        {
          "indexed": false,
          "internalType": "uint256",
          "name": "date",
          "type": "uint256"
        }
      ],
      "name": "HotelOwnerChanged",
      "type": "event"
    },
    {
      "anonymous": false,
      "inputs": [
        {
          "indexed": true,
          "internalType": "address",
          "name": "user",
          "type": "address"
        },
        {
          "indexed": false,
          "internalType": "uint256",
          "name": "date",
          "type": "uint256"
        },
        {
          "indexed": false,
          "internalType": "uint256",
          "name": "id",
          "type": "uint256"
        }
      ],
      "name": "NewRoomCreated",
      "type": "event"
    },
    {
      "anonymous": false,
      "inputs": [
        {
          "indexed": true,
          "internalType": "address",
          "name": "previousOwner",
          "type": "address"
        },
        {
          "indexed": true,
          "internalType": "address",
          "name": "newOwner",
          "type": "address"
        }
      ],
      "name": "OwnershipTransferred",
      "type": "event"
    },
    {
      "anonymous": false,
      "inputs": [
        {
          "indexed": false,
          "internalType": "uint256",
          "name": "date",
          "type": "uint256"
        },
        {
          "indexed": true,
          "internalType": "address",
          "name": "tenant",
          "type": "address"
        },
        {
          "indexed": true,
          "internalType": "uint256",
          "name": "amountPaid",
          "type": "uint256"
        },
        {
          "indexed": true,
          "internalType": "uint256",
          "name": "roomId",
          "type": "uint256"
        }
      ],
      "name": "RoomBooked",
      "type": "event"
    },
    {
      "anonymous": false,
      "inputs": [
        {
          "indexed": true,
          "internalType": "address",
          "name": "user",
          "type": "address"
        },
        {
          "indexed": false,
          "internalType": "uint256",
          "name": "price",
          "type": "uint256"
        },
        {
          "indexed": true,
          "internalType": "uint256",
          "name": "date",
          "type": "uint256"
        }
      ],
      "name": "RoomNightPriceSet",
      "type": "event"
    },
    {
      "inputs": [
        {
          "internalType": "string",
          "name": "_name",
          "type": "string"
        },
        {
          "internalType": "string",
          "name": "_description",
          "type": "string"
        },
        {
          "internalType": "string",
          "name": "_location",
          "type": "string"
        },
        {
          "internalType": "string",
          "name": "_imageHash",
          "type": "string"
        }
      ],
      "name": "addHotel",
      "outputs": [],
      "stateMutability": "payable",
      "type": "function",
      "payable": true
    },
    {
      "inputs": [
        {
          "internalType": "uint256",
          "name": "_hotelId",
          "type": "uint256"
        },
        {
          "internalType": "enum Hotel.HOTEL_CATEGORY",
          "name": "_category",
          "type": "uint8"
        }
      ],
      "name": "changeHotelCategory",
      "outputs": [],
      "stateMutability": "nonpayable",
      "type": "function"
    },
    {
      "inputs": [
        {
          "internalType": "address payable",
          "name": "_newOwner",
          "type": "address"
        },
        {
          "internalType": "uint256",
          "name": "_hotelId",
          "type": "uint256"
        }
      ],
      "name": "changeHotelOwner",
      "outputs": [],
      "stateMutability": "nonpayable",
      "type": "function"
    },
    {
      "inputs": [
        {
          "internalType": "uint256",
          "name": "",
          "type": "uint256"
        }
      ],
      "name": "existingHotelItemId",
      "outputs": [
        {
          "internalType": "bool",
          "name": "",
          "type": "bool"
        }
      ],
      "stateMutability": "view",
      "type": "function",
      "constant": true
    },
    {
      "inputs": [
        {
          "internalType": "string",
          "name": "",
          "type": "string"
        }
      ],
      "name": "existingHotelItemName",
      "outputs": [
        {
          "internalType": "bool",
          "name": "",
          "type": "bool"
        }
      ],
      "stateMutability": "view",
      "type": "function",
      "constant": true
    },
    {
      "inputs": [
        {
          "internalType": "uint256",
          "name": "",
          "type": "uint256"
        }
      ],
      "name": "existingRoomItem",
      "outputs": [
        {
          "internalType": "bool",
          "name": "",
          "type": "bool"
        }
      ],
      "stateMutability": "view",
      "type": "function",
      "constant": true
    },
    {
      "inputs": [
        {
          "internalType": "string",
          "name": "",
          "type": "string"
        }
      ],
      "name": "existingRoomItemName",
      "outputs": [
        {
          "internalType": "bool",
          "name": "",
          "type": "bool"
        }
      ],
      "stateMutability": "view",
      "type": "function",
      "constant": true
    },
    {
      "inputs": [
        {
          "internalType": "uint256",
          "name": "_hotelId",
          "type": "uint256"
        }
      ],
      "name": "getHotelBioData",
      "outputs": [
        {
          "internalType": "uint256",
          "name": "_id",
          "type": "uint256"
        },
        {
          "internalType": "uint256",
          "name": "_totalRooms",
          "type": "uint256"
        },
        {
          "internalType": "uint256",
          "name": "_date",
          "type": "uint256"
        },
        {
          "internalType": "string",
          "name": "_name",
          "type": "string"
        },
        {
          "internalType": "string",
          "name": "_description",
          "type": "string"
        },
        {
          "internalType": "string",
          "name": "_location",
          "type": "string"
        },
        {
          "internalType": "enum Hotel.HOTEL_CATEGORY",
          "name": "_category",
          "type": "uint8"
        },
        {
          "internalType": "string",
          "name": "_photo",
          "type": "string"
        }
      ],
      "stateMutability": "view",
      "type": "function",
      "constant": true
    },
    {
      "inputs": [
        {
          "internalType": "uint256",
          "name": "hotelId",
          "type": "uint256"
        }
      ],
      "name": "getImageHash",
      "outputs": [
        {
          "internalType": "string",
          "name": "_imageHash",
          "type": "string"
        }
      ],
      "stateMutability": "view",
      "type": "function",
      "constant": true
    },
    {
      "inputs": [],
      "name": "hotelCategory",
      "outputs": [
        {
          "internalType": "enum Hotel.HOTEL_CATEGORY",
          "name": "",
          "type": "uint8"
        }
      ],
      "stateMutability": "view",
      "type": "function",
      "constant": true
    },
    {
      "inputs": [
        {
          "internalType": "uint256",
          "name": "",
          "type": "uint256"
        }
      ],
      "name": "hotelItemId",
      "outputs": [
        {
          "internalType": "uint256",
          "name": "id",
          "type": "uint256"
        },
        {
          "internalType": "uint256",
          "name": "totalRooms",
          "type": "uint256"
        },
        {
          "internalType": "uint256",
          "name": "creationDate",
          "type": "uint256"
        },
        {
          "internalType": "string",
          "name": "name",
          "type": "string"
        },
        {
          "internalType": "enum Hotel.HOTEL_CATEGORY",
          "name": "hotelCategory",
          "type": "uint8"
        },
        {
          "internalType": "string",
          "name": "description",
          "type": "string"
        },
        {
          "internalType": "string",
          "name": "locationAddress",
          "type": "string"
        },
        {
          "internalType": "address payable",
          "name": "user",
          "type": "address"
        },
        {
          "internalType": "string",
          "name": "imageHash",
          "type": "string"
        }
      ],
      "stateMutability": "view",
      "type": "function",
      "constant": true
    },
    {
      "inputs": [
        {
          "internalType": "uint256",
          "name": "",
          "type": "uint256"
        }
      ],
      "name": "hotelItems",
      "outputs": [
        {
          "internalType": "uint256",
          "name": "id",
          "type": "uint256"
        },
        {
          "internalType": "uint256",
          "name": "totalRooms",
          "type": "uint256"
        },
        {
          "internalType": "uint256",
          "name": "creationDate",
          "type": "uint256"
        },
        {
          "internalType": "string",
          "name": "name",
          "type": "string"
        },
        {
          "internalType": "enum Hotel.HOTEL_CATEGORY",
          "name": "hotelCategory",
          "type": "uint8"
        },
        {
          "internalType": "string",
          "name": "description",
          "type": "string"
        },
        {
          "internalType": "string",
          "name": "locationAddress",
          "type": "string"
        },
        {
          "internalType": "address payable",
          "name": "user",
          "type": "address"
        },
        {
          "internalType": "string",
          "name": "imageHash",
          "type": "string"
        }
      ],
      "stateMutability": "view",
      "type": "function",
      "constant": true
    },
    {
      "inputs": [],
      "name": "hotelListingFee",
      "outputs": [
        {
          "internalType": "uint256",
          "name": "",
          "type": "uint256"
        }
      ],
      "stateMutability": "view",
      "type": "function",
      "constant": true
    },
    {
      "inputs": [
        {
          "internalType": "address",
          "name": "",
          "type": "address"
        }
      ],
      "name": "hotelOwner",
      "outputs": [
        {
          "internalType": "uint256",
          "name": "id",
          "type": "uint256"
        },
        {
          "internalType": "uint256",
          "name": "totalRooms",
          "type": "uint256"
        },
        {
          "internalType": "uint256",
          "name": "creationDate",
          "type": "uint256"
        },
        {
          "internalType": "string",
          "name": "name",
          "type": "string"
        },
        {
          "internalType": "enum Hotel.HOTEL_CATEGORY",
          "name": "hotelCategory",
          "type": "uint8"
        },
        {
          "internalType": "string",
          "name": "description",
          "type": "string"
        },
        {
          "internalType": "string",
          "name": "locationAddress",
          "type": "string"
        },
        {
          "internalType": "address payable",
          "name": "user",
          "type": "address"
        },
        {
          "internalType": "string",
          "name": "imageHash",
          "type": "string"
        }
      ],
      "stateMutability": "view",
      "type": "function",
      "constant": true
    },
    {
      "inputs": [],
      "name": "listAllHotels",
      "outputs": [
        {
          "components": [
            {
              "internalType": "uint256",
              "name": "id",
              "type": "uint256"
            },
            {
              "internalType": "uint256",
              "name": "totalRooms",
              "type": "uint256"
            },
            {
              "internalType": "uint256",
              "name": "creationDate",
              "type": "uint256"
            },
            {
              "internalType": "string",
              "name": "name",
              "type": "string"
            },
            {
              "internalType": "enum Hotel.HOTEL_CATEGORY",
              "name": "hotelCategory",
              "type": "uint8"
            },
            {
              "internalType": "string",
              "name": "description",
              "type": "string"
            },
            {
              "internalType": "string",
              "name": "locationAddress",
              "type": "string"
            },
            {
              "internalType": "address payable",
              "name": "user",
              "type": "address"
            },
            {
              "internalType": "string",
              "name": "imageHash",
              "type": "string"
            }
          ],
          "internalType": "struct Hotel.HotelItem[]",
          "name": "",
          "type": "tuple[]"
        }
      ],
      "stateMutability": "view",
      "type": "function",
      "constant": true
    },
    {
      "inputs": [],
      "name": "owner",
      "outputs": [
        {
          "internalType": "address",
          "name": "",
          "type": "address"
        }
      ],
      "stateMutability": "view",
      "type": "function",
      "constant": true
    },
    {
      "inputs": [],
      "name": "renounceOwnership",
      "outputs": [],
      "stateMutability": "nonpayable",
      "type": "function"
    },
    {
      "inputs": [
        {
          "internalType": "uint256",
          "name": "",
          "type": "uint256"
        }
      ],
      "name": "roomItemId",
      "outputs": [
        {
          "internalType": "uint256",
          "name": "id",
          "type": "uint256"
        },
        {
          "internalType": "uint256",
          "name": "totalBeds",
          "type": "uint256"
        },
        {
          "internalType": "uint256",
          "name": "hotelId",
          "type": "uint256"
        },
        {
          "internalType": "uint256",
          "name": "pricePerNight",
          "type": "uint256"
        },
        {
          "internalType": "uint256",
          "name": "number",
          "type": "uint256"
        },
        {
          "internalType": "bool",
          "name": "isBooked",
          "type": "bool"
        },
        {
          "internalType": "address payable",
          "name": "user",
          "type": "address"
        },
        {
          "internalType": "string",
          "name": "name",
          "type": "string"
        },
        {
          "internalType": "string",
          "name": "description",
          "type": "string"
        }
      ],
      "stateMutability": "view",
      "type": "function",
      "constant": true
    },
    {
      "inputs": [
        {
          "internalType": "address",
          "name": "",
          "type": "address"
        }
      ],
      "name": "roomOwner",
      "outputs": [
        {
          "internalType": "uint256",
          "name": "id",
          "type": "uint256"
        },
        {
          "internalType": "uint256",
          "name": "totalBeds",
          "type": "uint256"
        },
        {
          "internalType": "uint256",
          "name": "hotelId",
          "type": "uint256"
        },
        {
          "internalType": "uint256",
          "name": "pricePerNight",
          "type": "uint256"
        },
        {
          "internalType": "uint256",
          "name": "number",
          "type": "uint256"
        },
        {
          "internalType": "bool",
          "name": "isBooked",
          "type": "bool"
        },
        {
          "internalType": "address payable",
          "name": "user",
          "type": "address"
        },
        {
          "internalType": "string",
          "name": "name",
          "type": "string"
        },
        {
          "internalType": "string",
          "name": "description",
          "type": "string"
        }
      ],
      "stateMutability": "view",
      "type": "function",
      "constant": true
    },
    {
      "inputs": [
        {
          "internalType": "uint256",
          "name": "",
          "type": "uint256"
        }
      ],
      "name": "roomTenant",
      "outputs": [
        {
          "internalType": "address",
          "name": "",
          "type": "address"
        }
      ],
      "stateMutability": "view",
      "type": "function",
      "constant": true
    },
    {
      "inputs": [
        {
          "internalType": "uint256",
          "name": "",
          "type": "uint256"
        }
      ],
      "name": "rooms",
      "outputs": [
        {
          "internalType": "uint256",
          "name": "id",
          "type": "uint256"
        },
        {
          "internalType": "uint256",
          "name": "totalBeds",
          "type": "uint256"
        },
        {
          "internalType": "uint256",
          "name": "hotelId",
          "type": "uint256"
        },
        {
          "internalType": "uint256",
          "name": "pricePerNight",
          "type": "uint256"
        },
        {
          "internalType": "uint256",
          "name": "number",
          "type": "uint256"
        },
        {
          "internalType": "bool",
          "name": "isBooked",
          "type": "bool"
        },
        {
          "internalType": "address payable",
          "name": "user",
          "type": "address"
        },
        {
          "internalType": "string",
          "name": "name",
          "type": "string"
        },
        {
          "internalType": "string",
          "name": "description",
          "type": "string"
        }
      ],
      "stateMutability": "view",
      "type": "function",
      "constant": true
    },
    {
      "inputs": [
        {
          "internalType": "uint256",
          "name": "hotelId",
          "type": "uint256"
        },
        {
          "internalType": "string",
          "name": "imageHash",
          "type": "string"
        }
      ],
      "name": "setImageHash",
      "outputs": [],
      "stateMutability": "nonpayable",
      "type": "function"
    },
    {
      "inputs": [
        {
          "internalType": "uint256",
          "name": "_fee",
          "type": "uint256"
        }
      ],
      "name": "setListingFee",
      "outputs": [],
      "stateMutability": "nonpayable",
      "type": "function"
    },
    {
      "inputs": [],
      "name": "totalHotels",
      "outputs": [
        {
          "internalType": "uint256",
          "name": "",
          "type": "uint256"
        }
      ],
      "stateMutability": "view",
      "type": "function",
      "constant": true
    },
    {
      "inputs": [],
      "name": "totalRooms",
      "outputs": [
        {
          "internalType": "uint256",
          "name": "",
          "type": "uint256"
        }
      ],
      "stateMutability": "view",
      "type": "function",
      "constant": true
    },
    {
      "inputs": [
        {
          "internalType": "address",
          "name": "newOwner",
          "type": "address"
        }
      ],
      "name": "transferOwnership",
      "outputs": [],
      "stateMutability": "nonpayable",
      "type": "function"
    },
    {
      "inputs": [
        {
          "internalType": "uint256",
          "name": "_hotelId",
          "type": "uint256"
        },
        {
          "internalType": "uint256",
          "name": "_totalBeds",
          "type": "uint256"
        },
        {
          "internalType": "uint256",
          "name": "_pricePerNight",
          "type": "uint256"
        },
        {
          "internalType": "uint256",
          "name": "_number",
          "type": "uint256"
        },
        {
          "internalType": "string",
          "name": "_name",
          "type": "string"
        },
        {
          "internalType": "string",
          "name": "_description",
          "type": "string"
        }
      ],
      "name": "addRoom",
      "outputs": [],
      "stateMutability": "nonpayable",
      "type": "function"
    },
    {
      "inputs": [
        {
          "internalType": "uint256",
          "name": "_roomId",
          "type": "uint256"
        }
      ],
      "name": "getRoomBioData",
      "outputs": [
        {
          "internalType": "uint256",
          "name": "_id",
          "type": "uint256"
        },
        {
          "internalType": "uint256",
          "name": "_numOfBeds",
          "type": "uint256"
        },
        {
          "internalType": "uint256",
          "name": "_hotelId",
          "type": "uint256"
        },
        {
          "internalType": "uint256",
          "name": "_pricePerNight",
          "type": "uint256"
        },
        {
          "internalType": "uint256",
          "name": "_number",
          "type": "uint256"
        },
        {
          "internalType": "bool",
          "name": "_isBooked",
          "type": "bool"
        },
        {
          "internalType": "address",
          "name": "_user",
          "type": "address"
        },
        {
          "internalType": "string",
          "name": "_name",
          "type": "string"
        },
        {
          "internalType": "string",
          "name": "_description",
          "type": "string"
        }
      ],
      "stateMutability": "view",
      "type": "function",
      "constant": true
    },
    {
      "inputs": [
        {
          "internalType": "uint256",
          "name": "_roomId",
          "type": "uint256"
        }
      ],
      "name": "getName",
      "outputs": [
        {
          "internalType": "string",
          "name": "",
          "type": "string"
        }
      ],
      "stateMutability": "view",
      "type": "function",
      "constant": true
    },
    {
      "inputs": [
        {
          "internalType": "uint256",
          "name": "_roomId",
          "type": "uint256"
        }
      ],
      "name": "getId",
      "outputs": [
        {
          "internalType": "uint256",
          "name": "",
          "type": "uint256"
        }
      ],
      "stateMutability": "view",
      "type": "function",
      "constant": true
    },
    {
      "inputs": [
        {
          "internalType": "uint256",
          "name": "_roomId",
          "type": "uint256"
        },
        {
          "internalType": "uint256",
          "name": "_price",
          "type": "uint256"
        }
      ],
      "name": "setNightPrice",
      "outputs": [],
      "stateMutability": "nonpayable",
      "type": "function"
    },
    {
      "inputs": [],
      "name": "listRooms",
      "outputs": [
        {
          "components": [
            {
              "internalType": "uint256",
              "name": "id",
              "type": "uint256"
            },
            {
              "internalType": "uint256",
              "name": "totalBeds",
              "type": "uint256"
            },
            {
              "internalType": "uint256",
              "name": "hotelId",
              "type": "uint256"
            },
            {
              "internalType": "uint256",
              "name": "pricePerNight",
              "type": "uint256"
            },
            {
              "internalType": "uint256",
              "name": "number",
              "type": "uint256"
            },
            {
              "internalType": "bool",
              "name": "isBooked",
              "type": "bool"
            },
            {
              "internalType": "address payable",
              "name": "user",
              "type": "address"
            },
            {
              "internalType": "string",
              "name": "name",
              "type": "string"
            },
            {
              "internalType": "string",
              "name": "description",
              "type": "string"
            }
          ],
          "internalType": "struct Room.RoomItem[]",
          "name": "",
          "type": "tuple[]"
        }
      ],
      "stateMutability": "view",
      "type": "function",
      "constant": true
    }
  ],
  "bytecode": "0x60806040526000600255660187152d40e0006003556000600b553480156200002657600080fd5b50620000476200003b6200005460201b60201c565b6200005c60201b60201c565b6001808190555062000120565b600033905090565b60008060009054906101000a900473ffffffffffffffffffffffffffffffffffffffff169050816000806101000a81548173ffffffffffffffffffffffffffffffffffffffff021916908373ffffffffffffffffffffffffffffffffffffffff1602179055508173ffffffffffffffffffffffffffffffffffffffff168173ffffffffffffffffffffffffffffffffffffffff167f8be0079c531659141344cd1fd0a4f28419497f9722a3daafe3b4186f6b6457e060405160405180910390a35050565b6158fc80620001306000396000f3fe6080604052600436106101e35760003560e01c806374dbda0511610102578063b2afef8211610095578063c89e496311610064578063c89e4963146107af578063cee9e078146107f4578063f2fde38b14610831578063fd5fddd81461085a576101e3565b8063b2afef8214610707578063bbc02ce214610730578063c210c5321461075b578063c5a56e8214610786576101e3565b80639524a38e116100d15780639524a38e14610629578063958aa59b1461066e5780639e3edce9146106b3578063af5537fa146106dc576101e3565b806374dbda051461055957806380865877146105965780638da5cb5b146105d357806391aa8489146105fe576101e3565b8063387329f91161017a5780636283446211610149578063628344621461049f5780636b8ff574146104dc57806370f3bfd814610519578063715018a614610542576101e3565b8063387329f9146103b75780634dce717e146103e05780634ee9a94d1461041d578063545a153a14610462576101e3565b8063131dbd09116101b6578063131dbd09146102bf5780631bae0ac8146102e8578063307764971461032d5780633716236e14610372576101e3565b80630aaecc35146101e85780630af272f7146102255780630fa0200d1461026957806310f7019214610294575b600080fd5b3480156101f457600080fd5b5061020f600480360381019061020a9190614029565b610876565b60405161021c919061408d565b60405180910390f35b34801561023157600080fd5b5061024c600480360381019061024791906140de565b6108ac565b604051610260989796959493929190614219565b60405180910390f35b34801561027557600080fd5b5061027e610bab565b60405161028b91906142b3565b60405180910390f35b3480156102a057600080fd5b506102a9610bbe565b6040516102b69190614505565b60405180910390f35b3480156102cb57600080fd5b506102e660048036038101906102e191906140de565b610de5565b005b3480156102f457600080fd5b5061030f600480360381019061030a91906140de565b610ef4565b60405161032499989796959493929190614536565b60405180910390f35b34801561033957600080fd5b50610354600480360381019061034f91906140de565b61108f565b60405161036999989796959493929190614536565b60405180910390f35b34801561037e57600080fd5b506103996004803603810190610394919061460f565b61121a565b6040516103ae9998979695949392919061463c565b60405180910390f35b3480156103c357600080fd5b506103de60048036038101906103d99190614711565b6114b5565b005b3480156103ec57600080fd5b5061040760048036038101906104029190614029565b611761565b604051610414919061408d565b60405180910390f35b34801561042957600080fd5b50610444600480360381019061043f919061460f565b611797565b60405161045999989796959493929190614536565b60405180910390f35b34801561046e57600080fd5b50610489600480360381019061048491906140de565b611922565b6040516104969190614751565b60405180910390f35b3480156104ab57600080fd5b506104c660048036038101906104c191906140de565b611942565b6040516104d3919061476c565b60405180910390f35b3480156104e857600080fd5b5061050360048036038101906104fe91906140de565b611a51565b604051610510919061476c565b60405180910390f35b34801561052557600080fd5b50610540600480360381019061053b91906147b3565b611af9565b005b34801561054e57600080fd5b50610557611d2d565b005b34801561056557600080fd5b50610580600480360381019061057b91906140de565b611db5565b60405161058d919061408d565b60405180910390f35b3480156105a257600080fd5b506105bd60048036038101906105b891906140de565b611dd5565b6040516105ca9190614802565b60405180910390f35b3480156105df57600080fd5b506105e8611e08565b6040516105f59190614802565b60405180910390f35b34801561060a57600080fd5b50610613611e31565b6040516106209190614751565b60405180910390f35b34801561063557600080fd5b50610650600480360381019061064b91906140de565b611e37565b6040516106659998979695949392919061463c565b60405180910390f35b34801561067a57600080fd5b50610695600480360381019061069091906140de565b6120d2565b6040516106aa9998979695949392919061481d565b60405180910390f35b3480156106bf57600080fd5b506106da60048036038101906106d591906148b8565b6122ea565b005b3480156106e857600080fd5b506106f1612380565b6040516106fe9190614751565b60405180910390f35b34801561071357600080fd5b5061072e60048036038101906107299190614914565b612386565b005b34801561073c57600080fd5b50610745612c30565b6040516107529190614751565b60405180910390f35b34801561076757600080fd5b50610770612c36565b60405161077d9190614b84565b60405180910390f35b34801561079257600080fd5b506107ad60048036038101906107a89190614ba6565b612f8d565b005b3480156107bb57600080fd5b506107d660048036038101906107d191906140de565b6130e5565b6040516107eb9998979695949392919061463c565b60405180910390f35b34801561080057600080fd5b5061081b600480360381019061081691906140de565b613390565b604051610828919061408d565b60405180910390f35b34801561083d57600080fd5b506108586004803603810190610853919061460f565b6133b0565b005b610874600480360381019061086f9190614be6565b6134a8565b005b6012818051602081018201805184825260208301602085012081835280955050505050506000915054906101000a900460ff1681565b600080600060608060606000606088600115156009600083815260200190815260200160002060009054906101000a900460ff16151514610922576040517f08c379a000000000000000000000000000000000000000000000000000000000815260040161091990614d09565b60405180910390fd5b6000600760008c8152602001908152602001600020905080600001549950806001015498508060020154975080600301805461095d90614d58565b80601f016020809104026020016040519081016040528092919081815260200182805461098990614d58565b80156109d65780601f106109ab576101008083540402835291602001916109d6565b820191906000526020600020905b8154815290600101906020018083116109b957829003601f168201915b505050505096508060050180546109ec90614d58565b80601f0160208091040260200160405190810160405280929190818152602001828054610a1890614d58565b8015610a655780601f10610a3a57610100808354040283529160200191610a65565b820191906000526020600020905b815481529060010190602001808311610a4857829003601f168201915b50505050509550806006018054610a7b90614d58565b80601f0160208091040260200160405190810160405280929190818152602001828054610aa790614d58565b8015610af45780601f10610ac957610100808354040283529160200191610af4565b820191906000526020600020905b815481529060010190602001808311610ad757829003601f168201915b505050505094508060040160009054906101000a900460ff169350806008018054610b1e90614d58565b80601f0160208091040260200160405190810160405280929190818152602001828054610b4a90614d58565b8015610b975780601f10610b6c57610100808354040283529160200191610b97565b820191906000526020600020905b815481529060010190602001808311610b7a57829003601f168201915b505050505092505050919395975091939597565b600560009054906101000a900460ff1681565b6060600d805480602002602001604051908101604052809291908181526020016000905b82821015610ddc57838290600052602060002090600802016040518061012001604052908160008201548152602001600182015481526020016002820154815260200160038201548152602001600482015481526020016005820160009054906101000a900460ff161515151581526020016005820160019054906101000a900473ffffffffffffffffffffffffffffffffffffffff1673ffffffffffffffffffffffffffffffffffffffff1673ffffffffffffffffffffffffffffffffffffffff168152602001600682018054610cb990614d58565b80601f0160208091040260200160405190810160405280929190818152602001828054610ce590614d58565b8015610d325780601f10610d0757610100808354040283529160200191610d32565b820191906000526020600020905b815481529060010190602001808311610d1557829003601f168201915b50505050508152602001600782018054610d4b90614d58565b80601f0160208091040260200160405190810160405280929190818152602001828054610d7790614d58565b8015610dc45780601f10610d9957610100808354040283529160200191610dc4565b820191906000526020600020905b815481529060010190602001808311610da757829003601f168201915b50505050508152505081526020019060010190610be2565b50505050905090565b610ded613c99565b73ffffffffffffffffffffffffffffffffffffffff16610e0b611e08565b73ffffffffffffffffffffffffffffffffffffffff1614610e61576040517f08c379a0000000000000000000000000000000000000000000000000000000008152600401610e5890614dd6565b60405180910390fd5b6000811415610ea5576040517f08c379a0000000000000000000000000000000000000000000000000000000008152600401610e9c90614e42565b60405180910390fd5b8060038190555080423373ffffffffffffffffffffffffffffffffffffffff167fd86cac97cd3caa153b72db918dc0feb1ed9683dfd389c345d07f7d00390b63b760405160405180910390a450565b600d8181548110610f0457600080fd5b90600052602060002090600802016000915090508060000154908060010154908060020154908060030154908060040154908060050160009054906101000a900460ff16908060050160019054906101000a900473ffffffffffffffffffffffffffffffffffffffff1690806006018054610f7e90614d58565b80601f0160208091040260200160405190810160405280929190818152602001828054610faa90614d58565b8015610ff75780601f10610fcc57610100808354040283529160200191610ff7565b820191906000526020600020905b815481529060010190602001808311610fda57829003601f168201915b50505050509080600701805461100c90614d58565b80601f016020809104026020016040519081016040528092919081815260200182805461103890614d58565b80156110855780601f1061105a57610100808354040283529160200191611085565b820191906000526020600020905b81548152906001019060200180831161106857829003601f168201915b5050505050905089565b60106020528060005260406000206000915090508060000154908060010154908060020154908060030154908060040154908060050160009054906101000a900460ff16908060050160019054906101000a900473ffffffffffffffffffffffffffffffffffffffff169080600601805461110990614d58565b80601f016020809104026020016040519081016040528092919081815260200182805461113590614d58565b80156111825780601f1061115757610100808354040283529160200191611182565b820191906000526020600020905b81548152906001019060200180831161116557829003601f168201915b50505050509080600701805461119790614d58565b80601f01602080910402602001604051908101604052809291908181526020018280546111c390614d58565b80156112105780601f106111e557610100808354040283529160200191611210565b820191906000526020600020905b8154815290600101906020018083116111f357829003601f168201915b5050505050905089565b600860205280600052604060002060009150905080600001549080600101549080600201549080600301805461124f90614d58565b80601f016020809104026020016040519081016040528092919081815260200182805461127b90614d58565b80156112c85780601f1061129d576101008083540402835291602001916112c8565b820191906000526020600020905b8154815290600101906020018083116112ab57829003601f168201915b5050505050908060040160009054906101000a900460ff16908060050180546112f090614d58565b80601f016020809104026020016040519081016040528092919081815260200182805461131c90614d58565b80156113695780601f1061133e57610100808354040283529160200191611369565b820191906000526020600020905b81548152906001019060200180831161134c57829003601f168201915b50505050509080600601805461137e90614d58565b80601f01602080910402602001604051908101604052809291908181526020018280546113aa90614d58565b80156113f75780601f106113cc576101008083540402835291602001916113f7565b820191906000526020600020905b8154815290600101906020018083116113da57829003601f168201915b5050505050908060070160009054906101000a900473ffffffffffffffffffffffffffffffffffffffff169080600801805461143290614d58565b80601f016020809104026020016040519081016040528092919081815260200182805461145e90614d58565b80156114ab5780601f10611480576101008083540402835291602001916114ab565b820191906000526020600020905b81548152906001019060200180831161148e57829003601f168201915b5050505050905089565b80600115156009600083815260200190815260200160002060009054906101000a900460ff1615151461151d576040517f08c379a000000000000000000000000000000000000000000000000000000000815260040161151490614d09565b60405180910390fd5b816007600082815260200190815260200160002060070160009054906101000a900473ffffffffffffffffffffffffffffffffffffffff1673ffffffffffffffffffffffffffffffffffffffff163373ffffffffffffffffffffffffffffffffffffffff16146115c2576040517f08c379a00000000000000000000000000000000000000000000000000000000081526004016115b990614eae565b60405180910390fd5b8373ffffffffffffffffffffffffffffffffffffffff163373ffffffffffffffffffffffffffffffffffffffff161415611631576040517f08c379a000000000000000000000000000000000000000000000000000000000815260040161162890614f40565b60405180910390fd5b600073ffffffffffffffffffffffffffffffffffffffff168473ffffffffffffffffffffffffffffffffffffffff1614156116a1576040517f08c379a000000000000000000000000000000000000000000000000000000000815260040161169890614fd2565b60405180910390fd5b836007600085815260200190815260200160002060070160006101000a81548173ffffffffffffffffffffffffffffffffffffffff021916908373ffffffffffffffffffffffffffffffffffffffff1602179055508373ffffffffffffffffffffffffffffffffffffffff163373ffffffffffffffffffffffffffffffffffffffff167fa4384cd8553d716f837cc7d68ed60529f9672b59cf96f1ce8bef3334183db34a426040516117539190614751565b60405180910390a350505050565b600a818051602081018201805184825260208301602085012081835280955050505050506000915054906101000a900460ff1681565b600e6020528060005260406000206000915090508060000154908060010154908060020154908060030154908060040154908060050160009054906101000a900460ff16908060050160019054906101000a900473ffffffffffffffffffffffffffffffffffffffff169080600601805461181190614d58565b80601f016020809104026020016040519081016040528092919081815260200182805461183d90614d58565b801561188a5780601f1061185f5761010080835404028352916020019161188a565b820191906000526020600020905b81548152906001019060200180831161186d57829003601f168201915b50505050509080600701805461189f90614d58565b80601f01602080910402602001604051908101604052809291908181526020018280546118cb90614d58565b80156119185780601f106118ed57610100808354040283529160200191611918565b820191906000526020600020905b8154815290600101906020018083116118fb57829003601f168201915b5050505050905089565b600060106000838152602001908152602001600020600001549050919050565b6060600115156009600084815260200190815260200160002060009054906101000a900460ff161515146119ab576040517f08c379a00000000000000000000000000000000000000000000000000000000081526004016119a290614d09565b60405180910390fd5b6007600083815260200190815260200160002060080180546119cc90614d58565b80601f01602080910402602001604051908101604052809291908181526020018280546119f890614d58565b8015611a455780601f10611a1a57610100808354040283529160200191611a45565b820191906000526020600020905b815481529060010190602001808311611a2857829003601f168201915b50505050509050919050565b6060601060008381526020019081526020016000206006018054611a7490614d58565b80601f0160208091040260200160405190810160405280929190818152602001828054611aa090614d58565b8015611aed5780601f10611ac257610100808354040283529160200191611aed565b820191906000526020600020905b815481529060010190602001808311611ad057829003601f168201915b50505050509050919050565b81600115156009600083815260200190815260200160002060009054906101000a900460ff16151514611b61576040517f08c379a0000000000000000000000000000000000000000000000000000000008152600401611b5890614d09565b60405180910390fd5b826007600082815260200190815260200160002060070160009054906101000a900473ffffffffffffffffffffffffffffffffffffffff1673ffffffffffffffffffffffffffffffffffffffff163373ffffffffffffffffffffffffffffffffffffffff1614611c06576040517f08c379a0000000000000000000000000000000000000000000000000000000008152600401611bfd90614eae565b60405180910390fd5b600060076000868152602001908152602001600020905060006006811115611c3157611c306141a2565b5b846006811115611c4457611c436141a2565b5b1415611c5357611c52614ff2565b5b8060040160009054906101000a900460ff166006811115611c7757611c766141a2565b5b846006811115611c8a57611c896141a2565b5b1415611c9957611c98614ff2565b5b838160040160006101000a81548160ff02191690836006811115611cc057611cbf6141a2565b5b0217905550836006811115611cd857611cd76141a2565b5b3373ffffffffffffffffffffffffffffffffffffffff167ff5b844f9650efd8a638976417da0e54ababae9d5ae6ec7dbc97124f00d5a5c5e42604051611d1e9190614751565b60405180910390a35050505050565b611d35613c99565b73ffffffffffffffffffffffffffffffffffffffff16611d53611e08565b73ffffffffffffffffffffffffffffffffffffffff1614611da9576040517f08c379a0000000000000000000000000000000000000000000000000000000008152600401611da090614dd6565b60405180910390fd5b611db36000613ca1565b565b60096020528060005260406000206000915054906101000a900460ff1681565b600f6020528060005260406000206000915054906101000a900473ffffffffffffffffffffffffffffffffffffffff1681565b60008060009054906101000a900473ffffffffffffffffffffffffffffffffffffffff16905090565b60035481565b6007602052806000526040600020600091509050806000015490806001015490806002015490806003018054611e6c90614d58565b80601f0160208091040260200160405190810160405280929190818152602001828054611e9890614d58565b8015611ee55780601f10611eba57610100808354040283529160200191611ee5565b820191906000526020600020905b815481529060010190602001808311611ec857829003601f168201915b5050505050908060040160009054906101000a900460ff1690806005018054611f0d90614d58565b80601f0160208091040260200160405190810160405280929190818152602001828054611f3990614d58565b8015611f865780601f10611f5b57610100808354040283529160200191611f86565b820191906000526020600020905b815481529060010190602001808311611f6957829003601f168201915b505050505090806006018054611f9b90614d58565b80601f0160208091040260200160405190810160405280929190818152602001828054611fc790614d58565b80156120145780601f10611fe957610100808354040283529160200191612014565b820191906000526020600020905b815481529060010190602001808311611ff757829003601f168201915b5050505050908060070160009054906101000a900473ffffffffffffffffffffffffffffffffffffffff169080600801805461204f90614d58565b80601f016020809104026020016040519081016040528092919081815260200182805461207b90614d58565b80156120c85780601f1061209d576101008083540402835291602001916120c8565b820191906000526020600020905b8154815290600101906020018083116120ab57829003601f168201915b5050505050905089565b600080600080600080600060608089600115156011600083815260200190815260200160002060009054906101000a900460ff16151514612148576040517f08c379a000000000000000000000000000000000000000000000000000000000815260040161213f9061506d565b60405180910390fd5b6000601060008d8152602001908152602001600020905080600001549a50806001015499508060020154985080600301549750806004015496508060050160009054906101000a900460ff1695508060050160019054906101000a900473ffffffffffffffffffffffffffffffffffffffff1694508060060180546121cc90614d58565b80601f01602080910402602001604051908101604052809291908181526020018280546121f890614d58565b80156122455780601f1061221a57610100808354040283529160200191612245565b820191906000526020600020905b81548152906001019060200180831161222857829003601f168201915b5050505050935080600701805461225b90614d58565b80601f016020809104026020016040519081016040528092919081815260200182805461228790614d58565b80156122d45780601f106122a9576101008083540402835291602001916122d4565b820191906000526020600020905b8154815290600101906020018083116122b757829003601f168201915b5050505050925050509193959799909294969850565b600115156009600084815260200190815260200160002060009054906101000a900460ff16151514612351576040517f08c379a000000000000000000000000000000000000000000000000000000000815260040161234890614d09565b60405180910390fd5b8060076000848152602001908152602001600020600801908051906020019061237b929190613d9f565b505050565b600b5481565b8560006007600083815260200190815260200160002060070160009054906101000a900473ffffffffffffffffffffffffffffffffffffffff1673ffffffffffffffffffffffffffffffffffffffff163373ffffffffffffffffffffffffffffffffffffffff1614156123f857600190505b600115158115151461243f576040517f08c379a0000000000000000000000000000000000000000000000000000000008152600401612436906150ff565b60405180910390fd5b876007600082815260200190815260200160002060070160009054906101000a900473ffffffffffffffffffffffffffffffffffffffff1673ffffffffffffffffffffffffffffffffffffffff163373ffffffffffffffffffffffffffffffffffffffff16146124e4576040517f08c379a00000000000000000000000000000000000000000000000000000000081526004016124db90614eae565b60405180910390fd5b88600115156009600083815260200190815260200160002060009054906101000a900460ff1615151461254c576040517f08c379a000000000000000000000000000000000000000000000000000000000815260040161254390614d09565b60405180910390fd5b856000815111612591576040517f08c379a00000000000000000000000000000000000000000000000000000000081526004016125889061516b565b60405180910390fd5b600015156012826040516125a591906151c7565b908152602001604051809103902060009054906101000a900460ff16151514612603576040517f08c379a00000000000000000000000000000000000000000000000000000000081526004016125fa9061522a565b60405180910390fd5b600073ffffffffffffffffffffffffffffffffffffffff163373ffffffffffffffffffffffffffffffffffffffff16141561263d57600080fd5b60008a1415612681576040517f08c379a000000000000000000000000000000000000000000000000000000000815260040161267890615296565b60405180910390fd5b60008651116126c5576040517f08c379a00000000000000000000000000000000000000000000000000000000081526004016126bc90615328565b60405180910390fd5b6000891415612709576040517f08c379a0000000000000000000000000000000000000000000000000000000008152600401612700906153ba565b60405180910390fd5b612713600c613d65565b600061271f600c613d7b565b90506000600760008e81526020019081526020016000206000015490506000600760008f81526020019081526020016000206001015490506040518061012001604052808481526020018e81526020018381526020018d81526020018c81526020016000151581526020013373ffffffffffffffffffffffffffffffffffffffff1681526020018b81526020018a81525060106000858152602001908152602001600020600082015181600001556020820151816001015560408201518160020155606082015181600301556080820151816004015560a08201518160050160006101000a81548160ff02191690831515021790555060c08201518160050160016101000a81548173ffffffffffffffffffffffffffffffffffffffff021916908373ffffffffffffffffffffffffffffffffffffffff16021790555060e0820151816006019080519060200190612878929190613d9f565b50610100820151816007019080519060200190612896929190613d9f565b50905050600d60106000858152602001908152602001600020908060018154018082558091505060019003906000526020600020906008020160009091909190915060008201548160000155600182015481600101556002820154816002015560038201548160030155600482015481600401556005820160009054906101000a900460ff168160050160006101000a81548160ff0219169083151502179055506005820160019054906101000a900473ffffffffffffffffffffffffffffffffffffffff168160050160016101000a81548173ffffffffffffffffffffffffffffffffffffffff021916908373ffffffffffffffffffffffffffffffffffffffff16021790555060068201816006019080546129b290614d58565b6129bd929190613e25565b5060078201816007019080546129d290614d58565b6129dd929190613e25565b50505060106000848152602001908152602001600020600e60003373ffffffffffffffffffffffffffffffffffffffff1673ffffffffffffffffffffffffffffffffffffffff16815260200190815260200160002060008201548160000155600182015481600101556002820154816002015560038201548160030155600482015481600401556005820160009054906101000a900460ff168160050160006101000a81548160ff0219169083151502179055506005820160019054906101000a900473ffffffffffffffffffffffffffffffffffffffff168160050160016101000a81548173ffffffffffffffffffffffffffffffffffffffff021916908373ffffffffffffffffffffffffffffffffffffffff1602179055506006820181600601908054612b0c90614d58565b612b17929190613e25565b506007820181600701908054612b2c90614d58565b612b37929190613e25565b50905050612b4f600182613d8990919063ffffffff16565b9050612b676001600b54613d8990919063ffffffff16565b600b8190555060016011600085815260200190815260200160002060006101000a81548160ff021916908315150217905550600160128b604051612bab91906151c7565b908152602001604051809103902060006101000a81548160ff0219169083151502179055503373ffffffffffffffffffffffffffffffffffffffff167f3733808b347b3e95cb4b664d5c8e8fe364fc4dd34b77f49cde3ba2564d78888c4285604051612c189291906153da565b60405180910390a25050505050505050505050505050565b60025481565b60606006805480602002602001604051908101604052809291908181526020016000905b82821015612f84578382906000526020600020906009020160405180610120016040529081600082015481526020016001820154815260200160028201548152602001600382018054612cac90614d58565b80601f0160208091040260200160405190810160405280929190818152602001828054612cd890614d58565b8015612d255780601f10612cfa57610100808354040283529160200191612d25565b820191906000526020600020905b815481529060010190602001808311612d0857829003601f168201915b505050505081526020016004820160009054906101000a900460ff166006811115612d5357612d526141a2565b5b6006811115612d6557612d646141a2565b5b8152602001600582018054612d7990614d58565b80601f0160208091040260200160405190810160405280929190818152602001828054612da590614d58565b8015612df25780601f10612dc757610100808354040283529160200191612df2565b820191906000526020600020905b815481529060010190602001808311612dd557829003601f168201915b50505050508152602001600682018054612e0b90614d58565b80601f0160208091040260200160405190810160405280929190818152602001828054612e3790614d58565b8015612e845780601f10612e5957610100808354040283529160200191612e84565b820191906000526020600020905b815481529060010190602001808311612e6757829003601f168201915b505050505081526020016007820160009054906101000a900473ffffffffffffffffffffffffffffffffffffffff1673ffffffffffffffffffffffffffffffffffffffff1673ffffffffffffffffffffffffffffffffffffffff168152602001600882018054612ef390614d58565b80601f0160208091040260200160405190810160405280929190818152602001828054612f1f90614d58565b8015612f6c5780601f10612f4157610100808354040283529160200191612f6c565b820191906000526020600020905b815481529060010190602001808311612f4f57829003601f168201915b50505050508152505081526020019060010190612c5a565b50505050905090565b816010600082815260200190815260200160002060050160019054906101000a900473ffffffffffffffffffffffffffffffffffffffff1673ffffffffffffffffffffffffffffffffffffffff163373ffffffffffffffffffffffffffffffffffffffff1614613032576040517f08c379a00000000000000000000000000000000000000000000000000000000081526004016130299061544f565b60405180910390fd5b6000821415613076576040517f08c379a000000000000000000000000000000000000000000000000000000000815260040161306d906154bb565b60405180910390fd5b816010600085815260200190815260200160002060030181905550423373ffffffffffffffffffffffffffffffffffffffff167f2adffbd83a80d927a3a5c687edc852ca8941019a58261ffb685cc98972ba7c24846040516130d89190614751565b60405180910390a3505050565b600681815481106130f557600080fd5b906000526020600020906009020160009150905080600001549080600101549080600201549080600301805461312a90614d58565b80601f016020809104026020016040519081016040528092919081815260200182805461315690614d58565b80156131a35780601f10613178576101008083540402835291602001916131a3565b820191906000526020600020905b81548152906001019060200180831161318657829003601f168201915b5050505050908060040160009054906101000a900460ff16908060050180546131cb90614d58565b80601f01602080910402602001604051908101604052809291908181526020018280546131f790614d58565b80156132445780601f1061321957610100808354040283529160200191613244565b820191906000526020600020905b81548152906001019060200180831161322757829003601f168201915b50505050509080600601805461325990614d58565b80601f016020809104026020016040519081016040528092919081815260200182805461328590614d58565b80156132d25780601f106132a7576101008083540402835291602001916132d2565b820191906000526020600020905b8154815290600101906020018083116132b557829003601f168201915b5050505050908060070160009054906101000a900473ffffffffffffffffffffffffffffffffffffffff169080600801805461330d90614d58565b80601f016020809104026020016040519081016040528092919081815260200182805461333990614d58565b80156133865780601f1061335b57610100808354040283529160200191613386565b820191906000526020600020905b81548152906001019060200180831161336957829003601f168201915b5050505050905089565b60116020528060005260406000206000915054906101000a900460ff1681565b6133b8613c99565b73ffffffffffffffffffffffffffffffffffffffff166133d6611e08565b73ffffffffffffffffffffffffffffffffffffffff161461342c576040517f08c379a000000000000000000000000000000000000000000000000000000000815260040161342390614dd6565b60405180910390fd5b600073ffffffffffffffffffffffffffffffffffffffff168173ffffffffffffffffffffffffffffffffffffffff16141561349c576040517f08c379a00000000000000000000000000000000000000000000000000000000081526004016134939061554d565b60405180910390fd5b6134a581613ca1565b50565b8360001515600a826040516134bd91906151c7565b908152602001604051809103902060009054906101000a900460ff1615151461351b576040517f08c379a0000000000000000000000000000000000000000000000000000000008152600401613512906155b9565b60405180910390fd5b600081511161355f576040517f08c379a000000000000000000000000000000000000000000000000000000000815260040161355690615625565b60405180910390fd5b600260015414156135a5576040517f08c379a000000000000000000000000000000000000000000000000000000000815260040161359c90615691565b60405180910390fd5b6002600181905550600073ffffffffffffffffffffffffffffffffffffffff163373ffffffffffffffffffffffffffffffffffffffff1614156135e757600080fd5b600354341461362b576040517f08c379a0000000000000000000000000000000000000000000000000000000008152600401613622906156fd565b60405180910390fd5b600084511161366f576040517f08c379a00000000000000000000000000000000000000000000000000000000081526004016136669061578f565b60405180910390fd5b60008351116136b3576040517f08c379a00000000000000000000000000000000000000000000000000000000081526004016136aa90615821565b60405180910390fd5b6136bd6004613d65565b60006136c96004613d7b565b90506040518061012001604052808281526020016000815260200142815260200187815260200160006006811115613704576137036141a2565b5b81526020018681526020018581526020013373ffffffffffffffffffffffffffffffffffffffff16815260200184815250600760008381526020019081526020016000206000820151816000015560208201518160010155604082015181600201556060820151816003019080519060200190613782929190613d9f565b5060808201518160040160006101000a81548160ff021916908360068111156137ae576137ad6141a2565b5b021790555060a08201518160050190805190602001906137cf929190613d9f565b5060c08201518160060190805190602001906137ec929190613d9f565b5060e08201518160070160006101000a81548173ffffffffffffffffffffffffffffffffffffffff021916908373ffffffffffffffffffffffffffffffffffffffff160217905550610100820151816008019080519060200190613851929190613d9f565b50905050600660076000838152602001908152602001600020908060018154018082558091505060019003906000526020600020906009020160009091909190915060008201548160000155600182015481600101556002820154816002015560038201816003019080546138c590614d58565b6138d0929190613e25565b506004820160009054906101000a900460ff168160040160006101000a81548160ff02191690836006811115613909576139086141a2565b5b0217905550600582018160050190805461392290614d58565b61392d929190613e25565b50600682018160060190805461394290614d58565b61394d929190613e25565b506007820160009054906101000a900473ffffffffffffffffffffffffffffffffffffffff168160070160006101000a81548173ffffffffffffffffffffffffffffffffffffffff021916908373ffffffffffffffffffffffffffffffffffffffff16021790555060088201816008019080546139c990614d58565b6139d4929190613e25565b50505060076000828152602001908152602001600020600860003373ffffffffffffffffffffffffffffffffffffffff1673ffffffffffffffffffffffffffffffffffffffff1681526020019081526020016000206000820154816000015560018201548160010155600282015481600201556003820181600301908054613a5b90614d58565b613a66929190613e25565b506004820160009054906101000a900460ff168160040160006101000a81548160ff02191690836006811115613a9f57613a9e6141a2565b5b02179055506005820181600501908054613ab890614d58565b613ac3929190613e25565b506006820181600601908054613ad890614d58565b613ae3929190613e25565b506007820160009054906101000a900473ffffffffffffffffffffffffffffffffffffffff168160070160006101000a81548173ffffffffffffffffffffffffffffffffffffffff021916908373ffffffffffffffffffffffffffffffffffffffff1602179055506008820181600801908054613b5f90614d58565b613b6a929190613e25565b50905050613b846001600254613d8990919063ffffffff16565b60028190555060016009600083815260200190815260200160002060006101000a81548160ff0219169083151502179055506001600a87604051613bc891906151c7565b908152602001604051809103902060006101000a81548160ff021916908315150217905550613bf5611e08565b73ffffffffffffffffffffffffffffffffffffffff166108fc349081150290604051600060405180830381858888f19350505050158015613c3a573d6000803e3d6000fd5b50803373ffffffffffffffffffffffffffffffffffffffff167fc8103fc44f19a39b2be3834708c831e6292d5b110a99e06a1f9c1c5f24faf5dd42604051613c829190614751565b60405180910390a350600180819055505050505050565b600033905090565b60008060009054906101000a900473ffffffffffffffffffffffffffffffffffffffff169050816000806101000a81548173ffffffffffffffffffffffffffffffffffffffff021916908373ffffffffffffffffffffffffffffffffffffffff1602179055508173ffffffffffffffffffffffffffffffffffffffff168173ffffffffffffffffffffffffffffffffffffffff167f8be0079c531659141344cd1fd0a4f28419497f9722a3daafe3b4186f6b6457e060405160405180910390a35050565b6001816000016000828254019250508190555050565b600081600001549050919050565b60008183613d979190615870565b905092915050565b828054613dab90614d58565b90600052602060002090601f016020900481019282613dcd5760008555613e14565b82601f10613de657805160ff1916838001178555613e14565b82800160010185558215613e14579182015b82811115613e13578251825591602001919060010190613df8565b5b509050613e219190613eb2565b5090565b828054613e3190614d58565b90600052602060002090601f016020900481019282613e535760008555613ea1565b82601f10613e645780548555613ea1565b82800160010185558215613ea157600052602060002091601f016020900482015b82811115613ea0578254825591600101919060010190613e85565b5b509050613eae9190613eb2565b5090565b5b80821115613ecb576000816000905550600101613eb3565b5090565b6000604051905090565b600080fd5b600080fd5b600080fd5b600080fd5b6000601f19601f8301169050919050565b7f4e487b7100000000000000000000000000000000000000000000000000000000600052604160045260246000fd5b613f3682613eed565b810181811067ffffffffffffffff82111715613f5557613f54613efe565b5b80604052505050565b6000613f68613ecf565b9050613f748282613f2d565b919050565b600067ffffffffffffffff821115613f9457613f93613efe565b5b613f9d82613eed565b9050602081019050919050565b82818337600083830152505050565b6000613fcc613fc784613f79565b613f5e565b905082815260208101848484011115613fe857613fe7613ee8565b5b613ff3848285613faa565b509392505050565b600082601f8301126140105761400f613ee3565b5b8135614020848260208601613fb9565b91505092915050565b60006020828403121561403f5761403e613ed9565b5b600082013567ffffffffffffffff81111561405d5761405c613ede565b5b61406984828501613ffb565b91505092915050565b60008115159050919050565b61408781614072565b82525050565b60006020820190506140a2600083018461407e565b92915050565b6000819050919050565b6140bb816140a8565b81146140c657600080fd5b50565b6000813590506140d8816140b2565b92915050565b6000602082840312156140f4576140f3613ed9565b5b6000614102848285016140c9565b91505092915050565b614114816140a8565b82525050565b600081519050919050565b600082825260208201905092915050565b60005b83811015614154578082015181840152602081019050614139565b83811115614163576000848401525b50505050565b60006141748261411a565b61417e8185614125565b935061418e818560208601614136565b61419781613eed565b840191505092915050565b7f4e487b7100000000000000000000000000000000000000000000000000000000600052602160045260246000fd5b600781106141e2576141e16141a2565b5b50565b60008190506141f3826141d1565b919050565b6000614203826141e5565b9050919050565b614213816141f8565b82525050565b60006101008201905061422f600083018b61410b565b61423c602083018a61410b565b614249604083018961410b565b818103606083015261425b8188614169565b9050818103608083015261426f8187614169565b905081810360a08301526142838186614169565b905061429260c083018561420a565b81810360e08301526142a48184614169565b90509998505050505050505050565b60006020820190506142c8600083018461420a565b92915050565b600081519050919050565b600082825260208201905092915050565b6000819050602082019050919050565b614303816140a8565b82525050565b61431281614072565b82525050565b600073ffffffffffffffffffffffffffffffffffffffff82169050919050565b600061434382614318565b9050919050565b61435381614338565b82525050565b600082825260208201905092915050565b60006143758261411a565b61437f8185614359565b935061438f818560208601614136565b61439881613eed565b840191505092915050565b6000610120830160008301516143bc60008601826142fa565b5060208301516143cf60208601826142fa565b5060408301516143e260408601826142fa565b5060608301516143f560608601826142fa565b50608083015161440860808601826142fa565b5060a083015161441b60a0860182614309565b5060c083015161442e60c086018261434a565b5060e083015184820360e0860152614446828261436a565b915050610100830151848203610100860152614462828261436a565b9150508091505092915050565b600061447b83836143a3565b905092915050565b6000602082019050919050565b600061449b826142ce565b6144a581856142d9565b9350836020820285016144b7856142ea565b8060005b858110156144f357848403895281516144d4858261446f565b94506144df83614483565b925060208a019950506001810190506144bb565b50829750879550505050505092915050565b6000602082019050818103600083015261451f8184614490565b905092915050565b61453081614338565b82525050565b60006101208201905061454c600083018c61410b565b614559602083018b61410b565b614566604083018a61410b565b614573606083018961410b565b614580608083018861410b565b61458d60a083018761407e565b61459a60c0830186614527565b81810360e08301526145ac8185614169565b90508181036101008301526145c18184614169565b90509a9950505050505050505050565b60006145dc82614318565b9050919050565b6145ec816145d1565b81146145f757600080fd5b50565b600081359050614609816145e3565b92915050565b60006020828403121561462557614624613ed9565b5b6000614633848285016145fa565b91505092915050565b600061012082019050614652600083018c61410b565b61465f602083018b61410b565b61466c604083018a61410b565b818103606083015261467e8189614169565b905061468d608083018861420a565b81810360a083015261469f8187614169565b905081810360c08301526146b38186614169565b90506146c260e0830185614527565b8181036101008301526146d58184614169565b90509a9950505050505050505050565b6146ee81614338565b81146146f957600080fd5b50565b60008135905061470b816146e5565b92915050565b6000806040838503121561472857614727613ed9565b5b6000614736858286016146fc565b9250506020614747858286016140c9565b9150509250929050565b6000602082019050614766600083018461410b565b92915050565b600060208201905081810360008301526147868184614169565b905092915050565b6007811061479b57600080fd5b50565b6000813590506147ad8161478e565b92915050565b600080604083850312156147ca576147c9613ed9565b5b60006147d8858286016140c9565b92505060206147e98582860161479e565b9150509250929050565b6147fc816145d1565b82525050565b600060208201905061481760008301846147f3565b92915050565b600061012082019050614833600083018c61410b565b614840602083018b61410b565b61484d604083018a61410b565b61485a606083018961410b565b614867608083018861410b565b61487460a083018761407e565b61488160c08301866147f3565b81810360e08301526148938185614169565b90508181036101008301526148a88184614169565b90509a9950505050505050505050565b600080604083850312156148cf576148ce613ed9565b5b60006148dd858286016140c9565b925050602083013567ffffffffffffffff8111156148fe576148fd613ede565b5b61490a85828601613ffb565b9150509250929050565b60008060008060008060c0878903121561493157614930613ed9565b5b600061493f89828a016140c9565b965050602061495089828a016140c9565b955050604061496189828a016140c9565b945050606061497289828a016140c9565b935050608087013567ffffffffffffffff81111561499357614992613ede565b5b61499f89828a01613ffb565b92505060a087013567ffffffffffffffff8111156149c0576149bf613ede565b5b6149cc89828a01613ffb565b9150509295509295509295565b600081519050919050565b600082825260208201905092915050565b6000819050602082019050919050565b614a0e816141f8565b82525050565b600061012083016000830151614a2d60008601826142fa565b506020830151614a4060208601826142fa565b506040830151614a5360408601826142fa565b5060608301518482036060860152614a6b828261436a565b9150506080830151614a806080860182614a05565b5060a083015184820360a0860152614a98828261436a565b91505060c083015184820360c0860152614ab2828261436a565b91505060e0830151614ac760e086018261434a565b50610100830151848203610100860152614ae1828261436a565b9150508091505092915050565b6000614afa8383614a14565b905092915050565b6000602082019050919050565b6000614b1a826149d9565b614b2481856149e4565b935083602082028501614b36856149f5565b8060005b85811015614b725784840389528151614b538582614aee565b9450614b5e83614b02565b925060208a01995050600181019050614b3a565b50829750879550505050505092915050565b60006020820190508181036000830152614b9e8184614b0f565b905092915050565b60008060408385031215614bbd57614bbc613ed9565b5b6000614bcb858286016140c9565b9250506020614bdc858286016140c9565b9150509250929050565b60008060008060808587031215614c0057614bff613ed9565b5b600085013567ffffffffffffffff811115614c1e57614c1d613ede565b5b614c2a87828801613ffb565b945050602085013567ffffffffffffffff811115614c4b57614c4a613ede565b5b614c5787828801613ffb565b935050604085013567ffffffffffffffff811115614c7857614c77613ede565b5b614c8487828801613ffb565b925050606085013567ffffffffffffffff811115614ca557614ca4613ede565b5b614cb187828801613ffb565b91505092959194509250565b7f486f74656c20446f6573204e6f74204578697374000000000000000000000000600082015250565b6000614cf3601483614125565b9150614cfe82614cbd565b602082019050919050565b60006020820190508181036000830152614d2281614ce6565b9050919050565b7f4e487b7100000000000000000000000000000000000000000000000000000000600052602260045260246000fd5b60006002820490506001821680614d7057607f821691505b60208210811415614d8457614d83614d29565b5b50919050565b7f4f776e61626c653a2063616c6c6572206973206e6f7420746865206f776e6572600082015250565b6000614dc0602083614125565b9150614dcb82614d8a565b602082019050919050565b60006020820190508181036000830152614def81614db3565b9050919050565b7f4c697374696e67204665652043616e6e6f74206265207a65726f000000000000600082015250565b6000614e2c601a83614125565b9150614e3782614df6565b602082019050919050565b60006020820190508181036000830152614e5b81614e1f565b9050919050565b7f596f7520446f204e6f74204f776e205468697320486f74656c204974656d0000600082015250565b6000614e98601e83614125565b9150614ea382614e62565b602082019050919050565b60006020820190508181036000830152614ec781614e8b565b9050919050565b7f596f75206172652074686520726967687466756c206f776e657220616c72656160008201527f6479000000000000000000000000000000000000000000000000000000000000602082015250565b6000614f2a602283614125565b9150614f3582614ece565b604082019050919050565b60006020820190508181036000830152614f5981614f1d565b9050919050565b7f506c65617365207370656369667920612076616c69642045544820616464726560008201527f7373000000000000000000000000000000000000000000000000000000000000602082015250565b6000614fbc602283614125565b9150614fc782614f60565b604082019050919050565b60006020820190508181036000830152614feb81614faf565b9050919050565b7f4e487b7100000000000000000000000000000000000000000000000000000000600052600160045260246000fd5b7f526f6f6d20446f6573204e6f7420457869737400000000000000000000000000600082015250565b6000615057601383614125565b915061506282615021565b602082019050919050565b600060208201905081810360008301526150868161504a565b9050919050565b7f506c65617365204c697374204120486f74656c204265666f726520416464696e60008201527f67204120526f6f6d000000000000000000000000000000000000000000000000602082015250565b60006150e9602883614125565b91506150f48261508d565b604082019050919050565b60006020820190508181036000830152615118816150dc565b9050919050565b7f506c6561736520737065636966792074686520726f6f6d206e616d6500000000600082015250565b6000615155601c83614125565b91506151608261511f565b602082019050919050565b6000602082019050818103600083015261518481615148565b9050919050565b600081905092915050565b60006151a18261411a565b6151ab818561518b565b93506151bb818560208601614136565b80840191505092915050565b60006151d38284615196565b915081905092915050565b7f526f6f6d204e616d652045786973747300000000000000000000000000000000600082015250565b6000615214601083614125565b915061521f826151de565b602082019050919050565b6000602082019050818103600083015261524381615207565b9050919050565b7f4e756d626572206f6620626564732063616e6e6f74206265207a65726f000000600082015250565b6000615280601d83614125565b915061528b8261524a565b602082019050919050565b600060208201905081810360008301526152af81615273565b9050919050565b7f506c6561736520737065636966792074686520726f6f6d20646573637269707460008201527f696f6e0000000000000000000000000000000000000000000000000000000000602082015250565b6000615312602383614125565b915061531d826152b6565b604082019050919050565b6000602082019050818103600083015261534181615305565b9050919050565b7f54686520726f6f6d206e696768742070726963652063616e6e6f74206265207a60008201527f65726f0000000000000000000000000000000000000000000000000000000000602082015250565b60006153a4602383614125565b91506153af82615348565b604082019050919050565b600060208201905081810360008301526153d381615397565b9050919050565b60006040820190506153ef600083018561410b565b6153fc602083018461410b565b9392505050565b7f596f7520446f204e6f74204f776e205468697320526f6f6d0000000000000000600082015250565b6000615439601883614125565b915061544482615403565b602082019050919050565b600060208201905081810360008301526154688161542c565b9050919050565b7f70726963652043616e6e6f74206265207a65726f000000000000000000000000600082015250565b60006154a5601483614125565b91506154b08261546f565b602082019050919050565b600060208201905081810360008301526154d481615498565b9050919050565b7f4f776e61626c653a206e6577206f776e657220697320746865207a65726f206160008201527f6464726573730000000000000000000000000000000000000000000000000000602082015250565b6000615537602683614125565b9150615542826154db565b604082019050919050565b600060208201905081810360008301526155668161552a565b9050919050565b7f486f74656c204e616d6520457869737473000000000000000000000000000000600082015250565b60006155a3601183614125565b91506155ae8261556d565b602082019050919050565b600060208201905081810360008301526155d281615596565b9050919050565b7f506c6561736520737065636966792074686520686f74656c206e616d65000000600082015250565b600061560f601d83614125565b915061561a826155d9565b602082019050919050565b6000602082019050818103600083015261563e81615602565b9050919050565b7f5265656e7472616e637947756172643a207265656e7472616e742063616c6c00600082015250565b600061567b601f83614125565b915061568682615645565b602082019050919050565b600060208201905081810360008301526156aa8161566e565b9050919050565b7f496e76616c6964204c697374696e672046656500000000000000000000000000600082015250565b60006156e7601383614125565b91506156f2826156b1565b602082019050919050565b60006020820190508181036000830152615716816156da565b9050919050565b7f506c6561736520737065636966792074686520686f74656c206465736372697060008201527f74696f6e00000000000000000000000000000000000000000000000000000000602082015250565b6000615779602483614125565b91506157848261571d565b604082019050919050565b600060208201905081810360008301526157a88161576c565b9050919050565b7f506c65617365207370656369667920746865206c6f636174696f6e206f66207460008201527f686520686f74656c000000000000000000000000000000000000000000000000602082015250565b600061580b602883614125565b9150615816826157af565b604082019050919050565b6000602082019050818103600083015261583a816157fe565b9050919050565b7f4e487b7100000000000000000000000000000000000000000000000000000000600052601160045260246000fd5b600061587b826140a8565b9150615886836140a8565b9250827fffffffffffffffffffffffffffffffffffffffffffffffffffffffffffffffff038211156158bb576158ba615841565b5b82820190509291505056fea26469706673582212202896b7df547b9421bd6b49cd56c5bab1c1a3698444e207980bbccd4db9b04be864736f6c634300080a0033",
  "immutableReferences": {},
  "source": "// SPDX-License-Identifier: MIT\npragma solidity ^0.8.0;\nimport '@openzeppelin/contracts/utils/math/SafeMath.sol';\nimport '@openzeppelin/contracts/utils/Counters.sol';\nimport './Hotel.sol';\n\ncontract Room is Hotel{\n    using SafeMath for uint256;\n    using Counters for Counters.Counter;\n\n    uint public totalRooms = 0;\n    Counters.Counter private _roomIds;\n\n    struct RoomItem{\n        uint id;\n        uint totalBeds;\n        uint hotelId;\n        uint pricePerNight;\n        uint number;\n        bool isBooked;\n        address payable user;\n        string name;\n        string description;\n    }\n\n    RoomItem[] public rooms;\n\n    mapping(address => RoomItem) public roomOwner;\n    mapping(uint => address) public roomTenant; //who currently resides in the room\n    mapping(uint => RoomItem) public roomItemId; //to help track a room item by it's id\n    mapping(uint => bool) public existingRoomItem;\n    mapping(string => bool) public existingRoomItemName;\n\n    event NewRoomCreated(address indexed user, uint date, uint id);\n    event RoomNightPriceSet(address indexed user, uint price, uint indexed date);\n    event RoomBooked(uint date, address indexed tenant, uint indexed amountPaid, uint indexed roomId);\n\n    constructor() public{\n\n    }\n\n    modifier roomExists(uint _roomId){\n        require(existingRoomItem[_roomId] == true,\"Room Does Not Exist\");\n        _;\n    }\n\n    modifier roomNameDoesNotExist(string memory _name) {\n      require(bytes(_name).length > 0,\"Please specify the room name\");\n      require(existingRoomItemName[_name] == false,\"Room Name Exists\");\n      _;\n    }\n\n    modifier onlyRoomOwner(uint _roomId){\n        require(msg.sender == roomItemId[_roomId].user,\"You Do Not Own This Room\");\n        _;\n    }\n\n    modifier isNotBooked(uint _roomId){\n      require(roomItemId[_roomId].isBooked == false,\"Room is occupied\");\n      _;\n    }\n\n    function addRoom(uint _hotelId, uint _totalBeds, uint _pricePerNight, uint _number,string memory _name, string memory _description) public\n    hasListedHotel(_hotelId)\n    ownsHotel(_hotelId)\n    hotelExists(_hotelId)\n    roomNameDoesNotExist(_name)\n    {\n        require(msg.sender != address(0));\n        require(_totalBeds != 0,\"Number of beds cannot be zero\");\n        require(bytes(_description).length > 0,\"Please specify the room description\");\n        require(_pricePerNight != 0,\"The room night price cannot be zero\");\n        _roomIds.increment();\n        uint currentRoomId = _roomIds.current();\n        \n        uint hotelId = hotelItemId[_hotelId].id;\n        uint hotelItemTotalRooms = hotelItemId[_hotelId].totalRooms;\n        roomItemId[currentRoomId]  = RoomItem(currentRoomId,_totalBeds,hotelId,_pricePerNight, _number, false, payable(msg.sender),_name,_description);\n        rooms.push(roomItemId[currentRoomId]);\n        roomOwner[msg.sender] = roomItemId[currentRoomId];\n        hotelItemTotalRooms = hotelItemTotalRooms.add(1);\n        totalRooms = totalRooms.add(1);\n        existingRoomItem[currentRoomId] = true;\n        existingRoomItemName[_name] = true;\n        emit NewRoomCreated(msg.sender, block.timestamp, currentRoomId);\n    }\n\n    function getRoomBioData(uint _roomId) public view roomExists(_roomId) returns(\n        uint _id,\n        uint _numOfBeds,\n        uint _hotelId,\n        uint _pricePerNight,\n        uint _number,\n        bool _isBooked,\n        address _user,\n        string memory _name,\n        string memory _description)\n        {\n            RoomItem storage room = roomItemId[_roomId];\n            _id = room.id;\n            _numOfBeds = room.totalBeds;\n            _hotelId = room.hotelId;\n            _pricePerNight = room.pricePerNight;\n            _number = room.number;\n            _isBooked = room.isBooked;\n            _user = room.user;\n            _name = room.name;\n            _description = room.description;\n        }\n\n    function getName(uint _roomId) external virtual view override returns(string memory){\n      return roomItemId[_roomId].name;\n    }\n\n    function getId(uint _roomId) external virtual view override returns(uint){\n        return roomItemId[_roomId].id;\n    }\n\n    function setNightPrice(uint _roomId, uint _price) public onlyRoomOwner(_roomId){\n        require(_price != 0,\"price Cannot be zero\");\n        roomItemId[_roomId].pricePerNight = _price;\n        emit RoomNightPriceSet(msg.sender, _price, block.timestamp);\n    }\n\n    function _setBooked(uint _roomId) internal roomExists(_roomId){\n        roomItemId[_roomId].isBooked = true;\n    }\n\n    function listRooms() public view returns(RoomItem[] memory){\n        return rooms;\n    }\n}\n",
  "sourcePath": "D:/Dickens/Programming/Blockchain/Projects/Personal/HotelDapp/contracts/Room.sol",
  "compiler": {
    "name": "solc",
    "version": "0.8.10+commit.fc410830.Emscripten.clang"
  },
  "schemaVersion": "3.4.1",
  "updatedAt": "2021-12-01T21:19:33.823Z",
  "networkType": "ethereum",
  "devdoc": {
    "kind": "dev",
    "methods": {
      "owner()": {
        "details": "Returns the address of the current owner."
      },
      "renounceOwnership()": {
        "details": "Leaves the contract without owner. It will not be possible to call `onlyOwner` functions anymore. Can only be called by the current owner. NOTE: Renouncing ownership will leave the contract without an owner, thereby removing any functionality that is only available to the owner."
      },
      "transferOwnership(address)": {
        "details": "Transfers ownership of the contract to a new account (`newOwner`). Can only be called by the current owner."
      }
    },
    "version": 1
  },
  "userdoc": {
    "kind": "user",
    "methods": {},
    "version": 1
  }
}