{
  "contractName": "Room",
  "abi": [
    {
      "inputs": [],
      "stateMutability": "nonpayable",
      "type": "constructor"
    },
    {
      "anonymous": false,
      "inputs": [
        {
          "indexed": true,
          "internalType": "address",
          "name": "causer",
          "type": "address"
        },
        {
          "indexed": false,
          "internalType": "uint256",
          "name": "date",
          "type": "uint256"
        },
        {
          "indexed": true,
          "internalType": "enum Hotel.HOTEL_CATEGORY",
          "name": "newCategory",
          "type": "uint8"
        }
      ],
      "name": "HotelCategoryChanged",
      "type": "event"
    },
    {
      "anonymous": false,
      "inputs": [
        {
          "indexed": false,
          "internalType": "uint256",
          "name": "date",
          "type": "uint256"
        },
        {
          "indexed": true,
          "internalType": "address",
          "name": "causer",
          "type": "address"
        },
        {
          "indexed": true,
          "internalType": "uint256",
          "name": "id",
          "type": "uint256"
        }
      ],
      "name": "HotelCreated",
      "type": "event"
    },
    {
      "anonymous": false,
      "inputs": [
        {
          "indexed": true,
          "internalType": "address",
          "name": "user",
          "type": "address"
        },
        {
          "indexed": true,
          "internalType": "uint256",
          "name": "date",
          "type": "uint256"
        },
        {
          "indexed": true,
          "internalType": "uint256",
          "name": "fee",
          "type": "uint256"
        }
      ],
      "name": "HotelListingFeeChanged",
      "type": "event"
    },
    {
      "anonymous": false,
      "inputs": [
        {
          "indexed": true,
          "internalType": "address",
          "name": "causer",
          "type": "address"
        },
        {
          "indexed": true,
          "internalType": "address",
          "name": "newOwner",
          "type": "address"
        },
        {
          "indexed": false,
          "internalType": "uint256",
          "name": "date",
          "type": "uint256"
        }
      ],
      "name": "HotelOwnerChanged",
      "type": "event"
    },
    {
      "anonymous": false,
      "inputs": [
        {
          "indexed": true,
          "internalType": "address",
          "name": "user",
          "type": "address"
        },
        {
          "indexed": false,
          "internalType": "uint256",
          "name": "date",
          "type": "uint256"
        },
        {
          "indexed": false,
          "internalType": "uint256",
          "name": "id",
          "type": "uint256"
        }
      ],
      "name": "NewRoomCreated",
      "type": "event"
    },
    {
      "anonymous": false,
      "inputs": [
        {
          "indexed": true,
          "internalType": "address",
          "name": "previousOwner",
          "type": "address"
        },
        {
          "indexed": true,
          "internalType": "address",
          "name": "newOwner",
          "type": "address"
        }
      ],
      "name": "OwnershipTransferred",
      "type": "event"
    },
    {
      "anonymous": false,
      "inputs": [
        {
          "indexed": false,
          "internalType": "uint256",
          "name": "date",
          "type": "uint256"
        },
        {
          "indexed": true,
          "internalType": "address",
          "name": "tenant",
          "type": "address"
        },
        {
          "indexed": true,
          "internalType": "uint256",
          "name": "amountPaid",
          "type": "uint256"
        },
        {
          "indexed": true,
          "internalType": "uint256",
          "name": "roomId",
          "type": "uint256"
        }
      ],
      "name": "RoomBooked",
      "type": "event"
    },
    {
      "anonymous": false,
      "inputs": [
        {
          "indexed": true,
          "internalType": "address",
          "name": "user",
          "type": "address"
        },
        {
          "indexed": false,
          "internalType": "uint256",
          "name": "price",
          "type": "uint256"
        },
        {
          "indexed": true,
          "internalType": "uint256",
          "name": "date",
          "type": "uint256"
        }
      ],
      "name": "RoomNightPriceSet",
      "type": "event"
    },
    {
      "inputs": [
        {
          "internalType": "uint256",
          "name": "_numOfRooms",
          "type": "uint256"
        },
        {
          "internalType": "string",
          "name": "_name",
          "type": "string"
        },
        {
          "internalType": "string",
          "name": "_description",
          "type": "string"
        },
        {
          "internalType": "string",
          "name": "_location",
          "type": "string"
        }
      ],
      "name": "addHotel",
      "outputs": [],
      "stateMutability": "payable",
      "type": "function",
      "payable": true
    },
    {
      "inputs": [
        {
          "internalType": "uint256",
          "name": "_hotelId",
          "type": "uint256"
        },
        {
          "internalType": "enum Hotel.HOTEL_CATEGORY",
          "name": "_category",
          "type": "uint8"
        }
      ],
      "name": "changeHotelCategory",
      "outputs": [],
      "stateMutability": "nonpayable",
      "type": "function"
    },
    {
      "inputs": [
        {
          "internalType": "address payable",
          "name": "_newOwner",
          "type": "address"
        },
        {
          "internalType": "uint256",
          "name": "_hotelId",
          "type": "uint256"
        }
      ],
      "name": "changeHotelOwner",
      "outputs": [],
      "stateMutability": "nonpayable",
      "type": "function"
    },
    {
      "inputs": [
        {
          "internalType": "uint256",
          "name": "",
          "type": "uint256"
        }
      ],
      "name": "existingHotelItemId",
      "outputs": [
        {
          "internalType": "bool",
          "name": "",
          "type": "bool"
        }
      ],
      "stateMutability": "view",
      "type": "function",
      "constant": true
    },
    {
      "inputs": [
        {
          "internalType": "string",
          "name": "",
          "type": "string"
        }
      ],
      "name": "existingHotelItemName",
      "outputs": [
        {
          "internalType": "bool",
          "name": "",
          "type": "bool"
        }
      ],
      "stateMutability": "view",
      "type": "function",
      "constant": true
    },
    {
      "inputs": [
        {
          "internalType": "uint256",
          "name": "",
          "type": "uint256"
        }
      ],
      "name": "existingRoomItem",
      "outputs": [
        {
          "internalType": "bool",
          "name": "",
          "type": "bool"
        }
      ],
      "stateMutability": "view",
      "type": "function",
      "constant": true
    },
    {
      "inputs": [
        {
          "internalType": "string",
          "name": "",
          "type": "string"
        }
      ],
      "name": "existingRoomItemName",
      "outputs": [
        {
          "internalType": "bool",
          "name": "",
          "type": "bool"
        }
      ],
      "stateMutability": "view",
      "type": "function",
      "constant": true
    },
    {
      "inputs": [
        {
          "internalType": "uint256",
          "name": "_hotelId",
          "type": "uint256"
        }
      ],
      "name": "getHotelBioData",
      "outputs": [
        {
          "internalType": "uint256",
          "name": "_id",
          "type": "uint256"
        },
        {
          "internalType": "uint256",
          "name": "_totalRooms",
          "type": "uint256"
        },
        {
          "internalType": "uint256",
          "name": "_date",
          "type": "uint256"
        },
        {
          "internalType": "string",
          "name": "_name",
          "type": "string"
        },
        {
          "internalType": "string",
          "name": "_description",
          "type": "string"
        },
        {
          "internalType": "string",
          "name": "_location",
          "type": "string"
        },
        {
          "internalType": "enum Hotel.HOTEL_CATEGORY",
          "name": "_category",
          "type": "uint8"
        }
      ],
      "stateMutability": "view",
      "type": "function",
      "constant": true
    },
    {
      "inputs": [],
      "name": "hotelCategory",
      "outputs": [
        {
          "internalType": "enum Hotel.HOTEL_CATEGORY",
          "name": "",
          "type": "uint8"
        }
      ],
      "stateMutability": "view",
      "type": "function",
      "constant": true
    },
    {
      "inputs": [
        {
          "internalType": "uint256",
          "name": "",
          "type": "uint256"
        }
      ],
      "name": "hotelItemId",
      "outputs": [
        {
          "internalType": "uint256",
          "name": "id",
          "type": "uint256"
        },
        {
          "internalType": "uint256",
          "name": "totalRooms",
          "type": "uint256"
        },
        {
          "internalType": "uint256",
          "name": "creationDate",
          "type": "uint256"
        },
        {
          "internalType": "string",
          "name": "name",
          "type": "string"
        },
        {
          "internalType": "enum Hotel.HOTEL_CATEGORY",
          "name": "hotelCategory",
          "type": "uint8"
        },
        {
          "internalType": "string",
          "name": "description",
          "type": "string"
        },
        {
          "internalType": "string",
          "name": "locationAddress",
          "type": "string"
        },
        {
          "internalType": "address payable",
          "name": "user",
          "type": "address"
        }
      ],
      "stateMutability": "view",
      "type": "function",
      "constant": true
    },
    {
      "inputs": [
        {
          "internalType": "uint256",
          "name": "",
          "type": "uint256"
        }
      ],
      "name": "hotelItems",
      "outputs": [
        {
          "internalType": "uint256",
          "name": "id",
          "type": "uint256"
        },
        {
          "internalType": "uint256",
          "name": "totalRooms",
          "type": "uint256"
        },
        {
          "internalType": "uint256",
          "name": "creationDate",
          "type": "uint256"
        },
        {
          "internalType": "string",
          "name": "name",
          "type": "string"
        },
        {
          "internalType": "enum Hotel.HOTEL_CATEGORY",
          "name": "hotelCategory",
          "type": "uint8"
        },
        {
          "internalType": "string",
          "name": "description",
          "type": "string"
        },
        {
          "internalType": "string",
          "name": "locationAddress",
          "type": "string"
        },
        {
          "internalType": "address payable",
          "name": "user",
          "type": "address"
        }
      ],
      "stateMutability": "view",
      "type": "function",
      "constant": true
    },
    {
      "inputs": [],
      "name": "hotelListingFee",
      "outputs": [
        {
          "internalType": "uint256",
          "name": "",
          "type": "uint256"
        }
      ],
      "stateMutability": "view",
      "type": "function",
      "constant": true
    },
    {
      "inputs": [
        {
          "internalType": "address",
          "name": "",
          "type": "address"
        }
      ],
      "name": "hotelOwner",
      "outputs": [
        {
          "internalType": "uint256",
          "name": "id",
          "type": "uint256"
        },
        {
          "internalType": "uint256",
          "name": "totalRooms",
          "type": "uint256"
        },
        {
          "internalType": "uint256",
          "name": "creationDate",
          "type": "uint256"
        },
        {
          "internalType": "string",
          "name": "name",
          "type": "string"
        },
        {
          "internalType": "enum Hotel.HOTEL_CATEGORY",
          "name": "hotelCategory",
          "type": "uint8"
        },
        {
          "internalType": "string",
          "name": "description",
          "type": "string"
        },
        {
          "internalType": "string",
          "name": "locationAddress",
          "type": "string"
        },
        {
          "internalType": "address payable",
          "name": "user",
          "type": "address"
        }
      ],
      "stateMutability": "view",
      "type": "function",
      "constant": true
    },
    {
      "inputs": [],
      "name": "listAllHotels",
      "outputs": [
        {
          "components": [
            {
              "internalType": "uint256",
              "name": "id",
              "type": "uint256"
            },
            {
              "internalType": "uint256",
              "name": "totalRooms",
              "type": "uint256"
            },
            {
              "internalType": "uint256",
              "name": "creationDate",
              "type": "uint256"
            },
            {
              "internalType": "string",
              "name": "name",
              "type": "string"
            },
            {
              "internalType": "enum Hotel.HOTEL_CATEGORY",
              "name": "hotelCategory",
              "type": "uint8"
            },
            {
              "internalType": "string",
              "name": "description",
              "type": "string"
            },
            {
              "internalType": "string",
              "name": "locationAddress",
              "type": "string"
            },
            {
              "internalType": "address payable",
              "name": "user",
              "type": "address"
            }
          ],
          "internalType": "struct Hotel.HotelItem[]",
          "name": "",
          "type": "tuple[]"
        }
      ],
      "stateMutability": "view",
      "type": "function",
      "constant": true
    },
    {
      "inputs": [],
      "name": "owner",
      "outputs": [
        {
          "internalType": "address",
          "name": "",
          "type": "address"
        }
      ],
      "stateMutability": "view",
      "type": "function",
      "constant": true
    },
    {
      "inputs": [],
      "name": "renounceOwnership",
      "outputs": [],
      "stateMutability": "nonpayable",
      "type": "function"
    },
    {
      "inputs": [
        {
          "internalType": "uint256",
          "name": "",
          "type": "uint256"
        }
      ],
      "name": "roomItemId",
      "outputs": [
        {
          "internalType": "uint256",
          "name": "id",
          "type": "uint256"
        },
        {
          "internalType": "uint256",
          "name": "totalBeds",
          "type": "uint256"
        },
        {
          "internalType": "uint256",
          "name": "hotelId",
          "type": "uint256"
        },
        {
          "internalType": "uint256",
          "name": "pricePerNight",
          "type": "uint256"
        },
        {
          "internalType": "uint256",
          "name": "number",
          "type": "uint256"
        },
        {
          "internalType": "bool",
          "name": "isBooked",
          "type": "bool"
        },
        {
          "internalType": "address payable",
          "name": "user",
          "type": "address"
        },
        {
          "internalType": "string",
          "name": "name",
          "type": "string"
        },
        {
          "internalType": "string",
          "name": "description",
          "type": "string"
        }
      ],
      "stateMutability": "view",
      "type": "function",
      "constant": true
    },
    {
      "inputs": [
        {
          "internalType": "address",
          "name": "",
          "type": "address"
        }
      ],
      "name": "roomOwner",
      "outputs": [
        {
          "internalType": "uint256",
          "name": "id",
          "type": "uint256"
        },
        {
          "internalType": "uint256",
          "name": "totalBeds",
          "type": "uint256"
        },
        {
          "internalType": "uint256",
          "name": "hotelId",
          "type": "uint256"
        },
        {
          "internalType": "uint256",
          "name": "pricePerNight",
          "type": "uint256"
        },
        {
          "internalType": "uint256",
          "name": "number",
          "type": "uint256"
        },
        {
          "internalType": "bool",
          "name": "isBooked",
          "type": "bool"
        },
        {
          "internalType": "address payable",
          "name": "user",
          "type": "address"
        },
        {
          "internalType": "string",
          "name": "name",
          "type": "string"
        },
        {
          "internalType": "string",
          "name": "description",
          "type": "string"
        }
      ],
      "stateMutability": "view",
      "type": "function",
      "constant": true
    },
    {
      "inputs": [
        {
          "internalType": "uint256",
          "name": "",
          "type": "uint256"
        }
      ],
      "name": "roomTenant",
      "outputs": [
        {
          "internalType": "address",
          "name": "",
          "type": "address"
        }
      ],
      "stateMutability": "view",
      "type": "function",
      "constant": true
    },
    {
      "inputs": [
        {
          "internalType": "uint256",
          "name": "",
          "type": "uint256"
        }
      ],
      "name": "rooms",
      "outputs": [
        {
          "internalType": "uint256",
          "name": "id",
          "type": "uint256"
        },
        {
          "internalType": "uint256",
          "name": "totalBeds",
          "type": "uint256"
        },
        {
          "internalType": "uint256",
          "name": "hotelId",
          "type": "uint256"
        },
        {
          "internalType": "uint256",
          "name": "pricePerNight",
          "type": "uint256"
        },
        {
          "internalType": "uint256",
          "name": "number",
          "type": "uint256"
        },
        {
          "internalType": "bool",
          "name": "isBooked",
          "type": "bool"
        },
        {
          "internalType": "address payable",
          "name": "user",
          "type": "address"
        },
        {
          "internalType": "string",
          "name": "name",
          "type": "string"
        },
        {
          "internalType": "string",
          "name": "description",
          "type": "string"
        }
      ],
      "stateMutability": "view",
      "type": "function",
      "constant": true
    },
    {
      "inputs": [
        {
          "internalType": "uint256",
          "name": "_fee",
          "type": "uint256"
        }
      ],
      "name": "setListingFee",
      "outputs": [],
      "stateMutability": "nonpayable",
      "type": "function"
    },
    {
      "inputs": [],
      "name": "totalHotels",
      "outputs": [
        {
          "internalType": "uint256",
          "name": "",
          "type": "uint256"
        }
      ],
      "stateMutability": "view",
      "type": "function",
      "constant": true
    },
    {
      "inputs": [],
      "name": "totalRooms",
      "outputs": [
        {
          "internalType": "uint256",
          "name": "",
          "type": "uint256"
        }
      ],
      "stateMutability": "view",
      "type": "function",
      "constant": true
    },
    {
      "inputs": [
        {
          "internalType": "address",
          "name": "newOwner",
          "type": "address"
        }
      ],
      "name": "transferOwnership",
      "outputs": [],
      "stateMutability": "nonpayable",
      "type": "function"
    },
    {
      "inputs": [
        {
          "internalType": "uint256",
          "name": "_hotelId",
          "type": "uint256"
        },
        {
          "internalType": "uint256",
          "name": "_totalBeds",
          "type": "uint256"
        },
        {
          "internalType": "uint256",
          "name": "_pricePerNight",
          "type": "uint256"
        },
        {
          "internalType": "uint256",
          "name": "_number",
          "type": "uint256"
        },
        {
          "internalType": "string",
          "name": "_name",
          "type": "string"
        },
        {
          "internalType": "string",
          "name": "_description",
          "type": "string"
        }
      ],
      "name": "addRoom",
      "outputs": [],
      "stateMutability": "nonpayable",
      "type": "function"
    },
    {
      "inputs": [
        {
          "internalType": "uint256",
          "name": "_roomId",
          "type": "uint256"
        }
      ],
      "name": "getRoomBioData",
      "outputs": [
        {
          "internalType": "uint256",
          "name": "_id",
          "type": "uint256"
        },
        {
          "internalType": "uint256",
          "name": "_numOfBeds",
          "type": "uint256"
        },
        {
          "internalType": "uint256",
          "name": "_hotelId",
          "type": "uint256"
        },
        {
          "internalType": "uint256",
          "name": "_pricePerNight",
          "type": "uint256"
        },
        {
          "internalType": "uint256",
          "name": "_number",
          "type": "uint256"
        },
        {
          "internalType": "bool",
          "name": "_isBooked",
          "type": "bool"
        },
        {
          "internalType": "address",
          "name": "_user",
          "type": "address"
        },
        {
          "internalType": "string",
          "name": "_name",
          "type": "string"
        },
        {
          "internalType": "string",
          "name": "_description",
          "type": "string"
        }
      ],
      "stateMutability": "view",
      "type": "function",
      "constant": true
    },
    {
      "inputs": [
        {
          "internalType": "uint256",
          "name": "_roomId",
          "type": "uint256"
        }
      ],
      "name": "getName",
      "outputs": [
        {
          "internalType": "string",
          "name": "",
          "type": "string"
        }
      ],
      "stateMutability": "view",
      "type": "function",
      "constant": true
    },
    {
      "inputs": [
        {
          "internalType": "uint256",
          "name": "_roomId",
          "type": "uint256"
        }
      ],
      "name": "getId",
      "outputs": [
        {
          "internalType": "uint256",
          "name": "",
          "type": "uint256"
        }
      ],
      "stateMutability": "view",
      "type": "function",
      "constant": true
    },
    {
      "inputs": [
        {
          "internalType": "uint256",
          "name": "_roomId",
          "type": "uint256"
        },
        {
          "internalType": "uint256",
          "name": "_price",
          "type": "uint256"
        }
      ],
      "name": "setNightPrice",
      "outputs": [],
      "stateMutability": "nonpayable",
      "type": "function"
    },
    {
      "inputs": [],
      "name": "listRooms",
      "outputs": [
        {
          "components": [
            {
              "internalType": "uint256",
              "name": "id",
              "type": "uint256"
            },
            {
              "internalType": "uint256",
              "name": "totalBeds",
              "type": "uint256"
            },
            {
              "internalType": "uint256",
              "name": "hotelId",
              "type": "uint256"
            },
            {
              "internalType": "uint256",
              "name": "pricePerNight",
              "type": "uint256"
            },
            {
              "internalType": "uint256",
              "name": "number",
              "type": "uint256"
            },
            {
              "internalType": "bool",
              "name": "isBooked",
              "type": "bool"
            },
            {
              "internalType": "address payable",
              "name": "user",
              "type": "address"
            },
            {
              "internalType": "string",
              "name": "name",
              "type": "string"
            },
            {
              "internalType": "string",
              "name": "description",
              "type": "string"
            }
          ],
          "internalType": "struct Room.RoomItem[]",
          "name": "",
          "type": "tuple[]"
        }
      ],
      "stateMutability": "view",
      "type": "function",
      "constant": true
    }
  ],
  "bytecode": "0x60806040526000600255660187152d40e0006003556000600b553480156200002657600080fd5b50620000476200003b6200005460201b60201c565b6200005c60201b60201c565b6001808190555062000120565b600033905090565b60008060009054906101000a900473ffffffffffffffffffffffffffffffffffffffff169050816000806101000a81548173ffffffffffffffffffffffffffffffffffffffff021916908373ffffffffffffffffffffffffffffffffffffffff1602179055508173ffffffffffffffffffffffffffffffffffffffff168173ffffffffffffffffffffffffffffffffffffffff167f8be0079c531659141344cd1fd0a4f28419497f9722a3daafe3b4186f6b6457e060405160405180910390a35050565b61536380620001306000396000f3fe6080604052600436106101cd5760003560e01c8063715018a6116100f7578063af5537fa11610095578063c5a56e8211610064578063c5a56e8214610723578063c89e49631461074c578063cee9e07814610790578063f2fde38b146107cd576101cd565b8063af5537fa14610679578063b2afef82146106a4578063bbc02ce2146106cd578063c210c532146106f8576101cd565b80638da5cb5b116100d15780638da5cb5b1461059a57806391aa8489146105c55780639524a38e146105f0578063958aa59b14610634576101cd565b8063715018a61461050957806374dbda0514610520578063808658771461055d576101cd565b8063307764971161016f5780634ee9a94d1161013e5780634ee9a94d14610421578063545a153a146104665780636b8ff574146104a357806370f3bfd8146104e0576101cd565b806330776497146103325780633716236e14610377578063387329f9146103bb5780634dce717e146103e4576101cd565b806310f70192116101ab57806310f701921461027d578063131dbd09146102a85780631bae0ac8146102d15780631c5c9b5d14610316576101cd565b80630aaecc35146101d25780630af272f71461020f5780630fa0200d14610252575b600080fd5b3480156101de57600080fd5b506101f960048036038101906101f49190613ae4565b6107f6565b6040516102069190613b48565b60405180910390f35b34801561021b57600080fd5b5061023660048036038101906102319190613b99565b61082c565b6040516102499796959493929190613cd4565b60405180910390f35b34801561025e57600080fd5b50610267610a9a565b6040516102749190613d58565b60405180910390f35b34801561028957600080fd5b50610292610aad565b60405161029f9190613faa565b60405180910390f35b3480156102b457600080fd5b506102cf60048036038101906102ca9190613b99565b610cd4565b005b3480156102dd57600080fd5b506102f860048036038101906102f39190613b99565b610de3565b60405161030d99989796959493929190613fdb565b60405180910390f35b610330600480360381019061032b9190614076565b610f7e565b005b34801561033e57600080fd5b5061035960048036038101906103549190613b99565b61174e565b60405161036e99989796959493929190613fdb565b60405180910390f35b34801561038357600080fd5b5061039e6004803603810190610399919061416f565b6118d9565b6040516103b298979695949392919061419c565b60405180910390f35b3480156103c757600080fd5b506103e260048036038101906103dd919061425b565b611ae6565b005b3480156103f057600080fd5b5061040b60048036038101906104069190613ae4565b611d92565b6040516104189190613b48565b60405180910390f35b34801561042d57600080fd5b506104486004803603810190610443919061416f565b611dc8565b60405161045d99989796959493929190613fdb565b60405180910390f35b34801561047257600080fd5b5061048d60048036038101906104889190613b99565b611f53565b60405161049a919061429b565b60405180910390f35b3480156104af57600080fd5b506104ca60048036038101906104c59190613b99565b611f73565b6040516104d791906142b6565b60405180910390f35b3480156104ec57600080fd5b50610507600480360381019061050291906142fd565b61201b565b005b34801561051557600080fd5b5061051e61224f565b005b34801561052c57600080fd5b5061054760048036038101906105429190613b99565b6122d7565b6040516105549190613b48565b60405180910390f35b34801561056957600080fd5b50610584600480360381019061057f9190613b99565b6122f7565b604051610591919061434c565b60405180910390f35b3480156105a657600080fd5b506105af61232a565b6040516105bc919061434c565b60405180910390f35b3480156105d157600080fd5b506105da612353565b6040516105e7919061429b565b60405180910390f35b3480156105fc57600080fd5b5061061760048036038101906106129190613b99565b612359565b60405161062b98979695949392919061419c565b60405180910390f35b34801561064057600080fd5b5061065b60048036038101906106569190613b99565b612566565b60405161067099989796959493929190614367565b60405180910390f35b34801561068557600080fd5b5061068e61277e565b60405161069b919061429b565b60405180910390f35b3480156106b057600080fd5b506106cb60048036038101906106c69190614402565b612784565b005b3480156106d957600080fd5b506106e2612ffc565b6040516106ef919061429b565b60405180910390f35b34801561070457600080fd5b5061070d613002565b60405161071a9190614656565b60405180910390f35b34801561072f57600080fd5b5061074a60048036038101906107459190614678565b6132c7565b005b34801561075857600080fd5b50610773600480360381019061076e9190613b99565b61341f565b60405161078798979695949392919061419c565b60405180910390f35b34801561079c57600080fd5b506107b760048036038101906107b29190613b99565b61363c565b6040516107c49190613b48565b60405180910390f35b3480156107d957600080fd5b506107f460048036038101906107ef919061416f565b61365c565b005b6012818051602081018201805184825260208301602085012081835280955050505050506000915054906101000a900460ff1681565b60008060006060806060600087600115156009600083815260200190815260200160002060009054906101000a900460ff161515146108a0576040517f08c379a000000000000000000000000000000000000000000000000000000000815260040161089790614704565b60405180910390fd5b6000600760008b815260200190815260200160002090508060000154985080600101549750806002015496508060030180546108db90614753565b80601f016020809104026020016040519081016040528092919081815260200182805461090790614753565b80156109545780601f1061092957610100808354040283529160200191610954565b820191906000526020600020905b81548152906001019060200180831161093757829003601f168201915b5050505050955080600501805461096a90614753565b80601f016020809104026020016040519081016040528092919081815260200182805461099690614753565b80156109e35780601f106109b8576101008083540402835291602001916109e3565b820191906000526020600020905b8154815290600101906020018083116109c657829003601f168201915b505050505094508060060180546109f990614753565b80601f0160208091040260200160405190810160405280929190818152602001828054610a2590614753565b8015610a725780601f10610a4757610100808354040283529160200191610a72565b820191906000526020600020905b815481529060010190602001808311610a5557829003601f168201915b505050505093508060040160009054906101000a900460ff1692505050919395979092949650565b600560009054906101000a900460ff1681565b6060600d805480602002602001604051908101604052809291908181526020016000905b82821015610ccb57838290600052602060002090600802016040518061012001604052908160008201548152602001600182015481526020016002820154815260200160038201548152602001600482015481526020016005820160009054906101000a900460ff161515151581526020016005820160019054906101000a900473ffffffffffffffffffffffffffffffffffffffff1673ffffffffffffffffffffffffffffffffffffffff1673ffffffffffffffffffffffffffffffffffffffff168152602001600682018054610ba890614753565b80601f0160208091040260200160405190810160405280929190818152602001828054610bd490614753565b8015610c215780601f10610bf657610100808354040283529160200191610c21565b820191906000526020600020905b815481529060010190602001808311610c0457829003601f168201915b50505050508152602001600782018054610c3a90614753565b80601f0160208091040260200160405190810160405280929190818152602001828054610c6690614753565b8015610cb35780601f10610c8857610100808354040283529160200191610cb3565b820191906000526020600020905b815481529060010190602001808311610c9657829003601f168201915b50505050508152505081526020019060010190610ad1565b50505050905090565b610cdc613754565b73ffffffffffffffffffffffffffffffffffffffff16610cfa61232a565b73ffffffffffffffffffffffffffffffffffffffff1614610d50576040517f08c379a0000000000000000000000000000000000000000000000000000000008152600401610d47906147d1565b60405180910390fd5b6000811415610d94576040517f08c379a0000000000000000000000000000000000000000000000000000000008152600401610d8b9061483d565b60405180910390fd5b8060038190555080423373ffffffffffffffffffffffffffffffffffffffff167fd86cac97cd3caa153b72db918dc0feb1ed9683dfd389c345d07f7d00390b63b760405160405180910390a450565b600d8181548110610df357600080fd5b90600052602060002090600802016000915090508060000154908060010154908060020154908060030154908060040154908060050160009054906101000a900460ff16908060050160019054906101000a900473ffffffffffffffffffffffffffffffffffffffff1690806006018054610e6d90614753565b80601f0160208091040260200160405190810160405280929190818152602001828054610e9990614753565b8015610ee65780601f10610ebb57610100808354040283529160200191610ee6565b820191906000526020600020905b815481529060010190602001808311610ec957829003601f168201915b505050505090806007018054610efb90614753565b80601f0160208091040260200160405190810160405280929190818152602001828054610f2790614753565b8015610f745780601f10610f4957610100808354040283529160200191610f74565b820191906000526020600020905b815481529060010190602001808311610f5757829003601f168201915b5050505050905089565b8260001515600a82604051610f939190614899565b908152602001604051809103902060009054906101000a900460ff16151514610ff1576040517f08c379a0000000000000000000000000000000000000000000000000000000008152600401610fe8906148fc565b60405180910390fd5b6000815111611035576040517f08c379a000000000000000000000000000000000000000000000000000000000815260040161102c90614968565b60405180910390fd5b6002600154141561107b576040517f08c379a0000000000000000000000000000000000000000000000000000000008152600401611072906149d4565b60405180910390fd5b6002600181905550600073ffffffffffffffffffffffffffffffffffffffff163373ffffffffffffffffffffffffffffffffffffffff1614156110bd57600080fd5b6003543414611101576040517f08c379a00000000000000000000000000000000000000000000000000000000081526004016110f890614a40565b60405180910390fd5b6000851415611145576040517f08c379a000000000000000000000000000000000000000000000000000000000815260040161113c90614aac565b60405180910390fd5b6000835111611189576040517f08c379a000000000000000000000000000000000000000000000000000000000815260040161118090614b3e565b60405180910390fd5b60008251116111cd576040517f08c379a00000000000000000000000000000000000000000000000000000000081526004016111c490614bd0565b60405180910390fd5b6111d7600461375c565b60006111e36004613772565b90506040518061010001604052808281526020018781526020014281526020018681526020016000600681111561121d5761121c613c5d565b5b81526020018581526020018481526020013373ffffffffffffffffffffffffffffffffffffffff1681525060076000838152602001908152602001600020600082015181600001556020820151816001015560408201518160020155606082015181600301908051906020019061129592919061385a565b5060808201518160040160006101000a81548160ff021916908360068111156112c1576112c0613c5d565b5b021790555060a08201518160050190805190602001906112e292919061385a565b5060c08201518160060190805190602001906112ff92919061385a565b5060e08201518160070160006101000a81548173ffffffffffffffffffffffffffffffffffffffff021916908373ffffffffffffffffffffffffffffffffffffffff160217905550905050600660076000838152602001908152602001600020908060018154018082558091505060019003906000526020600020906008020160009091909190915060008201548160000155600182015481600101556002820154816002015560038201816003019080546113ba90614753565b6113c59291906138e0565b506004820160009054906101000a900460ff168160040160006101000a81548160ff021916908360068111156113fe576113fd613c5d565b5b0217905550600582018160050190805461141790614753565b6114229291906138e0565b50600682018160060190805461143790614753565b6114429291906138e0565b506007820160009054906101000a900473ffffffffffffffffffffffffffffffffffffffff168160070160006101000a81548173ffffffffffffffffffffffffffffffffffffffff021916908373ffffffffffffffffffffffffffffffffffffffff160217905550505060076000828152602001908152602001600020600860003373ffffffffffffffffffffffffffffffffffffffff1673ffffffffffffffffffffffffffffffffffffffff168152602001908152602001600020600082015481600001556001820154816001015560028201548160020155600382018160030190805461153090614753565b61153b9291906138e0565b506004820160009054906101000a900460ff168160040160006101000a81548160ff0219169083600681111561157457611573613c5d565b5b0217905550600582018160050190805461158d90614753565b6115989291906138e0565b5060068201816006019080546115ad90614753565b6115b89291906138e0565b506007820160009054906101000a900473ffffffffffffffffffffffffffffffffffffffff168160070160006101000a81548173ffffffffffffffffffffffffffffffffffffffff021916908373ffffffffffffffffffffffffffffffffffffffff160217905550905050611639600160025461378090919063ffffffff16565b60028190555060016009600083815260200190815260200160002060006101000a81548160ff0219169083151502179055506001600a8660405161167d9190614899565b908152602001604051809103902060006101000a81548160ff0219169083151502179055506116aa61232a565b73ffffffffffffffffffffffffffffffffffffffff166108fc349081150290604051600060405180830381858888f193505050501580156116ef573d6000803e3d6000fd5b50803373ffffffffffffffffffffffffffffffffffffffff167fc8103fc44f19a39b2be3834708c831e6292d5b110a99e06a1f9c1c5f24faf5dd42604051611737919061429b565b60405180910390a350600180819055505050505050565b60106020528060005260406000206000915090508060000154908060010154908060020154908060030154908060040154908060050160009054906101000a900460ff16908060050160019054906101000a900473ffffffffffffffffffffffffffffffffffffffff16908060060180546117c890614753565b80601f01602080910402602001604051908101604052809291908181526020018280546117f490614753565b80156118415780601f1061181657610100808354040283529160200191611841565b820191906000526020600020905b81548152906001019060200180831161182457829003601f168201915b50505050509080600701805461185690614753565b80601f016020809104026020016040519081016040528092919081815260200182805461188290614753565b80156118cf5780601f106118a4576101008083540402835291602001916118cf565b820191906000526020600020905b8154815290600101906020018083116118b257829003601f168201915b5050505050905089565b600860205280600052604060002060009150905080600001549080600101549080600201549080600301805461190e90614753565b80601f016020809104026020016040519081016040528092919081815260200182805461193a90614753565b80156119875780601f1061195c57610100808354040283529160200191611987565b820191906000526020600020905b81548152906001019060200180831161196a57829003601f168201915b5050505050908060040160009054906101000a900460ff16908060050180546119af90614753565b80601f01602080910402602001604051908101604052809291908181526020018280546119db90614753565b8015611a285780601f106119fd57610100808354040283529160200191611a28565b820191906000526020600020905b815481529060010190602001808311611a0b57829003601f168201915b505050505090806006018054611a3d90614753565b80601f0160208091040260200160405190810160405280929190818152602001828054611a6990614753565b8015611ab65780601f10611a8b57610100808354040283529160200191611ab6565b820191906000526020600020905b815481529060010190602001808311611a9957829003601f168201915b5050505050908060070160009054906101000a900473ffffffffffffffffffffffffffffffffffffffff16905088565b80600115156009600083815260200190815260200160002060009054906101000a900460ff16151514611b4e576040517f08c379a0000000000000000000000000000000000000000000000000000000008152600401611b4590614704565b60405180910390fd5b816007600082815260200190815260200160002060070160009054906101000a900473ffffffffffffffffffffffffffffffffffffffff1673ffffffffffffffffffffffffffffffffffffffff163373ffffffffffffffffffffffffffffffffffffffff1614611bf3576040517f08c379a0000000000000000000000000000000000000000000000000000000008152600401611bea90614c3c565b60405180910390fd5b8373ffffffffffffffffffffffffffffffffffffffff163373ffffffffffffffffffffffffffffffffffffffff161415611c62576040517f08c379a0000000000000000000000000000000000000000000000000000000008152600401611c5990614cce565b60405180910390fd5b600073ffffffffffffffffffffffffffffffffffffffff168473ffffffffffffffffffffffffffffffffffffffff161415611cd2576040517f08c379a0000000000000000000000000000000000000000000000000000000008152600401611cc990614d60565b60405180910390fd5b836007600085815260200190815260200160002060070160006101000a81548173ffffffffffffffffffffffffffffffffffffffff021916908373ffffffffffffffffffffffffffffffffffffffff1602179055508373ffffffffffffffffffffffffffffffffffffffff163373ffffffffffffffffffffffffffffffffffffffff167fa4384cd8553d716f837cc7d68ed60529f9672b59cf96f1ce8bef3334183db34a42604051611d84919061429b565b60405180910390a350505050565b600a818051602081018201805184825260208301602085012081835280955050505050506000915054906101000a900460ff1681565b600e6020528060005260406000206000915090508060000154908060010154908060020154908060030154908060040154908060050160009054906101000a900460ff16908060050160019054906101000a900473ffffffffffffffffffffffffffffffffffffffff1690806006018054611e4290614753565b80601f0160208091040260200160405190810160405280929190818152602001828054611e6e90614753565b8015611ebb5780601f10611e9057610100808354040283529160200191611ebb565b820191906000526020600020905b815481529060010190602001808311611e9e57829003601f168201915b505050505090806007018054611ed090614753565b80601f0160208091040260200160405190810160405280929190818152602001828054611efc90614753565b8015611f495780601f10611f1e57610100808354040283529160200191611f49565b820191906000526020600020905b815481529060010190602001808311611f2c57829003601f168201915b5050505050905089565b600060106000838152602001908152602001600020600001549050919050565b6060601060008381526020019081526020016000206006018054611f9690614753565b80601f0160208091040260200160405190810160405280929190818152602001828054611fc290614753565b801561200f5780601f10611fe45761010080835404028352916020019161200f565b820191906000526020600020905b815481529060010190602001808311611ff257829003601f168201915b50505050509050919050565b81600115156009600083815260200190815260200160002060009054906101000a900460ff16151514612083576040517f08c379a000000000000000000000000000000000000000000000000000000000815260040161207a90614704565b60405180910390fd5b826007600082815260200190815260200160002060070160009054906101000a900473ffffffffffffffffffffffffffffffffffffffff1673ffffffffffffffffffffffffffffffffffffffff163373ffffffffffffffffffffffffffffffffffffffff1614612128576040517f08c379a000000000000000000000000000000000000000000000000000000000815260040161211f90614c3c565b60405180910390fd5b60006007600086815260200190815260200160002090506000600681111561215357612152613c5d565b5b84600681111561216657612165613c5d565b5b141561217557612174614d80565b5b8060040160009054906101000a900460ff16600681111561219957612198613c5d565b5b8460068111156121ac576121ab613c5d565b5b14156121bb576121ba614d80565b5b838160040160006101000a81548160ff021916908360068111156121e2576121e1613c5d565b5b02179055508360068111156121fa576121f9613c5d565b5b3373ffffffffffffffffffffffffffffffffffffffff167ff5b844f9650efd8a638976417da0e54ababae9d5ae6ec7dbc97124f00d5a5c5e42604051612240919061429b565b60405180910390a35050505050565b612257613754565b73ffffffffffffffffffffffffffffffffffffffff1661227561232a565b73ffffffffffffffffffffffffffffffffffffffff16146122cb576040517f08c379a00000000000000000000000000000000000000000000000000000000081526004016122c2906147d1565b60405180910390fd5b6122d56000613796565b565b60096020528060005260406000206000915054906101000a900460ff1681565b600f6020528060005260406000206000915054906101000a900473ffffffffffffffffffffffffffffffffffffffff1681565b60008060009054906101000a900473ffffffffffffffffffffffffffffffffffffffff16905090565b60035481565b600760205280600052604060002060009150905080600001549080600101549080600201549080600301805461238e90614753565b80601f01602080910402602001604051908101604052809291908181526020018280546123ba90614753565b80156124075780601f106123dc57610100808354040283529160200191612407565b820191906000526020600020905b8154815290600101906020018083116123ea57829003601f168201915b5050505050908060040160009054906101000a900460ff169080600501805461242f90614753565b80601f016020809104026020016040519081016040528092919081815260200182805461245b90614753565b80156124a85780601f1061247d576101008083540402835291602001916124a8565b820191906000526020600020905b81548152906001019060200180831161248b57829003601f168201915b5050505050908060060180546124bd90614753565b80601f01602080910402602001604051908101604052809291908181526020018280546124e990614753565b80156125365780601f1061250b57610100808354040283529160200191612536565b820191906000526020600020905b81548152906001019060200180831161251957829003601f168201915b5050505050908060070160009054906101000a900473ffffffffffffffffffffffffffffffffffffffff16905088565b600080600080600080600060608089600115156011600083815260200190815260200160002060009054906101000a900460ff161515146125dc576040517f08c379a00000000000000000000000000000000000000000000000000000000081526004016125d390614dfb565b60405180910390fd5b6000601060008d8152602001908152602001600020905080600001549a50806001015499508060020154985080600301549750806004015496508060050160009054906101000a900460ff1695508060050160019054906101000a900473ffffffffffffffffffffffffffffffffffffffff16945080600601805461266090614753565b80601f016020809104026020016040519081016040528092919081815260200182805461268c90614753565b80156126d95780601f106126ae576101008083540402835291602001916126d9565b820191906000526020600020905b8154815290600101906020018083116126bc57829003601f168201915b505050505093508060070180546126ef90614753565b80601f016020809104026020016040519081016040528092919081815260200182805461271b90614753565b80156127685780601f1061273d57610100808354040283529160200191612768565b820191906000526020600020905b81548152906001019060200180831161274b57829003601f168201915b5050505050925050509193959799909294969850565b600b5481565b8560006007600083815260200190815260200160002060070160009054906101000a900473ffffffffffffffffffffffffffffffffffffffff1673ffffffffffffffffffffffffffffffffffffffff163373ffffffffffffffffffffffffffffffffffffffff1614156127f657600190505b600115158115151461283d576040517f08c379a000000000000000000000000000000000000000000000000000000000815260040161283490614e8d565b60405180910390fd5b876007600082815260200190815260200160002060070160009054906101000a900473ffffffffffffffffffffffffffffffffffffffff1673ffffffffffffffffffffffffffffffffffffffff163373ffffffffffffffffffffffffffffffffffffffff16146128e2576040517f08c379a00000000000000000000000000000000000000000000000000000000081526004016128d990614c3c565b60405180910390fd5b88600115156009600083815260200190815260200160002060009054906101000a900460ff1615151461294a576040517f08c379a000000000000000000000000000000000000000000000000000000000815260040161294190614704565b60405180910390fd5b85600081511161298f576040517f08c379a000000000000000000000000000000000000000000000000000000000815260040161298690614ef9565b60405180910390fd5b600015156012826040516129a39190614899565b908152602001604051809103902060009054906101000a900460ff16151514612a01576040517f08c379a00000000000000000000000000000000000000000000000000000000081526004016129f890614f65565b60405180910390fd5b600073ffffffffffffffffffffffffffffffffffffffff163373ffffffffffffffffffffffffffffffffffffffff161415612a3b57600080fd5b60008a1415612a7f576040517f08c379a0000000000000000000000000000000000000000000000000000000008152600401612a7690614fd1565b60405180910390fd5b6000865111612ac3576040517f08c379a0000000000000000000000000000000000000000000000000000000008152600401612aba90615063565b60405180910390fd5b6000891415612b07576040517f08c379a0000000000000000000000000000000000000000000000000000000008152600401612afe906150f5565b60405180910390fd5b612b11600c61375c565b6000612b1d600c613772565b90506000600760008e81526020019081526020016000206000015490506040518061012001604052808381526020018d81526020018281526020018c81526020018b81526020016000151581526020013373ffffffffffffffffffffffffffffffffffffffff1681526020018a81526020018981525060106000848152602001908152602001600020600082015181600001556020820151816001015560408201518160020155606082015181600301556080820151816004015560a08201518160050160006101000a81548160ff02191690831515021790555060c08201518160050160016101000a81548173ffffffffffffffffffffffffffffffffffffffff021916908373ffffffffffffffffffffffffffffffffffffffff16021790555060e0820151816006019080519060200190612c5b92919061385a565b50610100820151816007019080519060200190612c7992919061385a565b50905050600d60106000848152602001908152602001600020908060018154018082558091505060019003906000526020600020906008020160009091909190915060008201548160000155600182015481600101556002820154816002015560038201548160030155600482015481600401556005820160009054906101000a900460ff168160050160006101000a81548160ff0219169083151502179055506005820160019054906101000a900473ffffffffffffffffffffffffffffffffffffffff168160050160016101000a81548173ffffffffffffffffffffffffffffffffffffffff021916908373ffffffffffffffffffffffffffffffffffffffff1602179055506006820181600601908054612d9590614753565b612da09291906138e0565b506007820181600701908054612db590614753565b612dc09291906138e0565b50505060106000838152602001908152602001600020600e60003373ffffffffffffffffffffffffffffffffffffffff1673ffffffffffffffffffffffffffffffffffffffff16815260200190815260200160002060008201548160000155600182015481600101556002820154816002015560038201548160030155600482015481600401556005820160009054906101000a900460ff168160050160006101000a81548160ff0219169083151502179055506005820160019054906101000a900473ffffffffffffffffffffffffffffffffffffffff168160050160016101000a81548173ffffffffffffffffffffffffffffffffffffffff021916908373ffffffffffffffffffffffffffffffffffffffff1602179055506006820181600601908054612eef90614753565b612efa9291906138e0565b506007820181600701908054612f0f90614753565b612f1a9291906138e0565b50905050612f346001600b5461378090919063ffffffff16565b600b8190555060016011600084815260200190815260200160002060006101000a81548160ff021916908315150217905550600160128a604051612f789190614899565b908152602001604051809103902060006101000a81548160ff0219169083151502179055503373ffffffffffffffffffffffffffffffffffffffff167f3733808b347b3e95cb4b664d5c8e8fe364fc4dd34b77f49cde3ba2564d78888c4284604051612fe5929190615115565b60405180910390a250505050505050505050505050565b60025481565b60606006805480602002602001604051908101604052809291908181526020016000905b828210156132be57838290600052602060002090600802016040518061010001604052908160008201548152602001600182015481526020016002820154815260200160038201805461307890614753565b80601f01602080910402602001604051908101604052809291908181526020018280546130a490614753565b80156130f15780601f106130c6576101008083540402835291602001916130f1565b820191906000526020600020905b8154815290600101906020018083116130d457829003601f168201915b505050505081526020016004820160009054906101000a900460ff16600681111561311f5761311e613c5d565b5b600681111561313157613130613c5d565b5b815260200160058201805461314590614753565b80601f016020809104026020016040519081016040528092919081815260200182805461317190614753565b80156131be5780601f10613193576101008083540402835291602001916131be565b820191906000526020600020905b8154815290600101906020018083116131a157829003601f168201915b505050505081526020016006820180546131d790614753565b80601f016020809104026020016040519081016040528092919081815260200182805461320390614753565b80156132505780601f1061322557610100808354040283529160200191613250565b820191906000526020600020905b81548152906001019060200180831161323357829003601f168201915b505050505081526020016007820160009054906101000a900473ffffffffffffffffffffffffffffffffffffffff1673ffffffffffffffffffffffffffffffffffffffff1673ffffffffffffffffffffffffffffffffffffffff168152505081526020019060010190613026565b50505050905090565b816010600082815260200190815260200160002060050160019054906101000a900473ffffffffffffffffffffffffffffffffffffffff1673ffffffffffffffffffffffffffffffffffffffff163373ffffffffffffffffffffffffffffffffffffffff161461336c576040517f08c379a00000000000000000000000000000000000000000000000000000000081526004016133639061518a565b60405180910390fd5b60008214156133b0576040517f08c379a00000000000000000000000000000000000000000000000000000000081526004016133a7906151f6565b60405180910390fd5b816010600085815260200190815260200160002060030181905550423373ffffffffffffffffffffffffffffffffffffffff167f2adffbd83a80d927a3a5c687edc852ca8941019a58261ffb685cc98972ba7c2484604051613412919061429b565b60405180910390a3505050565b6006818154811061342f57600080fd5b906000526020600020906008020160009150905080600001549080600101549080600201549080600301805461346490614753565b80601f016020809104026020016040519081016040528092919081815260200182805461349090614753565b80156134dd5780601f106134b2576101008083540402835291602001916134dd565b820191906000526020600020905b8154815290600101906020018083116134c057829003601f168201915b5050505050908060040160009054906101000a900460ff169080600501805461350590614753565b80601f016020809104026020016040519081016040528092919081815260200182805461353190614753565b801561357e5780601f106135535761010080835404028352916020019161357e565b820191906000526020600020905b81548152906001019060200180831161356157829003601f168201915b50505050509080600601805461359390614753565b80601f01602080910402602001604051908101604052809291908181526020018280546135bf90614753565b801561360c5780601f106135e15761010080835404028352916020019161360c565b820191906000526020600020905b8154815290600101906020018083116135ef57829003601f168201915b5050505050908060070160009054906101000a900473ffffffffffffffffffffffffffffffffffffffff16905088565b60116020528060005260406000206000915054906101000a900460ff1681565b613664613754565b73ffffffffffffffffffffffffffffffffffffffff1661368261232a565b73ffffffffffffffffffffffffffffffffffffffff16146136d8576040517f08c379a00000000000000000000000000000000000000000000000000000000081526004016136cf906147d1565b60405180910390fd5b600073ffffffffffffffffffffffffffffffffffffffff168173ffffffffffffffffffffffffffffffffffffffff161415613748576040517f08c379a000000000000000000000000000000000000000000000000000000000815260040161373f90615288565b60405180910390fd5b61375181613796565b50565b600033905090565b6001816000016000828254019250508190555050565b600081600001549050919050565b6000818361378e91906152d7565b905092915050565b60008060009054906101000a900473ffffffffffffffffffffffffffffffffffffffff169050816000806101000a81548173ffffffffffffffffffffffffffffffffffffffff021916908373ffffffffffffffffffffffffffffffffffffffff1602179055508173ffffffffffffffffffffffffffffffffffffffff168173ffffffffffffffffffffffffffffffffffffffff167f8be0079c531659141344cd1fd0a4f28419497f9722a3daafe3b4186f6b6457e060405160405180910390a35050565b82805461386690614753565b90600052602060002090601f01602090048101928261388857600085556138cf565b82601f106138a157805160ff19168380011785556138cf565b828001600101855582156138cf579182015b828111156138ce5782518255916020019190600101906138b3565b5b5090506138dc919061396d565b5090565b8280546138ec90614753565b90600052602060002090601f01602090048101928261390e576000855561395c565b82601f1061391f578054855561395c565b8280016001018555821561395c57600052602060002091601f016020900482015b8281111561395b578254825591600101919060010190613940565b5b509050613969919061396d565b5090565b5b8082111561398657600081600090555060010161396e565b5090565b6000604051905090565b600080fd5b600080fd5b600080fd5b600080fd5b6000601f19601f8301169050919050565b7f4e487b7100000000000000000000000000000000000000000000000000000000600052604160045260246000fd5b6139f1826139a8565b810181811067ffffffffffffffff82111715613a1057613a0f6139b9565b5b80604052505050565b6000613a2361398a565b9050613a2f82826139e8565b919050565b600067ffffffffffffffff821115613a4f57613a4e6139b9565b5b613a58826139a8565b9050602081019050919050565b82818337600083830152505050565b6000613a87613a8284613a34565b613a19565b905082815260208101848484011115613aa357613aa26139a3565b5b613aae848285613a65565b509392505050565b600082601f830112613acb57613aca61399e565b5b8135613adb848260208601613a74565b91505092915050565b600060208284031215613afa57613af9613994565b5b600082013567ffffffffffffffff811115613b1857613b17613999565b5b613b2484828501613ab6565b91505092915050565b60008115159050919050565b613b4281613b2d565b82525050565b6000602082019050613b5d6000830184613b39565b92915050565b6000819050919050565b613b7681613b63565b8114613b8157600080fd5b50565b600081359050613b9381613b6d565b92915050565b600060208284031215613baf57613bae613994565b5b6000613bbd84828501613b84565b91505092915050565b613bcf81613b63565b82525050565b600081519050919050565b600082825260208201905092915050565b60005b83811015613c0f578082015181840152602081019050613bf4565b83811115613c1e576000848401525b50505050565b6000613c2f82613bd5565b613c398185613be0565b9350613c49818560208601613bf1565b613c52816139a8565b840191505092915050565b7f4e487b7100000000000000000000000000000000000000000000000000000000600052602160045260246000fd5b60078110613c9d57613c9c613c5d565b5b50565b6000819050613cae82613c8c565b919050565b6000613cbe82613ca0565b9050919050565b613cce81613cb3565b82525050565b600060e082019050613ce9600083018a613bc6565b613cf66020830189613bc6565b613d036040830188613bc6565b8181036060830152613d158187613c24565b90508181036080830152613d298186613c24565b905081810360a0830152613d3d8185613c24565b9050613d4c60c0830184613cc5565b98975050505050505050565b6000602082019050613d6d6000830184613cc5565b92915050565b600081519050919050565b600082825260208201905092915050565b6000819050602082019050919050565b613da881613b63565b82525050565b613db781613b2d565b82525050565b600073ffffffffffffffffffffffffffffffffffffffff82169050919050565b6000613de882613dbd565b9050919050565b613df881613ddd565b82525050565b600082825260208201905092915050565b6000613e1a82613bd5565b613e248185613dfe565b9350613e34818560208601613bf1565b613e3d816139a8565b840191505092915050565b600061012083016000830151613e616000860182613d9f565b506020830151613e746020860182613d9f565b506040830151613e876040860182613d9f565b506060830151613e9a6060860182613d9f565b506080830151613ead6080860182613d9f565b5060a0830151613ec060a0860182613dae565b5060c0830151613ed360c0860182613def565b5060e083015184820360e0860152613eeb8282613e0f565b915050610100830151848203610100860152613f078282613e0f565b9150508091505092915050565b6000613f208383613e48565b905092915050565b6000602082019050919050565b6000613f4082613d73565b613f4a8185613d7e565b935083602082028501613f5c85613d8f565b8060005b85811015613f985784840389528151613f798582613f14565b9450613f8483613f28565b925060208a01995050600181019050613f60565b50829750879550505050505092915050565b60006020820190508181036000830152613fc48184613f35565b905092915050565b613fd581613ddd565b82525050565b600061012082019050613ff1600083018c613bc6565b613ffe602083018b613bc6565b61400b604083018a613bc6565b6140186060830189613bc6565b6140256080830188613bc6565b61403260a0830187613b39565b61403f60c0830186613fcc565b81810360e08301526140518185613c24565b90508181036101008301526140668184613c24565b90509a9950505050505050505050565b600080600080608085870312156140905761408f613994565b5b600061409e87828801613b84565b945050602085013567ffffffffffffffff8111156140bf576140be613999565b5b6140cb87828801613ab6565b935050604085013567ffffffffffffffff8111156140ec576140eb613999565b5b6140f887828801613ab6565b925050606085013567ffffffffffffffff81111561411957614118613999565b5b61412587828801613ab6565b91505092959194509250565b600061413c82613dbd565b9050919050565b61414c81614131565b811461415757600080fd5b50565b60008135905061416981614143565b92915050565b60006020828403121561418557614184613994565b5b60006141938482850161415a565b91505092915050565b6000610100820190506141b2600083018b613bc6565b6141bf602083018a613bc6565b6141cc6040830189613bc6565b81810360608301526141de8188613c24565b90506141ed6080830187613cc5565b81810360a08301526141ff8186613c24565b905081810360c08301526142138185613c24565b905061422260e0830184613fcc565b9998505050505050505050565b61423881613ddd565b811461424357600080fd5b50565b6000813590506142558161422f565b92915050565b6000806040838503121561427257614271613994565b5b600061428085828601614246565b925050602061429185828601613b84565b9150509250929050565b60006020820190506142b06000830184613bc6565b92915050565b600060208201905081810360008301526142d08184613c24565b905092915050565b600781106142e557600080fd5b50565b6000813590506142f7816142d8565b92915050565b6000806040838503121561431457614313613994565b5b600061432285828601613b84565b9250506020614333858286016142e8565b9150509250929050565b61434681614131565b82525050565b6000602082019050614361600083018461433d565b92915050565b60006101208201905061437d600083018c613bc6565b61438a602083018b613bc6565b614397604083018a613bc6565b6143a46060830189613bc6565b6143b16080830188613bc6565b6143be60a0830187613b39565b6143cb60c083018661433d565b81810360e08301526143dd8185613c24565b90508181036101008301526143f28184613c24565b90509a9950505050505050505050565b60008060008060008060c0878903121561441f5761441e613994565b5b600061442d89828a01613b84565b965050602061443e89828a01613b84565b955050604061444f89828a01613b84565b945050606061446089828a01613b84565b935050608087013567ffffffffffffffff81111561448157614480613999565b5b61448d89828a01613ab6565b92505060a087013567ffffffffffffffff8111156144ae576144ad613999565b5b6144ba89828a01613ab6565b9150509295509295509295565b600081519050919050565b600082825260208201905092915050565b6000819050602082019050919050565b6144fc81613cb3565b82525050565b60006101008301600083015161451b6000860182613d9f565b50602083015161452e6020860182613d9f565b5060408301516145416040860182613d9f565b50606083015184820360608601526145598282613e0f565b915050608083015161456e60808601826144f3565b5060a083015184820360a08601526145868282613e0f565b91505060c083015184820360c08601526145a08282613e0f565b91505060e08301516145b560e0860182613def565b508091505092915050565b60006145cc8383614502565b905092915050565b6000602082019050919050565b60006145ec826144c7565b6145f681856144d2565b935083602082028501614608856144e3565b8060005b85811015614644578484038952815161462585826145c0565b9450614630836145d4565b925060208a0199505060018101905061460c565b50829750879550505050505092915050565b6000602082019050818103600083015261467081846145e1565b905092915050565b6000806040838503121561468f5761468e613994565b5b600061469d85828601613b84565b92505060206146ae85828601613b84565b9150509250929050565b7f486f74656c20446f6573204e6f74204578697374000000000000000000000000600082015250565b60006146ee601483613be0565b91506146f9826146b8565b602082019050919050565b6000602082019050818103600083015261471d816146e1565b9050919050565b7f4e487b7100000000000000000000000000000000000000000000000000000000600052602260045260246000fd5b6000600282049050600182168061476b57607f821691505b6020821081141561477f5761477e614724565b5b50919050565b7f4f776e61626c653a2063616c6c6572206973206e6f7420746865206f776e6572600082015250565b60006147bb602083613be0565b91506147c682614785565b602082019050919050565b600060208201905081810360008301526147ea816147ae565b9050919050565b7f4c697374696e67204665652043616e6e6f74206265207a65726f000000000000600082015250565b6000614827601a83613be0565b9150614832826147f1565b602082019050919050565b600060208201905081810360008301526148568161481a565b9050919050565b600081905092915050565b600061487382613bd5565b61487d818561485d565b935061488d818560208601613bf1565b80840191505092915050565b60006148a58284614868565b915081905092915050565b7f486f74656c204e616d6520457869737473000000000000000000000000000000600082015250565b60006148e6601183613be0565b91506148f1826148b0565b602082019050919050565b60006020820190508181036000830152614915816148d9565b9050919050565b7f506c6561736520737065636966792074686520686f74656c206e616d65000000600082015250565b6000614952601d83613be0565b915061495d8261491c565b602082019050919050565b6000602082019050818103600083015261498181614945565b9050919050565b7f5265656e7472616e637947756172643a207265656e7472616e742063616c6c00600082015250565b60006149be601f83613be0565b91506149c982614988565b602082019050919050565b600060208201905081810360008301526149ed816149b1565b9050919050565b7f496e76616c6964204c697374696e672046656500000000000000000000000000600082015250565b6000614a2a601383613be0565b9150614a35826149f4565b602082019050919050565b60006020820190508181036000830152614a5981614a1d565b9050919050565b7f4e756d626572206f6620726f6f6d732063616e6e6f74206265207a65726f0000600082015250565b6000614a96601e83613be0565b9150614aa182614a60565b602082019050919050565b60006020820190508181036000830152614ac581614a89565b9050919050565b7f506c6561736520737065636966792074686520686f74656c206465736372697060008201527f74696f6e00000000000000000000000000000000000000000000000000000000602082015250565b6000614b28602483613be0565b9150614b3382614acc565b604082019050919050565b60006020820190508181036000830152614b5781614b1b565b9050919050565b7f506c65617365207370656369667920746865206c6f636174696f6e206f66207460008201527f686520686f74656c000000000000000000000000000000000000000000000000602082015250565b6000614bba602883613be0565b9150614bc582614b5e565b604082019050919050565b60006020820190508181036000830152614be981614bad565b9050919050565b7f596f7520446f204e6f74204f776e205468697320486f74656c204974656d0000600082015250565b6000614c26601e83613be0565b9150614c3182614bf0565b602082019050919050565b60006020820190508181036000830152614c5581614c19565b9050919050565b7f596f75206172652074686520726967687466756c206f776e657220616c72656160008201527f6479000000000000000000000000000000000000000000000000000000000000602082015250565b6000614cb8602283613be0565b9150614cc382614c5c565b604082019050919050565b60006020820190508181036000830152614ce781614cab565b9050919050565b7f506c65617365207370656369667920612076616c69642045544820616464726560008201527f7373000000000000000000000000000000000000000000000000000000000000602082015250565b6000614d4a602283613be0565b9150614d5582614cee565b604082019050919050565b60006020820190508181036000830152614d7981614d3d565b9050919050565b7f4e487b7100000000000000000000000000000000000000000000000000000000600052600160045260246000fd5b7f526f6f6d20446f6573204e6f7420457869737400000000000000000000000000600082015250565b6000614de5601383613be0565b9150614df082614daf565b602082019050919050565b60006020820190508181036000830152614e1481614dd8565b9050919050565b7f506c65617365204c697374204120486f74656c204265666f726520416464696e60008201527f67204120526f6f6d000000000000000000000000000000000000000000000000602082015250565b6000614e77602883613be0565b9150614e8282614e1b565b604082019050919050565b60006020820190508181036000830152614ea681614e6a565b9050919050565b7f506c6561736520737065636966792074686520726f6f6d206e616d6500000000600082015250565b6000614ee3601c83613be0565b9150614eee82614ead565b602082019050919050565b60006020820190508181036000830152614f1281614ed6565b9050919050565b7f526f6f6d204e616d652045786973747300000000000000000000000000000000600082015250565b6000614f4f601083613be0565b9150614f5a82614f19565b602082019050919050565b60006020820190508181036000830152614f7e81614f42565b9050919050565b7f4e756d626572206f6620626564732063616e6e6f74206265207a65726f000000600082015250565b6000614fbb601d83613be0565b9150614fc682614f85565b602082019050919050565b60006020820190508181036000830152614fea81614fae565b9050919050565b7f506c6561736520737065636966792074686520726f6f6d20646573637269707460008201527f696f6e0000000000000000000000000000000000000000000000000000000000602082015250565b600061504d602383613be0565b915061505882614ff1565b604082019050919050565b6000602082019050818103600083015261507c81615040565b9050919050565b7f54686520726f6f6d206e696768742070726963652063616e6e6f74206265207a60008201527f65726f0000000000000000000000000000000000000000000000000000000000602082015250565b60006150df602383613be0565b91506150ea82615083565b604082019050919050565b6000602082019050818103600083015261510e816150d2565b9050919050565b600060408201905061512a6000830185613bc6565b6151376020830184613bc6565b9392505050565b7f596f7520446f204e6f74204f776e205468697320526f6f6d0000000000000000600082015250565b6000615174601883613be0565b915061517f8261513e565b602082019050919050565b600060208201905081810360008301526151a381615167565b9050919050565b7f70726963652043616e6e6f74206265207a65726f000000000000000000000000600082015250565b60006151e0601483613be0565b91506151eb826151aa565b602082019050919050565b6000602082019050818103600083015261520f816151d3565b9050919050565b7f4f776e61626c653a206e6577206f776e657220697320746865207a65726f206160008201527f6464726573730000000000000000000000000000000000000000000000000000602082015250565b6000615272602683613be0565b915061527d82615216565b604082019050919050565b600060208201905081810360008301526152a181615265565b9050919050565b7f4e487b7100000000000000000000000000000000000000000000000000000000600052601160045260246000fd5b60006152e282613b63565b91506152ed83613b63565b9250827fffffffffffffffffffffffffffffffffffffffffffffffffffffffffffffffff03821115615322576153216152a8565b5b82820190509291505056fea2646970667358221220994e9603c6e01ad18a0635c717431ac985b083c8adfe20add504115244ec369664736f6c634300080a0033",
  "immutableReferences": {},
  "source": "// SPDX-License-Identifier: MIT\npragma solidity ^0.8.0;\nimport '@openzeppelin/contracts/utils/math/SafeMath.sol';\nimport '@openzeppelin/contracts/utils/Counters.sol';\nimport './Hotel.sol';\n\ncontract Room is Hotel{\n    using SafeMath for uint256;\n    using Counters for Counters.Counter;\n\n    uint public totalRooms = 0;\n    Counters.Counter private _roomIds;\n\n    struct RoomItem{\n        uint id;\n        uint totalBeds;\n        uint hotelId;\n        uint pricePerNight;\n        uint number;\n        bool isBooked;\n        address payable user;\n        string name;\n        string description;\n    }\n\n    RoomItem[] public rooms;\n\n    mapping(address => RoomItem) public roomOwner;\n    mapping(uint => address) public roomTenant; //who currently resides in the room\n    mapping(uint => RoomItem) public roomItemId; //to help track a room item by it's id\n    mapping(uint => bool) public existingRoomItem;\n    mapping(string => bool) public existingRoomItemName;\n\n    event NewRoomCreated(address indexed user, uint date, uint id);\n    event RoomNightPriceSet(address indexed user, uint price, uint indexed date);\n    event RoomBooked(uint date, address indexed tenant, uint indexed amountPaid, uint indexed roomId);\n\n    constructor() public{\n\n    }\n\n    modifier roomExists(uint _roomId){\n        require(existingRoomItem[_roomId] == true,\"Room Does Not Exist\");\n        _;\n    }\n\n    modifier roomNameDoesNotExist(string memory _name) {\n      require(bytes(_name).length > 0,\"Please specify the room name\");\n      require(existingRoomItemName[_name] == false,\"Room Name Exists\");\n      _;\n    }\n\n    modifier onlyRoomOwner(uint _roomId){\n        require(msg.sender == roomItemId[_roomId].user,\"You Do Not Own This Room\");\n        _;\n    }\n\n    modifier isNotBooked(uint _roomId){\n      require(roomItemId[_roomId].isBooked == false,\"Room is occupied\");\n      _;\n    }\n\n    function addRoom(uint _hotelId, uint _totalBeds, uint _pricePerNight, uint _number,string memory _name, string memory _description) public\n    hasListedHotel(_hotelId)\n    ownsHotel(_hotelId)\n    hotelExists(_hotelId)\n    roomNameDoesNotExist(_name)\n    {\n        require(msg.sender != address(0));\n        require(_totalBeds != 0,\"Number of beds cannot be zero\");\n        require(bytes(_description).length > 0,\"Please specify the room description\");\n        require(_pricePerNight != 0,\"The room night price cannot be zero\");\n        _roomIds.increment();\n        uint currentRoomId = _roomIds.current();\n        uint hotelId = hotelItemId[_hotelId].id;\n        roomItemId[currentRoomId]  = RoomItem(currentRoomId,_totalBeds,hotelId,_pricePerNight, _number, false, payable(msg.sender),_name,_description);\n        rooms.push(roomItemId[currentRoomId]);\n        roomOwner[msg.sender] = roomItemId[currentRoomId];\n        totalRooms = totalRooms.add(1);\n        existingRoomItem[currentRoomId] = true;\n        existingRoomItemName[_name] = true;\n        emit NewRoomCreated(msg.sender, block.timestamp, currentRoomId);\n    }\n\n    function getRoomBioData(uint _roomId) public view roomExists(_roomId) returns(\n        uint _id,\n        uint _numOfBeds,\n        uint _hotelId,\n        uint _pricePerNight,\n        uint _number,\n        bool _isBooked,\n        address _user,\n        string memory _name,\n        string memory _description)\n        {\n            RoomItem storage room = roomItemId[_roomId];\n            _id = room.id;\n            _numOfBeds = room.totalBeds;\n            _hotelId = room.hotelId;\n            _pricePerNight = room.pricePerNight;\n            _number = room.number;\n            _isBooked = room.isBooked;\n            _user = room.user;\n            _name = room.name;\n            _description = room.description;\n        }\n\n    function getName(uint _roomId) external virtual view override returns(string memory){\n      return roomItemId[_roomId].name;\n    }\n\n    function getId(uint _roomId) external virtual view override returns(uint){\n        return roomItemId[_roomId].id;\n    }\n\n    function setNightPrice(uint _roomId, uint _price) public onlyRoomOwner(_roomId){\n        require(_price != 0,\"price Cannot be zero\");\n        roomItemId[_roomId].pricePerNight = _price;\n        emit RoomNightPriceSet(msg.sender, _price, block.timestamp);\n    }\n\n    function _setBooked(uint _roomId) internal roomExists(_roomId){\n        roomItemId[_roomId].isBooked = true;\n    }\n\n    function listRooms() public view returns(RoomItem[] memory){\n        return rooms;\n    }\n}\n",
  "sourcePath": "D:/Dickens/Programming/Blockchain/Projects/Personal/HotelDapp/contracts/Room.sol",
  "compiler": {
    "name": "solc",
    "version": "0.8.10+commit.fc410830.Emscripten.clang"
  },
  "schemaVersion": "3.4.1",
  "updatedAt": "2021-11-19T14:41:00.557Z",
  "networkType": "ethereum",
  "devdoc": {
    "kind": "dev",
    "methods": {
      "owner()": {
        "details": "Returns the address of the current owner."
      },
      "renounceOwnership()": {
        "details": "Leaves the contract without owner. It will not be possible to call `onlyOwner` functions anymore. Can only be called by the current owner. NOTE: Renouncing ownership will leave the contract without an owner, thereby removing any functionality that is only available to the owner."
      },
      "transferOwnership(address)": {
        "details": "Transfers ownership of the contract to a new account (`newOwner`). Can only be called by the current owner."
      }
    },
    "version": 1
  },
  "userdoc": {
    "kind": "user",
    "methods": {},
    "version": 1
  }
}