{
  "contractName": "Room",
  "abi": [
    {
      "inputs": [],
      "stateMutability": "nonpayable",
      "type": "constructor"
    },
    {
      "anonymous": false,
      "inputs": [
        {
          "indexed": true,
          "internalType": "address",
          "name": "causer",
          "type": "address"
        },
        {
          "indexed": false,
          "internalType": "uint256",
          "name": "date",
          "type": "uint256"
        },
        {
          "indexed": true,
          "internalType": "enum Hotel.HOTEL_CATEGORY",
          "name": "newCategory",
          "type": "uint8"
        }
      ],
      "name": "HotelCategoryChanged",
      "type": "event"
    },
    {
      "anonymous": false,
      "inputs": [
        {
          "indexed": false,
          "internalType": "uint256",
          "name": "date",
          "type": "uint256"
        },
        {
          "indexed": true,
          "internalType": "address",
          "name": "causer",
          "type": "address"
        },
        {
          "indexed": true,
          "internalType": "uint256",
          "name": "id",
          "type": "uint256"
        }
      ],
      "name": "HotelCreated",
      "type": "event"
    },
    {
      "anonymous": false,
      "inputs": [
        {
          "indexed": true,
          "internalType": "address",
          "name": "user",
          "type": "address"
        },
        {
          "indexed": true,
          "internalType": "uint256",
          "name": "date",
          "type": "uint256"
        },
        {
          "indexed": true,
          "internalType": "uint256",
          "name": "fee",
          "type": "uint256"
        }
      ],
      "name": "HotelListingFeeChanged",
      "type": "event"
    },
    {
      "anonymous": false,
      "inputs": [
        {
          "indexed": true,
          "internalType": "address",
          "name": "causer",
          "type": "address"
        },
        {
          "indexed": true,
          "internalType": "address",
          "name": "newOwner",
          "type": "address"
        },
        {
          "indexed": false,
          "internalType": "uint256",
          "name": "date",
          "type": "uint256"
        }
      ],
      "name": "HotelOwnerChanged",
      "type": "event"
    },
    {
      "anonymous": false,
      "inputs": [
        {
          "indexed": true,
          "internalType": "address",
          "name": "user",
          "type": "address"
        },
        {
          "indexed": false,
          "internalType": "uint256",
          "name": "date",
          "type": "uint256"
        },
        {
          "indexed": false,
          "internalType": "uint256",
          "name": "id",
          "type": "uint256"
        }
      ],
      "name": "NewRoomCreated",
      "type": "event"
    },
    {
      "anonymous": false,
      "inputs": [
        {
          "indexed": true,
          "internalType": "address",
          "name": "previousOwner",
          "type": "address"
        },
        {
          "indexed": true,
          "internalType": "address",
          "name": "newOwner",
          "type": "address"
        }
      ],
      "name": "OwnershipTransferred",
      "type": "event"
    },
    {
      "anonymous": false,
      "inputs": [
        {
          "indexed": false,
          "internalType": "uint256",
          "name": "date",
          "type": "uint256"
        },
        {
          "indexed": true,
          "internalType": "address",
          "name": "tenant",
          "type": "address"
        },
        {
          "indexed": true,
          "internalType": "uint256",
          "name": "amountPaid",
          "type": "uint256"
        },
        {
          "indexed": true,
          "internalType": "uint256",
          "name": "roomId",
          "type": "uint256"
        }
      ],
      "name": "RoomBooked",
      "type": "event"
    },
    {
      "anonymous": false,
      "inputs": [
        {
          "indexed": true,
          "internalType": "address",
          "name": "user",
          "type": "address"
        },
        {
          "indexed": false,
          "internalType": "uint256",
          "name": "price",
          "type": "uint256"
        },
        {
          "indexed": true,
          "internalType": "uint256",
          "name": "date",
          "type": "uint256"
        }
      ],
      "name": "RoomNightPriceSet",
      "type": "event"
    },
    {
      "inputs": [
        {
          "internalType": "string",
          "name": "_name",
          "type": "string"
        },
        {
          "internalType": "string",
          "name": "_description",
          "type": "string"
        },
        {
          "internalType": "string",
          "name": "_location",
          "type": "string"
        },
        {
          "internalType": "string",
          "name": "_imageHash",
          "type": "string"
        }
      ],
      "name": "addHotel",
      "outputs": [],
      "stateMutability": "payable",
      "type": "function",
      "payable": true
    },
    {
      "inputs": [
        {
          "internalType": "uint256",
          "name": "_hotelId",
          "type": "uint256"
        },
        {
          "internalType": "enum Hotel.HOTEL_CATEGORY",
          "name": "_category",
          "type": "uint8"
        }
      ],
      "name": "changeHotelCategory",
      "outputs": [],
      "stateMutability": "nonpayable",
      "type": "function"
    },
    {
      "inputs": [
        {
          "internalType": "address payable",
          "name": "_newOwner",
          "type": "address"
        },
        {
          "internalType": "uint256",
          "name": "_hotelId",
          "type": "uint256"
        }
      ],
      "name": "changeHotelOwner",
      "outputs": [],
      "stateMutability": "nonpayable",
      "type": "function"
    },
    {
      "inputs": [
        {
          "internalType": "uint256",
          "name": "",
          "type": "uint256"
        }
      ],
      "name": "existingHotelItemId",
      "outputs": [
        {
          "internalType": "bool",
          "name": "",
          "type": "bool"
        }
      ],
      "stateMutability": "view",
      "type": "function",
      "constant": true
    },
    {
      "inputs": [
        {
          "internalType": "string",
          "name": "",
          "type": "string"
        }
      ],
      "name": "existingHotelItemName",
      "outputs": [
        {
          "internalType": "bool",
          "name": "",
          "type": "bool"
        }
      ],
      "stateMutability": "view",
      "type": "function",
      "constant": true
    },
    {
      "inputs": [
        {
          "internalType": "uint256",
          "name": "",
          "type": "uint256"
        }
      ],
      "name": "existingRoomItem",
      "outputs": [
        {
          "internalType": "bool",
          "name": "",
          "type": "bool"
        }
      ],
      "stateMutability": "view",
      "type": "function",
      "constant": true
    },
    {
      "inputs": [
        {
          "internalType": "string",
          "name": "",
          "type": "string"
        }
      ],
      "name": "existingRoomItemName",
      "outputs": [
        {
          "internalType": "bool",
          "name": "",
          "type": "bool"
        }
      ],
      "stateMutability": "view",
      "type": "function",
      "constant": true
    },
    {
      "inputs": [
        {
          "internalType": "uint256",
          "name": "_hotelId",
          "type": "uint256"
        }
      ],
      "name": "getHotelBioData",
      "outputs": [
        {
          "internalType": "uint256",
          "name": "_id",
          "type": "uint256"
        },
        {
          "internalType": "uint256",
          "name": "_totalRooms",
          "type": "uint256"
        },
        {
          "internalType": "uint256",
          "name": "_date",
          "type": "uint256"
        },
        {
          "internalType": "string",
          "name": "_name",
          "type": "string"
        },
        {
          "internalType": "string",
          "name": "_description",
          "type": "string"
        },
        {
          "internalType": "string",
          "name": "_location",
          "type": "string"
        },
        {
          "internalType": "enum Hotel.HOTEL_CATEGORY",
          "name": "_category",
          "type": "uint8"
        },
        {
          "internalType": "string",
          "name": "_photo",
          "type": "string"
        }
      ],
      "stateMutability": "view",
      "type": "function",
      "constant": true
    },
    {
      "inputs": [
        {
          "internalType": "uint256",
          "name": "hotelId",
          "type": "uint256"
        }
      ],
      "name": "getImageHash",
      "outputs": [
        {
          "internalType": "string",
          "name": "_imageHash",
          "type": "string"
        }
      ],
      "stateMutability": "view",
      "type": "function",
      "constant": true
    },
    {
      "inputs": [],
      "name": "hotelCategory",
      "outputs": [
        {
          "internalType": "enum Hotel.HOTEL_CATEGORY",
          "name": "",
          "type": "uint8"
        }
      ],
      "stateMutability": "view",
      "type": "function",
      "constant": true
    },
    {
      "inputs": [
        {
          "internalType": "uint256",
          "name": "",
          "type": "uint256"
        }
      ],
      "name": "hotelItemId",
      "outputs": [
        {
          "internalType": "uint256",
          "name": "id",
          "type": "uint256"
        },
        {
          "internalType": "uint256",
          "name": "totalRooms",
          "type": "uint256"
        },
        {
          "internalType": "uint256",
          "name": "creationDate",
          "type": "uint256"
        },
        {
          "internalType": "string",
          "name": "name",
          "type": "string"
        },
        {
          "internalType": "enum Hotel.HOTEL_CATEGORY",
          "name": "hotelCategory",
          "type": "uint8"
        },
        {
          "internalType": "string",
          "name": "description",
          "type": "string"
        },
        {
          "internalType": "string",
          "name": "locationAddress",
          "type": "string"
        },
        {
          "internalType": "address payable",
          "name": "user",
          "type": "address"
        },
        {
          "internalType": "string",
          "name": "imageHash",
          "type": "string"
        }
      ],
      "stateMutability": "view",
      "type": "function",
      "constant": true
    },
    {
      "inputs": [
        {
          "internalType": "uint256",
          "name": "",
          "type": "uint256"
        }
      ],
      "name": "hotelItems",
      "outputs": [
        {
          "internalType": "uint256",
          "name": "id",
          "type": "uint256"
        },
        {
          "internalType": "uint256",
          "name": "totalRooms",
          "type": "uint256"
        },
        {
          "internalType": "uint256",
          "name": "creationDate",
          "type": "uint256"
        },
        {
          "internalType": "string",
          "name": "name",
          "type": "string"
        },
        {
          "internalType": "enum Hotel.HOTEL_CATEGORY",
          "name": "hotelCategory",
          "type": "uint8"
        },
        {
          "internalType": "string",
          "name": "description",
          "type": "string"
        },
        {
          "internalType": "string",
          "name": "locationAddress",
          "type": "string"
        },
        {
          "internalType": "address payable",
          "name": "user",
          "type": "address"
        },
        {
          "internalType": "string",
          "name": "imageHash",
          "type": "string"
        }
      ],
      "stateMutability": "view",
      "type": "function",
      "constant": true
    },
    {
      "inputs": [],
      "name": "hotelListingFee",
      "outputs": [
        {
          "internalType": "uint256",
          "name": "",
          "type": "uint256"
        }
      ],
      "stateMutability": "view",
      "type": "function",
      "constant": true
    },
    {
      "inputs": [
        {
          "internalType": "address",
          "name": "",
          "type": "address"
        }
      ],
      "name": "hotelOwner",
      "outputs": [
        {
          "internalType": "uint256",
          "name": "id",
          "type": "uint256"
        },
        {
          "internalType": "uint256",
          "name": "totalRooms",
          "type": "uint256"
        },
        {
          "internalType": "uint256",
          "name": "creationDate",
          "type": "uint256"
        },
        {
          "internalType": "string",
          "name": "name",
          "type": "string"
        },
        {
          "internalType": "enum Hotel.HOTEL_CATEGORY",
          "name": "hotelCategory",
          "type": "uint8"
        },
        {
          "internalType": "string",
          "name": "description",
          "type": "string"
        },
        {
          "internalType": "string",
          "name": "locationAddress",
          "type": "string"
        },
        {
          "internalType": "address payable",
          "name": "user",
          "type": "address"
        },
        {
          "internalType": "string",
          "name": "imageHash",
          "type": "string"
        }
      ],
      "stateMutability": "view",
      "type": "function",
      "constant": true
    },
    {
      "inputs": [],
      "name": "listAllHotels",
      "outputs": [
        {
          "components": [
            {
              "internalType": "uint256",
              "name": "id",
              "type": "uint256"
            },
            {
              "internalType": "uint256",
              "name": "totalRooms",
              "type": "uint256"
            },
            {
              "internalType": "uint256",
              "name": "creationDate",
              "type": "uint256"
            },
            {
              "internalType": "string",
              "name": "name",
              "type": "string"
            },
            {
              "internalType": "enum Hotel.HOTEL_CATEGORY",
              "name": "hotelCategory",
              "type": "uint8"
            },
            {
              "internalType": "string",
              "name": "description",
              "type": "string"
            },
            {
              "internalType": "string",
              "name": "locationAddress",
              "type": "string"
            },
            {
              "internalType": "address payable",
              "name": "user",
              "type": "address"
            },
            {
              "internalType": "string",
              "name": "imageHash",
              "type": "string"
            }
          ],
          "internalType": "struct Hotel.HotelItem[]",
          "name": "",
          "type": "tuple[]"
        }
      ],
      "stateMutability": "view",
      "type": "function",
      "constant": true
    },
    {
      "inputs": [],
      "name": "owner",
      "outputs": [
        {
          "internalType": "address",
          "name": "",
          "type": "address"
        }
      ],
      "stateMutability": "view",
      "type": "function",
      "constant": true
    },
    {
      "inputs": [],
      "name": "renounceOwnership",
      "outputs": [],
      "stateMutability": "nonpayable",
      "type": "function"
    },
    {
      "inputs": [
        {
          "internalType": "uint256",
          "name": "",
          "type": "uint256"
        }
      ],
      "name": "roomItemId",
      "outputs": [
        {
          "internalType": "uint256",
          "name": "id",
          "type": "uint256"
        },
        {
          "internalType": "uint256",
          "name": "totalBeds",
          "type": "uint256"
        },
        {
          "internalType": "uint256",
          "name": "hotelId",
          "type": "uint256"
        },
        {
          "internalType": "uint256",
          "name": "pricePerNight",
          "type": "uint256"
        },
        {
          "internalType": "uint256",
          "name": "number",
          "type": "uint256"
        },
        {
          "internalType": "bool",
          "name": "isBooked",
          "type": "bool"
        },
        {
          "internalType": "address payable",
          "name": "user",
          "type": "address"
        },
        {
          "internalType": "string",
          "name": "name",
          "type": "string"
        },
        {
          "internalType": "string",
          "name": "description",
          "type": "string"
        }
      ],
      "stateMutability": "view",
      "type": "function",
      "constant": true
    },
    {
      "inputs": [
        {
          "internalType": "address",
          "name": "",
          "type": "address"
        }
      ],
      "name": "roomOwner",
      "outputs": [
        {
          "internalType": "uint256",
          "name": "id",
          "type": "uint256"
        },
        {
          "internalType": "uint256",
          "name": "totalBeds",
          "type": "uint256"
        },
        {
          "internalType": "uint256",
          "name": "hotelId",
          "type": "uint256"
        },
        {
          "internalType": "uint256",
          "name": "pricePerNight",
          "type": "uint256"
        },
        {
          "internalType": "uint256",
          "name": "number",
          "type": "uint256"
        },
        {
          "internalType": "bool",
          "name": "isBooked",
          "type": "bool"
        },
        {
          "internalType": "address payable",
          "name": "user",
          "type": "address"
        },
        {
          "internalType": "string",
          "name": "name",
          "type": "string"
        },
        {
          "internalType": "string",
          "name": "description",
          "type": "string"
        }
      ],
      "stateMutability": "view",
      "type": "function",
      "constant": true
    },
    {
      "inputs": [
        {
          "internalType": "uint256",
          "name": "",
          "type": "uint256"
        }
      ],
      "name": "roomTenant",
      "outputs": [
        {
          "internalType": "address",
          "name": "",
          "type": "address"
        }
      ],
      "stateMutability": "view",
      "type": "function",
      "constant": true
    },
    {
      "inputs": [
        {
          "internalType": "uint256",
          "name": "",
          "type": "uint256"
        }
      ],
      "name": "rooms",
      "outputs": [
        {
          "internalType": "uint256",
          "name": "id",
          "type": "uint256"
        },
        {
          "internalType": "uint256",
          "name": "totalBeds",
          "type": "uint256"
        },
        {
          "internalType": "uint256",
          "name": "hotelId",
          "type": "uint256"
        },
        {
          "internalType": "uint256",
          "name": "pricePerNight",
          "type": "uint256"
        },
        {
          "internalType": "uint256",
          "name": "number",
          "type": "uint256"
        },
        {
          "internalType": "bool",
          "name": "isBooked",
          "type": "bool"
        },
        {
          "internalType": "address payable",
          "name": "user",
          "type": "address"
        },
        {
          "internalType": "string",
          "name": "name",
          "type": "string"
        },
        {
          "internalType": "string",
          "name": "description",
          "type": "string"
        }
      ],
      "stateMutability": "view",
      "type": "function",
      "constant": true
    },
    {
      "inputs": [
        {
          "internalType": "uint256",
          "name": "hotelId",
          "type": "uint256"
        },
        {
          "internalType": "string",
          "name": "imageHash",
          "type": "string"
        }
      ],
      "name": "setImageHash",
      "outputs": [],
      "stateMutability": "nonpayable",
      "type": "function"
    },
    {
      "inputs": [
        {
          "internalType": "uint256",
          "name": "_fee",
          "type": "uint256"
        }
      ],
      "name": "setListingFee",
      "outputs": [],
      "stateMutability": "nonpayable",
      "type": "function"
    },
    {
      "inputs": [],
      "name": "totalHotels",
      "outputs": [
        {
          "internalType": "uint256",
          "name": "",
          "type": "uint256"
        }
      ],
      "stateMutability": "view",
      "type": "function",
      "constant": true
    },
    {
      "inputs": [],
      "name": "totalRooms",
      "outputs": [
        {
          "internalType": "uint256",
          "name": "",
          "type": "uint256"
        }
      ],
      "stateMutability": "view",
      "type": "function",
      "constant": true
    },
    {
      "inputs": [
        {
          "internalType": "address",
          "name": "newOwner",
          "type": "address"
        }
      ],
      "name": "transferOwnership",
      "outputs": [],
      "stateMutability": "nonpayable",
      "type": "function"
    },
    {
      "inputs": [
        {
          "internalType": "uint256",
          "name": "_hotelId",
          "type": "uint256"
        },
        {
          "internalType": "uint256",
          "name": "_totalBeds",
          "type": "uint256"
        },
        {
          "internalType": "uint256",
          "name": "_pricePerNight",
          "type": "uint256"
        },
        {
          "internalType": "uint256",
          "name": "_number",
          "type": "uint256"
        },
        {
          "internalType": "string",
          "name": "_name",
          "type": "string"
        },
        {
          "internalType": "string",
          "name": "_description",
          "type": "string"
        }
      ],
      "name": "addRoom",
      "outputs": [],
      "stateMutability": "nonpayable",
      "type": "function"
    },
    {
      "inputs": [
        {
          "internalType": "uint256",
          "name": "_roomId",
          "type": "uint256"
        }
      ],
      "name": "getRoomBioData",
      "outputs": [
        {
          "internalType": "uint256",
          "name": "_id",
          "type": "uint256"
        },
        {
          "internalType": "uint256",
          "name": "_numOfBeds",
          "type": "uint256"
        },
        {
          "internalType": "uint256",
          "name": "_hotelId",
          "type": "uint256"
        },
        {
          "internalType": "uint256",
          "name": "_pricePerNight",
          "type": "uint256"
        },
        {
          "internalType": "uint256",
          "name": "_number",
          "type": "uint256"
        },
        {
          "internalType": "bool",
          "name": "_isBooked",
          "type": "bool"
        },
        {
          "internalType": "address",
          "name": "_user",
          "type": "address"
        },
        {
          "internalType": "string",
          "name": "_name",
          "type": "string"
        },
        {
          "internalType": "string",
          "name": "_description",
          "type": "string"
        }
      ],
      "stateMutability": "view",
      "type": "function",
      "constant": true
    },
    {
      "inputs": [
        {
          "internalType": "uint256",
          "name": "_roomId",
          "type": "uint256"
        }
      ],
      "name": "getName",
      "outputs": [
        {
          "internalType": "string",
          "name": "",
          "type": "string"
        }
      ],
      "stateMutability": "view",
      "type": "function",
      "constant": true
    },
    {
      "inputs": [
        {
          "internalType": "uint256",
          "name": "_roomId",
          "type": "uint256"
        }
      ],
      "name": "getId",
      "outputs": [
        {
          "internalType": "uint256",
          "name": "",
          "type": "uint256"
        }
      ],
      "stateMutability": "view",
      "type": "function",
      "constant": true
    },
    {
      "inputs": [
        {
          "internalType": "uint256",
          "name": "_roomId",
          "type": "uint256"
        },
        {
          "internalType": "uint256",
          "name": "_price",
          "type": "uint256"
        }
      ],
      "name": "setNightPrice",
      "outputs": [],
      "stateMutability": "nonpayable",
      "type": "function"
    },
    {
      "inputs": [],
      "name": "listRooms",
      "outputs": [
        {
          "components": [
            {
              "internalType": "uint256",
              "name": "id",
              "type": "uint256"
            },
            {
              "internalType": "uint256",
              "name": "totalBeds",
              "type": "uint256"
            },
            {
              "internalType": "uint256",
              "name": "hotelId",
              "type": "uint256"
            },
            {
              "internalType": "uint256",
              "name": "pricePerNight",
              "type": "uint256"
            },
            {
              "internalType": "uint256",
              "name": "number",
              "type": "uint256"
            },
            {
              "internalType": "bool",
              "name": "isBooked",
              "type": "bool"
            },
            {
              "internalType": "address payable",
              "name": "user",
              "type": "address"
            },
            {
              "internalType": "string",
              "name": "name",
              "type": "string"
            },
            {
              "internalType": "string",
              "name": "description",
              "type": "string"
            }
          ],
          "internalType": "struct Room.RoomItem[]",
          "name": "",
          "type": "tuple[]"
        }
      ],
      "stateMutability": "view",
      "type": "function",
      "constant": true
    }
  ],
  "bytecode": "0x60806040526000600255660187152d40e0006003556000600b553480156200002657600080fd5b5062000032336200003c565b600180556200008c565b600080546001600160a01b038381166001600160a01b0319831681178455604051919092169283917f8be0079c531659141344cd1fd0a4f28419497f9722a3daafe3b4186f6b6457e09190a35050565b61345c806200009c6000396000f3fe6080604052600436106101e35760003560e01c806374dbda0511610102578063b2afef8211610095578063c89e496311610064578063c89e496314610639578063cee9e07814610659578063f2fde38b14610689578063fd5fddd8146106a957600080fd5b8063b2afef82146105c1578063bbc02ce2146105e1578063c210c532146105f7578063c5a56e821461061957600080fd5b80639524a38e116100d15780639524a38e1461054b578063958aa59b1461056b5780639e3edce91461058b578063af5537fa146105ab57600080fd5b806374dbda051461049957806380865877146104c95780638da5cb5b1461051757806391aa84891461053557600080fd5b8063387329f91161017a578063628344621161014957806362834462146104175780636b8ff5741461044457806370f3bfd814610464578063715018a61461048457600080fd5b8063387329f9146103615780634dce717e146103815780634ee9a94d146103bc578063545a153a146103dc57600080fd5b8063131dbd09116101b6578063131dbd09146102b55780631bae0ac8146102d7578063307764971461030c5780633716236e1461032c57600080fd5b80630aaecc35146101e85780630af272f7146102385780630fa0200d1461026c57806310f7019214610293575b600080fd5b3480156101f457600080fd5b50610223610203366004612c6c565b805160208183018101805160128252928201919093012091525460ff1681565b60405190151581526020015b60405180910390f35b34801561024457600080fd5b50610258610253366004612ca9565b6106bc565b60405161022f989796959493929190612d56565b34801561027857600080fd5b506005546102869060ff1681565b60405161022f9190612dd4565b34801561029f57600080fd5b506102a8610983565b60405161022f9190612de2565b3480156102c157600080fd5b506102d56102d0366004612ca9565b610b60565b005b3480156102e357600080fd5b506102f76102f2366004612ca9565b610c0e565b60405161022f99989796959493929190612ec1565b34801561031857600080fd5b506102f7610327366004612ca9565b610d8b565b34801561033857600080fd5b5061034c610347366004612f43565b610de5565b60405161022f99989796959493929190612f67565b34801561036d57600080fd5b506102d561037c366004612fe6565b610fe3565b34801561038d57600080fd5b5061022361039c366004612c6c565b8051602081830181018051600a8252928201919093012091525460ff1681565b3480156103c857600080fd5b506102f76103d7366004612f43565b611182565b3480156103e857600080fd5b506104096103f7366004612ca9565b60009081526010602052604090205490565b60405190815260200161022f565b34801561042357600080fd5b50610437610432366004612ca9565b6111dc565b60405161022f9190613012565b34801561045057600080fd5b5061043761045f366004612ca9565b6112b3565b34801561047057600080fd5b506102d561047f366004613025565b6112d3565b34801561049057600080fd5b506102d5611420565b3480156104a557600080fd5b506102236104b4366004612ca9565b60096020526000908152604090205460ff1681565b3480156104d557600080fd5b506104ff6104e4366004612ca9565b600f602052600090815260409020546001600160a01b031681565b6040516001600160a01b03909116815260200161022f565b34801561052357600080fd5b506000546001600160a01b03166104ff565b34801561054157600080fd5b5061040960035481565b34801561055757600080fd5b5061034c610566366004612ca9565b611456565b34801561057757600080fd5b506102f7610586366004612ca9565b611486565b34801561059757600080fd5b506102d56105a6366004613059565b611687565b3480156105b757600080fd5b50610409600b5481565b3480156105cd57600080fd5b506102d56105dc3660046130a0565b6116e4565b3480156105ed57600080fd5b5061040960025481565b34801561060357600080fd5b5061060c611e60565b60405161022f9190613129565b34801561062557600080fd5b506102d561063436600461322a565b612167565b34801561064557600080fd5b5061034c610654366004612ca9565b612272565b34801561066557600080fd5b50610223610674366004612ca9565b60116020526000908152604090205460ff1681565b34801561069557600080fd5b506102d56106a4366004612f43565b6122b7565b6102d56106b736600461324c565b612352565b600081815260096020526040812054819081906060908190819084908290899060ff1615156001146107095760405162461bcd60e51b8152600401610700906132f9565b60405180910390fd5b60008a8152600760205260409020805460018201546002830154600384018054939d50919b5099509061073b90613327565b80601f016020809104026020016040519081016040528092919081815260200182805461076790613327565b80156107b45780601f10610789576101008083540402835291602001916107b4565b820191906000526020600020905b81548152906001019060200180831161079757829003601f168201915b505050505096508060050180546107ca90613327565b80601f01602080910402602001604051908101604052809291908181526020018280546107f690613327565b80156108435780601f1061081857610100808354040283529160200191610843565b820191906000526020600020905b81548152906001019060200180831161082657829003601f168201915b5050505050955080600601805461085990613327565b80601f016020809104026020016040519081016040528092919081815260200182805461088590613327565b80156108d25780601f106108a7576101008083540402835291602001916108d2565b820191906000526020600020905b8154815290600101906020018083116108b557829003601f168201915b50505050600483015460088401805493985060ff9091169650916108f69150613327565b80601f016020809104026020016040519081016040528092919081815260200182805461092290613327565b801561096f5780601f106109445761010080835404028352916020019161096f565b820191906000526020600020905b81548152906001019060200180831161095257829003601f168201915b505050505092505050919395975091939597565b6060600d805480602002602001604051908101604052809291908181526020016000905b82821015610b57576000848152602090819020604080516101208101825260088602909201805483526001810154938301939093526002830154908201526003820154606082015260048201546080820152600582015460ff8116151560a083015261010090046001600160a01b031660c082015260068201805491929160e084019190610a3490613327565b80601f0160208091040260200160405190810160405280929190818152602001828054610a6090613327565b8015610aad5780601f10610a8257610100808354040283529160200191610aad565b820191906000526020600020905b815481529060010190602001808311610a9057829003601f168201915b50505050508152602001600782018054610ac690613327565b80601f0160208091040260200160405190810160405280929190818152602001828054610af290613327565b8015610b3f5780601f10610b1457610100808354040283529160200191610b3f565b820191906000526020600020905b815481529060010190602001808311610b2257829003601f168201915b505050505081525050815260200190600101906109a7565b50505050905090565b6000546001600160a01b03163314610b8a5760405162461bcd60e51b815260040161070090613362565b80610bd75760405162461bcd60e51b815260206004820152601a60248201527f4c697374696e67204665652043616e6e6f74206265207a65726f0000000000006044820152606401610700565b60038190556040518190429033907fd86cac97cd3caa153b72db918dc0feb1ed9683dfd389c345d07f7d00390b63b790600090a450565b600d8181548110610c1e57600080fd5b60009182526020909120600890910201805460018201546002830154600384015460048501546005860154600687018054969850949693959294919360ff8216936101009092046001600160a01b0316929091610c7a90613327565b80601f0160208091040260200160405190810160405280929190818152602001828054610ca690613327565b8015610cf35780601f10610cc857610100808354040283529160200191610cf3565b820191906000526020600020905b815481529060010190602001808311610cd657829003601f168201915b505050505090806007018054610d0890613327565b80601f0160208091040260200160405190810160405280929190818152602001828054610d3490613327565b8015610d815780601f10610d5657610100808354040283529160200191610d81565b820191906000526020600020905b815481529060010190602001808311610d6457829003601f168201915b5050505050905089565b60106020526000908152604090208054600182015460028301546003840154600485015460058601546006870180549697959694959394929360ff8316936101009093046001600160a01b031692909190610c7a90613327565b600860205260009081526040902080546001820154600283015460038401805493949293919291610e1590613327565b80601f0160208091040260200160405190810160405280929190818152602001828054610e4190613327565b8015610e8e5780601f10610e6357610100808354040283529160200191610e8e565b820191906000526020600020905b815481529060010190602001808311610e7157829003601f168201915b5050506004840154600585018054949560ff909216949193509150610eb290613327565b80601f0160208091040260200160405190810160405280929190818152602001828054610ede90613327565b8015610f2b5780601f10610f0057610100808354040283529160200191610f2b565b820191906000526020600020905b815481529060010190602001808311610f0e57829003601f168201915b505050505090806006018054610f4090613327565b80601f0160208091040260200160405190810160405280929190818152602001828054610f6c90613327565b8015610fb95780601f10610f8e57610100808354040283529160200191610fb9565b820191906000526020600020905b815481529060010190602001808311610f9c57829003601f168201915b505050600784015460088501805494956001600160a01b03909216949193509150610d0890613327565b600081815260096020526040902054819060ff1615156001146110185760405162461bcd60e51b8152600401610700906132f9565b6000828152600760208190526040909120015482906001600160a01b031633146110545760405162461bcd60e51b815260040161070090613397565b336001600160a01b03851614156110b85760405162461bcd60e51b815260206004820152602260248201527f596f75206172652074686520726967687466756c206f776e657220616c726561604482015261647960f01b6064820152608401610700565b6001600160a01b0384166111195760405162461bcd60e51b815260206004820152602260248201527f506c65617365207370656369667920612076616c696420455448206164647265604482015261737360f01b6064820152608401610700565b60008381526007602081815260409283902090910180546001600160a01b0319166001600160a01b038816908117909155915142815233917fa4384cd8553d716f837cc7d68ed60529f9672b59cf96f1ce8bef3334183db34a910160405180910390a350505050565b600e6020526000908152604090208054600182015460028301546003840154600485015460058601546006870180549697959694959394929360ff8316936101009093046001600160a01b031692909190610c7a90613327565b60008181526009602052604090205460609060ff1615156001146112125760405162461bcd60e51b8152600401610700906132f9565b6000828152600760205260409020600801805461122e90613327565b80601f016020809104026020016040519081016040528092919081815260200182805461125a90613327565b80156112a75780601f1061127c576101008083540402835291602001916112a7565b820191906000526020600020905b81548152906001019060200180831161128a57829003601f168201915b50505050509050919050565b600081815260106020526040902060060180546060919061122e90613327565b600082815260096020526040902054829060ff1615156001146113085760405162461bcd60e51b8152600401610700906132f9565b6000838152600760208190526040909120015483906001600160a01b031633146113445760405162461bcd60e51b815260040161070090613397565b60008481526007602052604081209084600681111561136557611365612d1e565b1415611373576113736133ce565b600481015460ff16600681111561138c5761138c612d1e565b84600681111561139e5761139e612d1e565b14156113ac576113ac6133ce565b60048101805485919060ff191660018360068111156113cd576113cd612d1e565b02179055508360068111156113e4576113e4612d1e565b60405142815233907ff5b844f9650efd8a638976417da0e54ababae9d5ae6ec7dbc97124f00d5a5c5e9060200160405180910390a35050505050565b6000546001600160a01b0316331461144a5760405162461bcd60e51b815260040161070090613362565b6114546000612a50565b565b600760205260009081526040902080546001820154600283015460038401805493949293919291610e1590613327565b60008181526011602052604081205481908190819081908190819060609081908a9060ff1615156001146114f25760405162461bcd60e51b8152602060048201526013602482015272149bdbdb48111bd95cc8139bdd08115e1a5cdd606a1b6044820152606401610700565b6000601060008d8152602001908152602001600020905080600001549a50806001015499508060020154985080600301549750806004015496508060050160009054906101000a900460ff1695508060050160019054906101000a90046001600160a01b0316945080600601805461156990613327565b80601f016020809104026020016040519081016040528092919081815260200182805461159590613327565b80156115e25780601f106115b7576101008083540402835291602001916115e2565b820191906000526020600020905b8154815290600101906020018083116115c557829003601f168201915b505050505093508060070180546115f890613327565b80601f016020809104026020016040519081016040528092919081815260200182805461162490613327565b80156116715780601f1061164657610100808354040283529160200191611671565b820191906000526020600020905b81548152906001019060200180831161165457829003601f168201915b5050505050925050509193959799909294969850565b60008281526009602052604090205460ff1615156001146116ba5760405162461bcd60e51b8152600401610700906132f9565b600082815260076020908152604090912082516116df92600890920191840190612ab5565b505050565b6000868152600760208190526040822001548791906001600160a01b031633141561170d575060015b6001811515146117705760405162461bcd60e51b815260206004820152602860248201527f506c65617365204c697374204120486f74656c204265666f726520416464696e60448201526767204120526f6f6d60c01b6064820152608401610700565b6000888152600760208190526040909120015488906001600160a01b031633146117ac5760405162461bcd60e51b815260040161070090613397565b600089815260096020526040902054899060ff1615156001146117e15760405162461bcd60e51b8152600401610700906132f9565b8560008151116118335760405162461bcd60e51b815260206004820152601c60248201527f506c6561736520737065636966792074686520726f6f6d206e616d65000000006044820152606401610700565b60128160405161184391906133e4565b9081526040519081900360200190205460ff16156118965760405162461bcd60e51b815260206004820152601060248201526f526f6f6d204e616d652045786973747360801b6044820152606401610700565b336118a057600080fd5b896118ed5760405162461bcd60e51b815260206004820152601d60248201527f4e756d626572206f6620626564732063616e6e6f74206265207a65726f0000006044820152606401610700565b600086511161194a5760405162461bcd60e51b815260206004820152602360248201527f506c6561736520737065636966792074686520726f6f6d20646573637269707460448201526234b7b760e91b6064820152608401610700565b886119a35760405162461bcd60e51b815260206004820152602360248201527f54686520726f6f6d206e696768742070726963652063616e6e6f74206265207a60448201526265726f60e81b6064820152608401610700565b6119b1600c80546001019055565b60006119bc600c5490565b90506000600760008e81526020019081526020016000206000015490506000600760008f81526020019081526020016000206001015490506040518061012001604052808481526020018e81526020018381526020018d81526020018c8152602001600015158152602001336001600160a01b031681526020018b81526020018a81525060106000858152602001908152602001600020600082015181600001556020820151816001015560408201518160020155606082015181600301556080820151816004015560a08201518160050160006101000a81548160ff02191690831515021790555060c08201518160050160016101000a8154816001600160a01b0302191690836001600160a01b0316021790555060e0820151816006019080519060200190611aee929190612ab5565b506101008201518051611b0b916007840191602090910190612ab5565b5050506000838152601060205260408120600d80546001818101835591909352815460089093027fd7b6990105719101dabeb77144f2a3385c8033acd3af97e9423a695e81ad1eb58101938455908201547fd7b6990105719101dabeb77144f2a3385c8033acd3af97e9423a695e81ad1eb682015560028201547fd7b6990105719101dabeb77144f2a3385c8033acd3af97e9423a695e81ad1eb782015560038201547fd7b6990105719101dabeb77144f2a3385c8033acd3af97e9423a695e81ad1eb882015560048201547fd7b6990105719101dabeb77144f2a3385c8033acd3af97e9423a695e81ad1eb98201556005820180547fd7b6990105719101dabeb77144f2a3385c8033acd3af97e9423a695e81ad1eba8301805460ff909216151560ff1983168117825592546001600160a01b03610100918290041602610100600160a81b03199093166001600160a81b0319909216919091179190911790556006820180549293927fd7b6990105719101dabeb77144f2a3385c8033acd3af97e9423a695e81ad1ebb90920191611ca390613327565b611cae929190612b39565b506007820181600701908054611cc390613327565b611cce929190612b39565b5050506000838152601060209081526040808320338452600e909252909120815481556001808301549082015560028083015490820155600380830154908201556004808301549082015560058083018054918301805460ff909316151560ff198416811782559154610100908190046001600160a01b031602610100600160a81b03199092166001600160a81b0319909316929092171790556006808301805491830191611d7c90613327565b611d87929190612b39565b506007820181600701908054611d9c90613327565b611da7929190612b39565b50611db791508290506001612aa0565b600b54909150611dc8906001612aa0565b600b5560008381526011602052604090819020805460ff191660019081179091559051601290611df9908d906133e4565b9081526040805160209281900383018120805460ff19169415159490941790935542835290820185905233917f3733808b347b3e95cb4b664d5c8e8fe364fc4dd34b77f49cde3ba2564d78888c910160405180910390a25050505050505050505050505050565b60606006805480602002602001604051908101604052809291908181526020016000905b82821015610b57578382906000526020600020906009020160405180610120016040529081600082015481526020016001820154815260200160028201548152602001600382018054611ed690613327565b80601f0160208091040260200160405190810160405280929190818152602001828054611f0290613327565b8015611f4f5780601f10611f2457610100808354040283529160200191611f4f565b820191906000526020600020905b815481529060010190602001808311611f3257829003601f168201915b5050509183525050600482015460209091019060ff166006811115611f7657611f76612d1e565b6006811115611f8757611f87612d1e565b8152602001600582018054611f9b90613327565b80601f0160208091040260200160405190810160405280929190818152602001828054611fc790613327565b80156120145780601f10611fe957610100808354040283529160200191612014565b820191906000526020600020905b815481529060010190602001808311611ff757829003601f168201915b5050505050815260200160068201805461202d90613327565b80601f016020809104026020016040519081016040528092919081815260200182805461205990613327565b80156120a65780601f1061207b576101008083540402835291602001916120a6565b820191906000526020600020905b81548152906001019060200180831161208957829003601f168201915b505050918352505060078201546001600160a01b031660208201526008820180546040909201916120d690613327565b80601f016020809104026020016040519081016040528092919081815260200182805461210290613327565b801561214f5780601f106121245761010080835404028352916020019161214f565b820191906000526020600020905b81548152906001019060200180831161213257829003601f168201915b50505050508152505081526020019060010190611e84565b600082815260106020526040902060050154829061010090046001600160a01b031633146121d75760405162461bcd60e51b815260206004820152601860248201527f596f7520446f204e6f74204f776e205468697320526f6f6d00000000000000006044820152606401610700565b8161221b5760405162461bcd60e51b815260206004820152601460248201527370726963652043616e6e6f74206265207a65726f60601b6044820152606401610700565b6000838152601060205260409081902060030183905551429033907f2adffbd83a80d927a3a5c687edc852ca8941019a58261ffb685cc98972ba7c24906122659086815260200190565b60405180910390a3505050565b6006818154811061228257600080fd5b9060005260206000209060090201600091509050806000015490806001015490806002015490806003018054610e1590613327565b6000546001600160a01b031633146122e15760405162461bcd60e51b815260040161070090613362565b6001600160a01b0381166123465760405162461bcd60e51b815260206004820152602660248201527f4f776e61626c653a206e6577206f776e657220697320746865207a65726f206160448201526564647265737360d01b6064820152608401610700565b61234f81612a50565b50565b83600a8160405161236391906133e4565b9081526040519081900360200190205460ff16156123b75760405162461bcd60e51b8152602060048201526011602482015270486f74656c204e616d652045786973747360781b6044820152606401610700565b60008151116124085760405162461bcd60e51b815260206004820152601d60248201527f506c6561736520737065636966792074686520686f74656c206e616d650000006044820152606401610700565b6002600154141561245b5760405162461bcd60e51b815260206004820152601f60248201527f5265656e7472616e637947756172643a207265656e7472616e742063616c6c006044820152606401610700565b60026001553361246a57600080fd5b60035434146124b15760405162461bcd60e51b8152602060048201526013602482015272496e76616c6964204c697374696e672046656560681b6044820152606401610700565b600084511161250e5760405162461bcd60e51b8152602060048201526024808201527f506c6561736520737065636966792074686520686f74656c20646573637269706044820152633a34b7b760e11b6064820152608401610700565b60008351116125705760405162461bcd60e51b815260206004820152602860248201527f506c65617365207370656369667920746865206c6f636174696f6e206f6620746044820152671a19481a1bdd195b60c21b6064820152608401610700565b61257e600480546001019055565b600061258960045490565b905060405180610120016040528082815260200160008152602001428152602001878152602001600060068111156125c3576125c3612d1e565b8152602080820188905260408083018890523360608085019190915260809093018790526000858152600783528190208451815584830151600182015590840151600282015591830151805161261f9260038501920190612ab5565b50608082015160048201805460ff1916600183600681111561264357612643612d1e565b021790555060a08201518051612663916005840191602090910190612ab5565b5060c0820151805161267f916006840191602090910190612ab5565b5060e08201516007820180546001600160a01b0319166001600160a01b0390921691909117905561010082015180516126c2916008840191602090910190612ab5565b5050506000818152600760205260408120600680546001818101835591909352815460099093027ff652222313e28459528d920b65115c16c04f3efc82aaedc97be59f3f377c0d3f8101938455908201547ff652222313e28459528d920b65115c16c04f3efc82aaedc97be59f3f377c0d4082015560028201547ff652222313e28459528d920b65115c16c04f3efc82aaedc97be59f3f377c0d418201556003820180549293927ff652222313e28459528d920b65115c16c04f3efc82aaedc97be59f3f377c0d429092019161279790613327565b6127a2929190612b39565b50600482810154908201805460ff9092169160ff191660018360068111156127cc576127cc612d1e565b021790555060058201816005019080546127e590613327565b6127f0929190612b39565b50600682018160060190805461280590613327565b612810929190612b39565b5060078281015490820180546001600160a01b0319166001600160a01b03909216919091179055600880830180549183019161284b90613327565b612856929190612b39565b5050506000818152600760209081526040808320338452600890925290912081548155600180830154908201556002808301549082015560038083018054918301916128a190613327565b6128ac929190612b39565b50600482810154908201805460ff9092169160ff191660018360068111156128d6576128d6612d1e565b021790555060058201816005019080546128ef90613327565b6128fa929190612b39565b50600682018160060190805461290f90613327565b61291a929190612b39565b5060078281015490820180546001600160a01b0319166001600160a01b03909216919091179055600880830180549183019161295590613327565b612960929190612b39565b505060025461297191506001612aa0565b60025560008181526009602052604090819020805460ff191660019081179091559051600a906129a29089906133e4565b908152604051908190036020019020805491151560ff199092169190911790556129d46000546001600160a01b031690565b6001600160a01b03166108fc349081150290604051600060405180830381858888f19350505050158015612a0c573d6000803e3d6000fd5b50604051428152819033907fc8103fc44f19a39b2be3834708c831e6292d5b110a99e06a1f9c1c5f24faf5dd9060200160405180910390a350506001805550505050565b600080546001600160a01b038381166001600160a01b0319831681178455604051919092169283917f8be0079c531659141344cd1fd0a4f28419497f9722a3daafe3b4186f6b6457e09190a35050565b6000612aac8284613400565b90505b92915050565b828054612ac190613327565b90600052602060002090601f016020900481019282612ae35760008555612b29565b82601f10612afc57805160ff1916838001178555612b29565b82800160010185558215612b29579182015b82811115612b29578251825591602001919060010190612b0e565b50612b35929150612bb4565b5090565b828054612b4590613327565b90600052602060002090601f016020900481019282612b675760008555612b29565b82601f10612b785780548555612b29565b82800160010185558215612b2957600052602060002091601f016020900482015b82811115612b29578254825591600101919060010190612b99565b5b80821115612b355760008155600101612bb5565b634e487b7160e01b600052604160045260246000fd5b600082601f830112612bf057600080fd5b813567ffffffffffffffff80821115612c0b57612c0b612bc9565b604051601f8301601f19908116603f01168101908282118183101715612c3357612c33612bc9565b81604052838152866020858801011115612c4c57600080fd5b836020870160208301376000602085830101528094505050505092915050565b600060208284031215612c7e57600080fd5b813567ffffffffffffffff811115612c9557600080fd5b612ca184828501612bdf565b949350505050565b600060208284031215612cbb57600080fd5b5035919050565b60005b83811015612cdd578181015183820152602001612cc5565b83811115612cec576000848401525b50505050565b60008151808452612d0a816020860160208601612cc2565b601f01601f19169290920160200192915050565b634e487b7160e01b600052602160045260246000fd5b60078110612d5257634e487b7160e01b600052602160045260246000fd5b9052565b60006101008a8352896020840152886040840152806060840152612d7c81840189612cf2565b90508281036080840152612d908188612cf2565b905082810360a0840152612da48187612cf2565b9050612db360c0840186612d34565b82810360e0840152612dc58185612cf2565b9b9a5050505050505050505050565b60208101612aaf8284612d34565b60006020808301818452808551808352604092508286019150828160051b87010184880160005b83811015612eb357888303603f1901855281518051845287810151888501528681015187850152606080820151908501526080808201519085015260a08082015115159085015260c0808201516001600160a01b03169085015260e0808201516101208287018190529190612e8083880182612cf2565b925050506101008083015192508582038187015250612e9f8183612cf2565b968901969450505090860190600101612e09565b509098975050505050505050565b60006101208b83528a602084015289604084015288606084015287608084015286151560a084015260018060a01b03861660c08401528060e0840152612f0981840186612cf2565b9050828103610100840152612f1e8185612cf2565b9c9b505050505050505050505050565b6001600160a01b038116811461234f57600080fd5b600060208284031215612f5557600080fd5b8135612f6081612f2e565b9392505050565b60006101208b83528a6020840152896040840152806060840152612f8d8184018a612cf2565b9050612f9c6080840189612d34565b82810360a0840152612fae8188612cf2565b905082810360c0840152612fc28187612cf2565b6001600160a01b03861660e08501528381036101008501529050612f1e8185612cf2565b60008060408385031215612ff957600080fd5b823561300481612f2e565b946020939093013593505050565b602081526000612aac6020830184612cf2565b6000806040838503121561303857600080fd5b8235915060208301356007811061304e57600080fd5b809150509250929050565b6000806040838503121561306c57600080fd5b82359150602083013567ffffffffffffffff81111561308a57600080fd5b61309685828601612bdf565b9150509250929050565b60008060008060008060c087890312156130b957600080fd5b86359550602087013594506040870135935060608701359250608087013567ffffffffffffffff808211156130ed57600080fd5b6130f98a838b01612bdf565b935060a089013591508082111561310f57600080fd5b5061311c89828a01612bdf565b9150509295509295509295565b60006020808301818452808551808352604092508286019150828160051b87010184880160005b83811015612eb357603f1989840301855281516101208151855288820151898601528782015188860152606080830151828288015261319183880182612cf2565b925050506080808301516131a782880182612d34565b505060a080830151868303828801526131c08382612cf2565b9250505060c080830151868303828801526131db8382612cf2565b9250505060e0808301516131f9828801826001600160a01b03169052565b505061010080830151925085820381870152506132168183612cf2565b968901969450505090860190600101613150565b6000806040838503121561323d57600080fd5b50508035926020909101359150565b6000806000806080858703121561326257600080fd5b843567ffffffffffffffff8082111561327a57600080fd5b61328688838901612bdf565b9550602087013591508082111561329c57600080fd5b6132a888838901612bdf565b945060408701359150808211156132be57600080fd5b6132ca88838901612bdf565b935060608701359150808211156132e057600080fd5b506132ed87828801612bdf565b91505092959194509250565b602080825260149082015273121bdd195b08111bd95cc8139bdd08115e1a5cdd60621b604082015260600190565b600181811c9082168061333b57607f821691505b6020821081141561335c57634e487b7160e01b600052602260045260246000fd5b50919050565b6020808252818101527f4f776e61626c653a2063616c6c6572206973206e6f7420746865206f776e6572604082015260600190565b6020808252601e908201527f596f7520446f204e6f74204f776e205468697320486f74656c204974656d0000604082015260600190565b634e487b7160e01b600052600160045260246000fd5b600082516133f6818460208701612cc2565b9190910192915050565b6000821982111561342157634e487b7160e01b600052601160045260246000fd5b50019056fea2646970667358221220fe76ea4fe5978b9452e5096a60f1f9b1404da1adfb0b6c07002f35ece0cf605464736f6c634300080a0033",
  "immutableReferences": {},
  "source": "// SPDX-License-Identifier: MIT\npragma solidity ^0.8.0;\nimport '@openzeppelin/contracts/utils/math/SafeMath.sol';\nimport '@openzeppelin/contracts/utils/Counters.sol';\nimport './Hotel.sol';\n\ncontract Room is Hotel{\n    using SafeMath for uint256;\n    using Counters for Counters.Counter;\n\n    uint public totalRooms = 0;\n    Counters.Counter private _roomIds;\n\n    struct RoomItem{\n        uint id;\n        uint totalBeds;\n        uint hotelId;\n        uint pricePerNight;\n        uint number;\n        bool isBooked;\n        address payable user;\n        string name;\n        string description;\n    }\n\n    RoomItem[] public rooms;\n\n    mapping(address => RoomItem) public roomOwner;\n    mapping(uint => address) public roomTenant; //who currently resides in the room\n    mapping(uint => RoomItem) public roomItemId; //to help track a room item by it's id\n    mapping(uint => bool) public existingRoomItem;\n    mapping(string => bool) public existingRoomItemName;\n\n    event NewRoomCreated(address indexed user, uint date, uint id);\n    event RoomNightPriceSet(address indexed user, uint price, uint indexed date);\n    event RoomBooked(uint date, address indexed tenant, uint indexed amountPaid, uint indexed roomId);\n\n    constructor() public{\n\n    }\n\n    modifier roomExists(uint _roomId){\n        require(existingRoomItem[_roomId] == true,\"Room Does Not Exist\");\n        _;\n    }\n\n    modifier roomNameDoesNotExist(string memory _name) {\n      require(bytes(_name).length > 0,\"Please specify the room name\");\n      require(existingRoomItemName[_name] == false,\"Room Name Exists\");\n      _;\n    }\n\n    modifier onlyRoomOwner(uint _roomId){\n        require(msg.sender == roomItemId[_roomId].user,\"You Do Not Own This Room\");\n        _;\n    }\n\n    modifier isNotBooked(uint _roomId){\n      require(roomItemId[_roomId].isBooked == false,\"Room is occupied\");\n      _;\n    }\n\n    function addRoom(uint _hotelId, uint _totalBeds, uint _pricePerNight, uint _number,string memory _name, string memory _description) public\n    hasListedHotel(_hotelId)\n    ownsHotel(_hotelId)\n    hotelExists(_hotelId)\n    roomNameDoesNotExist(_name)\n    {\n        require(msg.sender != address(0));\n        require(_totalBeds != 0,\"Number of beds cannot be zero\");\n        require(bytes(_description).length > 0,\"Please specify the room description\");\n        require(_pricePerNight != 0,\"The room night price cannot be zero\");\n        _roomIds.increment();\n        uint currentRoomId = _roomIds.current();\n        uint hotelId = hotelItemId[_hotelId].id;\n        uint hotelItemTotalRooms = hotelItemId[_hotelId].totalRooms;\n        roomItemId[currentRoomId]  = RoomItem(currentRoomId,_totalBeds,hotelId,_pricePerNight, _number, false, payable(msg.sender),_name,_description);\n        rooms.push(roomItemId[currentRoomId]);\n        roomOwner[msg.sender] = roomItemId[currentRoomId];\n        hotelItemTotalRooms = hotelItemTotalRooms.add(1);\n        totalRooms = totalRooms.add(1);\n        existingRoomItem[currentRoomId] = true;\n        existingRoomItemName[_name] = true;\n        emit NewRoomCreated(msg.sender, block.timestamp, currentRoomId);\n    }\n\n    function getRoomBioData(uint _roomId) public view roomExists(_roomId) returns(\n        uint _id,\n        uint _numOfBeds,\n        uint _hotelId,\n        uint _pricePerNight,\n        uint _number,\n        bool _isBooked,\n        address _user,\n        string memory _name,\n        string memory _description)\n        {\n            RoomItem storage room = roomItemId[_roomId];\n            _id = room.id;\n            _numOfBeds = room.totalBeds;\n            _hotelId = room.hotelId;\n            _pricePerNight = room.pricePerNight;\n            _number = room.number;\n            _isBooked = room.isBooked;\n            _user = room.user;\n            _name = room.name;\n            _description = room.description;\n        }\n\n    function getName(uint _roomId) external virtual view override returns(string memory){\n      return roomItemId[_roomId].name;\n    }\n\n    function getId(uint _roomId) external virtual view override returns(uint){\n        return roomItemId[_roomId].id;\n    }\n\n    function setNightPrice(uint _roomId, uint _price) public onlyRoomOwner(_roomId){\n        require(_price != 0,\"price Cannot be zero\");\n        roomItemId[_roomId].pricePerNight = _price;\n        emit RoomNightPriceSet(msg.sender, _price, block.timestamp);\n    }\n\n    function _setBooked(uint _roomId) internal roomExists(_roomId){\n        roomItemId[_roomId].isBooked = true;\n    }\n\n    function listRooms() public view returns(RoomItem[] memory){\n        return rooms;\n    }\n}\n",
  "sourcePath": "D:/Dickens/Programming/Blockchain/Projects/Personal/HotelDapp/contracts/Room.sol",
  "compiler": {
    "name": "solc",
    "version": "0.8.10+commit.fc410830.Emscripten.clang"
  },
  "schemaVersion": "3.4.1",
  "updatedAt": "2021-12-03T22:23:56.736Z",
  "networkType": "ethereum",
  "devdoc": {
    "kind": "dev",
    "methods": {
      "owner()": {
        "details": "Returns the address of the current owner."
      },
      "renounceOwnership()": {
        "details": "Leaves the contract without owner. It will not be possible to call `onlyOwner` functions anymore. Can only be called by the current owner. NOTE: Renouncing ownership will leave the contract without an owner, thereby removing any functionality that is only available to the owner."
      },
      "transferOwnership(address)": {
        "details": "Transfers ownership of the contract to a new account (`newOwner`). Can only be called by the current owner."
      }
    },
    "version": 1
  },
  "userdoc": {
    "kind": "user",
    "methods": {},
    "version": 1
  }
}